:020000040800F2
:10000000581100209D020008A5020008A702000860
:10001000A9020008AB020008AD02000800000000C1
:1000200000000000000000000000000005020008C1
:10003000B10200080000000049020008850600081F
:10004000B7020008B7020008B7020008B7020008AC
:10005000B7020008B7020008B7020008B70200089C
:10006000B7020008B7020008B7020008B70200088C
:10007000B7020008B7020008B7020008B70200087C
:10008000B7020008B7020008B7020008000000002D
:10009000000000000000000000000000B70200089F
:1000A000B7020008B7020008B7020008B70200084C
:1000B000B7020008B7020008B7020008B70200083C
:1000C000B7020008B7020008B7020008B70200082C
:1000D000B7020008B7020008B7020008B70200081C
:1000E000B7020008B7020008B702000800000000CD
:1000F0000000000000000000000000000000000000
:1001000000000000000000000000000000000000EF
:1001100000000000000000001D070008B7020008F2
:1001200000F002F800F05EF80AA090E8000C8244AB
:100130008344AAF10107DA4501D100F053F8AFF288
:10014000090EBAE80F0013F0010F18BFFB1A43F0B5
:10015000010318470C0F00002C0F000010F8013BA2
:100160000A4413F0030408BF10F8014B1D1108BF27
:1001700010F8015B641E05D010F8016B641E01F8D5
:10018000016BF9D1002D15D010F8014B03F00C03D1
:100190000C2BA1EB04040ABF10F8013BA4EB831461
:1001A000A4EB032405F1010314F8016B5B1E01F8B5
:1001B000016BF9D5914238BF10F8013BD1D370479C
:1001C0000023002400250026103A28BF78C1FBD860
:1001D000520728BF30C148BF0B6070471FB51FBD15
:1001E00010B510BD00F07DF81146FFF7F7FF00F0E5
:1001F000F7FA00F09BF803B4FFF7F2FF03BC00F03E
:10020000A3F80000224B19680868B0E8F00F80F3EB
:100210000988BFF36F8F4FF0000080F311884EF014
:100220000D0E70470000000006480068006880F36B
:10023000088862B661B6BFF34F8FBFF36F8F00DFE0
:1002400000BF00BF08ED00E0EFF30980BFF36F8F40
:100250000F4B1A6820E9F00F106008B54FF0BF008F
:1002600080F31188BFF34F8FBFF36F8F00F072FDE3
:100270004FF0000080F31188BDE808401968086855
:10028000B0E8F00F80F30988BFF36F8F704700BFAD
:10029000F0010020EFF30580704700000948804717
:1002A00009480047FEE7FEE7FEE7FEE7FEE7FEE758
:1002B000FEE7FEE7FEE7FEE704480549054A064B70
:1002C00070470000B906000821010008580B002003
:1002D00058110020580D0020580D0020704770471D
:1002E0007047754600F02CF8AE4605006946534647
:1002F00020F00700854618B020B5FFF7DDFFBDE808
:1003000020404FF000064FF000074FF000084FF07C
:10031000000B21F00701AC46ACE8C009ACE8C0090D
:10032000ACE8C009ACE8C0098D46704710B504467A
:10033000AFF300802046BDE81040FFF75CBF00002F
:1003400000487047F40A002001491820ABBEFEE7C0
:1003500026000200704700000848806940F0100045
:10036000064988610648406820F00C00044948604E
:100370000846406840F001004860704700100240A5
:10038000001001404848806940F400604649886197
:100390000846806940F0040088610846806940F0A2
:1003A000080088610846806940F0010088613F4884
:1003B000006820F440603D4908600846006840F449
:1003C000006008600846006820F440700860084635
:1003D000006840F4407008603548006820F04040F4
:1003E000334908600846006840F00040086008464D
:1003F000006820F0405008600846006840F0405017
:10040000086040F2DF102B4908804FF47A70091D14
:10041000088028482838008820F440702549283969
:1004200008804FF4FA7023491431088021480838B5
:10043000008840F4A0601F490839088008460088F9
:1004400020F400600880081F008820F07000091F59
:1004500008800846008840F06000088015481C307D
:10046000008820F0FF0013491C31088008460088EE
:1004700040F0070008800846008840F440400880AB
:100480000C482838008820F010000A4928390880D4
:100490000846008820F0600008800846008840F088
:1004A000010008807047000000100240040801406D
:1004B000040C0140282C01403C48C06940F0010078
:1004C0003A49C8610846806940F0040088610846DE
:1004D000806940F0010088613548006820F00C0018
:1004E000334908600846006840F008000860084684
:1004F000006820F0030008600846006840F0030030
:1005000008600846006820F0C000086008460068DF
:1005100040F0800008600846006820F03000086065
:100520000846006840F0300008600020C9040885D3
:100530004FF47A708885002088861E4908804FF025
:100540008040008C40F001004FF080410884084654
:10055000008C20F0020008840846008C40F0100057
:1005600008840846008C20F0020008840846008BAE
:1005700047F2700188434FF0804108830846008BA2
:1005800046F2600108434FF0804108830846008826
:1005900020F0100008800846008820F060000880E5
:1005A0000846008840F001000880704700100240B3
:1005B00000080140382C014000B5FFF7E3FEFFF7CB
:1005C0007BFF00F0E5F800BD2B48006840F4803068
:1005D0002949086000BF2848006800F4003000285E
:1005E000F9D0132025490860234840682249486013
:1005F00008464068486008464068486008464068C9
:1006000020F4701048600846406820F4803048604C
:100610000846406820F4003048600846406840F4CE
:10062000803048600846406840F400304860084622
:10063000406840F4801048600846006840F08070D0
:10064000086000BF0C48006800F000700028F9D076
:100650000948406820F003000749486008464068A0
:1006600040F00200486000BF0348406800F00C0002
:100670000828F9D170470000001002400020024015
:100680007047000010B500BFBF2080F31188BFF392
:100690004F8FBFF36F8F00BF00F0E2FB18B14FF038
:1006A00080500449086000BF002080F3118800BF1B
:1006B00010BD000004ED00E010B51448006840F0E3
:1006C00001001249086008464068114908400F4976
:1006D0004860084600680F4908400C490860084611
:1006E000006820F4802008600846406820F4FE007E
:1006F00048604FF41F0088600020C862FFF7C0FF09
:100700004FF000600449086010BD00000010024076
:100710000000FFF8FFFFF6FE08ED00E01848008A31
:1007200020F00100164908821648007838B91648AA
:100730001649098830F811004FF080418886114829
:100740000078012807D110481049098830F81100B5
:100750004FF0804108870D480088401C0B490880F5
:1007600008460088F02809DB00200880054800784A
:1007700008B9012000E0002002490870704700001D
:1007800000100040E201002000000020E0010020F5
:100790001148C06940F010000F49C86100200F499E
:1007A00008854FF47A7088850846808940F00100FA
:1007B00088810846008840F001000880362000F05B
:1007C0001F02012191404209920002F1E022C2F889
:1007D000001100BF704700000010024000100040F0
:1007E0001CB5FFF7F1FEFFF7B7FDFFF7E5FE62B6B8
:1007F0000020012103462022CDE9001003A1044876
:1008000000F0FEFA00F06CFA00BFFEE74C45440031
:10081000910C00082DE9F04105460E461648076880
:1008200016480068001D00F0BDF9681C38B936B1E3
:1008300012480168091D124800F0F2F91AE07C190B
:100840000E4800684460BC4207D20C480168091D8C
:100850000C48006800F0CAF90CE008480168091D5E
:100860000948006800F0C2F908480068844201D2D3
:1008700006480460BDE8F08104020020F001002079
:10088000E00A0020F8010020F401002020020020EE
:1008900010B5044600F0D0F922480068401C2149F8
:1008A00008602148006840B91F4804600846006895
:1008B00001280DD100F0D4F80AE01C48006838B9CE
:1008C00019480068C06AE16A884201D81648046085
:1008D00017480068401C164908601649E06A096814
:1008E000884202D91349E06A0860E16A01EB81019C
:1008F000114A02EB8100211D00F092F900F0AEF9DF
:100900000A48006868B108480068C06AE16A88421D
:1009100007D24FF0805009490860BFF34F8FBFF3F3
:100920006F8F10BD00020020F00100200C0200209B
:100930001C020020080200202C0A002004ED00E028
:1009400070B523E000F0FEF91348006808B90120F3
:1009500000E00020054600F00FFBBDB900F06CF987
:100960000D48C068C468201D00F01CF90B480068E1
:10097000401E0A4908600A480068401E084908608D
:1009800000F06CF9204600F00DF800BF0448006844
:100990000028D7D170BD0000CC0A00200002002042
:1009A000FC01002010B50446206B00F067F92046DA
:1009B00000F064F910BD000000BFFFF7C1FF06485A
:1009C00000680128F9D94FF0805004490860BFF34E
:1009D0004F8FBFF36F8FF0E72C0A002004ED00E08B
:1009E0002DE9FF5F80460E469146DDE90E7A109CA8
:1009F000A9F10100216B01EB800B2BF0070B002507
:100A000007E0715D04F134004155705D00B902E00A
:100A10006D1C102DF5D300BF002143200155052F7B
:100A200000D30427E762201D00F0DDF804F1180070
:100A300000F0D9F82461C7F10500A06164620020CC
:100A4000606484F8480041465846039A00F098F8DC
:100A50002060BAF1000F01D0CAF80040BDE8FF9F46
:100A600010B5002407E004EB84010F4A02EB81007B
:100A700000F0ACF8641C052CF5D30C4800F0A6F887
:100A80000B4800F0A3F80B4800F0A0F80A4800F06B
:100A90009DF80A4800F09AF804480949086004489B
:100AA0000849086010BD00002C0A0020900A0020B0
:100AB000A40A0020B80A0020CC0A0020E00A002086
:100AC000F4010020F80100200A490968096809B901
:100AD000012100E0002121B14FF0FF31064A1160F1
:100AE00006E004490968C968C868034A416811609A
:100AF00070470000F40100202002002000BFBF204A
:100B000080F31188BFF34F8FBFF36F8F00BF00BF1B
:100B1000FEE7000070B50446002504F0070020B190
:100B200004F00700C0F10800044400F00BF911487C
:100B3000006820B9104820F007000E4908600F48EF
:100B400000682044B0F5FF6F10D20C4800682044C4
:100B50000A490968884209D90648006807490968AE
:100B600045180648006820440449086000F004FA6B
:100B7000284670BDE801002034020020E401002076
:100B8000001F4FF080730360001F21F0010303601A
:100B9000001F034B036014380260203870470000C8
:100BA000FD0A000801460A69D1E901309860D1E9DF
:100BB000010358605068884201D188685060002065
:100BC00008611068401E10601068704700F108014D
:100BD00041604FF0FF31816000F10801C1600161A7
:100BE00000210160704700210161704710B5024685
:100BF0000B685C1C0CB9106907E002F1080000E00A
:100C00004068446824689C42FAD944684C604C6847
:100C1000A160886041600A611468641C146010BDA2
:100C200042684A6093688B6093685960916008617C
:100C300003685B1C0360704700BFBF2080F311880E
:100C4000BFF34F8FBFF36F8F00BF03480068401C96
:100C50000149086070470000EC0100200648006868
:100C6000401E054908600846006820B9002080F34E
:100C7000118800BF00BF7047EC010020704745F6A7
:100C8000BF504FF0E0214861072008617047000025
:100C900009E00548C06880F480700349C8604FF4DB
:100CA0007A7000F003F8F4E70010014070B50446D4
:100CB000002544B100F046F800212046FFF7AAFDC8
:100CC00000F05AF905463DB94FF0805003490860DD
:100CD000BFF34F8FBFF36F8F70BD000004ED00E0D6
:100CE0001CB5114800210B462022CDE900100FA1B0
:100CF000104800F085F80446012C14D100BFBF2035
:100D000080F31188BFF34F8FBFF36F8F00BF4FF099
:100D1000FF3009490860012008490860002008499F
:100D2000086000F053F81CBD2402002049444C45E3
:100D300000000000B9090008200200200C02002079
:100D40000402002002480068401C01490860704706
:100D5000280200201848006818B1012017490860CF
:100D600028E00020154908601548016800E0491E88
:100D700001EB8100134A52F8200008B9012000E07D
:100D800000200028F3D101EB81020E4B03EB82001F
:100D900042685268426000F108024368934202D1FF
:100DA0004268526842604268D268074B1A60044841
:100DB000016000BF704700002802002014020020DC
:100DC000080200202C0A0020F001002010B50A487B
:100DD000006840F47F00084908600846006840F059
:100DE0007F400860FFF74BFF002004490860FFF7D1
:100DF0001BFA002010BD000020ED00E0EC010020F7
:100E00002DE9FF4F85B0804689461746DDE912ABD4
:100E1000B800FFF77FFE064656B14C20FFF77AFE7A
:100E200004460CB1266304E03046FFF727FF00E0DC
:100E300000247CB10020CDE900ABCDE902403A4668
:100E400049464046089BFFF7CBFD2046FFF720FDB3
:100E5000012501E04FF0FF35284609B0BDE8F08FCD
:100E60002DE9F041002739480068002862D1384850
:100E70000068451C364805608DB93648D0F80080BA
:100E800035480068334908603348C0F8008033486B
:100E90000068401C31490860FFF716FE00BF30486B
:100EA000006885423AD300BF2A480068006808B944
:100EB000012000E0002020B14FF0FF3028490860F9
:100EC0002BE024480068C068C4686668B54202D256
:100ED0002348066021E0201DFFF764FEA06A18B1D8
:100EE00004F11800FFF75EFE1E49E06A09688842B7
:100EF00002D91C49E06A0860E16A01EB81011A4AE3
:100F000002EB8100211DFFF78BFE1849E06A09689A
:100F1000C96A8842C8D30127C6E700BF13480068E2
:100F2000C06A00EB8000104951F82000012800D968
:100F3000012704E00E480068401C0D4908600D4878
:100F4000006800B101273846BDE8F0812802002082
:100F500004020020F4010020F80100201802002003
:100F600020020020080200202C0A0020F0010020AE
:100F7000100200201402002070B500240026FFF7A4
:100F80005BFE2E480068401E2C4908600846006839
:100F900000284ED12A48006800284AD023E029487A
:100FA000C068C46804F11800FFF7FCFD201DFFF7BE
:100FB000F9FD2549E06A0968884202D92249E06AB8
:100FC0000860E16A01EB8101204A02EB8100211DEA
:100FD000FFF726FE1E49E06A0968C96A884202D303
:100FE00001201C4908601748006808B9012000E08A
:100FF00000200028D3D00CB1FFF766FD1648056825
:1010000065B100BFFFF72CFF10B101201149086046
:101010006D1E002DF6D100200F4908600D480068B4
:1010200038B1012630070D490860BFF34F8FBFF379
:101030006F8FFFF713FE304670BD000028020020BE
:1010400000020020B80A0020080200202C0A00201C
:10105000F0010020140200201002002004ED00E046
:1010600080100008000000202C0200005C01000835
:101070002C1200082C0200202C0F0000C0010008D8
:1010800090EC00000D001A002700340041004E00D3
:101090005B006800750082008F009C00C400B600F1
:1010A000C300CF00DC00E900F60002010F011C01C3
:1010B0002801350141014D015A01660172017E018D
:1010C0008A019601A201AE01BA01C501D101DD017B
:1010D000E801F401FF010A02150220022B02360288
:1010E00041024B02560260026B0275027F028902C6
:1010F00093029D02A602B002B902C302CC02D5023D
:10110000DE02E702EF02F8020003090311031903EC
:1011100021032903300338033F0346034D035403DF
:101120005B03620368036E0374037B03800386031F
:101130008C03910396039B03A003A503AA03AE03AC
:10114000B203B703BB03BE03C203C503C903CC0389
:10115000CF03D203D403D703D903DB03DD03DF03BB
:10116000E103E203E303E403E503E603E70212E637
:101170001212E41A12E22212DF2A12DB3212D73ADA
:1011800012D24212CC4A12C55212BE5A12B7621281
:10119000AE6A12A572129B7A12918212868A127B13
:1011A00092126E9A1262A21254AA1246B21238BA5F
:1011B0001229C21219CA100609030003F8DA12E74D
:1011C000E212D5EA12C3F212B0FA169D0216890A8B
:1011D00016751216601A164B2216362A162032146D
:1011E000040A02FF3E16E84616D14E16BA5616A25B
:1011F0005E168A6616726E165A7616417E16288616
:1012000014060F010201F69616DC9E16C3A616C43C
:10121000AE168FB61675BE165BC61641CE1627D60D
:0C122000C30D000112AA010239000100F8
:040000050800029D50
:00000001FF
