:020000040800F2
:1000000000100020C1670008A1290008A3290008EA
:1000100000000000000000000000000000000000E0
:10002000000000000000000000000000A5290008FA
:100030000000000000000000A7290008A92900080E
:10004000116800080000000011680008B1290008CC
:10005000B929000811680008116800081168000833
:100060000000000011680008BD290008D52900081B
:10007000E5290008F52900081168000800000000C3
:10008000512A00080000000000000000312B000889
:10009000000000006D2C00081168000811680008BD
:1000A000000000001168000800000000612E000838
:1000B0000000000000000000000000000000000040
:1000C00010B5064C2378002B07D1054B002B02D02E
:1000D000044800E000BF0123237010BDB0020020DF
:1000E00000000000FC700008044B10B5002B03D08A
:1000F0000349044800E000BF10BDC04600000000F6
:10010000B4020020FC70000802B47146490849009E
:10011000095C49008E4402BC7047C0460022430877
:100120008B4274D303098B425FD3030A8B4244D3BF
:10013000030B8B4228D3030C8B420DD3FF22090201
:1001400012BA030C8B4202D31212090265D0030BC0
:100150008B4219D300E0090AC30B8B4201D3CB03B6
:10016000C01A5241830B8B4201D38B03C01A5241F8
:10017000430B8B4201D34B03C01A5241030B8B42FA
:1001800001D30B03C01A5241C30A8B4201D3CB02E5
:10019000C01A5241830A8B4201D38B02C01A5241CA
:1001A000430A8B4201D34B02C01A5241030A8B42CD
:1001B00001D30B02C01A5241CDD2C3098B4201D3E5
:1001C000CB01C01A524183098B4201D38B01C01A63
:1001D000524143098B4201D34B01C01A52410309DA
:1001E0008B4201D30B01C01A5241C3088B4201D389
:1001F000CB00C01A524183088B4201D38B00C01A36
:10020000524143088B4201D34B00C01A5241411A5C
:1002100000D20146524110467047FFE701B5002069
:1002200000F006F802BDC0460029F7D076E7704717
:100230007047C046D0400B1CD1409C46203AD3406A
:100240001843524263469340184370478446081C43
:100250006146FFE71FB500F08BFB002801D40021A9
:10026000C8421FBD10B500F01DFB4042013010BD5B
:1002700010B500F07DFB002801DB002010BD01203F
:1002800010BDC04610B500F073FB002801DD002052
:1002900010BD012010BDC04610B500F029FB00289C
:1002A00001DC002010BD012010BDC04610B500F0DB
:1002B0001FFB002801DA002010BD012010BDC04640
:1002C0009E2110B5C905041CFFF7F0FF002803D1DB
:1002D000201C00F04BFE10BD9E21201CC90500F023
:1002E000A9FC00F043FE80231B069C466044F2E715
:1002F000F0B5C6464E024702760A7B0A4400C50F97
:10030000F7004800984600B5240E2A00DB00000ED6
:10031000C90FBC468D4267D0221A002A00DCA5E036
:1003200000283AD1002F00D193E0511E002900D0BF
:10033000BCE00124DB1B5A0146D59B019E0930001D
:1003400000F0CAFE05388640844200DD9DE0041BB3
:10035000320020200134E240041BA64033005E1E20
:10036000B341002413435A0704D00F221A40042A31
:1003700000D004335A0129D50134FF2C00D181E08B
:100380002A009B015B0AE4B25B02E405580AD2072B
:100390002043104304BC9046F0BDFF2CE3D08021E5
:1003A0003800C904084384461B2A00DD82E020206F
:1003B0006146D140821A604690400200501E824140
:1003C0000A439B1A5A01B8D45A07CED1DE082A0034
:1003D000FF2C3AD1002E00D1AEE08023DB03334363
:1003E0005B025B0AFF24CFE7211A002952DD0028B7
:1003F00031D0FF2CB7D080203E00C0040643B44665
:100400001B2900DDAAE020266046C840711A664616
:100410008E4031004E1EB14101435B185901D3D5C6
:100420000134FF2C00D187E0012278491A405B0893
:100430000B40134397E7002C00D0A7E0002B00D01F
:10044000B6E03B1E62D10026002273025B0AE4B2D2
:100450009AE7140087E7002F4DD0481E002857D197
:10046000634401245A01AFD50224DDE7002A24D1D8
:10047000621CD2B2012ADEDDDE1B720135D5FE1A06
:100480000D005CE72A0000237EE73300604A241A4F
:10049000134068E7002963D1611CC8B201284EDD12
:1004A000FF2949D063445B080C005CE7FF2A41D078
:1004B0000A0079E701229B1A84E7002C1DD0FF284F
:1004C00022D08024E404524223431B2A00DD8AE028
:1004D0001C002025D440AA1A93405A1E934123435E
:1004E00062460400D31A0D0025E7002E00D026E74F
:1004F00000220024A9E70C0035E7002B4DD0D243A1
:10050000002AEDD0FF28E0D16346FF240D002AE742
:10051000FF290FD0010073E7002B61D0FF24002FCB
:1005200000D120E780224146D203114202D0164278
:1005300000D13B00FF2416E7FF24002324E7002C12
:10054000EAD1002B58D0002F00D10CE763445A01A8
:1005500000D439E72E4A0C00134004E701215CE780
:10056000002C1ED1002B40D0C94300290BD0FF28FE
:1005700036D01B2947DC1C002026CC40711A8B404A
:10058000591E8B4123436344040047E7002B18D1D5
:100590003B1E2DD00D00FF24E5E63B0004000D00BE
:1005A000E1E6FF281CD08024E40449422343E0E72D
:1005B000002F00D1D7E6DE1B72011FD5FB1A0D00FC
:1005C000D1E6FF24002F00D1CDE680224046D203A1
:1005D0001042AFD01642ADD13B000D00FF24C2E661
:1005E0006346FF24BFE601237AE73B000400BAE636
:1005F00080260022F603F0E63B00B4E6331E00D06E
:10060000E2E6002221E70123BDE7C046FFFFFF7DB0
:10061000FFFFFFFBF0B557464E46DE464546E0B5C8
:1006200044024300C60F83B00F1C640A1B0EB2467F
:1006300053D0FF2B27D08022E400D20414437F2222
:10064000524290469844002399469B467D0278008A
:10065000FB0F6D0A000E009324D0FF2846D08023A4
:100660000021ED00DB041D437F384746381A4F4612
:100670000F43BF00B9463300009A874F53404A46A4
:10068000BA5801939746002C4ED108239946F73368
:100690009846FD3B9B467D027800FB0F6D0A000EDD
:1006A0000093DAD1002D26D1002001213300009AD9
:1006B0007A4F53404246101A4A460A439200BA58AB
:1006C0001D009746009B2C009A468B465B46022BEA
:1006D00031D15346FF21002438E0002C17D10423E8
:1006E00099460023984601339B46AFE7FF20002D33
:1006F0000BD10221DAE7280000F0EEFC431F9D40F9
:1007000076235B42181A0021AFE70321ADE72000F2
:1007100000F0E2FC431F9C4076235B421B1A984684
:10072000002399469B4691E70C239946F33398465C
:10073000FC3B9B468AE7032B00D1A5E05546012BE5
:1007400000D081E00123002100242B406402C90570
:10075000600ADB070843184303B03CBC9046994647
:10076000A246AB46F0BD80240023E403FF21EDE761
:10077000FF210024EAE70123591A1B2966DD019AAB
:10078000134000210024E1E78023DB031C4238D022
:100790001D4251D01C436402640A3300FF21D5E797
:1007A00063016C01A3423BD21B26002101380125C5
:1007B0001F0049005B00002F01DB9C4201D81B1B7E
:1007C0002943013E002EF3D11C00631E9C410C43C3
:1007D00001007F310029CEDD630704D00F232340C1
:1007E000042B00D00434230103D501002C4B8031AD
:1007F0001C40FE290DDD0123019AFF211340002436
:10080000A4E78023DB031C436402640A3300FF2156
:100810009CE70123019AA401640AC9B2134095E739
:100820001B1B1A260121C2E7009B8B469A46002417
:100830004CE76302E5D500258024E4032C436402E1
:10084000640A009BFF2181E70195C1E72300202076
:10085000CB40411A8C40611E8C411C43630704D07D
:100860000F232340042B00D00434630105D501235A
:10087000019A01211340002468E70123019AA40191
:10088000640A1340002161E78023DB031C436402F8
:10089000640A5346FF2159E7347100087471000857
:1008A000FFFFFFF770B5420045024E024C00C30F38
:1008B0006D0A120E760A240EC90F0120FF2A06D0F7
:1008C000FF2C03D0A24201D1B54206D070BD002D4D
:1008D000FCD1FF2CFAD1002EF8D18B4206D001209A
:1008E000002AF3D12800451EA841EFE70020EDE7DC
:1008F000F0B5420045024C02C30F48006D0A120ECB
:10090000640A000EC90FFF2A1ED0FF2821D0002A3A
:100910000AD16E426E41F6B200280FD1002C0DD1E3
:100920000020002D09D005E0002801D1002C01D0C5
:100930008B4211D0012158420843F0BD002EF7D060
:10094000012001390843F8E7002DDED002204042A3
:10095000F3E7002CDBD0F9E78242EBDC04DBA542B5
:10096000E8D80020A542E8D20121581E0843E4E758
:10097000F0B542004D024C004602760A120EC30F3B
:100980006D0A240EC90FFF2A16D0FF2C18D0002A9A
:100990000AD170427041C0B2002C15D0002805D099
:1009A000012001390843F0BD002C13D0994214D026
:1009B00001205B421843F6E70220002EF3D1E4E762
:1009C0000220002DEFD1E2E7002DE7D10020002E1C
:1009D000E9D0EDE7002DE9D1EAE7A24206DCDFDB52
:1009E000AE4203D80020AE42DAD3DCE70120494210
:1009F0000843D8E7F8B557464E464546DE46E0B5CB
:100A00004702460088467F0A360EC40F002E47D0A4
:100A1000FF2E24D0FB008027FF041F4300239946AC
:100A20009A467F3E43465D025800DB0F6D0A000E7A
:100A3000984643D0FF283BD0EB0080250022ED04F0
:100A40001D437F383618731C41469B464B46614018
:100A500013430F2B64D875489B00C3589F46002F43
:100A600042D108239946063BFF269A46DAE74146DB
:100A7000022A28D0032A00D1CEE0012A00D0ACE01F
:100A8000114000200022CCB24002D205400AE40707
:100A9000104320433CBC90469946A246AB46F8BD65
:100AA000002F15D104239946033B00269A46B9E747
:100AB000FF200222002DC5D00322C3E7002D19D14B
:100AC00000200122BEE70124FF220C400020DBE7CA
:100AD000380000F001FB7626431F9F40002376423A
:100AE000361A99469A469DE70C239946093BFF26FC
:100AF0009A4697E7280000F0EFFA431F9D407623BF
:100B00005B42181A00229DE780200024C003FF22C8
:100B1000BAE73D005246ABE73D0021005246A7E749
:100B20003B0C9C462A04120C2B0C140060466546B4
:100B30003F043F0C7C4342435D437B43270C9B189F
:100B4000FF18BA4203D980235B029C466544240403
:100B50003A04240C121993015C1EA3413F0C920E1F
:100B60007D191A43AD0115432B0104D501235E46BF
:100B70006A081D40154332007F32002A25DD6B07CD
:100B800004D00F232B40042B00D004352B0103D5B8
:100B90003200274B80321D40FE2A94DC0124A8013C
:100BA000400AD2B20C406FE78020C003074207D052
:100BB000054205D128434002400A4446FF2263E72C
:100BC00038434002400AFF225EE70124A31A1B2B90
:100BD00005DD0C400022002056E75E46CBE72A00E8
:100BE0002020DA40C31A9D402B005D1EAB41134309
:100BF0005A0704D00F221A40042A00D004335A01A5
:100C000004D5012401220C4000203DE701249B0172
:100C1000580A0C40002237E780200124C0032843F3
:100C20004002400A0C40FF222EE7C046B471000883
:100C3000FFFFFFF7F0B54F46D64646464400C0B525
:100C4000C20F47024802400A844666467B0A4800B3
:100C5000C90F9A46240E1500DB00000E8946F600E7
:100C6000FF2800D18FE001214F464F4039009142CB
:100C700066D0221A002A00DC9DE000283DD1002E1B
:100C800000D18BE0511E002900D0B5E001249B1B50
:100C90005A0144D59B019F09380000F01DFA053820
:100CA0008740844200DD96E0041B3A002020013496
:100CB000E240041BA7403B005F1EBB4100241343DE
:100CC0005A0704D00F221A40042A00D004335A01D4
:100CD00027D50134FF2C00D179E001229B015B0A6A
:100CE000E4B22A405B02E405580AD20720431043CD
:100CF0001CBC90469946A246F0BDFF2CE0D0802156
:100D0000C9040E431B2A7BDC31002020D140821A0B
:100D10009640721E96410E439B1B5A01BAD45A0745
:100D2000D0D10122DF082A40FF2C33D1002F00D17F
:100D3000A8E08023DB033B435B025B0AFF24D1E78F
:100D4000211A00294CDD00282AD0FF2CB8D08020A1
:100D5000C00406431B2900DDAFE030002027C84057
:100D6000791A8E40711E8E4106439B195901D6D5C2
:100D70000134FF2C00D185E001227A491A405B083A
:100D80000B4013439CE7002E00D070E76BE73B1E3F
:100D9000C5D100227B025B0AE4B2A3E714008FE70F
:100DA000002E4DD0481E002857D19B1901245A010E
:100DB000B5D50224E0E7002A25D1621CD2B2012A6F
:100DC00072DD9F1B7A0135D5F71A0D0064E7012209
:100DD00000232A4086E73B00634A241A13406FE74A
:100DE00000296CD1611CC8B201284EDDFF2949D011
:100DF0009B195B080C0063E7FF2A41D00A0081E7DA
:100E000001269B1B89E7002C1CD0FF2821D08024C1
:100E1000E404524223431B2A00DD96E01C002025F7
:100E2000D440AA1A93405A1E93412343F31A040054
:100E30000D002DE7002F00D02EE700220024A9E7A7
:100E40000C003DE7002B58D0D243002AEED0FF28FB
:100E5000E1D13300FF240D0032E7FF2910D001005B
:100E600078E7002B6ED0FF24002E00D128E78022E7
:100E70005146D203114203D06146114200D13300E2
:100E8000FF241DE7FF2400232CE7002CE9D1002BD1
:100E900063D0002E00D113E79B195A0100D43EE71E
:100EA000314A0C0013400BE7002C1ED1002B2FD130
:100EB000002E4FD033000D0002E7012655E7002C2D
:100EC0001FD1002B43D0C94300290BD0FF2839D0B4
:100ED0001B2944DC1C002027CC40791A8B40591E6A
:100EE0008B4123439B19040040E7002B1AD1002EAD
:100EF00024D180270022FF031BE7330004000D00EC
:100F0000DEE6FF281ED08024E40449422343DFE7C5
:100F1000002E00D1D4E69F1B7A0100D437E7F31AE4
:100F20000D00CDE6FF24002E00D1C9E680225046F8
:100F3000D2031042A4D060461042A1D133000D006C
:100F4000FF24BDE63300FF24BAE601236EE7330039
:100F50000400B5E6002700221CE73300B0E60123B9
:100F6000C0E7C046FFFFFF7DFFFFFFFB41024300DC
:100F7000C20F490A1B0E00207E2B0DDD9D2B0CDCC1
:100F8000802000040143952B0ADC9620C31AD94027
:100F90004842002A00D108007047034BD018FBE7F5
:100FA000963B9940F4E7C046FFFFFF7F70B50028ED
:100FB00030D0C317C4185C40C50F200000F08CF877
:100FC0009E231B1A962B0DDC9622D21A94402A00DF
:100FD0006402640ADBB26402DB05600AD2071843CC
:100FE000104370BD992B19DC9922D21A002A29DDF1
:100FF00094402200144C1440510704D00F210A40A1
:10100000042A00D00434620113D4A401640ADBB2C0
:101010002A00E0E7002200230024DCE7052221006B
:10102000121AD140B922D21A9440621E94410C4344
:10103000DAE7054B2A001C409F23A4011B1A640A0F
:10104000DBB2C8E72200D5E7FFFFFFFB10B5041EA7
:1010500027D000F041F89E231B1A962B0ADC96221B
:10106000D21A94406402640ADBB26402DB05600AAF
:10107000184310BD992B17DC9922D21A002A27DDBC
:1010800094402200134C1440510704D00F210A4011
:10109000042A00D00434620112D4A401640ADBB231
:1010A000E3E700230024E0E7B9222100D21A9140AF
:1010B0000A00511E8A410521091ACC401443DBE77E
:1010C000044B1C409F23A4011B1A640ADBB2CCE72B
:1010D0002200D7E7FFFFFFFB1C2101231B049842DE
:1010E00001D3000C10391B0A984201D3000A0839B9
:1010F0001B09984201D30009043902A2105C401870
:101100007047C04604030202010101010000000013
:101110000000000030B585B00C22002101A805F0C8
:10112000A6FB04221F4C204B6261C22201252360D2
:101130000023FF3220006360A360E3602561A361A8
:10114000E36125626362A262E3622563636302F086
:10115000ABF9002801D001F009FC80235B01029368
:10116000072301A920000195039302F009FC002840
:1011700001D001F0FBFB022301A92000019302F042
:10118000FFFB002801D001F0F1FB052301A920009D
:10119000019302F0F5FB002801D001F0E7FB05B058
:1011A00030BDC046DC0300200024014070B50500BE
:1011B00088B01422002103A805F059FB204B2A68AF
:1011C0009A423BD180201F4980008A6980260243D1
:1011D0008A618B697600034080200193019B4A69F4
:1011E000800202434A614B6903A903400293029BB8
:1011F00090202623C0050393233B049303F068F853
:10120000114C124B2000236000236360A3608033E5
:10121000E3608023DB0063612023A36180235B0103
:101220002661E36102F01CFD002801D001F09EFB65
:10123000074A136833431360EC63656208B070BDFE
:101240000024014000100240980300201C000240CE
:101250000000014010B50C4B0C4C23600023200013
:10126000237163716361A3610133236202F09CFC0B
:10127000002801D001F07AFB200002F0EFFC0028EA
:1012800001D001F073FB10BD0030024028040020A3
:10129000074B026882B09A4208D14020054A516942
:1012A00001435161536903400193019B02B07047B0
:1012B000003002400010024010B5032202490348EA
:1012C00002F026FA10BDC04658040020DC030020BE
:1012D00000231F4A10B513601E4A1F4913601F4A9E
:1012E000002013601E4A1F4C136001220A604A60EE
:1012F0008A60CA601C490A600021206061601B4C42
:1013000022601B4A106051601A4A13601A4A136027
:101310001A4A13601A4A13601A4A13601A4A136071
:101320001A4A13601A4A13601A4A13601A4A136061
:101330001A4A13601A4A13601A4A13601A4A136051
:101340001A4A13601A4A13601A4A138010BDC04625
:10135000280000202C000020380000203000002051
:10136000340000202003002048000020000000205E
:1013700008030020E0020020E802002064030020AF
:10138000680300206C030020700300207C03002011
:1013900080030020840300208803002058030020DD
:1013A0007803002054030020740300203803002039
:1013B00034030020CC02002010B5884224D9401A02
:1013C000FFF744FE1449FFF715FBFE218905FEF7E0
:1013D0008FFF1249041CFEF75FFF002819D1104946
:1013E000201CFEF745FF002800D00D4C201C10BD2E
:1013F000081AFFF72BFE0849FFF7FCFA011CFE2034
:101400008005FFF717FCE4E78842F1D3FE24A4052A
:10141000ECE7024CEAE7C0469A999939CDCCCC3F2B
:10142000CDCCCC3E70B5051C0C1CFEF721FF00286E
:101430000DD00F49281CFEF75BFF051C011C201C6A
:10144000FEF720FF002800D12C1C201C70BD211CA1
:10145000281CFEF721FF0028F6D00549281CFFF7BD
:10146000E9FB051C011C201CFEF720FFEAE7C04633
:10147000A69BC43B802310B5DB05834205DC00221C
:101480000324002B03D190B210BD9B10F5E7D118B7
:10149000884201DB401A5A18D10F8A18D917214007
:1014A000CB1852109B10ECE70C4B70B518680C4B26
:1014B0001968FEF733FE0B4C20602068FFF7DAFF57
:1014C000094B206020681D68FFF7C0FD291CFFF74D
:1014D00091FAFEF7F5FE206070BDC046580300206B
:1014E0005403002000030020040000200C4B70B5C2
:1014F00018680C4B1968FEF711FE0B4C2060206831
:10150000FFF7B8FF094B206020681D68FFF79EFDBC
:10151000291CFFF76FFAFEF7D3FE206070BDC046AE
:1015200078030020740300201C0300204C000020DE
:10153000044B10B51868044B1968FEF7EFFD034B18
:10154000186010BD3803002034030020E40200209E
:101550001E4B1A88012A38D001221A801C4B1A68A7
:101560001C4B1A601C4B1A681C4B1A601C4B1A68E7
:101570001C4B1A601C4B1A681C4B1A601C4B1D4AF2
:101580001968116059681C4A116099681B4A1160FA
:10159000DA681B4B1A601B4B1A685B681A4B1A609F
:1015A0001A4B1A685B681A4B1A601A4B1A681A4B66
:1015B0001A601A4B1A681A4B1A601A4B1A681A4B9F
:1015C0001A601A4B1A681A4B1A607047CC02002036
:1015D00028000020640300202C0000206803002065
:1015E000300000206C030020340000207003002035
:1015F000380000207C0300208003002084030020AA
:101600008803002008030020580300202003002046
:101610007803002000000020540300204800002030
:1016200074030020E002002038030020E8020020BC
:1016300034030020F8B56C4B1B88002B01D1FFF759
:1016400087FFFFF753FFFFF72FFFFFF771FF674C8F
:10165000674B20681968FEF761FD664D664B206098
:1016600028681968FEF75AFD644E654B286030689B
:101670001968FEF753FD634F634B30603868196893
:10168000FEF74CFD8021386020680901FFF794FEC9
:101690005E4B5F4C1860011C2068FFF7C3FE802181
:1016A000206028680901FFF787FE5A4D5A4B011C3C
:1016B00018602868FFF7B6FE8021286030680901AD
:1016C000FFF77AFE554B564E1860011C3068FFF745
:1016D000A9FE8021306038680901FFF76DFE514B8B
:1016E000514F011C18603868FFF79CFE386038685D
:1016F00031682E6825684D4C2368002B1CD1FEF7FD
:10170000F7FD311CFEF7F4FD291CFEF7F1FD4849F9
:10171000FFF770F9FEF7D4FDC723C93880B25B002C
:10172000984209D9434A136801331360FA22D20060
:10173000934201DD012323603F4A1368002B0ED141
:101740003E4B19683E4B994209D93E490B6801331B
:101750000B60FA2189008B4201DD012313603A4AB4
:101760001368002B1ED12C233849FF330868984298
:1017700002D80B68642B0AD835480368013303602C
:10178000FA204000834202DD012313600AE07C233B
:101790000968FF33994205D92D490B6801330B6065
:1017A000022BF1DC2B4A1368002B19D12A492B4B51
:1017B000086898420AD92A48036801330360FA206E
:1017C0004000834202DD0123136009E00968254BD4
:1017D000994205D922490B6801330B60022BF2DCD8
:1017E000FFF776FDF8BDC046CC0200206403002060
:1017F0007C03002068030020800300206C0300208D
:101800008403002070030020880300205000002083
:10181000180000201C000020540000205800002068
:10182000200000205C00002024000020D0020020C6
:101830000000C842D4020020DC020020E4020020A4
:10184000AB0D0000EC020020100300201C03002060
:1018500014030020F402002000030020871300007E
:10186000F8020020272300002E4A70B513682E4E80
:10187000013313602D4B59885A88346875684A4380
:101880001000D11700196941306071602849294E54
:101890000A6801320A6019881A88346875684A43F0
:1018A0001000D117001969413060716022499A888F
:1018B000086812180A60214921480A6801320A6042
:1018C000204904888D68204AAC4208DD1F491B88E6
:1018D00008681B180B60D3680133D36070BD04889F
:1018E0004D68AC4208DD1A491B8808681B180B605C
:1018F000936801339360F1E7008809681B88884288
:1019000007DD144908681B180B60536801335360E6
:10191000E4E7114908681B180B6013680133136072
:10192000DCE7C04600000020080300205804002027
:101930004800002020030020E0020020E8020020F0
:101940002A03002008000020380000203400002076
:10195000300000202C0000202800002070B50D4B26
:10196000002A01D001229A608A0814000500013C77
:1019700008D292008018032211404118884204D1F5
:10198000186870BD40CD1E60F1E7027801301A7012
:10199000F4E7C04600300240054B002A01D0012286
:1019A0009A60013901D21868704704C81A60F8E7D4
:1019B0000030024070B50B4C14220021200004F0CE
:1019C00056FF094D012228006421FFF7C7FF074990
:1019D0000200200004F054FF2800210004F072FFF0
:1019E00070BDC0461805002098040020F47100085E
:1019F00010B564220021024804F039FF10BDC04632
:101A00009804002007B5FFF7F3FF074B07491A6852
:101A1000074B08481B6809680091074904F030FF2C
:101A2000FFF7C8FF07BDC046ACF7FF1FB4F7FF1FA5
:101A3000B0F7FF1F980400200F72000810B5FFF7E1
:101A4000D7FF054B05491A88054892B204F018FFE4
:101A5000FFF7B0FF10BDC046CCF7FF1F2272000891
:101A60009804002010B5FFF7C3FF064C064920007C
:101A700004F028FF0549200004F024FFFFF79AFF37
:101A800010BDC04698040020337200083D72000863
:101A9000024A1368002BFCD07047C0464402002065
:101AA000002210B50400074B1A606322064907485C
:101AB00004F0C4FA0228F8D0002C01D0FFF7E8FFA8
:101AC00010BDC046440200209804002040070020BA
:101AD000054B026810B59A4204D10122034B1A60EB
:101AE000FFF786FF10BDC0460038014044020020C9
:101AF00010B5024802F0BEFD10BDC046A80500208A
:101B0000F0B5374B8DB01B68012B67D1FFF770FF25
:101B1000344B1B68012B0BD0334B1B68012B07D0B8
:101B2000324B1B68012B03D0314B1B68012B07D1B3
:101B3000FFF7DCFCFFF7B8FCFFF7FAFCFFF7C8FB88
:101B40002C4B1A682C4B92B219682C4B89B29C888A
:101B50002B4B0B921D682B4B254A1E682A4B126893
:101B60001F682A4B0A911868294B2A491B78099249
:101B70001D4A033B1268A4B208921A4A12680792DF
:101B80005A4253410693194B1B680593FEF732FFE7
:101B9000FEF796FB80B21F490490381CFEF72AFF1F
:101BA000FEF78EFB80B21B490390301CFEF722FF2C
:101BB000FEF786FB80B217490290281CFEF71AFF39
:101BC000FEF77EFB80B2019000940A9B0B9A1249AB
:101BD000124804F055FE0020FFF762FF0DB0F0BD83
:101BE0003C030020DC02002010030020D002002073
:101BF000F40200201C0300200003002058040020F1
:101C0000180000201C0000202000002024000020DC
:101C10002C0300200000C8424972000898040020EC
:101C20000023034A13605360024A13607047C046A2
:101C3000440300204003002010B5094C6068FFF702
:101C400005FA0849FEF7D6FE074B18602068FFF733
:101C5000FDF90449FEF7CEFE044B186010BDC046E6
:101C6000440300203333533A040000204C0000208A
:101C7000842110B5024B034A06C3FFF7DDFF10BDF8
:101C800044030020340E0000054B10B51B68002BE8
:101C900002D1FFF7EDFF10BDFFF7CEFFFBE7C04617
:101CA0004003002070B501250D4C0E4E2A00206027
:101CB0006160200008213560FFF76EFE0A4B0100CD
:101CC0001860002000F028FB2168280000F024FBA9
:101CD0006168022000F020FB0023336070BDC04625
:101CE000440300204C03002040030020F8B50124E9
:101CF000104F3C60FFF794FF0F4E0020310000F0C2
:101D0000E9FA0E4D2000290000F0E4FA291D022016
:101D100000F0E0FA280022000821FFF73DFE002530
:101D200033683D60984202D0FFF77AFF2C00200014
:101D3000F8BDC0464C0300204003002044030020AF
:101D400010B50024074B1C80FFF79EFF064B03CB0A
:101D5000FFF7A8FF0549064804F0C1FD2000FFF782
:101D60009FFE10BD400200204403002001720008C5
:101D70009804002070B5204800F030FB05001F4893
:101D800000F02CFB1E4A1388092B03D800200133D6
:101D9000138070BD022815D11A4C022D26D01A4B83
:101DA000188880B2FFF702F91849FEF723FE011CDC
:101DB0001748FEF72FFCFEF783FA2060FFF7C0FFFD
:101DC0000120E6E70020022DE3D10F4B588880B2B6
:101DD000FFF7ECF80D49FEF70DFE011C0D48FEF76C
:101DE00019FCFEF76DFA074B5860E7E7FFF740FF75
:101DF00003CCFFF757FFE1E77C04002060040020DC
:101E00004002002044030020580400203333533A9A
:101E10000000664300007A44104B11491A680A40DA
:101E2000FF211A605A6C8A435A644022596C0A4353
:101E30005A641022596C0A435A640822596C0A43A6
:101E40005A640422596C0A435A640222596C0A43A8
:101E50005A640122596C0A435A647047002C0140AD
:101E6000FFFCFFFF8022054B1201196A0A431A6228
:101E70008022196A92000A431A627047002C0140BE
:101E80008022054B520159680A435A6080225968E2
:101E900092010A435A607047002C01401021114BF7
:101EA000114A10B59A622932DA62F53AFF3ADA63DA
:101EB0001A6870208A431A60602219689143196079
:101EC000D9698143D961D9690A43DA61A022196AC3
:101ED000D2000A431A62FFF7C5FFFFF7D1FFFFF7F1
:101EE0009BFF10BD002C0140BF030000FA2310B57A
:101EF0000C4C5B00E363A023226ADB0013432362E4
:101F0000FFF7B0FFFFF7BCFFFFF786FF0123E26892
:101F10001A43E260226813432360FFF7D9F9FFF701
:101F200089FB10BD002C01400121104B1A698A4326
:101F30001A61DA688A43DA601A680D490A401A6041
:101F40008022596892010A435A605A6809490A4036
:101F50005A608022196A92000A431A621A6A064974
:101F60000A401A620022DA637047C046002C014022
:101F7000FEFF0000FFEFFFFFFFF7FFFFC023034A54
:101F80001B02516C0B4353647047C046002C014048
:101F9000044B05495A6C0A405A645A6C03490A407A
:101FA0005A647047002C0140FF7FFFFFFFBFFFFF17
:101FB00010B5FFF7E3FFFFF799FF10BD10B5FFF76E
:101FC000E7FFFFF7B1FF10BD0022084B10B51A80E4
:101FD000074B5A639A63D96801321143D960196873
:101FE0000A431A6000F0E6F810BDC0462A0300203C
:101FF000000400400121074B1A698A431A61DA681C
:102000008A43DA601A6804490A401A6000225A6357
:102010009A63704700040040FEFF0000C023034A9B
:102020001B02516C0B4353647047C04600040040D0
:10203000044B05495A6C0A405A645A6C03490A40D9
:102040005A64704700040040FF7FFFFFFFBFFFFF9F
:1020500010B5FFF7E3FFFFF7B7FF10BD10B5FFF7AF
:10206000E7FFFFF7C7FF10BDFA210122174B8900D8
:102070009A62D962002159639963196A0A431A6204
:102080000222196A0A4310211A621A6A0A431A6262
:102090002022186A02431A628022586852000243C2
:1020A0005A6080225868D20002435A609A690848F0
:1020B00002409A619869074A02439A611A688A4302
:1020C0001A601A6850318A431A6070470004004051
:1020D0008F8FFFFF60600000234B0200596A0020D1
:1020E000890005D58021586A4904014301205962BD
:1020F0001E491F4B0B600A2A21D907234B600F236F
:10210000022A24D01033032A21D01E33042A1ED0E1
:102110003E33052A1BD08433062A18D0072A1CD048
:10212000082A1CD0092A1CD00A2A06D00B2A16D04D
:102130000C2A16D000230D2A09D10E4B07E00323E9
:102140004B600233002A02D00533012AD7D18B60BD
:10215000094B0B60094B0B607047094BF7E7094BC4
:10216000F5E7094BF3E7C04600100240003000409D
:1021700055550000FF0F0000AAAA0000CCCC0000BB
:10218000FF010000FF030000FF070000FC23054AD9
:102190009B051360044A1360044A1360044A1360E9
:1021A0007047C04624000020200000201C000020B2
:1021B0001800002010B5FFF7E9FF0023064A13605E
:1021C000064A1360064A1360064A1360064A136003
:1021D000064A136010BDC046D0020020D80200207D
:1021E000D402002014030020180300201003002054
:1021F0000B4A0C4B11889868814202DD0A4B186823
:10220000704711885868814201DD084BF7E7128852
:102210001B689A4201DD064BF1E7064BEFE7C0462B
:102220002A030020080000202400002020000020B5
:102230001C00002018000020144B70B51A88EF2AEB
:1022400001D900221A801B88114A5B009C5AFFF7B3
:10225000CFFFFE218905A4B2051CFEF703F8002874
:1022600008D12000FEF7A2FE291CFEF7C3FBFEF7F3
:1022700027F884B2074B201C9C4202D9181C80B25C
:1022800070BDA3B21E2BFAD21E20F8E72A0300204D
:1022900060000020CA0300001FB501F0E9FE012321
:1022A000002403930A4B694601A80293019401F0AC
:1022B000A1FFA04208D101F0EDFE009B581C444252
:1022C0006041C0B204B010BD01F0E4FE2000F9E7A7
:1022D000007C00080023092805D8044B8000C018A2
:1022E00003680B60012318007047C046007C00089B
:1022F000411810B500230A2908DD180010BD054C4F
:1023000083001B191B68013008C280B28142F6DCD1
:102310000123F2E7007C0008F8B504000D0000205E
:10232000092C17D81B4BA400E7183B68013307D1D1
:1023300001F09EFE6B1C23D101F0ACFE012009E0F0
:10234000154E0A213200FFF7D3FF002803D101F018
:10235000A1FE0020F8BDA551FFF79EFF01F088FE09
:102360000C4C0E4B2100E318F2580220002301F020
:10237000C5FE0028EBD10A4B04349C42F1D1D7E7CB
:102380002A0000233900022001F0B8FE0028DED127
:10239000D2E7C046007C0008800500200084FFF7DB
:1023A000287C00080260009A0372C260019A002330
:1023B000026101224160037543758361C2758375B3
:1023C0004372704710B504000188406802F098F825
:1023D000237A181A431E9841C0B210BD70B504008C
:1023E000FFF7F0FFE67D050086421AD0002807D1EE
:1023F00000F0F8FF0123A061A375E57500200FE050
:1024000000F0F0FFA369E16802005B1801209A4226
:1024100003D30423E07518006372002363752375EA
:1024200070BD002EEAD100F0DDFFA36922699B1880
:10243000984208D3637D012B02D16672607AEFE780
:1024400003236372FAE700F0CDFFA369E2689B18EB
:102450009842D3D3237D012BEFD00223F1E7000074
:1024600007B50120084A51690143516153690022AF
:102470000340019311000A30019B01F02FFB0B2058
:1024800001F066FB07BDC04600100240F0B589B000
:102490001422002103A804F0EAF980208025284BAB
:1024A000C0035969AD020143596180215A69C902CB
:1024B00002400092009A5A69224E2A435A615A6990
:1024C00030002A400192019A5A6900240A435A6155
:1024D0005B6901220B400293E921029B02F022F882
:1024E00090200327184B03A9C00503930497059474
:1024F00001F0EEFE154B90200393012303A9C005C4
:102500000593049401F0E4FEE92303A9039330004A
:10251000E83B04930594069701F0DAFE102303A923
:10252000300003930497059401F0D2FE802040020E
:1025300002F022F8280002F01FF809B0F0BDC046F2
:1025400000100240000400480118000019190000A2
:102550000748084B10B5036006234360064BC36071
:10256000836002F037F8002801D000F0FFF910BDB9
:10257000A805002000300040FF0F000030B51025F6
:1025800095B03022002108A804F071F92A0000213A
:10259000684604F06CF92A00002104A804F067F9E9
:1025A0001923089380235B021193802301240E9545
:1025B0005B030E3D08A81095129309940D940F9497
:1025C00002F060F80723019500252100684600937A
:1025D0000295039502F000FB04A80494069502F00E
:1025E00003FC15B030BD00008020C54AC0039169CE
:1025F000F0B5014391618021936985B00340039355
:10260000039BC04B09019A6880240A439A60012207
:102610005242DA609A60596803320A435A609A68F3
:10262000640122439A6000F0C5FEFFF7A7FFFFF7A1
:102630002DFFFFF715FFFEF70DFEFEF76BFDFFF711
:1026400087FF00F039FD00F043FC00F00FFE00F0C2
:10265000ABFD00F057FC00220A20110001F03EFA09
:102660000A2001F075FA00220420110001F036FA68
:10267000042001F06DFA00220320110001F02EFA6F
:10268000032001F065FA0C20FFF726FDFFF730FA72
:10269000FEF712FE03229C4B00271A70FFF7FEFB89
:1026A000FFF786FCFFF78AFCFFF7DEFCFFF7D0FCA4
:1026B000FFF7D4FCFFF71CFA01220821934801F030
:1026C00031FF01229148110001F02CFF012240212D
:1026D0008E4801F027FF802101228C4801F022FF63
:1026E0008B4D8C4E280002F03BFD280002F068FD67
:1026F000894B8A4A1F706423FA25D362FFF7F8F9E1
:10270000802290212D013B00019600951201C90500
:102710008348FFF747FE90213B0022000196009579
:10272000C9058048FA24FFF73DFE1E269021E400EB
:102730003B0001940122C9057B480096FFF732FE59
:10274000802290213B0001945200C90577480096F1
:10275000FA24FFF727FE9021A4003B0001941022E9
:10276000C90573480096FFF71DFE9021714D3B008F
:102770000822C905019428000096FFF713FE6B4854
:10278000FFF72CFE6A48FFF729FE2800FFF726FE18
:102790006348FFF723FE6348FFF720FE6248FFF718
:1027A0001DFEFA20400000F023FEFFF79FFA5B4F6A
:1027B000614C002800D09CE06049200004F08FF8B4
:1027C000FFF756FA0120FFF76BF9FFF74BF90120ED
:1027D000FFF766F9FFF716F90120FFF761F9FFF738
:1027E0002DF90120FFF75CF9FFF702F94E48FFF7DA
:1027F000F5FD534E0023022807D15249200004F072
:102800006EF80120FFF74CF9012328003360FFF731
:10281000E5FD4648FFF7E2FD02281BD14A492000AA
:1028200004F05DF80120FFF73BF9FFF761F9FA20AA
:10283000400000F0DDFD3D48FFF7D0FD022809D142
:102840004249200004F04BF80120FFF729F901224A
:102850003F4B1A6001263F49200004F040F8012058
:10286000FFF71EF92C4B00221E70FA239B00FB621F
:102870000821264801F056FE00223100234801F0CD
:1028800051FE00224021214801F04CFE002280210F
:102890001E4801F047FE2800FFF7A0FD2448FFF77F
:1028A0009DFDFA20400000F0A3FD2148FFF796FDB2
:1028B000032806D12849200004F011F83000FFF762
:1028C000EFF82800FFF78AFD0122244B244C9A627E
:1028D000200002F045FC200002F072FC0225214C91
:1028E0002388012BFCD12580FEF7A4FE0023238042
:1028F000F5E7FFF7C9F91C49200003F0F0FF61E795
:10290000001002400058014060030020000400480D
:1029100078060020102700002C030020004401400E
:10292000600400207C0400202C050020FC04002012
:10293000640500204805002098040020BD720008AE
:1029400030030020D5720008EA720008FC7200080B
:102950003C0300201373000820730008002000408F
:102960003806002062030020C972000870477047D3
:1029700001200A4B82B099690143996180219A69CB
:10298000490502400092009ADA690A43DA61DB697C
:102990000B400193019B02B07047C04600100240FB
:1029A0007047FEE77047704710B500F013FD10BD8B
:1029B00010B501F0CFFA10BD7047000010B5034804
:1029C00001F05FFA024801F05CFA10BD98030020A4
:1029D000FC06002010B5024801F053FA10BDC046B5
:1029E000B806002010B5024800F03AFF10BDC046FE
:1029F000DC03002010B50F4C200002F016FC022270
:102A00002368002452421A610B4B1C800B4B1C7034
:102A10000B4B1C80FEF79CFD0A4B9C635C630A4BCE
:102A20001A78012A05D101321A70F332074BFF32AE
:102A3000DA6310BDF80500202A03002028030020D7
:102A4000CC0200200004004060030020002C014064
:102A500070B52E4C200002F0E8FB0222236852429F
:102A60001A612B4B1A78002A05D01A78012A02D055
:102A70001A78032A05D1002226498A634A63264927
:102A80000A801A78032A3DD01A78012A01D101322E
:102A90001A70F92321495B004A6A9A4203D04A6AB4
:102AA0001F4B9A420ED100231A4A1B481D4C03802B
:102AB0005363936325889D4201D1012525800380BE
:102AC00053639363F422496AFF32174C174B9142C8
:102AD00019D9F33AFF3A227000221A80FEF738FD26
:102AE0002378DBB2002B04D10A4DAB63FFF7A4FBC4
:102AF00068632378012B05D10023064C6363FFF73D
:102B00009BFBA06370BD00222270E6E7B8050020A1
:102B100060030020000400402A030020002C014034
:102B2000E60300006203002028030020CC020020FE
:102B3000F8B5404C200002F078FB022223683E4D9D
:102B400052421A612800FFF749FC3C4C022809D187
:102B500003223B4B1A7000223A4B1A602378022B57
:102B600034D1F8BD2800FFF739FC0328F0D02378D2
:102B7000354E032B2DD1324B1F78FFB2012F28D1B8
:102B8000324B1B68002B24D1314B1B68002B20D10A
:102B9000304B1B68002B1CD12F4B1B68002B18D10E
:102BA0002E4B1D68002D14D12D483580FFF716FCE3
:102BB00003280ED12B4B27709D635D632A4BDD6389
:102BC0003580FFF7F5F9FFF743FACAE702232370D0
:102BD000CDE72378022B26D1194B1B78032B0DD17F
:102BE0000323237000231F4A936353631E4AD36356
:102BF0003380FFF7E3F9FFF731FAB2E71848FFF740
:102C0000EDFB0428ECD0114B1B68012BE8D0104BD6
:102C10001B68012BE4D00F4B1B68012BE0D00E4B3F
:102C20001B68012BDCD0FEF71FFE338801339BB2FB
:102C3000338096E738060020480500206003002016
:102C40002C030020500300202A030020D002002083
:102C5000DC02002010030020F40200204C030020BE
:102C60006405002000040040002C0140F8B5654CCC
:102C7000200002F0DAFA0222236852421A61FEF7BB
:102C800037FF614C2078C0B2032816D8FDF73CFA14
:102C90000216027108215D4801F05EFC01215B48CB
:102CA00001F05AFC4021594801F056FC5748802158
:102CB00001F052FC5648FFF791FBF8BD554B1B68DD
:102CC000012B2FD0FEF71CFF53490B68012B05D1B8
:102CD000524A136801331D2B29DC136050490B68DD
:102CE000012B05D14F4A136801331D2B27DC1360DC
:102CF0004D490B68012B05D14C4A136801331D2B3C
:102D000025DC13604A490B68012BD6D1494B4A4A4E
:102D100018684A4B90422AD81A680132092A1EDCE8
:102D20001A60CAE7FFF726F80128CBD1C5E70023D0
:102D30001360434A0B601360FFF728FACEE70023C5
:102D40001360404A0B601360FFF720FAD0E70023BE
:102D500013603D4A0B601360FFF718FAD2E70022B8
:102D60001A603A4B0A601A60FFF710FAA5E70022D2
:102D7000D6E7FEF7C5FE264F3800FFF72FFB344D90
:102D8000344E02281AD12B68334F01332B600A2BA3
:102D90002AD10023012220211C482B6001F0C2FB14
:102DA000FA235B00FB628021184801F0D5FB032366
:102DB0002A4A23701370002333607EE73800FFF740
:102DC0000DFB0328DFD003210022244B2A60197059
:102DD000336801333360092B0EDD7D310B4801F080
:102DE000A1FB0123237068E700222021074801F09E
:102DF00099FBFA239B00D5E721700448802101F05C
:102E0000ABFB5AE7780600202C03002000040048A2
:102E10004805002030030020D0020020D802002006
:102E20001003002018030020F4020020FC02002000
:102E3000DC020020E4020020B70B0000F0020020BA
:102E4000D402002014030020F8020020EC0200202D
:102E50005C03002050030020004401406003002078
:102E600010B5024803F020FC10BDC046400700200A
:102E70000121114B11481A680A431A605A6802402E
:102E80005A601A680E4802401A601A680D480240DB
:102E90001A605A680C4802400F205A60DA6A82436E
:102EA000DA621A6B094802401A635A6B8A435A6302
:102EB00000229A607047C046001002400CB8FF081C
:102EC000FFFFF6FEFFFFFBFFFFFFC0FFECFEFFFF73
:102ED0000A480B4B10B503600123FA22436000231C
:102EE0009200836003618033C260836102F082FAE2
:102EF000002801D0FFF73AFD10BDC046380600207B
:102F0000002000400A480B4B10B503600A4BFA2220
:102F10004360002392008360036143618033C26099
:102F2000836102F067FA002801D0FFF71FFD10BD92
:102F300078060020004401407FBB00001FB50368F5
:102F4000284A934213D18020274A00019169014306
:102F5000916193690022034000930D201100009BB2
:102F600000F0BCFD0D2000F0F3FD05B000BD1F4AD0
:102F700093420FD102201C4AD1690143D161D36928
:102F80000022034001930E301100019B00F0A6FDCA
:102F90001020E8E7164A934210D18020124A4000E0
:102FA000D1690143D161D369002203400293ED3816
:102FB0001100029B00F092FD1320D4E70D4A9342CA
:102FC000D3D18020084A80029169014391619369BD
:102FD00000220340039315201100039B00F07EFDA7
:102FE0001520C0E7002C0140001002400004004002
:102FF000002000400044014030B5040089B0142294
:10300000002103A803F033FC2368274A93422FD101
:103010008020264BC0025969022401435961802156
:1030200003255A69890202400092009A5A69204891
:103030000A435A615B6903940B40019303A9019B06
:1030400004940695079401F043F980239020DB0057
:1030500003930023C00503A90494059306950794E0
:1030600001F036F98020000401F086FA09B030BD85
:10307000104A9342FAD180200C4A800251690143E0
:103080005161536903A903400293029BC02390201E
:103090000393BE3B049301330693C005023B0793A1
:1030A00001F016F9E2E7C046002C01400010024092
:1030B000000400480004004030B595B01022002103
:1030C00002A803F0D4FB08220021684603F0CFFBDE
:1030D0001C22002106A803F0CAFB1C2200210DA817
:1030E00003F0C5FB2E4C2F4BFA222360F0239B00EC
:1030F000636000239200A36023616361200080333A
:10310000E260A36102F076F9002801D0FFF72EFCFF
:10311000802302A95B012000029302F095FC0028A5
:1031200001D0FFF723FC200002F0C6F9002801D0EF
:10313000FFF71CFC0025694620000095019502F070
:1031400087FEA84201D0FFF711FCFA235B0007932A
:103150000822F43B06A920000695089509950A95D2
:103160000B930C9302F0DAFA002801D0FFF7FEFB74
:103170005F2210928022002392010DA920000D935E
:103180000E930F9311931292139302F0ADFE002849
:1031900001D0FFF7EBFB2000FFF72EFF15B030BD8D
:1031A000F8050020002C014010B58EB0102200213F
:1031B00003A803F05CFB0822002101A803F057FBE1
:1031C0001C22002107A803F052FB264C264BFA22B2
:1031D00023600123636000239200A3602361200029
:1031E0008033E260A36102F005F9002801D0FFF707
:1031F000BDFB802303A95B012000039302F024FCA4
:10320000002801D0FFF7B2FB200002F0BBF9002834
:1032100001D0FFF7ABFB002301A92000019302932B
:1032200002F016FE002801D0FFF7A0FB0022602369
:1032300007A920000793089209920B9202F016FB4F
:10324000002801D0FFF792FB042207A9200002F01A
:103250000DFB002801D0FFF789FB2000FFF7CCFE13
:103260000EB010BDB8050020000400400B480C4B08
:1032700010B50360E1235B0243600C22002342612E
:103280008360C36003618361C3610362436203F0CF
:103290003BF9002801D0FFF769FB10BD4007002073
:1032A0000038014030B5050089B01422002103A880
:1032B00003F0DDFA2F4B2A689A4259D180202E4B19
:1032C000C00199690143996180219A69890202408C
:1032D0000192019A5A6990200A435A615B69C005BC
:1032E0000B400293029B82231B020393022304934D
:1032F0000133069303A9023B079300F0E9FF1F4C3B
:103300001F4B80222360002320006360A360E260E3
:1033100023616361A361E36100F0A2FC002801D096
:10332000FFF724FB174B6C666562174C8022236005
:103330001023636000232000A360E26023616361C7
:10334000A361E36100F08CFC002801D0FFF70EFBC5
:1033500080230E4A9B0011681B200B431360002240
:103360002C661100656200F0B9FB1B2000F0F0FB39
:1033700009B030BD0038014000100240FC060020BA
:103380003000024044000240B80600200000014026
:1033900010B5040001F012FDFA218900FCF7BEFE11
:1033A00000F0E8FB012000222100404200F096FBE3
:1033B000002010BD1023064A10B5116800200B43F1
:1033C0001360FFF7E5FFFFF7D3FA002010BDC046FA
:1033D00000200240024A1368013313607047C04660
:1033E000B0070020014B18687047C046B0070020A6
:1033F00037B50190FFF7F6FF019C0500631C5A1ECC
:103400009341E418FFF7EEFF401BA042FAD337BD0B
:10341000002373B503210193036804009A680A40EE
:10342000012A07D11968114201D0002076BDDA685F
:103430001204FAD49968194A114208D010230120C5
:10344000626C13436364A36C0343A364EEE701223D
:1034500099680A439A60124B12491868FCF75EFE9D
:103460000190019B002B15D1FFF7BCFF0125060041
:1034700023681B682B42D8D1FFF7B4FF801B0228BA
:10348000F6D91023626C012013436364A36C2B43B1
:10349000A364CBE7019B013B0193E2E717000080A7
:1034A0004802002040420F00F8B504000120002C23
:1034B00000D1F6E08F4B22689A4204D074218E48E6
:1034C000FF31FFF754FA63688C4A134208D0802218
:1034D0001206934204D0BA2187484900FFF747FA01
:1034E0001823A2689A4304D076218348FF31FFF75E
:1034F0003EFA2023E2689A4304D0BB217E4849006B
:10350000FFF735FA2369013B012B04D978217A486A
:10351000FF31FFF72CFA236A012B04D9BC2176482E
:103520004900FFF724FA636A012B04D97A21724813
:10353000FF31FFF71CFA724BE26A1A4204D0BD2138
:103540006D484900FFF713FAA36A4022190091431E
:103550000AD0C02B08D0C222FF32934204D07C2173
:103560006548FF31FFF703FA236B012B04D9BE2115
:1035700061484900FFF7FBF904226369043B934368
:1035800004D07E215C48FF31FFF7F1F9636B012B1A
:1035900004D9BF2158484900FFF7E9F9A369012B75
:1035A00004D980215448FF31FFF7E1F9E369012B89
:1035B00004D9C02150484900FFF7D9F9636C002BAA
:1035C00006D122004032A36420001370FDF7EEFD07
:1035D000636CDB0600D579E004222368986810400C
:1035E00000D073E0626C4749114002220A43032174
:1035F00062649A680A40012A00D06DE0196811429D
:1036000002D1DA68120467D5DA683F49256A0A40B0
:10361000DA60A2696F039103E269D2031143626B1E
:10362000013A561EB2411603E268114322690F4364
:10363000022A00D10420226B616A52003A433243CD
:103640000243012904D1002D2CD1802149020A43D3
:10365000C220A16AFF30814202D0E06A01430A43DE
:103660008020D96840051143D960A16B814202D006
:10367000481E062807D8072558692940A8435861DD
:10368000586901435961DB6820490B409A4211D1C6
:1036900000200322A064636C93431A0001231343A8
:1036A0006364F8BD2020656C28436064A06C01430E
:1036B000A164CDE71222636C012093431A0010230A
:1036C00013436364A36C0343A364EAE71023626CAF
:1036D000012013436364E4E71821DA688A43A16890
:1036E0000A43DA601969626889008908114319611F
:1036F0008AE7C046002401404A730008FFFFFFBF6D
:10370000FFF3FFFFFDFEFFFF1902FEFFE7FF3F8310
:10371000F7B5244B0192026804000F009A4203D0CF
:1037200021492248FFF723F9236802209B685B07A1
:1037300030D4260040363378012B2BD00123337050
:10374000E369012B27D1636C194A00251A408023B5
:103750005B0013436364E06B164BA56435708362B2
:10376000154B2168C362154B03631C230B604A6829
:103770000C3B13434B600123CA681343CB603A00F0
:103780004031019B00F00EFB042328002268916861
:103790000B439360FEBD2000FFF73AFE0028F9D1ED
:1037A000D1E7C04600240140BC0400004A73000871
:1037B000FEF0FFFFC537000837380008453800081D
:1037C000704700005022436A10B5596C11422AD14B
:1037D000596CB132FF320A43C0215A641A68090198
:1037E000D068084212D1196A00290FD1116809075F
:1037F0000CD5916849070DD40C2051688143516064
:103800005A6C0B49114001220A435A641800FFF711
:10381000D7FF10BD2022596C0A435A640122996CCB
:103820000A439A64F2E7DB6B1B6B9847F1E7C046EB
:10383000FEFEFFFF704710B5406AFFF7FBFF10BDAB
:10384000704770474023406A10B5426C134343648D
:103850000423826C13438364FFF7F3FF10BD000061
:10386000424B026870B504009A4203D04049414877
:10387000FFF77DF8236A012B03D93F493D48FFF745
:1038800076F804226369043B934304D0AF2139489E
:10389000C900FFF76CF8042223681968114202D0AE
:1038A0005968114206D108221968114228D0596876
:1038B000114225D0626CD20604D48022616C920041
:1038C0000A436264C022D9681201114212D1226AED
:1038D000002A0FD11A6812070CD59A6852073CD4F7
:1038E0000C215A688A435A60636C244A1A400123A7
:1038F000134363642000FFF763FF0C2223681A6000
:10390000802523681A682A420CD05B682B4209D0B4
:103910008023626C5B02134363642000FFF790FF17
:1039200023681D60102223681968114214D0596859
:10393000114211D0626B012A02D0DA68D20708D591
:103940000222A16C20000A43A26410221A60FFF731
:1039500078FF102223681A6070BD2023626C134325
:1039600063640123A26C1343A364C3E700240140F2
:10397000760500004A73000877050000FEFEFFFF91
:103980000023F7B502680193474B04000D009A42EB
:1039900003D046494648FEF7EAFF2B68112B03D9AE
:1039A00044494348FEF7E3FF6B68434A9B18012BE9
:1039B00003D942493E48FEF7DAFF8022A36B520545
:1039C00093420CD0013B062B09D9AB68934206D039
:1039D000013B062B03D93A493548FEF7C8FF2600BC
:1039E000403633780220012B2AD0236801389A68A8
:1039F0003070520752D433496F682A688F423BD0E7
:103A00009040996A084398628020A16B40058142EA
:103A10000FD0013906290CD907205C69A968044038
:103A2000A14206D05C69014084435C615C6921432A
:103A300059611300103B012B03D900200023337080
:103A4000FEBD214B80211868102A13D0C903014301
:103A50001960102AF1D11D4B1D491868FCF75EFB57
:103A60000A2358430190019B002BE6D0019B013BA8
:103A70000193F8E70904EAE79040996A8143996263
:103A80001300103B012BD8D80F4B1968102A03D014
:103A9000104A0A401A60D0E70F4AFAE72023626C06
:103AA00013436364CAE7C046002401405106000086
:103AB0004A7300085206000000F0FFFF53060000A2
:103AC00057060000011000000827014048020020AE
:103AD00040420F00FFFFBFFFFFFF7FFF70B50400F4
:103AE0000D00032903D99B211648FEF740FFA901C9
:103AF000002C14DA0F23E4B22340083B124A9B083F
:103B00009B009B18032214409440FC3215000A408D
:103B1000A540A240D869A8430243DA6170BD0325DD
:103B2000A3082C40AC40FC352E00084A9B009B1893
:103B3000C022A6402940A14092009858B0430143BA
:103B40009950EBE78273000800ED00E000E100E02F
:103B500010B5041E03DAAB210448FEF708FF1F234B
:103B60001C401E3BA340024A136010BD8273000834
:103B700000E100E0094A431E012093420DD8C02114
:103B8000074A08485360036A09061B021B0A0B43D5
:103B9000036200200723906013607047FFFFFF005F
:103BA00010E000E000ED00E070B5041E02D1012538
:103BB000280070BD274B02689A4203D08021264816
:103BC000FEF7D5FE637FDBB2002B03D12377200005
:103BD000FDF75EFB02232000637700F03FF8051E2F
:103BE000E5D16379012B03D999211B48FEF7BFFE6C
:103BF00062792368002A2AD1013A1A616023626936
:103C00009A4303D0A5211448FEF7B1FE6021226833
:103C100093688B4361690B4393608023A2699A4345
:103C200003D0A9210C48FEF7A2FE802122689368E8
:103C30008B43A1690B439360236A013B022B03D999
:103C4000AE210548FEF793FE01236377B0E72269B2
:103C5000D3E7C04600300240BD7300080020704723
:103C600070B504000120002C00D181E02368414A96
:103C700093420FD0404A93420CD0404A934209D01D
:103C80003F4A934206D03F4A934203D0A5213E4883
:103C9000FEF76DFE636810221900914307D0802261
:103CA000D201934203D0A6213748FEF760FE40239D
:103CB000A2689A4303D0A7213348FEF758FE802319
:103CC000E2689A4303D0A8212F48FEF750FE2369EB
:103CD0002E4A134207D080229200934203D0A9219A
:103CE0002948FEF744FE6369294A134207D080221F
:103CF0001201934203D0AA212348FEF738FE202365
:103D0000A2699A4303D0AB211F48FEF730FE214B36
:103D1000E2691A4203D0AC211B48FEF728FE0223B9
:103D20002068A51CEB7702681B4BA1681A406368EA
:103D30000B43E1680B4321690B4361690B43A169A4
:103D40000B43E1690B4313430360144B1421C01868
:103D5000FCF7E4F9124B80002064E36300200123A8
:103D6000A062E06220636063A063E418EB77E07711
:103D700070BDC046080002401C00024030000240F6
:103D80004400024058000240F5730008FFFEFFFFA8
:103D9000FFFBFFFFFFCFFFFF0FC0FFFFF8FFFDBFDF
:103DA00000000240F8B515001F005A1E214B040008
:103DB0000E009A4204D9AF211F484900FEF7D7FDF3
:103DC000631CDA7F0220012A26D00122DA7722182A
:103DD0009446D27F0021D2B2012A28D16346D877F7
:103DE0002368A1631968206C914382401960E16BDC
:103DF0004A6062685F602168102A0ED19D60DE60B3
:103E0000E26A1868002A0BD00E2202431A600123CE
:103E100000200A6813430B60F8BD9E60DD60EFE789
:103E20000A22024304201A601A688243EEE7D97717
:103E3000F2E7C046FEFF0000F573000870B5841C71
:103E4000E37F022B04D004238363033B180070BD7F
:103E50000E210368056C1A688A431A6001221968EA
:103E6000914319601100A940C36B5960E2770024A7
:103E70008318426BDC771300A242E7D090472300FF
:103E8000E4E7F8B504273E00016CC26B8E4015686C
:103E900003681C682E420DD03C420BD0196889067D
:103EA00002D41968B9431960C36A5660002B19D04F
:103EB000984717E002273E008E402E4213D03C4226
:103EC00011D01968890606D40A241968A14319601B
:103ED0000121C319D97756600022431CDA77836A1F
:103EE0009342E5D1F8BD082637008F403D42F9D016
:103EF0003442F7D00E251C68AC431C6001231C0023
:103F00008C405460821C8363D3770022C318DA7715
:103F1000036BE5E710210C4B30B5D868002208424E
:103F200005D00A480232C4692243C2610A00042053
:103F3000D968014205D00121044C0243E5692943B7
:103F4000E161DA6030BDC04600200240B8070020C1
:103F500070477047F8B5434D434CEB68DB0602D41D
:103F6000EB685B070AD50123A6685B42A360FFF7F5
:103F7000D1FF3000FFF7EDFF002323702023EA6814
:103F80001A421AD0EB602378002B16D02378012B2D
:103F900028D16368013B63606368002B1BD0A06875
:103FA000FFF7D6FF80230222A068DB00C018A060C4
:103FB0002B6993432B6100F00BF92378DBB2002BC4
:103FC00008D107212A698A432A612A6927490A40B8
:103FD0002A612376F8BD01204042A0602370FFF7DC
:103FE000B7FFEAE72378022B09D104222B690020CE
:103FF00093432B61FFF7ACFF00232370DDE7636879
:10400000013B63606368002B19D0A3680233A3608F
:10401000A668206961690B0C0F040121020C3A4368
:10402000226163612B698B432B61226963690023E1
:10403000E3612B6992B2194329613280BDE723788D
:10404000032B06D1A068FFF783FF01235B42A36027
:10405000D2E72378A068042B01D10238F3E70638B1
:10406000F1E7C04600200240B8070020FFEBFFFF49
:10407000054B01201A69120604D50020034A5A6034
:10408000034A5A607047C04600200240230167453A
:10409000AB89EFCD8023034A002011690B431361E4
:1040A0007047C0460020024070B50400FFF79AF93F
:1040B00001250600104B1A00D96829420FD1202192
:1040C000D868084200D0D9601023D068184002D1C7
:1040D000D3685B0708D5FFF71DFF012004E0611CD2
:1040E000EAD0002C01D1032070BDFFF77BF9801BC3
:1040F0008442DFD2F7E7C04600200240F0B585B029
:1041000002920393244B01911A7E04000220012A9B
:1041100040D001221A76631E834203D9C1211F4871
:10412000FEF725FCF821019B09061D4A5B18934206
:1041300003D9C2211948FEF71AFC1A48FFF7B4FF49
:10414000002824D12600012C02D0022C00D0042605
:104150000024029803992201FCF76CF80022012741
:104160000D4B114DDA612B69019A3B432B616300C2
:104170009B1880B218800B48FFF796FF2B69BB4352
:104180002B61002803D1E419E3B29E42E1D800225A
:10419000014B1A7605B0F0BDB80700202D74000859
:1041A000FF7F000050C30000002002400022064BA9
:1041B000DA61064B043219690A431A61402219690F
:1041C0000A431A617047C046B80700200020024029
:1041D0000022064BDA61064B023219690A431A6162
:1041E0004022586119690A431A617047B8070020D4
:1041F00000200240F8B5304E0400337E0F0002204C
:10420000012B13D0012333762368012B03D9B82166
:104210002A48FEF7ACFB2368012B13D12848FFF78F
:1042200043FF002803D0012000233376F8BDFFF7B9
:10423000BDFF2348FFF738FF0421224A13698B434F
:104240001361F1E7F822636812069B181E4A934235
:1042500003D9CE211948FEF78AFBA36862689B0246
:10426000013A9B18194A934203D9CF211348FEF70C
:104270007EFB1348FFF718FF0028D4D101235B42CF
:104280003B6065680130A36862689B029B189D4291
:10429000CAD22800FFF79CFF0948FFF705FF02215B
:1042A000084A13698B431361002801D03D60BBE7C6
:1042B0008023DB00ED18E6E7B807002067740008EC
:1042C00050C3000000200240FF7F0000FF7F000875
:1042D0009023F0B5DB0587B004000D0098420FD0A5
:1042E0007B4B98420CD07B4B984209D07A4B98423A
:1042F00006D07A4B984203D0C1217948FEF737FBAC
:104300002B689AB2002A01D01B0C03D0C22174483A
:10431000FEF72DFB6B68032B12D91A00113A012A04
:104320000ED9704A70491A40521870490A4207D093
:104330006F4A9B180B4203D0C3216948FEF717FB55
:10434000AB68022B03D9C4216548FEF710FB00239C
:1043500001932B6801991A00CA4001D107B0F0BD42
:10436000012201998A4003921A40029200D1ABE0E7
:1043700010226B689343022B22D19023DB059C42D1
:1043800006D0534B9C4203D0D3215548FEF7EFFA99
:104390002B69062B03D9D4215148FEF7E8FA0722EE
:1043A0000198019B02400F2092009040DB089B0087
:1043B000E318196A81432869904002000A431A628F
:1043C000019B6A685F0003231E00BE401340F64352
:1043D000BB40216831400B43236010239A43013ACC
:1043E000012A19D8EB68012B05D9032B03D0E8214A
:1043F0003B48FEF7BCFAEB680121BB40A2683240A3
:104400001343A3606268039B9A436B681B090B40CC
:1044100001998B4013436360E36869683340AE6879
:10442000BE401E43E660CB004ED5012003260F2779
:10443000304B9A6902439A619B6903400198059346
:10444000304080008740059B019B9A082A4B9200D0
:10445000D2189368BB4390279C46FF050023BC42BB
:104460000CD01B4F0133BC4208D01A4F0133BC4261
:1044700004D0194F9B19BC4200D1330083406046E1
:10448000034393601D4A029B1668D8433343CF030E
:1044900001D43300034013605668029B33438F03FB
:1044A00001D43300034053609668029B3343CF022C
:1044B00001D4330003409360D668029B33438902E2
:1044C00001D433000340D360019B013340E7C04671
:1044D0000004004800080048000C00480014004890
:1044E000A4740008FFFFDFFF0000EFEFFFFFFEFFF7
:1044F0000000DFEF00100240000001400004014016
:1045000070B505000C1E04D18E210548FF31FEF761
:104510002EFA28692040431E9841C0B270BDC046A3
:10452000A474000870B505000C001600002904D121
:10453000D62108484900FEF71AFA012E06D9AE2105
:104540000448FF31FEF713FAAC6170BD002EFBD1B9
:10455000AC62FAE7A474000870B505000C1E04D123
:10456000E12104484900FEF702FA6B695C406C6186
:1045700070BDC046A47400080200114B13B51A4068
:1045800004009A4208D0DF231B04184209D102001C
:104590000C4B1A409A4204D094210B484900FEF774
:1045A000E6F90120094A9169014391619369034049
:1045B0000193019B064B1A6814431C6013BDC0464F
:1045C0000000AAAA0002AAAADD7400080010024096
:1045D0000000014070B504000120002C32D01F4BB8
:1045E00022689A4203D0B5211D48FEF7C0F96368DE
:1045F000062B03D9B6211A48FEF7B9F9194DA3685D
:10460000AB4203D9B7211648FEF7B1F9E368AB42D4
:1046100003D9B8211248FEF7AAF92368124A1A6092
:10462000124A1A6062685A60A2689A60FEF7DAFE5F
:1046300005002368D868002805D11969E26891420D
:1046400008D01A6170BDFEF7CDFE401B2728F0D9B7
:104650000320F7E7064A1A60F4E7C046003000403E
:1046600018750008FF0F0000CCCC00005555000065
:10467000AAAA00000368024A00201A607047C046D8
:10468000AAAA0000F0B5040085B0002804D1892151
:10469000B8484900FEF76BF92368002B06D0DB060B
:1046A00004D11421B348FF31FEF761F92368DB0719
:1046B00048D423689B0700D5A5E023681B0700D5D5
:1046C000F0E023685B0700D51BE12368DB062BD5F0
:1046D0006369012B06D9053304D08021A5488900E0
:1046E000FEF745F9A3691F2B03D9A349A148FEF79B
:1046F0003EF96269A14D0423012A00D08DE1696B66
:1047000002260B436B636B6B1A436A63FEF76AFE08
:1047100007006B6B334200D178E1F8216A6BA36923
:104720008A43DB0013436B63236A022B04D99D2168
:1047300090488900FEF71BF9226A002A00D087E121
:1047400000201DE06368012B06D9052B04D01A2137
:104750008848FF31FEF70BF90C21884D6A680A4042
:10476000042A06D06B680B40082B0BD16B68DB0367
:1047700008D52B689B039CD56368002B99D1012039
:1047800005B0F0BD6368012B14D180232A685B0259
:1047900013432B60FEF726FE80260700B6022B6827
:1047A000334200D085E7FEF71DFEC01B6428F6D912
:1047B0000320E5E7002B16D12B68714A80261340B1
:1047C0002B602B686F4AB60213402B60FEF70AFE7F
:1047D00007002B68334200D16BE7FEF703FEC01BD6
:1047E0006428F6D9E4E7052B05D180232A68DB028B
:1047F00013432B60C9E72B68614A13402B602B6879
:10480000604A1340C5E7E368012B04D94E2159489B
:10481000FF31FEF7ACF823691F2B04D9A7215548B7
:104820004900FEF7A4F80C22544D6B68134206D0E1
:104830006B681340082B10D16B68DB030DD42B6819
:104840009B0702D5E368012B99D1F8212A682369D7
:104850008A43DB0013432B602FE7E2680123002A21
:104860000FD02A68022613432B60FEF7BBFD07001A
:104870002B683342E9D1FEF7B5FDC01B0228F7D9FA
:1048800096E72A6802269A432A60FEF7ABFD0700E6
:104890002B68334200D110E7FEF7A4FDC01B0228AD
:1048A000F6D985E7E369012B04D9C72131484900CE
:1048B000FEF75DF8E2690123304D002A10D06A6AE4
:1048C000022613436B62FEF78DFD07006B6A3342CD
:1048D00000D0F6E6FEF786FDC01B0228F6D967E792
:1048E0006A6A02269A436A62FEF77CFD07006B6AD9
:1048F000334200D1E5E6FEF775FDC01B0228F6D96C
:1049000056E7A368012B06D9052B04D0DD211948F1
:104910004900FEF72CF880220021184D5205EB6962
:104920000091134208D1EB691343EB61EB6913402B
:104930000393039B012300938027134E7F0033686A
:104940003B4206D0A368012B20D12A6A13432B6275
:104950003DE033683B433360FEF744FD019033682C
:104960003B42EFD1FEF73EFD019BC01A6428F6D909
:104970001EE7C04651750008010200000010024009
:10498000FFFFFEFFFFFFFBFF007000400122002B36
:1049900014D12B6A022793432B622B6A0332934371
:1049A0002B62FEF71FFD06002B6A3B4225D0FEF767
:1049B00019FD644B801B9842F6D9F9E6052B0BD103
:1049C000296A013B0B432B622B6A1A432A62FEF7CA
:1049D00009FD022706000DE02B6A934304222B6297
:1049E0002B6A9343B3E7FEF7FDFC564B801B9842BE
:1049F00000D9DDE62B6A3B42F5D0009B012B00D0AD
:104A000063E6EB69504A1340EB615EE6FEF7EAFCB1
:104A1000C01B022800D87CE6CAE6053203D16A6BC7
:104A20009A436A6379E66A6B0226134301226B6339
:104A30006B6B93436B63FEF7D5FC07006B6B3342E4
:104A400000D171E6FEF7CEFCC01B0228F6D9AFE616
:104A50000C213E4D01206B680B40082B00D18FE6E6
:104A60003B4E022A5BD13B4B626A1A4203D03A4961
:104A70003A48FDF77CFFA26A39493A4B114013408E
:104A800013D08020400383420FD0802080038342D4
:104A90000BD0C0239B03994207D0E0239B039A428B
:104AA00003D031492D48FDF762FFE36A0F2B03D98C
:104AB0002E492A48FDF75BFF2B681E402E60FEF74B
:104AC00091FC80260700B6042B68334221D10F22C7
:104AD000EB6A9343E26A1343EB62616AA36A6A6812
:104AE0000B43234980240A4013436B6080232A68C8
:104AF0005B0413432B60FEF775FC0600A4042B68CF
:104B0000234200D01CE6FEF76DFC801B0228F6D97C
:104B10004EE6FEF767FCC01B0228D5D948E62B6895
:104B200080241E402E60FEF75DFC0600A4042B6866
:104B3000234200D104E6FEF755FC801B0228F6D97B
:104B400036E6C04688130000FFFFFFEF001002406A
:104B5000FFFFFFFEFFFFFEFF7D0200005175000812
:104B6000FFFFFBFFFFFFF3FF7E0200007F0200005C
:104B7000FFFFC2FF70B5144C88B0102221006846B8
:104B800001F06CFE210004AD10221031280001F06C
:104B900065FE0C220D4E73681A40082A11D10F20B1
:104BA0006A46990C0140545CF26A0240A95CDB033E
:104BB00005D50748FBF7B2FA604308B070BD054859
:104BC000FAE70348F9E7C0461471000800100240F4
:104BD00000127A0000093D00F7B504000F0000281C
:104BE00003D168496848FDF7C2FE23685B0703D11B
:104BF00066496548FDF7BBFE012F04D9B72162481D
:104C00008900FDF7B4FE0122614D2B6813409F42DD
:104C10001FD823689B0726D42368DB0745D40123CC
:104C20002A681A40974200D28AE02368594D5B07F0
:104C300000D58DE0FFF79EFF6B68574A1B061B0FE0
:104C4000D35CD840554B18600020FEF7A1FB002034
:104C500008E02B6893433B432B602B6813409F4233
:104C6000D7D00120FEBDA36880221900914314D043
:104C700020221900914390290FD04022190091431E
:104C8000A0290AD0102219009143C02905D0F02B89
:104C900003D043493C48FDF76AFEF0213D4A536882
:104CA0008B43A1680B435360B6E76368022B03D9BB
:104CB0003C493548FDF75BFE364E62683368012A91
:104CC0001AD19B03CDD5032173688B4313437360C3
:104CD000FEF788FB63680190012B15D10C227368E5
:104CE0001340042B9BD0FEF77DFB019BC01A2E4B7B
:104CF0009842F3D90320B5E7022A02D19B01E2D4FE
:104D0000AFE79B07DFD4ACE7022B13D00C2273680C
:104D1000134200D183E7FEF765FB019BC01A224BCB
:104D20009842F3D9E6E7FEF75DFB019BC01A1E4BE4
:104D30009842DFD80C2273681340082BF3D16EE73A
:104D40002A689A432A602A681A4200D089E76CE7E9
:104D5000E368164A13420DD0A021154AC9001A4033
:104D60008A4207D0C022D200934203D0114906489C
:104D7000FDF7FDFD6B68104A1340E26813436B605A
:104D800058E7C046DA02000051750008DB02000057
:104D90000020024000100240327300084802002048
:104DA000F3020000FA02000088130000FFFBFFFF7F
:104DB000FFFDFFFF63030000FFF8FFFF014B1868D2
:104DC0007047C04648020020044B054A5B685B05FB
:104DD0005B0FD35C034A1068D84070470010024054
:104DE0004273000848020020F0B54C4B026885B0C1
:104DF00005009A4203D97E214948FDF7B8FD2B688A
:104E0000DB0330D56B68474A134203D08421444802
:104E1000FDF7ADFD80220021434C5205E36900916E
:104E2000134208D1E3691343E361E3691340039339
:104E3000039B0123009380273C4E7F0033683B4255
:104E400038D0C022236A9200134045D1236A354AE4
:104E500013406A6813432362009B012B03D1E3696B
:104E6000334A1340E3612B68DB070DD5AB68032B96
:104E700003D9CB212A48FDF77AFD03212A4A136B77
:104E80008B43A9680B4313632B6800209B0621D535
:104E90001023EA689A43824203D0EF212048FDF7AD
:104EA00066FD1021204A0020136B8B43E9680B43F9
:104EB00013630FE033683B433360FEF793FA0190CE
:104EC00033683B42BDD1FEF78DFA019BC01A6428BE
:104ED000F6D9032005B0F0BD69680A409342B5D009
:104EE0008023226A206A5B0203432362236A0D49FE
:104EF00010481140034023622162D307A6D5FEF774
:104F000071FA02270600236A3B429FD1FEF76AFA34
:104F1000094B801B9842F6D9DBE7C046210001000F
:104F200089750008FFFCFFFF001002400070004080
:104F3000FFFFFFEFFFFFFEFF88130000F7B5012220
:104F4000036A040093430362056A47688369723207
:104F500093430A680E001A4302239D438B68019213
:104F60001D431E4B984205D01D4B984202D01D4B4D
:104F700098422CD10823F2689A4303D01A491B485F
:104F8000FDF7F5FC08239D43F3681D4304239D436F
:104F9000124B9C4205D0124B9C4202D0114B9C42BA
:104FA00015D1134BB2691A4203D012490F48FDF7CD
:104FB000DEFC114B72691A4203D010490B48FDF711
:104FC000D6FC0F4BB2691F40736913431F43019B0B
:104FD0006760A361736863632562F7BD002C0140BD
:104FE000004401400048014090120000C4750008D0
:104FF000FFFDFFFF9D120000FFFEFFFF9E1200005D
:10500000FFFCFFFFF0B50F007321036A254A85B04E
:1050100013400362046A4668C36905008B4339681C
:10502000029219430191BB681F491B020C401C43AB
:105030001E4B0391984226D10823FA689A4303D065
:105040001B491C48FDF793FC1B4BFA6823401402D4
:105050001C431A4B1C40BB69039A134203D01849E6
:105060001448FDF784FC7B69029A134203D015496A
:105070001048FDF77CFC144B7A693340BE69164337
:1050800036011E4305E0114B9842E4D0104B9D427F
:10509000E1D0019B6E60EB617B68EB632C6205B035
:1050A000F0BDC046FFFEFFFFFFFDFFFF002C0140EB
:1050B00025130000C4750008FFF7FFFFFFFBFFFF8B
:1050C0003213000033130000FFCFFFFF0044014004
:1050D00000480140F7B5036A174A04001340036211
:1050E000036A164A4568C7690E0017400A6812022B
:1050F0001743134A13408A6812031A43114B019253
:10510000984205D0104B984202D0104B98420CD1D7
:105110000F4B72691A4203D00E490F48FDF727FC66
:105120000E4B1D4073699B011D4373686560E76109
:105130002364019B2362F7BDFFEFFFFFFF8CFFFF9E
:10514000FFDFFFFF002C0140004401400048014008
:10515000FFFEFFFF70130000C4750008FFBFFFFFD4
:105160000368114A10B50400934210D00F4A9342CD
:105170000DD00F4A93420AD00E4A934207D00E4AEE
:10518000934204D098210D484900FDF7F0FB22001E
:105190000223012120683D32137003680B43036032
:1051A0000020117010BDC046002C014000040040DA
:1051B000002000400044014000480140C475000840
:1051C0000368104A10B50400934210D00E4A93426F
:1051D0000DD00E4A93420AD00D4A934207D00D4A91
:1051E000934204D0AF210C484900FDF7C0FB0122D7
:1051F00023680020D9681143D96019680A431A60EE
:1052000010BDC046002C01400004004000200040BA
:105210000044014000480140C475000870477047D1
:10522000704770477047704770470222036810B597
:105230001969040011420ED0D96811420BD0053A09
:105240001A619B69043202779B0700D179E0FFF76E
:10525000E9FF00232377042223681969114210D043
:10526000D96811420DD0093A1A61073222779A693A
:10527000C0239B0020001A4269D0FFF7D3FF002310
:10528000237708222368196911420ED0D968114288
:105290000BD0113A1A61DB690D32227720009B078F
:1052A0005BD0FFF7BFFF0023237710222368196923
:1052B000114210D0D96811420DD0213A1A61193229
:1052C0002277DA69C0239B0020001A424BD0FFF7F7
:1052D000A9FF00232377012223681969114207D00F
:1052E000D968114204D0033A1A612000FFF798FFF1
:1052F000802223681969114208D0D968114205D06B
:10530000023AFF3A1A61200000F087FE402223682B
:105310001969114207D0D968114204D0813A1A6143
:105320002000FFF781FF202223681969114207D06E
:10533000D968114204D0413A1A61200000F06CFE95
:1053400010BDFFF76EFF2000FFF76DFF81E7FFF74D
:1053500068FF2000FFF767FF91E7FFF762FF20007B
:10536000FFF761FF9FE7FFF75CFF2000FFF75BFFA0
:10537000AFE70000194A10B50368904202D0184CFC
:10538000A04208D17024A3434C68234390420BD021
:10539000134CA04208D0134CA04205D0124CA0429E
:1053A00002D0124CA04203D1114C2340CC682343BD
:1053B0008024A3434C69234303608B68C3620B685A
:1053C0008362904205D0084B984202D0074B984226
:1053D00001D10B6903630123436110BD002C01401F
:1053E000000400400020004000440140004801400B
:1053F000FFFCFFFF70B504000120002C4CD0236897
:10540000264A93420FD0264A93420CD0254A934213
:1054100009D0254A934206D0244A934203D0D4218E
:105420002348FDF7A4FAA3681022190091430AD07B
:10543000402219009143202905D0402B03D0D521CB
:105440001B48FDF794FA23691A4A134207D08022B9
:105450009200934203D0D6211548FDF788FA8023A5
:10546000A2699A4303D0D7211148FDF780FA25009D
:105470003D352B78DBB2002B05D122003C32137076
:105480002000FDF75BFD022320682B70211DFFF734
:1054900071FF012300202B7070BDC046002C01401D
:1054A000000400400020004000440140004801404A
:1054B000C4750008FFFEFFFF70B504000120002C3A
:1054C00050D02368284A934210D0284A93420DD0E6
:1054D000274A93420AD0274A934207D0264A93424A
:1054E00004D0F52125484900FDF741FAA3681022B0
:1054F000190091430BD0402219009143202906D076
:10550000402B04D0EC211D48FF31FDF730FA236910
:105510001B4A134208D080229200934204D0F62105
:1055200016484900FDF723FA8023A2699A4304D064
:10553000EE211248FF31FDF71AFA25003D352B7890
:10554000DBB2002B05D122003C3213702000FFF7A4
:1055500065FE022320682B70211DFFF70BFF01233E
:1055600000202B7070BDC046002C0140000400409C
:10557000002000400044014000480140C47500087C
:10558000FFFEFFFF70B504000120002C4DD0236802
:10559000264A93420FD0264A93420CD0254A934282
:1055A00009D0254A934206D0244A934203D0244985
:1055B0002448FDF7DCF9A3681022190091430AD0B2
:1055C000402219009143202905D0402B03D01E49C9
:1055D0001C48FDF7CCF923691C4A134207D08022EE
:1055E0009200934203D01A491648FDF7C0F9802370
:1055F000A2699A4304D0FA2112488900FDF7B7F94D
:1056000025003D352B78DBB2002B05D122003C3242
:1056100013702000FFF703FE022320682B70211D6A
:10562000FFF7A8FE012300202B7070BD002C014065
:1056300000040040002000400044014000480140B8
:10564000E5030000C4750008E6030000FFFEFFFF4D
:10565000E7030000F7B51022036A040093430362D6
:10566000066A234A456883690F0013400A681202DC
:105670001A4320239E438B6801921B011E431D4B3E
:10568000984227D10823CA689A4303D01A491B4875
:10569000FDF76DF980239E433300FA6816011E431F
:1056A00040239E43164BBA691A4203D0154913484A
:1056B000FDF75DF9144B7A691A4203D013490F487C
:1056C000FDF755F9124B7A692B40BD691543AD00C2
:1056D0001D4305E00F4B9842E4D00F4B9C42E1D0B4
:1056E000019B6560A3617B68A3632662F7BDC0462A
:1056F000FF8CFFFF002C0140DA120000C475000887
:10570000FFFDFFFFE8120000FFFEFFFFE9120000AF
:10571000FFF3FFFF0044014000480140F7B50400DB
:105720000D001600182A03D8424BD340DB0703D4E0
:1057300041494248FDF71BF92B681022190091439B
:105740000A0030218B4305D0402A03D03C493B4816
:10575000FDF70DF90223AA689A4303D03949374867
:10576000FDF705F9270002233C373A781800012A93
:105770002ED001223A7022003D32019213700C2E7D
:1057800021D83000FAF7C0FC071F1F1F251F1F1F5D
:10579000351F1F1F450023682B4A93420FD02B4A09
:1057A00093420CD02A4A934209D02A4A934206D007
:1057B000294A934203D029492048FDF7D8F8290007
:1057C0002068FFF7BBFB01230020019A137038709B
:1057D000FEBD23681C4A934206D01C4A934203D064
:1057E0001F491648FDF7C3F829002068FFF732FF6C
:1057F000E9E72368144A934206D0144A934203D03F
:1058000018490E48FDF7B3F829002068FFF7FAFBA6
:10581000D9E723680C4A934206D00C4A934203D03E
:1058200011490648FDF7A3F829002068FFF752FC4C
:10583000C9E7C04611110001770B0000C4750008CC
:10584000780B0000790B0000002C014000040040A0
:10585000002000400044014000480140840B00004B
:105860008C0B0000940B00009C0B0000F7B50700A8
:105870003C373B7804000D0016000220012B61D05C
:1058800001233B70182A03D85A4AF240934303D0AD
:1058900059495A48FDF76BF810232A689A43602A41
:1058A00003D057495548FDF762F80223AA689A4386
:1058B00004D0C22151480901FDF759F804232A698F
:1058C0009A4303D04F494D48FDF751F823003D332B
:1058D00001930223019A13700C2E2ED83000FAF790
:1058E00013FC072C2C2C322C2C2C4F2C2C2C6C0029
:1058F0002368454A93420FD0444A93420CD0444A0D
:10590000934209D0434A934206D0434A934203D07C
:1059100042493A48FDF72BF829002068FFF70EFBB3
:105920000822236899690A4304219A619A698A4383
:105930009A619A6929690A439A6101230020019AB0
:1059400013703870FEBD23682F4A934206D02F4A49
:10595000934203D032492948FDF709F8290020680D
:10596000FFF778FE80222368120199690A439A6141
:105970009A692C490A409A612A6999691202DAE700
:105980002368214A934206D0204A934203D02649F5
:105990001A48FCF7ECFF29002068FFF733FB0822C8
:1059A0002368D9690A430421DA61DA698A43DA6132
:1059B000DA6929690A43DA61BFE72368124A934228
:1059C00006D0124A934203D018490C48FCF7CFFF87
:1059D00029002068FFF77EFB802223681201D96925
:1059E0000A43DA61DA690F490A40DA612A69D9693A
:1059F0001202DFE7111100011E0C0000C47500083F
:105A00001F0C0000210C0000002C0140000400408D
:105A1000002000400044014000480140290C0000E3
:105A2000380C0000FFFBFFFF470C0000560C000085
:105A300030B58468034D0A431B022C4013432343B3
:105A4000836030BDFF00FFFFF8B5060002233C363F
:105A5000327805000C001800012A28D02F000122FE
:105A60003D373270A04A3B700B6899189F4A11422B
:105A700008D03022934305D0402B03D09C499D4849
:105A8000FCF775FF2B689C499A680A409A60226867
:105A9000402A00D15CE121D8102A00D1A3E107D827
:105AA000002A00D18CE1012300203B703070F8BD4A
:105AB000202A00D1A8E1302AF5D1904A934206D09D
:105AC0008F4A934203D08F498A48FCF750FF7022D7
:105AD00029688B6893431A00372381E1702A00D12B
