:020000040800F2
:1000000000500020A1570008DD1D0008DF1D00087A
:10001000E11D0008E31D0008E51D000800000000C8
:10002000000000000000000000000000E71D0008C4
:10003000E91D000800000000EB1D0008ED1D000890
:10004000E9570008F11D0008E9570008E9570008C2
:10005000F51D0008F91D0008E9570008E9570008D8
:10006000E9570008E9570008E9570008FD1D000896
:10007000E9570008E9570008091E0008E957000879
:10008000E9570008E9570008151E0008E95700085D
:10009000E9570008E9570008E9570008E957000840
:1000A000211E0008591E0008E9570008E9570008FA
:1000B000751E00085520000845210008E957000872
:1000C000E9570008E9570008E9570008E957000810
:1000D000E957000845220008E9570008E9570008D9
:1000E000E9570008E9570008E95700080000000038
:1000F0000000000000000000000000000000000000
:0C01000000000000000000005FF808F1A3
:10010C0010B5054C237833B9044B13B10448AFF345
:10011C0000800123237010BD780600200000000031
:10012C00E460000808B5034B1BB103490348AFF367
:10013C00008008BD000000007C060020E460000880
:10014C00D0400B1CD1409C46203AD340184352421D
:10015C00634693401843704780F0004002E000BFB4
:10016C0081F0004142001FBF5FEA410392EA030F96
:10017C007FEA226C7FEA236C6AD04FEA1262D2EBE0
:10018C001363C1BFD218414048404140B8BF5B42E5
:10019C00192B88BF704710F0004F40F4000020F07E
:1001AC007F4018BF404211F0004F41F4000121F094
:1001BC007F4118BF494292EA030F3FD0A2F10102DE
:1001CC0041FA03FC10EB0C00C3F1200301FA03F11C
:1001DC0000F0004302D5494260EB4000B0F5000F3F
:1001EC0013D3B0F1807F06D340084FEA310102F1FE
:1001FC000102FE2A51D2B1F1004F40EBC25008BFB0
:10020C0020F0010040EA03007047490040EB000079
:10021C0010F4000FA2F10102EDD1B0FA80FCACF1A8
:10022C00080CB2EB0C0200FA0CF0AABF00EBC250A7
:10023C0052421843BCBFD0401843704792F0000F95
:10024C0081F4000106BF80F400000132013BB5E7E8
:10025C004FEA41037FEA226C18BF7FEA236C21D05E
:10026C0092EA030F04D092F0000F08BF08467047C3
:10027C0090EA010F1CBF0020704712F07F4F04D191
:10028C00400028BF40F00040704712F100723CBFA4
:10029C0000F50000704700F0004343F0FE4040F4CE
:1002AC00000070477FEA226216BF08467FEA23638C
:1002BC000146420206BF5FEA412390EA010F40F477
:1002CC00800070474FF0000304E000BF10F00043C3
:1002DC0048BF40425FEA000C08BF704743F09643AA
:1002EC0001464FF000001CE050EA010208BF7047C5
:1002FC004FF000030AE000BF50EA010208BF70474C
:10030C0011F0004302D5404261EB41015FEA010C60
:10031C0002BF84460146002043F0B64308BFA3F158
:10032C008053A3F50003BCFA8CF2083AA3EBC2533A
:10033C0010DB01FA02FC634400FA02FCC2F1200259
:10034C00BCF1004F20FA02F243EB020008BF20F090
:10035C000100704702F1200201FA02FCC2F12002F6
:10036C0050EA4C0021FA02F243EB020008BF20EAEB
:10037C00DC7070474FF0FF0C1CEAD0521EBF1CEA19
:10038C00D15392EA0C0F93EA0C0F6FD01A4480EA07
:10039C00010C400218BF5FEA41211ED04FF00063F0
:1003AC0043EA501043EA5111A0FB01310CF000401C
:1003BC00B1F5000F3EBF490041EAD3715B0040EA42
:1003CC00010062F17F02FD2A1DD8B3F1004F40EB12
:1003DC00C25008BF20F00100704790F0000F0CF0E5
:1003EC00004C08BF49024CEA502040EA51207F3AA9
:1003FC00C2BFD2F1FF0340EAC250704740F4000084
:10040C004FF00003013A5DDC12F1190FDCBF00F074
:10041C0000407047C2F10002410021FA02F1C2F122
:10042C00200200FA02FC5FEA310040F1000053EABE
:10043C004C0308BF20EADC70704792F0000F00F00C
:10044C00004C02BF400010F4000F013AF9D040EA12
:10045C000C0093F0000F01F0004C02BF490011F4A6
:10046C00000F013BF9D041EA0C018FE70CEAD153A4
:10047C0092EA0C0F18BF93EA0C0F0AD030F0004C24
:10048C0018BF31F0004CD8D180EA010000F00040D8
:10049C00704790F0000F17BF90F0004F084691F096
:1004AC00000F91F0004F14D092EA0C0F01D14202D0
:1004BC000FD193EA0C0F03D14B0218BF084608D199
:1004CC0080EA010000F0004040F0FE4040F40000E3
:1004DC00704740F0FE4040F4400070474FF0FF0C76
:1004EC001CEAD0521EBF1CEAD15392EA0C0F93EABD
:1004FC000C0F69D0A2EB030280EA010C49024FEA0F
:10050C00402037D04FF0805343EA111143EA1013C7
:10051C000CF000408B4238BF5B0042F17D024FF47F
:10052C00000C8B4224BF5B1A40EA0C00B3EB510F5A
:10053C0024BFA3EB510340EA5C00B3EB910F24BF43
:10054C00A3EB910340EA9C00B3EBD10F24BFA3EBC8
:10055C00D10340EADC001B0118BF5FEA1C1CE0D190
:10056C00FD2A3FF650AF8B4240EBC25008BF20F043
:10057C00010070470CF0004C4CEA50207F32C2BF97
:10058C00D2F1FF0340EAC250704740F400004FF034
:10059C000003013A37E792F0000F00F0004C02BF65
:1005AC00400010F4000F013AF9D040EA0C0093F02F
:1005BC00000F01F0004C02BF490011F4000F013B89
:1005CC00F9D041EA0C0195E70CEAD15392EA0C0FF1
:1005DC0008D142027FF47DAF93EA0C0F7FF470AF29
:1005EC00084676E793EA0C0F04D14B023FF44CAF6C
:1005FC0008466EE730F0004C18BF31F0004CCAD101
:10060C0030F000427FF45CAF31F000437FF43CAF3C
:10061C005FE700BF4FF0FF3C06E000BF4FF0010C5E
:10062C0002E000BF4FF0010C4DF804CD4FEA400240
:10063C004FEA41037FEA226C18BF7FEA236C11D08A
:10064C0001B052EA530C18BF90EA010F58BFB2EB3D
:10065C00030088BFC81738BF6FEAE17018BF40F0BD
:10066C00010070477FEA226C02D15FEA402C05D171
:10067C007FEA236CE4D15FEA412CE1D05DF8040BF6
:10068C00704700BF844608466146FFE70FB5FFF789
:10069C00C9FF002848BF10F1000F0FBD4DF808ED41
:1006AC00FFF7F4FF0CBF012000205DF808FB00BF32
:1006BC004DF808EDFFF7EAFF34BF012000205DF88C
:1006CC0008FB00BF4DF808EDFFF7E0FF94BF0120D9
:1006DC0000205DF808FB00BF4DF808EDFFF7D2FFD6
:1006EC0094BF012000205DF808FB00BF4DF808ED19
:1006FC00FFF7C8FF34BF012000205DF808FB00BFE6
:10070C0042000ED2B2F1FE4F0BD34FF09E03B3EB6F
:10071C00126209D44FEA002343F0004323FA02F09B
:10072C0070474FF00000704712F1610F01D1420287
:10073C0002D14FF0FF3070474FF00000704700BF00
:10074C001FB51D481D4A002302604FF480720193AF
:10075C00029303938260012443614FF4602243604F
:10076C000323C460C261036102F0D6FA08B101F040
:10077C00EFFA072301A9104801940294039302F0A5
:10078C0033F908B101F0E4FA022301A90A480193F4
:10079C00029302F029F908B101F0DAFA052301936A
:1007AC00032301A90448029302F01EF908B101F0D9
:1007BC00CFFA04B010BD00BF580700200024014040
:1007CC0030B5054687B01022002102A805F02CF8A0
:1007DC002A68224B9A423ED103F56C439A69204811
:1007EC0042F400729A619A6902A902F400720092B2
:1007FC00009A9A691B4C42F004029A619B6903F0BF
:10080C0004030193019B3E2302930323039302F001
:10081C00F1FF154B2046236000236360A360802307
:10082C00E3604FF4007323614FF400636361202392
:10083C00A3614FF48053E36102F0F6FB08B101F0C1
:10084C0087FA2C62122001220321656202F060FB00
:10085C00122002F09FFB07B030BD00BF0024014006
:10086C0000080140880700200800024008B5054830
:10087C00054B036002F0BAFB18B1BDE8084001F06B
:10088C0067BA08BDCC070020003002400268084B54
:10089C0082B09A420AD1A3F500535A6942F0400241
:1008AC005A615B6903F040030193019B02B07047EE
:1008BC000030024003220249024802F07BB900BF1B
:1008CC00E0070020580700200023104A10B51360E1
:1008DC000F4A10491360104A002013600F4A104C45
:1008EC00136001220A604A608A60CA600D490A607E
:1008FC000021C4E900010C4C22600C4AC2E9000141
:10090C000B4A13600B4A136010BD00BF2800002077
:10091C002C00002038000020300000203400002083
:10092C00D80600204800002000000020C806002047
:10093C00A4060020AC060020884210B523D9401A2A
:10094C00FFF7C0FC1349FFF715FD01464FF07E5031
:10095C00FFF706FC10490446FFF7C8FEB8B90F496B
:10096C002046FFF7A5FE00B10C4C204610BD081A1E
:10097C00FFF7A8FC0749FFF7FDFC01464FF07E503E
:10098C00FFF7F0FBE6E7F2D34FF07E54EDE7024CB5
:10099C00EBE700BF9A999939CDCCCC3FCDCCCC3E6E
:1009AC0038B505460C46FFF783FE60B10E49284664
:1009BC00FFF7D8FB054601462046FFF783FE00B93A
:1009CC002C46204638BD21462846FFF78FFE0028CE
:1009DC00F6D005492846FFF7C3FB054601462046DD
:1009EC00FFF77AFEEBE700BFA69BC43B4FF08043BA
:1009FC0030B5834205DC0022022404251BB990B2D9
:100A0C0030BD9B10F5E7D1188842A4BF5A18401A84
:100A1C0092FBF4F293FBF5F3F0E7000038B50C4AC7
:100A2C000C4B0D4C1B681268B3FBF2F3236020686F
:100A3C00FFF7DCFF094B206020681D68FFF742FCC4
:100A4C002946FFF797FCFFF75BFE206038BD00BF1F
:100A5C001007002014070020C4060020040000200A
:100A6C0038B50C4A0C4B0D4C1B681268B3FBF2F3F7
:100A7C0023602068FFF7BAFF094B206020681D68CF
:100A8C00FFF720FC2946FFF775FCFFF739FE2060C5
:100A9C0038BD00BF3407002038070020D0060020E6
:100AAC004C000020044B054A1B681268B3FBF2F3A0
:100ABC00034A1360704700BFF0060020EC060020CC
:100ACC00A80600201C4B1A681C4B1A601C4B1A6899
:100ADC001C4B1A601C4B1A681C4B1A601C4B1A6876
:100AEC001C4B1A601C4B1D4A1968116059681C4A32
:100AFC00116099681B4A1160DA681B4B1A601B4B1A
:100B0C00D3E900231A4B1A601A4BD3E900231A4B72
:100B1C001A601A4B1A681A4B1A601A4B1A681A4B3D
:100B2C001A601A4B1A681A4B1A601A4B1A681A4B2D
:100B3C001A60FFF7C9BE00BF280000202407002060
:100B4C002C00002028070020300000202C0700205B
:100B5C003400002030070020380000203C07002023
:100B6C00400700204407002048070020C80600204A
:100B7C0014070020D80600203807002000000020B1
:100B8C00100700204800002034070020A406002095
:100B9C00F0060020AC060020EC060020F8B5FFF7AC
:100BAC005FFFFFF73BFFFFF77DFF534B53491A687D
:100BBC000968534DB2FBF1F252491A602A68096870
:100BCC00514EB2FBF1F251492A6032680968504F1C
:100BDC00B2FBF1F24F4932603A6809684E4CB2FBF5
:100BEC00F1F23A6018684FF40061FFF7A5FE4B4B29
:100BFC00014618602068FFF7D3FE206028684FF488
:100C0C000061FFF799FE464D464B01461860286877
:100C1C00FFF7C6FE286030684FF40061FFF78CFECA
:100C2C00414E424B014618603068FFF7B9FE306008
:100C3C0038684FF40061FFF77FFE3D4F3D4B014696
:100C4C0018603868FFF7ACFE3860386831682E6879
:100C5C002568394C2368D3B9FFF784FA3146FFF77E
:100C6C0081FA2946FFF77EFA3449FFF783FBFFF739
:100C7C0047FDC93880B2B0F5C77F08D9304A136830
:100C8C000133B3F5FA6F1360C4BF012323602D4AFF
:100C9C00136873B92C4B196840F6AB53994208D9B9
:100CAC002A490B680133B3F57A7F0B60C4BF01236B
:100CBC00136027490B680C46E3B941F28732254B88
:100CCC001868904209D9244802680132B2F5FA7FBB
:100CDC00026002DD01230B60F8BD1A6842F2273373
:100CEC009A4207D91C4A13680133022B1360C4BF04
:100CFC0001232360F8BD00BF240700203C0700201F
:100D0C0028070020400700202C0700204407002063
:100D1C003007002048070020180000205000002059
:100D2C001C0000205400002020000020580000204F
:100D3C00240000205C000020940600200000C84223
:100D4C0098060020A0060020A8060020B00600206F
:100D5C00B8060020C4060020BC0600202E4A30B580
:100D6C0013682E4C013313602D4B5D685A68D4E91F
:100D7C0000016A43801841F10001C4E900012949CE
:100D8C00294C0A6801320A601D681A68D4E900010E
:100D9C006A43801841F10001C4E9000123499A68B3
:100DAC00086802440A60224922480A6884680132B1
:100DBC000A6021490A8892B2A242204A08DD2049E1
:100DCC001B68086803440B60D3680133D36030BDE3
:100DDC000C884568A4B2AC4208DD1A491B68086847
:100DEC0003440B6093680133936030BD098800683D
:100DFC0089B281421B6807DD1349086803440B6004
:100E0C0053680133536030BD1049086803440B60CC
:100E1C0013680133136030BD00000020C8060020A9
:100E2C00E007002048000020D8060020A40600207F
:100E3C00AC06002008000020E2060020380000204C
:100E4C0034000020300000202C000020280000205E
:100E5C0010B512B101220C4B9A6021F003030A4A1F
:100E6C000344984207D101F00301074819448B420F
:100E7C0005D1106810BD50F8044B1460F1E713F85D
:100E8C00014B0470F3E700BF0030024010B5074B74
:100E9C000AB101229A60054A11F1FF3101D218689A
:100EAC0010BD50F8044B1460F6E700BF0030024050
:100EBC0038B50B4C0B4D14220021204604F0B4FC29
:100ECC00012264212846FFF7C3FF0749024620464A
:100EDC0004F0B2FC21462846BDE8384004F0D0BCF2
:100EEC00A4080020240800200C61000864220021C2
:100EFC00014804F099BC00BF2408002007B5FFF797
:100F0C00F5FF084B08491A6804331B680968074841
:100F1C000091074904F090FC03B05DF804EBFFF777
:100F2C00C7BF00BFACF7FF1FB4F7FF1F240800209A
:100F3C002761000808B5FFF7D9FF054B05491A884A
:100F4C00054892B204F078FCBDE80840FFF7B0BF4A
:100F5C00CCF7FF1F3A6100082408002010B5074C9D
:100F6C00FFF7C4FF0649204604F08AFC20460549D9
:100F7C0004F086FCBDE81040FFF79ABF240800205F
:100F8C004B61000855610008024A1368002BFCD025
:100F9C00704700BF04060020002270B50446084BC1
:100FAC00084E094D1A6063223146284604F08CFA2B
:100FBC000228F8D01CB1BDE87040FFF7E5BF70BD4A
:100FCC000406002024080020840A00200268044B38
:100FDC009A4204D10122034B1A60FFF787BF704776
:100FEC000038014004060020014802F0E9BD00BFB2
:100FFC00340900200023034A13605360024A136033
:10100C00704700BFFC060020F806002010B5094C04
:10101C006068FFF757F90849FFF7ACF9074B186000
:10102C002068FFF74FF90449FFF7A4F9044B186047
:10103C0010BD00BFFC0600203333533A04000020DF
:10104C004C000020842140F63462024B83E80600F9
:10105C00FFF7DCBFFC060020034B1B680BB9FFF746
:10106C00F1BFFFF7D3BF00BFF806002070B5012514
:10107C000D4C0E4E2A4684E80300082120463560AC
:10108C00FFF704FF0A4B01461860002000F008FB34
:10109C002168284600F004FB6168022000F000FB88
:1010AC000023336070BD00BFFC0600200407002045
:1010BC00F806002070B50124104E114D3460FFF776
:1010CC0099FF2946002000F0CBFA0E49204600F08B
:1010DC00C7FA0D49022000F0C3FA0821224609483C
:1010EC00FFF7D4FE00212B683160984203D0FFF744
:1010FC0081FF084670BD204670BD00BF040700206C
:10110C00F8060020FC0600200007002010B5002483
:10111C00084B1C80FFF7A0FF074B93E80300FFF779
:10112C00A5FF0649064804F0BAFB2046BDE810406E
:10113C00FFF732BF00060020FC06002019610008F2
:10114C002408002010B51F4800F011FB04461E486F
:10115C0000F00DFB1D4A1388092B03D801331380B3
:10116C00002010BD022814D1022C194C23D0194B8D
:10117C001868FFF7A7F81849FFF7FCF8014617485D
:10118C00FFF7ACF9FFF7BCFA2060FFF7BFFF0120B7
:10119C0010BD022CE4D10F4B5868FFF793F80E49A1
:1011AC00FFF7E8F801460E48FFF798F9FFF7A8FAA1
:1011BC00074B5860E9E7FFF745FF94E80300FFF79A
:1011CC0055FFE2E708080020EC070020000600208D
:1011DC00FC060020E00700203333533A000066433E
:1011EC0000007A440E4B1A6822F440721A605A6C52
:1011FC0022F0FF025A645A6C42F080025A645A6C14
:10120C0042F008025A645A6C42F004025A645A6C56
:10121C0042F002025A645A6C42F001025A6470475E
:10122C00002C0140044B1A6A42F400621A621A6ADA
:10123C0042F400721A627047002C0140044B5A6849
:10124C0042F480525A605A6842F400525A60704715
:10125C00002C014040F29F5208B5124B9A6240F2AA
:10126C00E732DA624FF4FA72DA631A6822F010028B
:10127C001A601A6822F060021A60DA6922F07002B1
:10128C00DA61DA6942F06002DA611A6A42F4A06249
:10129C001A62FFF7C7FFFFF7D1FFBDE80840FFF761
:1012AC00A1BF00BF002C014008B54FF4FA730D49E3
:1012BC00CB630B6A43F4A0630B62FFF7B3FFFFF73A
:1012CC00BDFFFFF78FFFCB6843F00103CB600B68CA
:1012DC0043F001030B60FFF7F7FABDE80840FFF796
:1012EC005DBC00BF002C0140104B1A6922F00102BA
:1012FC001A61DA6822F00102DA601A6822F001023F
:10130C001204120C1A605A6842F400525A605A685D
:10131C0022F480525A601A6A42F400721A621A6AF3
:10132C0022F400621A620022DA637047002C01403A
:10133C00024A536C43F4404353647047002C014001
:10134C00044B5A6C22F400425A645A6C22F48042C8
:10135C005A647047002C014008B5FFF7E9FFBDE85F
:10136C000840FFF7A1BF08B5FFF7EAFFBDE808404A
:10137C00FFF7BABF0022074B1A80074B5A639A63D8
:10138C00DA6842F00102DA601A6842F001021A606F
:10139C0000F0E2B8E206002000040040094B1A6994
:1013AC0022F001021A61DA6822F00102DA601A688E
:1013BC0022F001021204120C1A6000225A639A6382
:1013CC00704700BF00040040024A536C43F4404392
:1013DC005364704700040040044B5A6C22F40042E2
:1013EC005A645A6C22F480425A64704700040040DC
:1013FC0008B5FFF7E9FFBDE80840FFF7BBBF08B52C
:10140C00FFF7EAFFBDE80840FFF7C8BF002240F233
:10141C00E731194B9A62D9625A639A631A6A42F09D
:10142C0001021A621A6A42F002021A621A6A42F045
:10143C0010021A621A6A42F020021A625A6842F4C6
:10144C0080725A605A6842F480625A609A6922F437
:10145C00E04222F070029A619A6942F4C04242F072
:10146C0060029A611A6822F010021A601A6822F05F
:10147C0060021A60704700BF000400402A4A03460D
:10148C00506A10F000501FBF516A012041F080716A
:10149C00516245F25551254A0A2B116025D9072175
:1014AC005160022B2AD0032B2AD0042B2AD0052BD7
:1014BC002AD0062B2AD0072B2AD0082B2ED0092B6A
:1014CC002FD00A2B27D00B2B28D00C2B29D00D2B4F
:1014DC0040F6FF7318BF0023144A93604AF6AA2300
:1014EC0013604CF6CC4313607047032151601BB161
:1014FC00012BD6D10A23EFE70523EDE70F23EBE70A
:10150C001F23E9E73D23E7E77B23E5E7FF23E3E739
:10151C0040F2FF13E0E740F6FF73DDE740F2FF33E4
:10152C00DAE740F2FF73D7E70010024000300040CA
:10153C004FF07C53044A1360044A1360044A13604E
:10154C00044A1360704700BF2400002020000020D4
:10155C001C0000201800002008B5FFF7E9FF00234D
:10156C00034A1360034A1360034A136008BD00BFAB
:10157C00940600209C060020980600200C4B0D4A77
:10158C001988906889B2814202DD0B4B186870474C
:10159C001988506889B2814201DD084BF6E71B8837
:1015AC0012689BB29342CCBF054B064BEEE700BFD3
:1015BC00E20600200800002024000020200000206B
:1015CC001C0000201800002040F2CE21134A38B530
:1015DC0013889BB28B421FD81388114A9BB232F8E6
:1015EC001340FFF7CBFF4FF07E51A4B20546FFF737
:1015FC0055F840B92046FEF769FE2946FEF7BAFEBB
:10160C00FFF77EF884B240F2CA30A04228BF2046D1
:10161C001E2838BF1E2038BD002038BDE206002031
:10162C006000002010B586B001F072FF0123002489
:10163C0005930A4B01A902A80493029402F032F814
:10164C0038B901F077FF0198431C5842584106B055
:10165C0010BD01F06FFF2046F9E700BF00FC000849
:10166C0009289FBF800000F1006000F57C400368F2
:10167C009ABF01200B600020704701440A290BDD42
:10168C0000207047830003F1006303F57C431B6863
:10169C00013042F8043B80B28142F3DC01207047F8
:1016AC0009282DE9F04105460F4619D8840004F1AC
:1016BC00006404F57C442368013308D101F028FF51
:1016CC007B1C29D101F036FF0120BDE8F081174EBB
:1016DC000A2132460020FFF7D0FF20B901F02AFF83
:1016EC000020BDE8F08146F82570FFF79BFF01F064
:1016FC000FFF0F4DDFF83C8005F17843A3F57C43D9
:10170C00F25829460023022001F048FF0028E5D1B9
:10171C0004354545F0D1D1E73A4600232146022055
:10172C0001F03CFF0028D9D1CCE700BF0C09002008
:10173C0000FC000828FC00080260009A0372C260DA
:10174C00019A002302610122416003754375836194
:10175C00C27583754372704710B5044601884068A2
:10176C0002F0B4F9237A181A18BF012010BD70B515
:10177C000446FFF7F1FFE67D054686421AD038B9DC
:10178C0001F046F80123A061A375E575002070BD3A
:10179C0001F03EF8A369E2681344984228BF042381
:1017AC004FF0010022BF6372E07518460023637589
:1017BC00237570BD002EE9D101F02AF8A3692269C6
:1017CC001344984208D3637D012B02D16672607A70
:1017DC0070BD03236372FAE701F01AF8A369E2689B
:1017EC0013449842D2D3237D012BEFD00223F1E78F
:1017FC000E4B07B55A69022142F001025A615B692E
:10180C00002203F0010301930B20019B01F080FBEC
:10181C000B2001F0BFFB002203210E2001F078FB0E
:10182C000E2001F0B7FB03B05DF804FB0010024082
:10183C001022F0B589B00DEB0200002103F0F4FF8B
:10184C00324B334D9A69284642F010029A619A69DC
:10185C0047F2210102F010020092009A9A690326C5
:10186C0042F020029A619A692A4F02F020020192FA
:10187C00019A9A69002442F004029A619A6902F072
:10188C0004020292029A9A6942F008029A619B69D8
:10189C00012203F008030393039B02F029F94FF490
:1018AC00005304A91C480493059601F0A3FF40F2D1
:1018BC00012304A938460493059601F09BFF47F2D7
:1018CC0021030493012304A9284605930694079643
:1018DC0001F090FF4FF4064304A9284604930594A5
:1018EC00069401F087FF4FF4316304A92846049352
:1018FC00059601F07FFF4FF4C85304A938460493B2
:10190C000594069401F076FF09B0F0BD001002407A
:10191C00000C0140000801400010014008B50622EF
:10192C0040F6FF730548064980E80E0002F00AF9FC
:10193C0018B1BDE8084000F00BBA08BD340900200E
:10194C0000300040FFF70ABA282210B594B00DEB16
:10195C000200002103F068FF142200210DEB0200AD
:10196C0003F062FF0021102201A803F05DFF0923A0
:10197C000A934FF48033022401220B9312934FF4F9
:10198C00E0130AA80E9210921393119402F02EF900
:10199C000F234FF4806205930023214605A807937B
:1019AC0008920993069402F05FFB4FF4004301A8E0
:1019BC000194039302F088FC14B010BDC94B83B59D
:1019CC005A68002442F480625A605A684FF47A666E
:1019DC0042F480525A605A6842F2107742F4807294
:1019EC005A6000F0F7FEFFF7AFFFFFF721FFFFF79C
:1019FC00FFFEFEF73BFFFFF791FF00F07DFD00F0CF
:101A0C00EBFD00F07BFC00F043FC00F03DFEFEF72C
:101A1C0097FE0B20FFF732FDFFF7E6FAFEF74AFFC1
:101A2C000322B14BB14D1A70FFF714FCFFF7EEFC1B
:101A3C00FFF792FCFFF7DCFCFFF795FCFFF7DFFCF0
:101A4C00FFF7D2FA01224FF48041A94802F050F876
:101A5C000122A748114602F04BF801224FF48051A5
:101A6C00A34802F045F84FF400510122A04802F0BF
:101A7C003FF8A04802F092FD9E4802F0B7FD6422A8
:101A8C004FF080432C70DA62FFF7AEFA8DE8C0009D
:101A9C0023464FF4006298499848FFF74DFE8DE8B5
:101AAC00C0001E264FF4FA6723464FF48052924929
:101ABC009348FFF741FE8DE8C00023464FF40042E7
:101ACC008B499048FFF738FE8DE8C0004FF47A77C9
:101ADC0023464FF4807288498B48FFF72DFE23462E
:101AEC004FF40072824989488DE8C000FFF724FE4C
:101AFC0023464FF480627E4985488DE8C000FFF78D
:101B0C001BFE8148FFF733FE8048FFF730FE80480C
:101B1C00FFF72DFE7948FFF72AFE7948FFF727FEDD
:101B2C007848FFF724FE4FF4FA7000F077FEFFF7C9
:101B3C00C1FA002840F0CD807649774803F0AFFE1B
:101B4C00FFF780FA0120FFF727FAFFF707FA0120C9
:101B5C00FFF722FAFFF7D2F90120FFF71DFAFFF782
:101B6C00E9F90120FFF718FAFFF7C0F96548FFF70C
:101B7C00FEFD0228694C40F0B3806949664803F0C9
:101B8C008EFE0120FFF708FA012361482360FFF75E
:101B9C00EEFD5D48FFF7EBFD02281BD161495E4865
:101BAC0003F07DFE0120FFF7F7F9FFF71DFA4FF464
:101BBC00FA7000F033FE5448FFF7D9FD022809D122
:101BCC005949554803F06BFE0120FFF7E5F9012256
:101BDC00564B1A60012456494F4803F060FE012011
:101BEC00FFF7DAF953494C4803F059FE0120FFF78F
:101BFC00D3F9504948482C7003F051FE2046FFF7AA
:101C0C00CBF94FF080434FF47A724A49DA6242487A
:101C1C0003F045FE2046FFF7BFF900224FF4804148
:101C2C00334801F065FF00222146314801F060FF86
:101C3C0000224FF480512E4801F05AFF00224FF43D
:101C4C0000512B4801F054FF3148FFF790FD2F480D
:101C5C00FFF78DFD4FF4FA7000F0E0FD2B48FFF715
:101C6C0086FD032806D134492B4803F018FE204684
:101C7C00FFF792F92F49284803F011FE0120FFF7D6
:101C8C008BF92348FFF773FD00222C4B2C489A62EA
:101C9C0002F084FC2A4802F0A9FC0127294D144EBD
:101CAC002C88A4B2012C11D100224FF48041304673
:101CBC0001F01EFF02232B80FEF770FF002322464B
:101CCC004FF4804130462B8001F012FF1E4B1F80D9
:101CDC00E6E7FFF7C1F91D490F4803F0E0FD31E7D6
:101CEC00002352E7002004E020070020E406002037
:101CFC00000C0140000A002000080140EC07002005
:101D0C0008080020B808002088080020F0080020EF
:101D1C00D40800206161000824080020E806002097
:101D2C00796100088E610008A0610008F4060020AB
:101D3C00B7610008C4610008CA61000800080040CF
:101D4C0040090020220700200E0700206D610008CA
:101D5C00704770471C4B07B59A69052042F0010289
:101D6C009A619A6902F001020092009ADA6942F0D3
:101D7C008052DA61DB6903F080530193019B01F01F
:101D8C00A9F800220120114601F0C2F8012001F04F
:101D9C0001F900220420114601F0BAF8042001F0E8
:101DAC00F9F800220520114601F0B2F8052001F0E7
:101DBC00F1F8064A536823F0E06343F080735360F4
:101DCC0003B05DF804FB00BF0010024000000140AE
:101DDC007047FEE7FEE7FEE7FEE770477047704787
:101DEC0000F00ABD01F0F4BE01F008BB7047000022
:101DFC00014801F045BA00BF88070020014801F0F6
:101E0C003FBA00BF400A0020014800F047BD00BFA8
:101E1C00580700200022094B5A626FF00102084B50
:101E2C001B681A61074B1A78012A05D102221A7015
:101E3C004FF4FA72044BDA63704700BF00040040A1
:101E4C00C009002020070020002C01400022044B78
:101E5C005A626FF00102034B1B681A61704700BF96
:101E6C0000040040C00900206FF00102F8B5634B7C
:101E7C00634C1B681A61FFF7B7F82378032B00F249
:101E8C00BC80DFE803F0021A026A4FF480415D481F
:101E9C0001F048FE01215B4801F044FE4FF48051F3
:101EAC00584801F03FFE57484FF4005101F03AFEFC
:101EBC00BDE8F8405448FFF75ABC544B1B68012B43
:101ECC0028D0534A13889BB24BB352490B68012B51
:101EDC0005D1514A136801331D2B23DC13604F4984
:101EEC000B68012B05D14E4A136801331D2B21DCE5
:101EFC0013604C490B68012B7FD14B4B1A6840F691
:101F0C00B7339A42494B26D81A680132092A19DC90
:101F1C001A60F8BDFFF716F90128D2D1F8BD0123DC
:101F2C001380D2E700231360414A0B601360FFF764
:101F3C00FFFAD4E7002313603E4A0B601360FFF7EF
:101F4C00F7FAD6E700221A603B4B0A601A60BDE82C
:101F5C00F840FFF7EDBA0022DAE72D4A13889BB25E
:101F6C000BB9012313802848FFF701FC0228334DDD
:101F7C00334F344E1BD12B6801330A2B2B602CD1E1
:101F8C000023012220211F482B6001F0B1FD4FF4EA
:101F9C00FA724FF080434FF40051DA62194801F0A5
:101FAC00C1FD032323703B7000233360F8BD16483A
:101FBC00FFF7DDFB0328DED00321002233683970E4
:101FCC000133092B2A6033600FDD4FF400510D48AB
:101FDC0001F08EFD01232370F8BD00222021094859
:101FEC0001F086FD4FF47A72D3E7217005484FF467
:101FFC000051BDE8F84001F095BDF8BD000A002085
:10200C00E4060020000C0140D4080020E806002063
:10201C0018070020940600209C060020B80600201B
:10202C00C0060020A0060020A8060020B406002050
:10203C0098060020BC060020B00600201C070020DB
:10204C0020070020080700206FF00102334B70B509
:10205C001B681A61324B1A782AB11A78012A02D0FD
:10206C001A78032A05D100222E498A634A632E4925
:10207C000A801A78032A50D01A782B4D012A04BFF3
:10208C0002221A70294B2A4C5A6AB2F5F97F1A4669
:10209C0016D32178A1B95B6A224AB3F5FA7F24BF23
:1020AC000123237000232B8053639363FEF70AFDF7
:1020BC00204A13889BB2002B2FD10123138070BDB3
:1020CC0040F2E533526A9A4211D92678F6B2012EC3
:1020DC000DD10023134A23702B8053639363FEF7B7
:1020EC00F1FC144A13889BB2BBB9168070BD2378DF
:1020FC0003F0FF0223B90B4EB263FFF765FA70636E
:10210C002378012B05D10023064C6363FFF75CFA9F
:10211C00A0632B8801339BB22B8070BD80090020FB
:10212C002007002000040040E2060020002C0140A3
:10213C00E0060020220700206FF0010208B5324BA8
:10214C001B681A61314B1B889BB2012B304B0AD197
:10215C000321304A117000212F4A11601A78022A8B
:10216C0051D002221A701A78032A24D1294A1278E3
:10217C00012A20D1294A1268EAB9294A1268D2B92F
:10218C00284A1268BAB9284A1268A2B927482849BD
:10219C000280098889B201290DD11970254B9A63E7
:1021AC005A6303F59433DA630280FFF7D5F8BDE880
:1021BC000840FFF71DB91A78022A24D1154A127863
:1021CC00032A0BD01A4A128892B23AB1134A1268F7
:1021DC00012A03D0124A1268012A10D103221A7064
:1021EC000023144A9363536302F59432D3630F4A6A
:1021FC001380FFF7B8F8BDE80840FFF700B9094AAB
:10220C001268012AEAD008BD400900200C07002002
:10221C0020070020E4060020080700209406002078
:10222C00A0060020B806002004070020E2060020CB
:10223C000E07002000040040014803F003BA00BF61
:10224C00840A00200F4B1A6842F001021A60596888
:10225C000D4A0A405A601A6822F0847222F48032C5
:10226C001A601A6822F480221A605A6822F4FE025C
:10227C005A604FF41F029A604FF00062034B9A6051
:10228C00704700BF001002400000FFF800ED00E0B6
:10229C007FB51022002102A803F0C6FA002348F6ED
:1022AC009F424FF0804114480093019380E8060050
:1022BC0083604FF47A7203618023C260836102F001
:1022CC0015FC08B1FFF744FD4FF4805302A90A48EE
:1022DC00029302F0B3F908B1FFF73AFD0023694607
:1022EC0005480093019302F059FF08B1FFF730FD48
:1022FC0007B05DF804FB00BF000A00207FB5102278
:10230C00002102A803F090FA00231448144A009309
:10231C000193026083604FF47A7203618023426000
:10232C00C260836102F0E2FB08B1FFF711FD4FF4CC
:10233C00805302A90948029302F080F908B1FFF713
:10234C0007FD0023694605480093019302F026FF20
:10235C0008B1FFF7FDFC07B05DF804FB4009002055
:10236C00000800401FB503682E4A93421CD12E4B27
:10237C0018209A6942F400629A6100229B69114606
:10238C0003F400630093009B00F0C2FD182000F0E2
:10239C0001FE00221920114600F0BAFD192000F0B0
:1023AC00F9FD05B05DF804FBB3F1804F11D103F5D5
:1023BC000433DA691C2042F00102DA61DB69032282
:1023CC0003F0010301930121019B00F0A1FD1C20EE
:1023DC00E5E7164A934210D1134B1D20DA69002110
:1023EC0042F00202DA61DB69012203F0020302937C
:1023FC00029B00F08DFD1D20D1E70D4A9342D0D1F8
:10240C00094B1E20DA69012142F00402DA61DB6912
:10241C00002203F004030393039B00F079FD1E20BC
:10242C00BDE700BF002C014000100240000400403A
:10243C0000080040102230B5044689B00DEB0200B4
:10244C00002103F0F1F92368254A93422FD102248D
:10245C000325244B04A99A69234842F008029A6187
:10246C009A6902F008020192019A9A6942F00402F8
:10247C009A619B69049403F004030293029B0594F4
:10248C00079501F0B7F94FF4806304A9174804933A
:10249C000594079501F0AEF9154A536823F0C00373
:1024AC0043F0E06343F04003536009B030BD114A80
:1024BC009342FAD10B4B04A99A690C4842F00402DE
:1024CC009A619B6903F004030393039BC023049359
:1024DC00022305930323079301F08CF9E5E700BF72
:1024EC00002C014000100240000C0140000801408B
:1024FC00000001400004004010B5002494B01022EC
:10250C00002102A803F090F91C22214606A8009491
:10251C00019403F089F91C2221460DA803F084F9DB
:10252C0040F29F532A482B4A846080E80C004FF4F9
:10253C007A73C360802304614461836102F0D6FA2C
:10254C0008B1FFF705FC4FF4805302A92048029311
:10255C0002F074F808B1FFF7FBFB1D4802F01AFB00
:10256C0008B1FFF7F5FB0024694619480094019463
:10257C0002F014FE08B1FFF7EBFB4FF4FA7307936C
:10258C004FF48073082206A9114806940894099404
:10259C000A940B930C9302F0FBFB08B1FFF7D8FBEA
:1025AC005F22002310924FF400520DA908480D939E
:1025BC000E930F9311931292139302F07BFD08B1BB
:1025CC00FFF7C6FB0248FFF735FF14B010BD00BF84
:1025DC00C0090020002C014010B58EB01022002143
:1025EC0003A803F021F900241C2221460DEB020064
:1025FC000194029403F018F92148224B846080E87E
:10260C0018004FF47A73C36080230461836102F075
:10261C006DFA08B1FFF79CFB4FF4805303A91848DF
:10262C00039302F00BF808B1FFF792FB144802F089
:10263C0009FB08B1FFF78CFB002401A91048019499
:10264C00029402F0ABFD08B1FFF782FB602300227D
:10265C0007A90B480793089409940B9402F042FCC9
:10266C0008B1FFF775FB042207A9054802F03AFCF4
:10267C0008B1FFF76DFB0248FFF7DCFE0EB010BD92
:10268C00800900200004004008B54FF4E13E0A48E0
:10269C000A4B0C2280E80840002342618360C3602F
:1026AC0003618361C36102F0A7FE18B1BDE8084065
:1026BC00FFF74EBB08BD00BF840A00200038014064
:1026CC002DE9F0411027064686B03A46002102A8B3
:1026DC0003F0AAF83268284B9A424AD103F55843C2
:1026EC009A69002542F480429A619A694FF08008F9
:1026FC0002F480420092009A9A6902A942F0080200
:10270C009A619B691D4803F008030193019B4023C8
:10271C000293022303930323059301F06BF81748EC
:10272C0002A9CDF808800395049501F063F8144ACA
:10273C00144C5368204643F0E06343F004035360A9
:10274C00114BA56084E88800C4F80C802561656194
:10275C00A561E56100F068FC08B1FFF7F9FA2520E6
:10276C00346302220321666200F0D2FB252000F0C4
:10277C0011FC06B0BDE8F08100380140000C0140AE
:10278C0000000140400A00204400024038B50E4BC6
:10279C00054618784FF47A73B3FBF0F30B4A1068C4
:1027AC00B0FBF3F000F00CFC044658B90F2D09D81F
:1027BC00024629464FF0FF3000F0AAFB044B20469E
:1027CC001D6038BD012038BD0C0600200806002015
:1027DC0010060020074A08B51368032043F01003C5
:1027EC00136000F077FB0020FFF7D0FFFFF7B2FA81
:1027FC00002008BD00200240034A044B11681B78DE
:10280C000B441360704700BFC40A00200C06002064
:10281C00014B1868704700BFC40A002038B5044645
:10282C00FFF7F6FF0546631C1EBF044B1B78E4182C
:10283C00FFF7EEFF401B8442FAD838BD0C0600208F
:10284C00436A10B59A6A12F0500F1BD19A6A42F47F
:10285C0000729A621A68926802F46022B2F5602FD4
:10286C000CD1DA6852B99A6A22F480729A629A6A26
:10287C00D2045EBF9A6A42F001029A621846FFF7D0
:10288C0061F810BD1B6ABDE810401B6B1847704700
:10289C0008B5406AFFF7FBFF08BD70470368494A5B
:1028AC0010B59342044608D002F58062934204D0DE
:1028BC0040F2D9514448FFF74CFAE368012B04D994
:1028CC0040F2DA514048FFF744FA2369013B0F2BE1
:1028DC0004D940F2DB513C48FFF73BFA23685A68B5
:1028EC00900627D51A68910724D5A26AD2065EBF36
:1028FC00A26A42F40072A2629A6802F46022B2F5F3
:10290C00602F10D1E26872B95A6822F020025A6026
:10291C00A36A23F48073A362A36ADB045EBFA36A79
:10292C0043F00103A3622046FFF70CF86FF012028C
:10293C0023681A6023685A68100630D51A68510744
:10294C002DD5A26AD2065EBFA26A42F40052A262E0
:10295C009A6802F4E042B2F5E04F0AD05A6850058A
:10296C0016D49A6802F46022B2F5602F10D1E26896
:10297C0072B95A6822F080025A60A36A23F4805319
:10298C00A362A36AD9055EBFA36A43F00103A362E5
:10299C00204600F09DFA6FF00C0223681A60236841
:1029AC005A6852060DD51B68DB070AD5A36A204668
:1029BC0043F48033A362FFF770FF6FF001022368CA
:1029CC001A6010BD00240140F46100087047406A91
:1029DC0008B5836A43F040038362C36A43F004037F
:1029EC00C362FFF7F3FF08BD002373B5514A01938F
:1029FC000368044693420D4608D002F58062934268
:102A0C0004D040F2AA614C48FFF7A3F92B68112BB4
:102A1C0004D940F2AB614848FFF79BF96B68013B66
:102A2C000F2B04D940F2AC614348FFF792F9AB6825
:102A3C00072B04D940F2AD613F48FFF78AF994F8AF
:102A4C002430012B73D00123686884F824300628C5
:102A5C00226829684FEA800324D803441F20566B50
:102A6C00053B984026EA000001FA03F30343536345
:102A7C000929AD684FEA41032ED907260B44D068CB
:102A8C001E3B9E4020EA060005FA03F30343D36085
:102A9C00A1F11003012B2AD90020002384F8243043
:102AAC0002B070BD0C280BD803441F20166B233BBF
:102ABC00984026EA000001FA03F303431363D7E7B7
:102ACC0003441F20D66A413B984026EA000001FAD5
:102ADC0003F30343D362CBE7072610690B449E40F4
:102AEC0020EA060005FA03F303431361D0E7114B08
:102AFC009A4216D193681B02CED49368102943F4E2
:102B0C0000039360C8D10D4B0D4A1B68B3FBF2F266
:102B1C000A2353430193019B002BBDD0019B013B26
:102B2C00F8E7A36A012043F02003A362B5E7022073
:102B3C00B6E700BF00240140F4610008080600203D
:102B4C0040420F00002373B50193036804469A6852
:102B5C00D20702D5002002B070BD9A6842F0010283
:102B6C009A60124B124A1B68B3FBF2F30193019B60
:102B7C00C3B9FFF74DFE064623689D6815F00105A5
:102B8C00E8D1FFF745FE801B0228F5D9A36A84F82B
:102B9C00245043F01003A362E36A012043F00103C5
:102BAC00E362D8E7019B013BE0E700BF0806002089
:102BBC0040420F00F8B51746404D02680446AA4241
:102BCC000E4604D040F2FC413D48FFF7C2F82368A2
:102BDC00AB4202D03B4A934204D1384B5B6813F4AE
:102BEC00702F67D194F82430012B65D00123204637
:102BFC0084F82430FFF7A6FF0546002856D1A36AB7
:102C0C00216823F4706323F0010343F48073A362FF
:102C1C002C4B994204D1294A536813F4702F3FD19D
:102C2C00A36A23F48013A3624B685B0548BFA36AB5
:102C3C00206A42BF23F4405343F48053A362A36A37
:102C4C00324613F4805318BFE36A01F14C0118BFEC
:102C5C0023F00603E362002384F824301A4B8362CA
:102C6C001A4BC3621A4B03636FF0020341F84C3CDE
:102C7C0051F8443C43F4807341F8443C3B4600F02B
:102C8C0063FA23689A6802F46022B2F5602F9A689E
:102C9C000CBF42F4A00242F480129A602846F8BDA0
:102CAC00A36A43F48013A3625368BEE7002384F83D
:102CBC002430F3E70125F1E70225EFE7002401407A
:102CCC00F4610008002801404D2800089D280008E8
:102CDC00DB29000838B5036804469A68D20701D48A
:102CEC00002038BD9A6822F001029A60FFF790FD2F
:102CFC00054623689B68DB07F2D5FFF789FD401B6F
:102D0C000228F6D9A36A012043F01003A362E36AF8
:102D1C0043F00103E36238BD70B50446002800F0AF
:102D2C00C9800368664A934208D002F580629342D8
:102D3C0004D04FF4C1716348FFF70BF8636833F4A8
:102D4C00006304D040F283115E48FFF702F8A368D9
:102D5C0033F4807304D04FF4C2715A48FEF7F9FF74
:102D6C00E368012B04D940F285115648FEF7F1FFB8
:102D7C00E36933F420220CD023F40022B2F5C02FE7
:102D8C0007D0B3F5402F04D04FF4C3714D48FEF774
:102D9C00E0FFA368DBB12369013B0F2B04D94FF48F
:102DAC00C5714848FEF7D5FF6369012B04D940F281
:102DBC008B114448FEF7CDFF636943B1A369013B16
:102DCC00072B04D94FF4C7713E48FEF7C2FFA36A24
:102DDC002BB9E36284F824302046FDF7F1FC204641
:102DEC00FFF778FFA36A13F0100FA36A64D10028D1
:102DFC0062D1E16923F48853626823F0020343F043
:102E0C0002030A43A168A362E368B1F5807F42EA3A
:102E1C00430238D0012914BF06464FF48076656909
:102E2C00012D07D1002B30D1A369013B46EA433574
:102E3C0045F400662368B1F5807F5D6825F469452B
:102E4C0045EA06055D609E681F4D05EA060545EAE4
:102E5C0002059D6001D0012920D1216901390905A4
:102E6C00DD6A25F470052943D9629968174B0B402C
:102E7C009A4215D10023E362A36A23F0030343F0C3
:102E8C000103A36270BD0E46C9E7A36A43F0200399
:102E9C00A362E36A43F00103E362CBE70021DFE7BF
:102EAC00A36A23F0120343F01003A362E36A43F016
:102EBC000103E362012070BD43F01003A362F9E744
:102ECC0000240140F4610008FDF7E1FFFE0E1FFF36
:102EDC0070470000C31E042B10B5044603D9A22171
:102EEC000948FEF736FF094A2402D36804F4E0646B
:102EFC0023F4E0631B041B0C43F0BF6343F4003367
:102F0C001C43D46010BD00BF2C62000800ED00E033
:102F1C000F2A70B504460E46154603D9BA211A4835
:102F2C00FEF717FF0F2E03D9BB211748FEF711FF31
:102F3C00164B0120D968C1F30221C1F107030A1D08
:102F4C00042B28BF0423062A94BF0021033900FA5E
:102F5C0003F2013A8840324001388A400540002C87
:102F6C0042EA05024FEA0212AFBF04F16044084B7B
:102F7C0004F00F04D2B2A5BFD2B204F561441A55C5
:102F8C0084F8002370BD00BF2C62000800ED00E047
:102F9C0014ED00E010B5041E03DACE210648FEF74E
:102FAC00D8FE0123620904F01F0403FA04F4034B56
:102FBC0043F8224010BD00BF2C62000800E100E085
:102FCC000138B0F1807F0AD2F021064B064A5860D6
:102FDC0082F823100020072298601A6070470120A5
:102FEC00704700BF10E000E000ED00E010B50446B3
:102FFC0098B102680A4B9A4203D077210948FEF730
:10300C00A8FE637903F0FF021BB922712046FDF77D
:10301C003DFC01230020637110BD012010BD00BFD9
:10302C00003002406762000810B50446002800F02A
:10303C0081800368404A934215D01432934212D0D7
:10304C00143293420FD0143293420CD01432934268
:10305C0009D01432934206D01432934203D0AA21E1
:10306C003648FEF776FE636833F0100206D0B3F5EF
:10307C00804F03D0AB213148FEF76BFEA36833F0D1
:10308C00400303D0AC212D48FEF763FEE36833F018
:10309C00800303D0AD212948FEF75BFE236933F48E
:1030AC00807206D0B3F5007F03D0AE212348FEF723
:1030BC0050FE636933F4806206D0B3F5006F03D021
:1030CC00AF211E48FEF745FEA36933F0200303D061
:1030DC00B0211A48FEF73DFEE36933F4405303D0A8
:1030EC00B1211648FEF735FE14222168144BA06856
:1030FC000B44B3FBF2F39B002364124B0A68E363AB
:10310C00636822F47F520343E06822F030020343E9
:10311C002069034360690343A0690343E0690343E7
:10312C0013430B6000200123A06384F8213084F842
:10313C00200010BD012010BD080002409F62000855
:10314C00F8FFFDBF000002402DE9F04117469846FC
:10315C005A1E4FF6FE739A4204460E4604D940F2AC
:10316C007F112248FEF7F5FD94F82030012B39D061
:10317C00012394F8215084F820309D424FF0020036
:10318C004FF000032AD12168A36384F82100226C3C
:10319C000868E36B954020F0010008605D6063688F
:1031AC00C1F80480102BE36A22680BBF8F608E601D
:1031BC00CE60CF6053B10B6843F00E030B60136805
:1031CC00002043F001031360BDE8F0810B6823F08D
:1031DC0004030B600B6843F00A03EFE784F820301C
:1031EC00BDE8F0810220BDE8F08100BF9F620008BD
:1031FC0090F8213010B5022B03D0042383630120F7
:10320C0010BD03681A6822F00E021A601A6822F0C8
:10321C0001021A60184A93421FD0143293421ED0F6
:10322C00143293421DD0143293421DD01432934267
:10323C001DD0143293420CBF4FF480134FF08073A7
:10324C000E4A00245360012380F82130436B80F830
:10325C0020407BB19847204610BD0123F0E7102396
:10326C00EEE74FF48073EBE74FF48053E8E74FF44D
:10327C008033E5E7184610BD08000240000002400C
:10328C0070B40425C66B026C346803689540254203
:10329C00196832D04D0730D51A6896065EBF1A6889
:1032AC0022F004021A603E4A934219D0143293421F
:1032BC0018D01432934217D01432934217D01432D0
:1032CC00934217D0143293420CBF4FF480034FF04B
:1032DC008063344A5360C36A002B5ED070BC1847BD
:1032EC000423F6E74023F4E74FF48063F1E74FF44F
:1032FC008043EEE74FF48023EBE70225954025420F
:10330C0035D08D0733D51A68940606D41A6822F086
:10331C000A021A60012280F82120214A934219D016
:10332C001432934218D01432934217D01432934271
:10333C0017D01432934217D0143293420CBF4FF46F
:10334C0000134FF00073174A5360002380F82030AD
:10335C00836AC1E70223F6E72023F4E74FF40073F6
:10336C00F1E74FF40053EEE74FF40033EBE7082599
:10337C009540254211D009070FD5196821F00E018F
:10338C001960012303FA02F27260836380F8213022
:10339C00002380F82030036B9EE770BC704700BFA1
:1033AC000800024000000240114AD36813F01003D9
:1033BC0005D01049CB6943F00203CB611023D268CE
:1033CC00500706D50B4943F00403CA6942F00102C9
:1033DC00CA61074AD169C90708D50648C16941F0D5
:1033EC000401C161D16921F00101D161D360704741
:1033FC0000200240C80A002070477047424B70B54D
:10340C00DA68424C12F0100F02D1DB685A070AD569
:10341C004FF0FF33A568A360FFF7C6FF2846FFF700
:10342C00ECFF00232370384DEB689B0618D5202346
:10343C00EB602378A3B12378012B27D16368013B80
:10344C0063606368DBB1A068FFF7D6FFA06800F586
:10345C008060A0602B6923F002032B6100F010F94F
:10346C00237803F0FF014BB9274B1A6922F00702AE
:10347C001A611A6922F4A0521A61217670BD4FF0BC
:10348C00FF30A0602370FFF7B7FFE9E72378022B2A
:10349C0009D12B69002023F004032B61FFF7ACFF4B
:1034AC0000232370DCE76368013B63606368D3B17E
:1034BC00A3680233A360A668D4E90401020C42EAB3
:1034CC0001420B0CC4E904232B6923F001032B618B
:1034DC00D4E904230023E3612B6992B243F0010386
:1034EC002B613280BCE72378032B06D1A068FFF751
:1034FC0083FF4FF0FF33A360D2E72378A068042B3F
:10350C000CBF02380638F2E700200240C80A00203F
:10351C00064B186910F0800007D0054A5A6002F17A
:10352C0088325A601869C0F3C010704700200240FE
:10353C0023016745034A0020136943F0800313619C
:10354C00704700BF00200240F8B50646FFF760F94F
:10355C00114C07462546E368D80712D4E368990650
:10356C0044BF2023E360EB68DA0606D4EB69DB0783
:10357C0003D4E86810F0040002D0FFF715FF012017
:10358C00F8BD731CE7D00EB90320F8BDFFF740F966
:10359C00C01B8642DFD2F7E7002002402DE9F84F2E
:1035AC001F462F4B16461A7E8346012A894698469B
:1035BC0052D0012388F81830431E022B03D9C221A4
:1035CC002848FEF7C6FBB9F1006F06D3264B1B88C3
:1035DC00802B38D1254B994503D9C3212148FEF7BF
:1035EC00B8FB4CF25030FFF7AFFF38BBBBF1010F0B
:1035FC0006D0BBF1020F0CBF4FF0020B4FF0040BC7
:10360C000024A2461A4D220130463946FCF798FD9B
:10361C00C8F81CA02B6980B243F001032B6129F878
:10362C0014004CF25030FFF78FFF2B6923F001038D
:10363C002B6118B90134E3B29B45E4D8002388F818
:10364C001830BDE8F88F402B01D10A4BC3E7202B73
:10365C000CBF094B094BBEE70220BDE8F88F00BF39
:10366C00C80A0020D7620008E0F7FF1FFFFF01081F
:10367C0000200240FFFF0008FF7F0008FF3F00080A
:10368C000022064BDA61064B1A6942F002021A61FB
:10369C0058611A6942F040021A617047C80A00204A
:1036AC00002002402DE9F0414A4C0646237E0D468F
:1036BC00012B00F08B8001232376036833F0020387
:1036CC0003D0B8214448FEF744FB3368022B1CD1CD
:1036DC004CF25030FFF738FF20B101200023237645
:1036EC00BDE8F0813D4DE0612B694CF2503043F068
:1036FC0004032B612B6943F040032B61FFF724FF7C
:10370C002B6923F004032B61E8E7B368B3F1006F76
:10371C0006D3334A1288802A3CD1324A934203D9C9
:10372C00F9212D48FEF715FB2D4BB2681B88F1686B
:10373C00802B38D1013A02EB81232A4A93428CBF69
:10374C00002301231BB9FA212348FEF702FB4CF29C
:10375C005030FFF7F9FE0028BFD14FF0FF330120A6
:10376C002B60B768DFF87480F268B36803EB8223D0
:10377C009F42B3D23846FFF783FF4CF25030FFF72D
:10378C00E3FED8F8103023F00203C8F81030D0B1A3
:10379C002F60A3E7402A01D1134ABFE7202A0CBFB0
:1037AC00124A134ABAE7402B04D1531E03EB812370
:1037BC000D4AC3E7202B02F1FF3303EB81230CBF2F
:1037CC000A4A0B4ABAE707F58067CDE70220BDE845
:1037DC00F08100BFC80A00201163000800200240DD
:1037EC00E0F7FF1FFFFF0108FFFF0008FF7F000845
:1037FC00FF3F00082DE9F04FAA4A85B090420446DD
:10380C008B46019213D002F5806290420FD002F5E4
:10381C00806290420BD002F58062904207D002F594
:10382C008062904203D0CD219F48FEF792FADBF8DC
:10383C00002091B211B1120C12041AB1CE219A4887
:10384C00FEF787FADBF80420032A17D9A2F111013D
:10385C00012913D9954822F4001181420ED000F5AC
:10386C00801082420AD0A0F57020814206D0904987
:10387C008A4203D0CF218C48FEF76BFA0025A8466C
:10388C00DFF844A28B4E0122DBF8007002FA08F933
:10389C0009EA0707B94540F08F80019B9C4211D083
:1038AC0085498C420ED0854B9C420BD001F50061B2
:1038BC008C4207D001F580618C4203D0DD217A481F
:1038CC00FEF747FADBF80410122900F0D38000F25F
:1038DC008D80022900F0C18077D8002900F09380F8
:1038EC00012900F0AE80FF2F82BF08F1804EAEF1AF
:1038FC00080E4FEA8E014FF00F0E9DBF2046226836
:10390C004FEA880162680EFA01FC22EA0C0205FA01
:10391C0001F188BF201D11430160DBF80400C300D6
:10392C004AD5DAF8182028F0030142F00102CAF84F
:10393C001820DAF8182001F1804102F001020392FC
:10394C0001F5803108F0030C019B039A4FEA8C0CB3
:10395C008A680EFA0CFE9C4222EA0E0E00F09B8046
:10396C00554A944200F09980544B9C4200F0978049
:10397C0002F50062944214BF0422032202FA0CF2F4
:10398C0042EA0E028A603268C1034CBF3A43BA4322
:10399C003260726883034CBF3A43BA437260B268B8
:1039AC00C1024CBF3A43BA43B260F26883024CBFC7
:1039BC00174322EA0707F76008F10108B8F1100F66
:1039CC007FF461AF05B0BDE8F08F03295FD01129FA
:1039DC0089D1DBF80C20013A022A03D9EC213248B8
:1039EC00FEF7B7F9DBF80C5004357CE7344881421C
:1039FC0009D01CD8A0F58010814204D000F580308D
:103A0C0081427FF470AFDBF80810022904D940F230
:103A1C0007112548FEF79DF9DBF80810C9B30129F9
:103A2C000CBFC4F81090C4F8149008255BE7254827
:103A3C008142E8D000F580308142E4D0A0F58010BE
:103A4C00DEE7DBF80C20013A022A03D9E5211648FF
:103A5C00FEF77FF9DBF80C5045E7DBF80C20013A58
:103A6C00022A03D9F3211048FEF773F9DBF80C5046
:103A7C00083538E7DBF80C20013A022A03D9FA2181
:103A8C000948FEF766F9DBF80C500C352BE70025DE
:103A9C0029E7042527E7002270E701226EE70222BE
:103AAC006CE700BF000801404E63000800001110D5
:103ABC000000221000040140000C014000100140E5
:103ACC0000002110000031100010024038B50546EE
:103ADC000C4621B940F2C3110448FEF73AF9AB6821
:103AEC001C4214BF0120002038BD00BF4E630008EB
:103AFC0070B5054616460C4621B940F2E31108484C
:103B0C00FEF727F9012E06D94FF4F2710448FEF79F
:103B1C0020F92C6170BD002EFBD12404F9E700BF05
:103B2C004E63000838B505460C4621B940F2F91130
:103B3C000348FEF70EF9EB685C40EC6038BD00BF43
:103B4C004E63000838B50446002832D002681A4B80
:103B5C009A4203D0AD211948FEF7FBF86368062B97
:103B6C0003D9AE211548FEF7F4F8A368B3F5805FCE
:103B7C0003D3AF211148FEF7ECF84CF6CC42236886
:103B8C001A6045F255521A6062685A60A2689A60CF
:103B9C00FEF73EFE05462368D86818B94AF6AA22F5
:103BAC001A6038BDFEF734FE401B3028F3D90320D1
:103BBC0038BD012038BD00BF0030004087630008CD
:103BCC004AF6AA22036800201A607047704700006A
:103BDC0010B5054C6369DB0304D5FFF7F7FF4FF411
:103BEC008033636110BD00BF000401402DE9F34137
:103BFC00044620B94FF4B871A548FEF7AAF823681B
:103C0C0033B11A0704D140F27111A148FEF7A1F8A3
:103C1C002368DB0718D423689F0772D4236819071D
:103C2C0000F1B98023685A0700F1EB80E369022B9D
:103C3C0004D940F2B9219648FEF78BF8E269002AC4
:103C4C0040F05E81002020E0636833F4803207D0BE
:103C5C00B3F5A02F04D040F277118D48FEF779F818
:103C6C008C4D6B6803F00C03042B07D06B6803F0CE
:103C7C000C03082B0CD16B68DE0309D52B689D0354
:103C8C00C9D56368002BC6D1012002B0BDE8F08114
:103C9C006368B3F5803F10D12B6843F480332B60FD
:103CAC00FEF7B6FD06462B689803B4D4FEF7B0FDBC
:103CBC00801B6428F7D90320E7E79BB92B6823F412
:103CCC0080332B602B6823F480232B60FEF7A0FD40
:103CDC0006462B6899039ED5FEF79AFD801B642837
:103CEC00F7D9E8E7B3F5A02F2B6803D143F4802371
:103CFC002B60D1E723F480332B602B6823F48023D3
:103D0C00CDE72369012B04D940F2AB116048FEF7D3
:103D1C0020F863691F2B04D94FF4D6715C48FEF769
:103D2C0018F85C4D6B6813F00C0F07D06B6803F040
:103D3C000C03082B10D16B68DA030DD42B689B078E
:103D4C0002D52369012B9FD12B68626923F0F803FC
:103D5C0043EAC2032B6061E722694F4B6AB101222F
:103D6C001A60FEF755FD06462B689F07ECD4FEF74C
:103D7C004FFD801B0228F7D99DE71A60FEF748FD1E
:103D8C0006462B6898077FF549AFFEF741FD801B6F
:103D9C000228F6D98FE7A369012B04D94FF4F671E9
:103DAC003B48FDF7D6FFA2693A4D3C4BDAB10122F4
:103DBC001A60FEF72DFD06466B6A9B070DD54FF476
:103DCC00FA52374B1B68B3FBF2F3019300BF019B14
:103DDC005A1E0192002BF9D124E7FEF719FD801B26
:103DEC000228E9D967E71A60FEF712FD06466B6AEE
:103DFC009F077FF517AFFEF70BFD801B0228F6D946
:103E0C0059E7E368012B06D9052B04D040F21B219E
:103E1C001F48FDF79EFF1F4DEB69D80024D40127E6
:103E2C00EB6943F08053EB61EB6903F08053009333
:103E3C00009B1C4E3368D90518D5E368012B33D190
:103E4C002B6A43F001032B62FEF7E2FC41F2883649
:103E5C0080462B6A9B074CD5002F3FF4E7AEEB69ED
:103E6C0023F08053EB61E1E60027E2E7336843F48B
:103E7C0080733360FEF7CCFC80463368DA05DCD403
:103E8C00FEF7C6FCA0EB08006428F6D913E700BFC8
:103E9C00C06300080010024000004242800442420D
:103EAC000806002000700040ABB92B6A41F288383C
:103EBC0023F001032B622B6A23F004032B62FEF721
:103ECC00A7FC06462B6A9807C6D5FEF7A1FC801BFB
:103EDC004045F7D9EFE6052B2B6A03D143F00403D9
:103EEC002B62ADE723F001032B622B6A23F0040352
:103EFC00A9E7FEF78DFCA0EB0800B042A9D9DAE6E1
:103F0C00384D6B6803F00C03082B3FF4BDAE022A4E
:103F1C00354E57D1236A33F4803304D040F2C2219A
:103F2C003248FDF716FF636A33F4402223F48021F4
:103F3C0010D0B2F5801F0DD0B2F5001F0AD0B1F52C
:103F4C00401F07D0B3F5601F04D040F2C3212748AF
:103F5C00FDF7FFFE00233360FEF75AFC07462B6883
:103F6C00990129D4236AB3F5803F0ED1A36833F4A9
:103F7C00003304D040F2D9211C48FDF7EAFE6B68EF
:103F8C00A26823F4003313436B60236A616A6A6886
:103F9C000B4322F4741213436B6001233360FEF75E
:103FAC0037FC04462B689A013FF54CAEFEF730FC0B
:103FBC00001B0228F6D97EE6FEF72AFCC01B02285D
:103FCC00CDD978E600233360FEF722FC04462B683B
:103FDC009B017FF537AEFEF71BFC001B0228F6D9C0
:103FEC0069E600BF0010024060004242C063000856
:103FFC0030B5194B87B002AC03F110052246186896
:10400C005968083303C2AB421446F7D101238DF82B
:10401C000430022311498DF805304B6803F00C0273
:10402C00082A17D1C3F3834206A80244DB0312F813
:10403C00102C0CD54B680A48C3F34043504306AAD6
:10404C00134413F8143CB0FBF3F007B030BD054833
:10405C005043FAE70248F8E7FC6000080010024001
:10406C0000127A0000093D002DE9F0410E4604468D
:10407C0020B940F22E317F48FDF76BFE23681D07F7
:10408C0004D140F22F317B48FDF763FE022E04D998
:10409C004FF44C717748FDF75CFE774A136803F0D8
:1040AC0007039E423DD82368980747D42368DA0754
:1040BC0070D4714A136803F007039E42C0F0B580B8
:1040CC0023686E4D13F0040F40F0BB8023681B0770
:1040DC0017D5236933F480620CD023F40072B2F547
:1040EC00A06F07D0B3F5C06F04D04FF46E71614868
:1040FC00FDF72FFE6B68226923F4605343EAC20379
:10410C006B60FFF775FF6B685D4AC3F30313D35CF9
:10411C00D8405C4B18600020FEF738FB0020BDE84F
:10412C00F081136823F0070333431360136803F023
:10413C0007039E42B7D00120BDE8F0814F4D13F02C
:10414C00040F1EBF6A6842F4E0626A60190742BF3E
:10415C006B6843F460536B60A36833F0800212D039
:10416C0023F02002902A0ED023F04002A02A0AD07D
:10417C0023F01002C02A06D0F02B04D040F25631A6
:10418C003C48FDF7E6FD6B68A26823F0F00313438F
:10419C006B608BE76368022B04D940F25D313548C4
:1041AC00FDF7D7FD6268354D012A2B681DD113F43C
:1041BC00003FC0D06B6841F2883823F003031343EF
:1041CC006B60FEF725FB63680746012B15D16B6806
:1041DC0003F00C03042B3FF46CAFFEF719FBC01B70
:1041EC004045F4D90320BDE8F081022A02D113F036
:1041FC00007FDEE713F0020FDBE7022B10D16B68B8
:10420C0003F00C03082B3FF454AFFEF701FBC01B6B
:10421C004045F4D9E6E7FEF7FBFAC01B4045E1D870
:10422C006B6813F00C0FF6D143E7136823F0070308
:10423C0033431360136803F007039E427FF47BAF94
:10424C003EE7E36833F480620CD023F40072B2F5DD
:10425C00A06F07D0B3F5C06F04D040F2B131054860
:10426C00FDF777FD6B68E26823F4E06313436B6042
:10427C002CE700BFC0630008002002400010024081
:10428C00DC61000808060020044B054A5B68C3F398
:10429C000223D35C034A1068D840704700100240D8
:1042AC00EC61000808060020044B054A5B68C3F368
:1042BC00C223D35C034A1068D840704700100240F8
:1042CC00EC6100080806002003682DE9F34113F0A7
:1042DC00130F054603D17C214548FDF73AFD2B68A9
:1042EC00D90728D56B6833F4407303D0822140483A
:1042FC00FDF72FFD3F4CE369DA0044D40127E36955
:10430C0043F08053E361E36903F080530193019B15
:10431C00394E3368DB0538D5236A13F4407348D122
:10432C00236A6A6823F44073134323621FB1E36961
:10433C0023F08053E3612B689B070ED5AB6833F4F5
:10434C00404303D0C9212A48FDF703FD294AA96837
:10435C00536823F440430B435360286810F010005B
:10436C0024D0EB6833F4800304D040F225112048AC
:10437C00FDF7EFFC1F4AE9685368002023F4800323
:10438C000B43536012E00027C2E7336843F4807399
:10439C003360FEF73DFA80463368D805BCD4FEF78F
:1043AC0037FAA0EB08006428F6D9032002B0BDE868
:1043BC00F0816A6802F440729342B1D001200F4A36
:1043CC00236A1060002023F4407110602162D90729
:1043DC00A6D5FEF71DFA41F288380646236A9A07DD
:1043EC009ED4FEF715FA801B4045F7D9DDE700BFD8
:1043FC00F863000800100240007000404004424284
:10440C00036A2DE9F04123F001030362046AD0F83A
:10441C00048086690B6826F073061E438B6824F0B3
:10442C0002041C431A4B054698420F4627D1CB6811
:10443C0033F0080304D041F23F211648FDF789FC04
:10444C00FB6824F008041C43BB6924F0040433F417
:10445C00007304D041F24C210E48FDF77AFC7B69C5
:10446C0033F4807304D041F24D210A48FDF771FCFE
:10447C007B69BA6928F44078134343EA08087B68DF
:10448C00C5F80480AE616B632C62BDE8F08100BF9F
:10449C00002C014033640008036A2DE9F04123F439
:1044AC0080730362046AD0F80480C6690B6826F036
:1044BC0073061E438B6824F4007444EA03241B4BDC
:1044CC00054698420F4628D1CB6833F0080304D038
:1044DC0041F2D4211648FDF73CFCFB6824F400643F
:1044EC0044EA0324BB6924F4806433F4007304D0DD
:1044FC0041F2E1210E48FDF72CFC7B6933F480730B
:10450C0004D041F2E2210A48FDF723FC7B69BA6929
:10451C0028F44058134348EA03187B68C5F8048014
:10452C00EE61EB632C62BDE8F08100BF002C014012
:10453C0033640008036A2DE9F04123F480530362CD
:10454C00056AD0F80480C7690B6827F4E64747EA88
:10455C0003278B6825F4005545EA03350D4B0446BB
:10456C0098420E460DD14B6933F4807304D041F25E
:10457C001F310948FDF7EDFB736928F4804848EAC0
:10458C0083187368C4F80480E76123642562BDE86E
:10459C00F08100BF002C0140336400080368114A0D
:1045AC0010B5934204460FD0B3F1804F0CD0A2F556
:1045BC009432934208D002F58062934204D040F2C8
:1045CC0033110948FDF7C5FB0223226884F83D30FE
:1045DC001368002043F001031360012384F83D307D
:1045EC0010BD00BF002C0140336400080368104A62
:1045FC0010B5934204460FD0B3F1804F0CD0A2F506
:10460C009432934208D002F58062934204D040F277
:10461C0061110848FDF79DFB23680020DA6842F021
:10462C000102DA601A6842F001021A6010BD00BF84
:10463C00002C0140336400087047704790F83C3000
:10464C0070B5012B05460C464FF002002ED001230D
:10465C0085F83C300B6885F83D00B3F5805F0CD0D5
:10466C00B3F5005F09D033F0300306D0402B04D0F3
:10467C0040F67171B548FDF76CFB2B689A6822F413
:10468C007F4222F077029A602268402A00F0628111
:10469C002CD8102A00F0B98109D8002A00F09B818F
:1046AC000123002085F83D3085F83C0070BD202AA0
:1046BC0000F0C581302AF3D1A54A93420FD0B3F153
:1046CC00804F0CD0A2F59432934208D002F5806250
:1046DC00934204D040F6F9719C48FDF73AFB2A68E6
:1046EC00936823F0700343F03703A9E0702A00F0BD
:1046FC00A98046D8502A00F0E780602AD0D1944A8D
:10470C0093420FD0B3F1804F0CD0A2F59432934268
:10471C0008D002F58062934204D040F6C3718B48F6
:10472C00FDF717FB6368B3F5004F09D033F00202B5
:10473C0006D00A2B04D040F6C6718448FDF709FB5D
:10474C00E3680F2B04D940F6C7718048FDF701FBD5
:10475C002B686668186AE46820F010001862996982
:10476C001A6A21F4704122F0A00242EA061241EAD0
:10477C00043199611A629A6822F0700242F0670261
:10478C00E2E0B2F5805F44D0B2F5005F88D1704AA8
:10479C0093420FD0B3F1804F0CD0A2F594329342D8
:1047AC0008D002F58062934204D04FF47A616748D6
:1047BC00FDF7CFFAA36833F4405304D040F6A3714D
:1047CC006248FDF7C6FA6368B3F5004F09D033F0C1
:1047DC00020206D00A2B04D040F6A4715B48FDF708
:1047EC00B8FAE3680F2B04D940F6A5715748FDF7CA
:1047FC00B0FA2A686068A36891680343E06821F402
:10480C007F4143EA00230B439360936843F4804356
:10481C0016E04F4A93420FD0B3F1804F0CD0A2F563
:10482C009432934208D002F58062934204D040F651
:10483C007D714648FDF78DFA2A68936823F00703CB
:10484C0093602DE7424A93420FD0B3F1804F0CD0C6
:10485C00A2F59432934208D002F58062934204D0C0
:10486C0040F686713948FDF774FAA36833F4405367
:10487C0004D040F689713548FDF76BFA6368B3F5DF
:10488C00004F09D033F0020206D00A2B04D040F6B8
:10489C008A712E48FDF75DFAE3680F2B04D940F6B8
:1048AC008B712A48FDF755FA2A686068A3689168ED
:1048BC000343E06821F47F4143EA00230B439360F8
:1048CC00936843F07703BBE7214A93420FD0B3F1CF
:1048DC00804F0CD0A2F59432934208D002F580623E
:1048EC00934204D040F6B4711848FDF732FA63686D
:1048FC00B3F5004F09D033F0020206D00A2B04D0D6
:10490C0040F6B7711148FDF724FAE3680F2B04D970
:10491C0040F6B8710D48FDF71CFA2B686168186AEF
:10492C00E6681C6A20F00A0024F001041C629A69F3
:10493C00014322F0F00242EA06129A6119629A6867
:10494C0022F0700242F057029A60A9E63364000824
:10495C00002C0140474A93420FD0B3F1804F0CD04A
:10496C00A2F59432934208D002F58062934204D0AF
:10497C0040F6D2714048FDF7ECF96368B3F5004F8F
:10498C0009D033F0020206D00A2B04D040F6D571C0
:10499C003948FDF7DEF9E3680F2B04D940F6D671E0
:1049AC003548FDF7D6F92B686168186AE6681C6A09
:1049BC0020F00A0024F001041C629A69014322F0E1
:1049CC00F00242EA06129A6119629A6822F07002A9
:1049DC0042F04702B8E7274A93420FD0B3F1804F19
:1049EC000CD0A2F59432934208D002F58062934227
:1049FC0004D040F6E1712048FDF7ABF92A689368C2
:104A0C0023F0700343F007031AE71A4A93420FD0BE
:104A1C00B3F1804F0CD0A2F59432934208D002F53A
:104A2C008062934204D040F6E9711348FDF791F986
:104A3C002A68936823F0700343F0170300E70D4ACC
:104A4C0093420FD0B3F1804F0CD0A2F59432934225
:104A5C0008D002F58062934204D040F6F17106480A
:104A6C00FDF777F92A68936823F0700343F0270366
:104A7C00E6E600BF002C0140336400081A4A0368C4
:104A8C0090420AD0B0F1804F07D0A2F594329042F8
:104A9C0003D002F58062904215D14A6823F070036E
:104AAC001343114A90420AD0B0F1804F07D0A2F5BF
:104ABC009432904203D002F58062904203D1CA68CE
:104ACC0023F4407313434A6923F0800313430360B8
:104ADC008B68C3620B688362034B984204BF0B69FB
:104AEC000363012343617047002C014010B5044659
:104AFC00002849D00368254A93420ED0B3F1804F69
:104B0C000BD0A2F59432934207D002F58062934207
:104B1C0003D0D9211E48FDF71CF9A36833F010020D
:104B2C0009D023F04002202A05D0402B03D0DA21F3
:104B3C001748FDF70EF9236933F4807206D0B3F5EC
:104B4C00007F03D0DB211248FDF703F9A36933F092
:104B5C00800303D0DC210E48FDF7FBF894F83D30C0
:104B6C0003F0FF0223B984F83C202046FDF7FAFB42
:104B7C000223206884F83D30211DFFF77FFF0123BD
:104B8C00002084F83D3010BD012010BD002C0140E8
:104B9C003364000810B5044600284DD00368274A3A
:104BAC0093420FD0B3F1804F0CD0A2F594329342C4
:104BBC0008D002F58062934204D040F2F1112048F3
:104BCC00FDF7C7F8A36833F010020AD023F04002B7
:104BDC00202A06D0402B04D04FF4F9711848FDF769
:104BEC00B8F8236933F4807207D0B3F5007F04D092
:104BFC0040F2F3111248FDF7ACF8A36933F08003CF
:104C0C0004D04FF4FA710E48FDF7A3F894F83D3038
:104C1C0003F0FF0223B984F83C202046FFF70CFD7B
:104C2C000223206884F83D30211DFFF727FF012364
:104C3C00002084F83D3010BD012010BD002C014037
:104C4C003364000810B5044600284DD00368274A89
:104C5C0093420FD0B3F1804F0CD0A2F59432934213
:104C6C0008D002F58062934204D040F2EE31204825
:104C7C00FDF76FF8A36833F010020AD023F040025E
:104C8C00202A06D0402B04D040F2EF311848FDF713
:104C9C0060F8236933F4807207D0B3F5007F04D039
:104CAC004FF47C711248FDF754F8A36933F080037C
:104CBC0004D040F2F1310E48FDF74BF894F83D303A
:104CCC0003F0FF0223B984F83C202046FFF7B5FC23
:104CDC000223206884F83D30211DFFF7CFFE01230D
:104CEC00002084F83D3010BD012010BD002C014087
:104CFC0033640008036A2DE9F04123F010030362CA
:104D0C00046AD0F8048086690B6826F4E64646EA05
:104D1C0003268B6824F0200444EA03141A4B05463E
:104D2C0098420F4628D1CB6833F0080304D041F2E7
:104D3C0089211648FDF70DF8FB6824F0800444EA3D
:104D4C000314BB6924F0400433F4007304D041F223
:104D5C0097210E48FCF7FDFF7B6933F4807304D078
:104D6C0041F298210948FCF7F4FF7B69BA6928F4F1
:104D7C004068134348EA83087B68C5F80480AE6139
:104D8C00AB632C62BDE8F081002C01403364000859
:104D9C00182A70B504460D46164603D84E4BD34020
:104DAC00DB0704D44FF439614C48FCF7D2FF2B6875
:104DBC0023F0100233F0300306D0402A04D040F622
:104DCC0091314648FCF7C5FFAB6833F0020304D0C1
:104DDC0040F692314148FCF7BCFF94F83C3002207D
:104DEC00012B2DD0012384F83D0084F83C300C2E8F
:104DFC0020D8DFE806F0071F1F1F261F1F1F3F1FAD
:104E0C001F1F58002368364A93420FD0B3F1804FCE
:104E1C000CD0A2F59432934208D002F580629342F2
:104E2C0004D040F69D312D48FCF793FF29462068AD
:104E3C00FFF7E6FA0123002084F83D3084F83C00AB
:104E4C0070BD2368264A93420FD0B3F1804F0CD02B
:104E5C00A2F59432934208D002F58062934204D0BA
:104E6C0040F6A5311D48FCF774FF29462068FFF772
:104E7C0041FFDFE723681A4A93420FD0B3F1804F0A
:104E8C000CD0A2F59432934208D002F58062934282
:104E9C0004D040F6AD311148FCF75BFF2946206881
:104EAC00FFF7FAFAC6E723680D4A93420FD0B3F125
:104EBC00804F0CD0A2F59432934208D002F5806258
:104ECC00934204D040F6B5310448FCF742FF294622
:104EDC002068FFF72FFBADE71111000133640008C8
:104EEC00002C014090F83C3070B5012B04460D4667
:104EFC00164600F0D6800123182A80F83C3003D8DF
:104F0C00694BD340DB0704D440F637416748FCF7C4
:104F1C0020FF2B6823F01003602B04D040F638419F
:104F2C006248FCF716FFAB6833F0020304D040F67E
:104F3C0039415E48FCF70DFF2B6933F0040304D0B4
:104F4C0040F63A415948FCF704FF022384F83D30FF
:104F5C000C2E2DD8DFE806F0072C2C2C332C2C2C07
:104F6C00592C2C2C7F002368514A93420FD0B3F15B
:104F7C00804F0CD0A2F59432934208D002F5806297
:104F8C00934204D040F642414848FCF7E2FE2946E1
:104F9C002068FFF735FA236829699A6942F00802FC
:104FAC009A619A6922F004029A619A690A439A6199
:104FBC000123002084F83D3084F83C0070BD236848
:104FCC003B4A93420FD0B3F1804F0CD0A2F59432F0
:104FDC00934208D002F58062934204D040F65141CE
:104FEC003248FCF7B6FE29462068FFF783FE23689B
:104FFC0029699A6942F400629A619A6922F4806282
:10500C009A619A6942EA0122D1E72368284A9342BD
:10501C000FD0B3F1804F0CD0A2F59432934208D04C
:10502C0002F58062934204D04FF446611F48FCF7AE
:10503C0090FE29462068FFF72FFA23682969DA6960
:10504C0042F00802DA61DA6922F00402DA61DA6904
:10505C000A43DA61ACE72368154A93420FD0B3F1E7
:10506C00804F0CD0A2F59432934208D002F58062A6
:10507C00934204D040F66F410C48FCF76AFE294677
:10508C002068FFF757FA23682969DA6942F400624D
:10509C00DA61DA6922F48062DA61DA6942EA0122C1
:1050AC00D7E7022070BD00BF111100013364000866
:1050BC00002C014038B50268364B04469A420D4626
:1050CC0004D04FF4C1613448FCF743FE2B6833F431
:1050DC00006304D040F209612F48FCF73AFE6B687C
:1050EC0033F4806304D040F20A612B48FCF731FEA4
:1050FC00AB6833F4407304D040F20B612648FCF7E4
:10510C0028FEEB68FF2B04D940F20C612248FCF717
:10511C0020FE2B6933F4805304D040F20D611E48FD
:10512C00FCF717FE6B6933F4005304D040F20E61A8
:10513C001948FCF70EFEAB6933F4804304D040F2FF
:10514C000F611548FCF705FE94F83C30012B1ED07E
:10515C000020EB68AA6823F4407313436A6823F4B5
:10516C00806313432A6823F4006313432A6923F4EE
:10517C00805313436A6923F400531343AA6923F43D
:10518C00404313432268536484F83C0038BD02202A
:10519C0038BD00BF002C01406B64000838B5244AB0
:1051AC000368044693420D460FD0B3F1804F0CD0E8
:1051BC00A2F59432934208D002F58062934204D057
:1051CC004FF4C7611B48FCF7C4FD2B6833F0300368
:1051DC0006D0402B04D040F239611648FCF7B9FDDB
:1051EC006B6833F0800304D040F23A611148FCF74D
:1051FC00B0FD94F83C300220012B18D0236884F8C1
:10520C003D005A68296822F070025A605A680020E2
:10521C000A435A609A68696822F080029A609A6818
:10522C000A439A60012384F83C0084F83D3038BD71
:10523C00002C01406B6400080368DA6822F4907259
:10524C00DA605A6922F001025A61202380F83A3060
:10525C00704700004268654B2DE9F0479A42814641
:10526C0004D940F6A7116248FCF773FDD9F80C304D
:10527C0033F4005304D040F6A8115D48FCF769FDE7
:10528C00D9F8103033F4806207D0B3F5C06F04D076
:10529C0040F6A9115648FCF75CFD4FF6F372D9F8AD
:1052AC001430134200D123B940F6AA115048FCF730
:1052BC0050FDD9F80050D9F80C202B69D9F81010F2
:1052CC0023F4405313432B61D9F80830EA680B439D
:1052DC00D9F8141022F4B05222F00C020B431343F1
:1052EC00EB606B69D9F8182023F4407313436B619E
:1052FC00404B19249D4246D1FEF7D6FF04FB00F328
:10530C00D9F804604FF06408B600B3FBF6F3B3FBB6
:10531C00F8F31E01FEF7C8FF6043D9F804309B0078
:10532C00B0FBF3F7FEF7C0FF6043D9F804309B00E5
:10533C00B0FBF3F3B3FBF8F308FB13731B0132332D
:10534C00B3FBF8F303F0F007FEF7AEFF6043D9F8B8
:10535C0004209200B0FBF2FAFEF7A6FF6043D9F8E6
:10536C0004309B00B0FBF3F3B3FBF8F308FB13A37F
:10537C001B013233B3FBF8F303F00F033B4333440D
:10538C00AB60BDE8F087FEF77FFF04FB00F3D9F8B4
:10539C0004604FF06408B600B3FBF6F3B3FBF8F30C
:1053AC001E01FEF771FF6043D9F804309B00B0FB7F
:1053BC00F3F7FEF769FF6043D9F804309B00B0FBAC
:1053CC00F3F3B3FBF8F308FB13731B013233B3FB9A
:1053DC00F8F303F0F007FEF757FF6043D9F8042009
:1053EC009200B0FBF2FAFEF74FFFB7E720AA440099
:1053FC00A66400080038014010B5044600285BD0B4
:10540C00816903682D4A00294AD093420CD0A2F539
:10541C007442934208D002F58062934204D040F269
:10542C000F112748FCF795FCA36933F4407304D0A3
:10543C004FF488712248FCF78CFCA36833F480533A
:10544C0004D04FF48B711E48FCF783FC94F8393070
:10545C0003F0FF0223B984F838202046FDF730F919
:10546C002423226884F83930D368204623F400536F
:10547C00D360FFF7EFFE236800201A6922F49042F4
:10548C001A615A6922F02A025A61DA6842F400520F
:10549C00DA602023E06384F8393084F83A3010BDA8
:1054AC009342CAD0074A9342C7D002F58062934216
:1054BC00C3D04FF48A71BDE7012010BD0038014004
:1054CC00A66400080044004038B50446134694F81E
:1054DC003920202A2AD139B333B394F83820012A41
:1054EC0024D00122002584F838202122E384206B6B
:1054FC00E56384F839200E4AA384216282620D4A46
:10550C004563C2620C4A026322680432FDF71CFE3A
:10551C006FF04002236828461A605A6984F83850A4
:10552C0042F080025A6138BD012038BD022038BDDE
:10553C0049550008775500080156000808B503685E
:10554C00426A1B6813F020030AD1D38413685A698A
:10555C0022F080025A61DA6842F04002DA6008BD3B
:10556C001046FBF733FD08BD704708B5406AFFF7DE
:10557C00FBFF08BD704790F83A3010B5222B36D19E
:10558C0083680169B3F5805F0268836A23D152682E
:10559C00E9B9C2F3080223F8022B8362C48D013CE3
:1055AC00A4B2C4858CB90368DA6822F02002DA60F0
:1055BC00DA6822F48072DA605A6922F001025A61C8
:1055CC00202380F83A30FFF7D5FF002010BDD2B26F
:1055DC0023F8012BE1E721B9591C526881621A703A
:1055EC00DCE75268591C816202F07F02F7E7022067
:1055FC0010BD7047416A08B50B685A6991F83900BB
:10560C0021280AD1120608D50022CA84DA6822F0B1
:10561C00C002DA60202281F839205B6991F83A20C7
:10562C00222A06D15B0604D500230846CB85FFF75A
:10563C0003FECB6B084643F01003CB63FFF7D9FF97
:10564C0008BD0000036870B51A6804461607D968CF
:10565C005D6907D196065AD58D0658D5BDE87040C0
:10566C00FFF789BF15F0010502D111F4907F4ED0E0
:10567C00D30705D5CE0542BFE36B43F00103E363CB
:10568C00500704D51DB1E36B43F00203E3639307AA
:10569C0004D51DB1E36B43F00403E363160704D593
:1056AC001DB1E36B43F00803E363E36B002B66D09F
:1056BC00950604D5880602D52046FFF75CFF2368C3
:1056CC0020465D69E26B110702D415F040051AD033
:1056DC00FFF7B2FD23685A69520610D55A69606B00
:1056EC0022F040025A6150B1254B4363FDF780FD17
:1056FC00002844D0606BBDE87040436B18472046CF
:10570C00FFF777FF70BDFFF774FFE56370BD1606FA
:10571C0027D50D0625D594F83920212A2FD1A2683A
:10572C00B2F5805F226A17D11188C1F30801596064
:10573C00216979B902322262E28C013A92B2E28496
:10574C00EAB9DA6822F08002DA60DA6842F04002E4
:10575C00DA6070BD0132EEE7511C216212785A609A
:10576C00EAE750060BD54A0609D5DA68204622F03E
:10577C004002DA60202384F83930FBF727FC70BD37
:10578C009157000808B50023406AC385C384FFF70E
:10579C0030FF08BD002103E00B4B5B584350043134
:1057AC000A480B4B42189A42F6D30A4A02E00023ED
:1057BC0042F8043B084B9A42F9D3FCF743FD00F046
:1057CC000FF8FCF7FBF870471C6500080000002080
:1057DC007806002078060020EC0A0020FEE7000086
:1057EC0070B500250C4E0D4CA41BA410A54209D17C
:1057FC0000F072FC00250A4E0A4CA41BA410A54212
:10580C0005D170BD56F8253098470135EEE756F8AE
:10581C00253098470135F2E7146500081465000837
:10582C00146500081865000803460244934200D131
:10583C00704703F8011BF9E70EB44FF4027100B581
:10584C009CB0ADF814106FF00041049107914FF625
:10585C00FF711DAB02900690084853F8042BADF86D
:10586C001610006802A9019300F07CF80022029B3C
:10587C001A701CB05DF804EB03B0704714060020DE
:10588C00024610B513461C780132002CFAD1013BAC
:10589C0011F8012B03F8012F002AF9D110BD034692
:1058AC0011F8012B03F8012B002AF9D170472DE9CF
:1058BC00F0478E6882469E420C469146984635D8F3
:1058CC008A8912F4906F31D00223256809696F1A06
:1058DC00656905EB450595FBF3F508F101033B44C0
:1058EC009D4238BF1D46530531D5294600F046FB75
:1058FC00064650B90C23CAF80030A3894FF0FF308C
:10590C0043F04003A381BDE8F0873A46216900F0DB
:10591C00C3FAA38923F4906343F08003A381266127
:10592C003E44266046466561ED1BA560464528BF92
:10593C00464649463246206800F0B9FAA368002072
:10594C009B1BA36023681E442660BDE8F0872A4693
:10595C0000F072FB06460028E1D12169504600F0A8
:10596C00C1FAC7E72DE9F04F9DB003938B898046B0
:10597C001C060D4616460FD50B696BB9402100F07D
:10598C00FDFA2860286128B90C23C8F800304FF0C4
:10599C00FF30C4E040236B610023099320238DF872
:1059AC00293030234FF0010B8DF82A3037463C4616
:1059BC0014F8013B002B3CD1B7EB060A0BD0534635
:1059CC00324629464046FFF772FF013000F0A280B4
:1059DC00099B534409933B78002B00F09B800023D8
:1059EC004FF0FF3204930793059206938DF85330D2
:1059FC001A9305222178504800F040FA671C049B4A
:105A0C00D8B9D90644BF20228DF853201A0744BFB9
:105A1C002B228DF8532022782A2A16D000210A2016
:105A2C00079A27463B780134303B092B50D9C9B132
:105A3C0011E0252BC0D02746B9E73F4A3C46801AD7
:105A4C000BFA00F018430490D3E7039A111D126867
:105A5C000391002A01DB079204E0524243F0020357
:105A6C00079204933B782E2B0DD17B78791C2A2B33
:105A7C0032D1039B02371A1D1B680392002BB8BF4F
:105A8C004FF0FF3305932D4C03223978204600F05C
:105A9C00F5F938B14023001B03FA00F0049B0137E1
:105AAC00034304933978062225487E1C8DF8281070
:105ABC0000F0E4F9002835D0224BFBB9039B0733E7
:105ACC0023F0070308330393099B4B4409936DE7B9
