:020000040800F2
:1000000000500020515A0008151F0008171F000853
:10001000191F00081B1F00081D1F0008000000001A
:100020000000000000000000000000001F1F00088A
:10003000211F000800000000231F0008251F0008E2
:10004000995A0008291F0008995A0008995A00086F
:100050002D1F0008311F0008995A0008995A0008FE
:10006000995A0008995A0008995A0008351F000843
:10007000995A0008995A0008411F0008995A000827
:10008000995A0008995A00084D1F0008995A00080B
:10009000995A0008995A0008995A0008995A000874
:1000A000591F0008991F0008995A0008995A00081A
:1000B000DD1F0008AD21000899220008995A0008A8
:1000C000995A0008995A0008995A0008995A000844
:1000D000995A0008A1230008995A0008995A000863
:1000E000995A0008995A0008995A0008000000001F
:1000F0000000000000000000000000000000000000
:0C01000000000000000000005FF808F1A3
:10010C0010B5054C237833B9044B13B10448AFF345
:10011C0000800123237010BD780600200000000031
:10012C009463000808B5034B1BB103490348AFF3B4
:10013C00008008BD000000007C06002094630008CD
:10014C00D0400B1CD1409C46203AD340184352421D
:10015C00634693401843704780F0004002E000BFB4
:10016C0081F0004142001FBF5FEA410392EA030F96
:10017C007FEA226C7FEA236C6AD04FEA1262D2EBE0
:10018C001363C1BFD218414048404140B8BF5B42E5
:10019C00192B88BF704710F0004F40F4000020F07E
:1001AC007F4018BF404211F0004F41F4000121F094
:1001BC007F4118BF494292EA030F3FD0A2F10102DE
:1001CC0041FA03FC10EB0C00C3F1200301FA03F11C
:1001DC0000F0004302D5494260EB4000B0F5000F3F
:1001EC0013D3B0F1807F06D340084FEA310102F1FE
:1001FC000102FE2A51D2B1F1004F40EBC25008BFB0
:10020C0020F0010040EA03007047490040EB000079
:10021C0010F4000FA2F10102EDD1B0FA80FCACF1A8
:10022C00080CB2EB0C0200FA0CF0AABF00EBC250A7
:10023C0052421843BCBFD0401843704792F0000F95
:10024C0081F4000106BF80F400000132013BB5E7E8
:10025C004FEA41037FEA226C18BF7FEA236C21D05E
:10026C0092EA030F04D092F0000F08BF08467047C3
:10027C0090EA010F1CBF0020704712F07F4F04D191
:10028C00400028BF40F00040704712F100723CBFA4
:10029C0000F50000704700F0004343F0FE4040F4CE
:1002AC00000070477FEA226216BF08467FEA23638C
:1002BC000146420206BF5FEA412390EA010F40F477
:1002CC00800070474FF0000304E000BF10F00043C3
:1002DC0048BF40425FEA000C08BF704743F09643AA
:1002EC0001464FF000001CE050EA010208BF7047C5
:1002FC004FF000030AE000BF50EA010208BF70474C
:10030C0011F0004302D5404261EB41015FEA010C60
:10031C0002BF84460146002043F0B64308BFA3F158
:10032C008053A3F50003BCFA8CF2083AA3EBC2533A
:10033C0010DB01FA02FC634400FA02FCC2F1200259
:10034C00BCF1004F20FA02F243EB020008BF20F090
:10035C000100704702F1200201FA02FCC2F12002F6
:10036C0050EA4C0021FA02F243EB020008BF20EAEB
:10037C00DC7070474FF0FF0C1CEAD0521EBF1CEA19
:10038C00D15392EA0C0F93EA0C0F6FD01A4480EA07
:10039C00010C400218BF5FEA41211ED04FF00063F0
:1003AC0043EA501043EA5111A0FB01310CF000401C
:1003BC00B1F5000F3EBF490041EAD3715B0040EA42
:1003CC00010062F17F02FD2A1DD8B3F1004F40EB12
:1003DC00C25008BF20F00100704790F0000F0CF0E5
:1003EC00004C08BF49024CEA502040EA51207F3AA9
:1003FC00C2BFD2F1FF0340EAC250704740F4000084
:10040C004FF00003013A5DDC12F1190FDCBF00F074
:10041C0000407047C2F10002410021FA02F1C2F122
:10042C00200200FA02FC5FEA310040F1000053EABE
:10043C004C0308BF20EADC70704792F0000F00F00C
:10044C00004C02BF400010F4000F013AF9D040EA12
:10045C000C0093F0000F01F0004C02BF490011F4A6
:10046C00000F013BF9D041EA0C018FE70CEAD153A4
:10047C0092EA0C0F18BF93EA0C0F0AD030F0004C24
:10048C0018BF31F0004CD8D180EA010000F00040D8
:10049C00704790F0000F17BF90F0004F084691F096
:1004AC00000F91F0004F14D092EA0C0F01D14202D0
:1004BC000FD193EA0C0F03D14B0218BF084608D199
:1004CC0080EA010000F0004040F0FE4040F40000E3
:1004DC00704740F0FE4040F4400070474FF0FF0C76
:1004EC001CEAD0521EBF1CEAD15392EA0C0F93EABD
:1004FC000C0F69D0A2EB030280EA010C49024FEA0F
:10050C00402037D04FF0805343EA111143EA1013C7
:10051C000CF000408B4238BF5B0042F17D024FF47F
:10052C00000C8B4224BF5B1A40EA0C00B3EB510F5A
:10053C0024BFA3EB510340EA5C00B3EB910F24BF43
:10054C00A3EB910340EA9C00B3EBD10F24BFA3EBC8
:10055C00D10340EADC001B0118BF5FEA1C1CE0D190
:10056C00FD2A3FF650AF8B4240EBC25008BF20F043
:10057C00010070470CF0004C4CEA50207F32C2BF97
:10058C00D2F1FF0340EAC250704740F400004FF034
:10059C000003013A37E792F0000F00F0004C02BF65
:1005AC00400010F4000F013AF9D040EA0C0093F02F
:1005BC00000F01F0004C02BF490011F4000F013B89
:1005CC00F9D041EA0C0195E70CEAD15392EA0C0FF1
:1005DC0008D142027FF47DAF93EA0C0F7FF470AF29
:1005EC00084676E793EA0C0F04D14B023FF44CAF6C
:1005FC0008466EE730F0004C18BF31F0004CCAD101
:10060C0030F000427FF45CAF31F000437FF43CAF3C
:10061C005FE700BF4FF0FF3C06E000BF4FF0010C5E
:10062C0002E000BF4FF0010C4DF804CD4FEA400240
:10063C004FEA41037FEA226C18BF7FEA236C11D08A
:10064C0001B052EA530C18BF90EA010F58BFB2EB3D
:10065C00030088BFC81738BF6FEAE17018BF40F0BD
:10066C00010070477FEA226C02D15FEA402C05D171
:10067C007FEA236CE4D15FEA412CE1D05DF8040BF6
:10068C00704700BF844608466146FFE70FB5FFF789
:10069C00C9FF002848BF10F1000F0FBD4DF808ED41
:1006AC00FFF7F4FF0CBF012000205DF808FB00BF32
:1006BC004DF808EDFFF7EAFF34BF012000205DF88C
:1006CC0008FB00BF4DF808EDFFF7E0FF94BF0120D9
:1006DC0000205DF808FB00BF4DF808EDFFF7D2FFD6
:1006EC0094BF012000205DF808FB00BF4DF808ED19
:1006FC00FFF7C8FF34BF012000205DF808FB00BFE6
:10070C0042000ED2B2F1FE4F0BD34FF09E03B3EB6F
:10071C00126209D44FEA002343F0004323FA02F09B
:10072C0070474FF00000704712F1610F01D1420287
:10073C0002D14FF0FF3070474FF00000704700BF00
:10074C001FB51D481D4A002302604FF480720193AF
:10075C00029303938260012443614FF4602243604F
:10076C000323C460C261036102F084FB08B101F091
:10077C008BFB072301A9104801940294039302F008
:10078C00E1F908B101F080FB022301A90A480193A9
:10079C00029302F0D7F908B101F076FB052301931F
:1007AC00032301A90448029302F0CCF908B101F02B
:1007BC006BFB04B010BD00BF5407002000240140A7
:1007CC0030B5054687B01022002102A805F084F947
:1007DC002A68224B9A423ED103F56C439A69204811
:1007EC0042F400729A619A6902A902F400720092B2
:1007FC00009A9A691B4C42F004029A619B6903F0BF
:10080C0004030193019B3E2302930323039303F000
:10081C009FF8154B2046236000236360A360802360
:10082C00E3604FF4007323614FF400636361202392
:10083C00A3614FF48053E36102F0A4FC08B101F012
:10084C0023FB2C62122001220321656202F00EFCB4
:10085C00122002F04DFC07B030BD00BF0024014057
:10086C0000080140840700200800024008B5054834
:10087C00054B036002F068FC18B1BDE8084001F0BC
:10088C0003BB08BDC8070020003002400268084BBB
:10089C0082B09A420AD1A3F500535A6942F0400241
:1008AC005A615B6903F040030193019B02B07047EE
:1008BC000030024003220249024802F029BA00BF6C
:1008CC00DC070020540700200023104A10B51360E9
:1008DC000F4A10491360104A002013600F4A104C45
:1008EC00136001220A604A608A60CA600D490A607E
:1008FC000021C4E900010C4C22600C4AC2E9000141
:10090C000B4A13600B4A136010BD00BF2800002077
:10091C002C00002038000020300000203400002083
:10092C00D80600204800002000000020C806002047
:10093C00A4060020AC060020884210B523D9401A2A
:10094C00FFF7C0FC1349FFF715FD01464FF07E5031
:10095C00FFF706FC10490446FFF7C8FEB8B90F496B
:10096C002046FFF7A5FE00B10C4C204610BD081A1E
:10097C00FFF7A8FC0749FFF7FDFC01464FF07E503E
:10098C00FFF7F0FBE6E7F2D34FF07E54EDE7024CB5
:10099C00EBE700BF9A999939CDCCCC3FCDCCCC3E6E
:1009AC0038B505460C46FFF783FE60B10E49284664
:1009BC00FFF7D8FB054601462046FFF783FE00B93A
:1009CC002C46204638BD21462846FFF78FFE0028CE
:1009DC00F6D005492846FFF7C3FB054601462046DD
:1009EC00FFF77AFEEBE700BFA69BC43B4FF08043BA
:1009FC0030B5834205DC0022022404251BB990B2D9
:100A0C0030BD9B10F5E7D1188842A4BF5A18401A84
:100A1C0092FBF4F293FBF5F3F0E7000038B50C4AC7
:100A2C000C4B0D4C1B681268B3FBF2F3236020686F
:100A3C00FFF7DCFF094B206020681D68FFF742FCC4
:100A4C002946FFF797FCFFF75BFE206038BD00BF1F
:100A5C001007002014070020C4060020040000200A
:100A6C0038B50C4A0C4B0D4C1B681268B3FBF2F3F7
:100A7C0023602068FFF7BAFF094B206020681D68CF
:100A8C00FFF720FC2946FFF775FCFFF739FE2060C5
:100A9C0038BD00BF3007002034070020D0060020EE
:100AAC004C000020044B054A1B681268B3FBF2F3A0
:100ABC00034A1360704700BFF0060020EC060020CC
:100ACC00A80600201C4B1A681C4B1A601C4B1A6899
:100ADC001C4B1A601C4B1A681C4B1A601C4B1A6876
:100AEC001C4B1A601C4B1D4A1968116059681C4A32
:100AFC00116099681B4A1160DA681B4B1A601B4B1A
:100B0C00D3E900231A4B1A601A4BD3E900231A4B72
:100B1C001A601A4B1A681A4B1A601A4B1A681A4B3D
:100B2C001A601A4B1A681A4B1A601A4B1A681A4B2D
:100B3C001A60FFF7C9BE00BF280000202007002064
:100B4C002C00002024070020300000202807002063
:100B5C00340000202C07002038000020380700202B
:100B6C003C0700204007002044070020C806002056
:100B7C0014070020D80600203407002000000020B5
:100B8C00100700204800002030070020A406002099
:100B9C00F0060020AC060020EC060020F8B5FFF7AC
:100BAC005FFFFFF73BFFFFF77DFF534B53491A687D
:100BBC000968534DB2FBF1F252491A602A68096870
:100BCC00514EB2FBF1F251492A6032680968504F1C
:100BDC00B2FBF1F24F4932603A6809684E4CB2FBF5
:100BEC00F1F23A6018684FF40061FFF7A5FE4B4B29
:100BFC00014618602068FFF7D3FE206028684FF488
:100C0C000061FFF799FE464D464B01461860286877
:100C1C00FFF7C6FE286030684FF40061FFF78CFECA
:100C2C00414E424B014618603068FFF7B9FE306008
:100C3C0038684FF40061FFF77FFE3D4F3D4B014696
:100C4C0018603868FFF7ACFE3860386831682E6879
:100C5C002568394C2368D3B9FFF784FA3146FFF77E
:100C6C0081FA2946FFF77EFA3449FFF783FBFFF739
:100C7C0047FDC93880B2B0F5C77F08D9304A136830
:100C8C000133B3F5FA6F1360C4BF012323602D4AFF
:100C9C00136873B92C4B196840F6AB53994208D9B9
:100CAC002A490B680133B3F57A7F0B60C4BF01236B
:100CBC00136027490B680C46E3B941F28732254B88
:100CCC001868904209D9244802680132B2F5FA7FBB
:100CDC00026002DD01230B60F8BD1A6842F2273373
:100CEC009A4207D91C4A13680133022B1360C4BF04
:100CFC0001232360F8BD00BF200700203807002027
:100D0C00240700203C070020280700204007002073
:100D1C002C07002044070020180000205000002061
:100D2C001C0000205400002020000020580000204F
:100D3C00240000205C000020940600200000C84223
:100D4C0098060020A0060020A8060020B00600206F
:100D5C00B8060020C4060020BC0600202E4A30B580
:100D6C0013682E4C013313602D4B5D685A68D4E91F
:100D7C0000016A43801841F10001C4E900012949CE
:100D8C00294C0A6801320A601D681A68D4E900010E
:100D9C006A43801841F10001C4E9000123499A68B3
:100DAC00086802440A60224922480A6884680132B1
:100DBC000A6021490A8892B2A242204A08DD2049E1
:100DCC001B68086803440B60D3680133D36030BDE3
:100DDC000C884568A4B2AC4208DD1A491B68086847
:100DEC0003440B6093680133936030BD098800683D
:100DFC0089B281421B6807DD1349086803440B6004
:100E0C0053680133536030BD1049086803440B60CC
:100E1C0013680133136030BD00000020C8060020A9
:100E2C00DC07002048000020D8060020A406002083
:100E3C00AC06002008000020E2060020380000204C
:100E4C0034000020300000202C000020280000205E
:100E5C0010B512B101220C4B9A6021F003030A4A1F
:100E6C000344984207D101F00301074819448B420F
:100E7C0005D1106810BD50F8044B1460F1E713F85D
:100E8C00014B0470F3E700BF0030024010B5074B74
:100E9C000AB101229A60054A11F1FF3101D218689A
:100EAC0010BD50F8044B1460F6E700BF0030024050
:100EBC0038B50B4C0B4D14220021204604F00CFECF
:100ECC00012264212846FFF7C3FF0749024620464A
:100EDC0004F00AFE21462846BDE8384004F028BE3E
:100EEC00A008002020080020BC6300086422002118
:100EFC00014804F0F1BD00BF2008002007B5FFF742
:100F0C00F5FF084B08491A6804331B680968074841
:100F1C000091074904F0E8FD03B05DF804EBFFF71E
:100F2C00C7BF00BFACF7FF1FB4F7FF1F200800209E
:100F3C00D763000808B5FFF7D9FF054B05491A8898
:100F4C00054892B204F0D0FDBDE80840FFF7B0BFF1
:100F5C00CCF7FF1FEA6300082008002010B5074CEF
:100F6C00FFF7C4FF0649204604F0E2FD2046054980
:100F7C0004F0DEFDBDE81040FFF79ABF200800200A
:100F8C00FB63000805640008024A1368002BFCD0C0
:100F9C00704700BF04060020002270B50446084BC1
:100FAC00084E094D1A6063223146284604F0E4FBD2
:100FBC000228F8D01CB1BDE87040FFF7E5BF70BD4A
:100FCC000406002020080020800A00200268044B40
:100FDC009A4204D10122034B1A60FFF787BF704776
:100FEC000038014004060020014802F097BE00BF03
:100FFC00300900202DE9F04F394B8DB01B68012BC7
:10100C006AD1384CFFF772FF23683749012BDFF8A0
:10101C00088106D00B68012B03D0D8F80030012BC7
:10102C0009D10B91FFF71CFDFFF7F8FCFFF73AFD18
:10103C00FFF74AFC0B99D8F800204FF000082B4B17
:10104C001D682B4BADB21E682A4BB6B29F682A4B5B
:10105C00BFB2D3F80090294BD3F800A0284BD3F89B
:10106C0000B0284B1868284B1B7809922268CDF8E1
:10107C0020800792DA1E5342534106930B68234992
:10108C000593FFF777F9FFF73BFB80B204901F49FC
:10109C005846FFF76FF9FFF733FB80B203901B49FB
:1010AC005046FFF767F9FFF72BFB80B20290174908
:1010BC004846FFF75FF9FFF723FB80B201900097DA
:1010CC0033462A461249134804F00EFD40460DB033
:1010DC00BDE8F04FFFF760BF0DB0BDE8F08F00BF6B
:1010EC00F4060020A006002094060020D006002064
:1010FC00C4060020DC070020180000201C00002083
:10110C002000002024000020E40600200000C8423B
:10111C001164000820080020B80600200023034AB0
:10112C0013605360024A1360704700BFFC06002036
:10113C00F806002010B5094C6068FFF7C3F80849A1
:10114C00FFF718F9074B18602068FFF7BBF8044944
:10115C00FFF710F9044B186010BD00BFFC0600200F
:10116C003333533A040000204C000020842140F615
:10117C003462024B83E80600FFF7DCBFFC0600205C
:10118C00034B1B680BB9FFF7F1BFFFF7D3BF00BFD1
:10119C00F806002070B501250D4C0E4E2A4684E849
:1011AC000300082120463560FFF770FE0A4B01460C
:1011BC001860002000F008FB2168284600F004FBB2
:1011CC006168022000F000FB0023336070BD00BF9B
:1011DC00FC06002004070020F806002070B501244E
:1011EC00104E114D3460FFF799FF2946002000F096
:1011FC00CBFA0E49204600F0C7FA0D49022000F048
:10120C00C3FA082122460948FFF740FE00212B684B
:10121C003160984203D0FFF781FF084670BD20462D
:10122C0070BD00BF04070020F8060020FC0600205B
:10123C000007002010B50024084B1C80FFF7A0FF0E
:10124C00074B93E80300FFF7A5FF0649064804F097
:10125C007EFC2046BDE81040FFF79EBE0006002035
:10126C00FC060020C96300082008002010B51F48A8
:10127C0000F011FB04461E4800F00DFB1D4A1388BC
:10128C00092B03D801331380002010BD022814D180
:10129C00022C194C23D0194B1868FFF713F8184976
:1012AC00FFF768F801461748FFF718F9FFF728FA17
:1012BC002060FFF7BFFF012010BD022CE4D10F4BC3
:1012CC005868FEF7FFFF0E49FFF754F801460E4829
:1012DC00FFF704F9FFF714FA074B5860E9E7FFF73B
:1012EC0045FF94E80300FFF755FFE2E704080020F0
:1012FC00E807002000060020FC060020DC07002088
:10130C003333533A0000664300007A440E4B1A689C
:10131C0022F440721A605A6C22F0FF025A645A6C22
:10132C0042F080025A645A6C42F008025A645A6CB9
:10133C0042F004025A645A6C42F002025A645A6C2B
:10134C0042F001025A647047002C0140044B1A6AA7
:10135C0042F400621A621A6A42F400721A6270470E
:10136C00002C0140044B5A6842F480525A605A686F
:10137C0042F400525A607047002C014040F29F52D8
:10138C0008B5124B9A6240F2E732DA624FF4FA7205
:10139C00DA631A6822F010021A601A6822F06002EE
:1013AC001A60DA6922F07002DA61DA6942F06002DE
:1013BC00DA611A6A42F4A0621A62FFF7C7FFFFF7FC
:1013CC00D1FFBDE80840FFF7A1BF00BF002C0140D2
:1013DC0008B54FF4FA730D49CB630B6A43F4A06361
:1013EC000B62FFF7B3FFFFF7BDFFFFF78FFFCB6873
:1013FC0043F00103CB600B6843F001030B60FFF774
:10140C0063FABDE80840FFF7C9BB00BF002C0140E0
:10141C00104B1A6922F001021A61DA6822F00102FB
:10142C00DA601A6822F001021204120C1A605A686F
:10143C0042F400525A605A6822F480525A601A6A76
:10144C0042F400721A621A6A22F400621A620022D2
:10145C00DA637047002C0140024A536C43F440435A
:10146C0053647047002C0140044B5A6C22F4004228
:10147C005A645A6C22F480425A647047002C014022
:10148C0008B5FFF7E9FFBDE80840FFF7A1BF08B5B5
:10149C00FFF7EAFFBDE80840FFF7BABF0022074B91
:1014AC001A80074B5A639A63DA6842F00102DA60D9
:1014BC001A6842F001021A6000F0E2B8E20600205D
:1014CC0000040040094B1A6922F001021A61DA6823
:1014DC0022F00102DA601A6822F001021204120CE6
:1014EC001A6000225A639A63704700BF00040040E0
:1014FC00024A536C43F44043536470470004004069
:10150C00044B5A6C22F400425A645A6C22F4804206
:10151C005A6470470004004008B5FFF7E9FFBDE8C6
:10152C000840FFF7BBBF08B5FFF7EAFFBDE808406E
:10153C00FFF7C8BF002240F2E731194B9A62D9621B
:10154C005A639A631A6A42F001021A621A6A42F0EA
:10155C0002021A621A6A42F010021A621A6A42F005
:10156C0020021A625A6842F480725A605A6842F435
:10157C0080625A609A6922F4E04222F070029A6109
:10158C009A6942F4C04242F060029A611A6822F0F1
:10159C0010021A601A6822F060021A60704700BFCD
:1015AC00000400402A4A0346506A10F000501FBF46
:1015BC00516A012041F08071516245F25551254A22
:1015CC000A2B116025D907215160022B2AD0032B3D
:1015DC002AD0042B2AD0052B2AD0062B2AD0072B55
:1015EC002AD0082B2ED0092B2FD00A2B27D00B2B2F
:1015FC0028D00C2B29D00D2B40F6FF7318BF0023DD
:10160C00144A93604AF6AA2313604CF6CC43136039
:10161C007047032151601BB1012BD6D10A23EFE790
:10162C000523EDE70F23EBE71F23E9E73D23E7E76E
:10163C007B23E5E7FF23E3E740F2FF13E0E740F607
:10164C00FF73DDE740F2FF33DAE740F2FF73D7E7D1
:10165C0000100240003000404FF07C53044A1360ED
:10166C00044A1360044A1360044A1360704700BFB5
:10167C0024000020200000201C0000201800002066
:10168C0008B5FFF7E9FF0023034A1360034A136010
:10169C00034A136008BD00BF940600209C0600207E
:1016AC00980600200C4B0D4A1988906889B281422B
:1016BC0002DD0B4B186870471988506889B281425B
:1016CC0001DD084BF6E71B8812689BB29342CCBF36
:1016DC00054B064BEEE700BFE20600200800002099
:1016EC0024000020200000201C00002018000020F6
:1016FC00144A38B513889BB2B3F5347F1FD21388C4
:10170C00114A9BB232F81340FFF7CCFF4FF07E51D9
:10171C00A4B20546FEF7C2FF40B92046FEF7D6FD3F
:10172C002946FEF727FEFEF7EBFF84B240F2CA30E3
:10173C00A04228BF20461E2838BF1E2038BD0020DE
:10174C0038BD00BFE20600206000002010B586B056
:10175C0001F08CFF0123002405930A4B01A902A878
:10176C000493029402F04CF838B901F091FF0198FF
:10177C00431C5842584106B010BD01F089FF204669
:10178C00F9E700BF00FC000809289FBF800000F1AA
:10179C00006000F57C4003689ABF01200B600020BC
:1017AC00704701440A290BDD00207047830003F1C8
:1017BC00006303F57C431B68013042F8043B80B2A4
:1017CC008142F3DC0120704709282DE9F0410546E0
:1017DC000F4619D8840004F1006404F57C44236896
:1017EC00013308D101F042FF7B1C29D101F050FFDD
:1017FC000120BDE8F081174E0A2132460020FFF788
:10180C00D0FF20B901F044FF0020BDE8F08146F87C
:10181C002570FFF79BFF01F029FF0F4DDFF83C808F
:10182C0005F17843A3F57C43F258294600230220A6
:10183C0001F062FF0028E5D104354545F0D1D1E730
:10184C003A4600232146022001F056FF0028D9D148
:10185C00CCE700BF0809002000FC000828FC0008A9
:10186C000260009A0372C260019A00230261012295
:10187C004160037543758361C2758375437270470C
:10188C0010B504460188406802F0CEF9237A181A84
:10189C0018BF012010BD70B50446FFF7F1FFE67DBF
:1018AC00054686421AD038B901F060F80123A061D0
:1018BC00A375E575002070BD01F058F8A369E268C6
:1018CC001344984228BF04234FF0010022BF6372D7
:1018DC00E075184600236375237570BD002EE9D1A1
:1018EC0001F044F8A36922691344984208D3637D3C
:1018FC00012B02D16672607A70BD03236372FAE722
:10190C0001F034F8A369E26813449842D2D3237DE2
:10191C00012BEFD00223F1E70E4B07B55A690221D8
:10192C0042F001025A615B69002203F0010301934A
:10193C000B20019B01F09AFB0B2001F0D9FB00223C
:10194C0003210E2001F092FB0E2001F0D1FB03B01D
:10195C005DF804FB001002401022F0B589B00DEBCD
:10196C000200002104F0B8F8324B334D9A69284636
:10197C0042F010029A619A6947F2210102F01002BA
:10198C000092009A9A69032642F020029A619A69A1
:10199C002A4F02F020020192019A9A69002442F027
:1019AC0004029A619A6902F004020292029A9A69FC
:1019BC0042F008029A619B69012203F00803039329
:1019CC00039B02F043F94FF4005304A91C48049301
:1019DC00059601F0BDFF40F2012304A9384604939B
:1019EC00059601F0B5FF47F221030493012304A9E6
:1019FC00284605930694079601F0AAFF4FF4064378
:101A0C0004A9284604930594069401F0A1FF4FF411
:101A1C00316304A928460493059601F099FF4FF40D
:101A2C00C85304A9384604930594069401F090FF1A
:101A3C0009B0F0BD00100240000C0140000801404C
:101A4C000010014008B5062240F6FF730548064910
:101A5C0080E80E0002F024F918B1BDE8084000F04F
:101A6C0013BA08BD3009002000300040FFF776B9EA
:101A7C00282210B594B00DEB0200002104F02CF8D4
:101A8C00142200210DEB020004F026F80021102294
:101A9C0001A804F021F809230A934FF4803302249F
:101AAC0001220B9312934FF4E0130AA80E9210929A
:101ABC001393119402F048F90F234FF480620593AD
:101ACC000023214605A8079308920993069402F077
:101ADC0079FB4FF4004301A80194039302F0A2FC9C
:101AEC0014B010BDC84B83B55A68002442F00202F2
:101AFC005A605A684FF47A6642F480725A6000F069
:101B0C0017FFFFF7B5FFFFF727FFFFF705FFFEF7FE
:101B1C00ADFEFFF797FF00F09DFD00F00BFE00F00F
:101B2C009BFC00F063FC00F05DFEFEF709FE0B2051
:101B3C00FFF738FDFFF758FAFEF7BCFE0322B34B54
:101B4C0042F210771A70FFF719FCFFF7F3FCFFF75E
:101B5C0097FCFFF7E1FCFFF79AFCFFF7E4FCFFF7BB
:101B6C0043FA01224FF48041A94802F06FF8012298
:101B7C00A748114602F06AF801224FF48051A4489C
:101B8C0002F064F84FF400510122A14802F05EF813
:101B9C00A04802F0B1FD9F4802F0D6FD64224FF040
:101BAC0080439D4D2C70DA62FFF71EFA8DE8C00061
:101BBC0023464FF4006299499948FFF751FE8DE88E
:101BCC00C0001E264FF4FA6723464FF48052934907
:101BDC009448FFF745FE8DE8C00023464FF40042C1
:101BEC008B499148FFF73CFE8DE8C0004FF47A77A3
:101BFC0023464FF4807289498C48FFF731FE234607
:101C0C004FF4007282498A488DE8C000FFF728FE25
:101C1C0023464FF480627E4986488DE8C000FFF76A
:101C2C001FFE8248FFF737FE8148FFF734FE8148DC
:101C3C00FFF731FE7A48FFF72EFE7A48FFF72BFEAE
:101C4C007948FFF728FE4FF4FA7000F095FEFFF785
:101C5C00C5FA002840F0CF807749784803F077FF29
:101C6C00FFF784FA0120FFF797F9FFF777F90120C6
:101C7C00FFF792F9FFF742F90120FFF78DF9FFF713
:101C8C0059F90120FFF788F9FFF730F96648FFF79B
:101C9C0002FE02286A4C40F0B5806A49674803F09E
:101CAC0056FF0120FFF778F9012362482360FFF704
:101CBC00F2FD5E48FFF7EFFD02281BD162495F4839
:101CCC0003F045FF0120FFF767F9FFF78DF94FF49B
:101CDC00FA7000F051FE5548FFF7DDFD022809D1DE
:101CEC005A49564803F033FF0120FFF755F90122FA
:101CFC00574B1A6001245749504803F028FF012024
:101D0C00FFF74AF954494D4803F021FF0120FFF732
:101D1C0043F9514949482C7003F019FF2046FFF74D
:101D2C003BF94FF080434FF47A724B49DA624348E7
:101D3C0003F00DFF2046FFF72FF900224FF48041EE
:101D4C00334801F083FF00222146314801F07EFF29
:101D5C0000224FF480512E4801F078FF00224FF4FE
:101D6C0000512B4801F072FF3248FFF794FD3048C8
:101D7C00FFF791FD4FF4FA7000F0FEFD2C48FFF7D1
:101D8C008AFD032806D135492C4803F0E0FE204695
:101D9C00FFF702F93049294803F0D9FE0120FFF77B
:101DAC00FBF82448FFF777FD00222D4B2D489A6253
:101DBC0002F0A2FC2B4802F0C7FC2B4C1D4E2B4D05
:101DCC0000BF23889BB2012B04D100272780FEF78C
:101DDC00E5FE27803046FFF75EFD02284CD101233B
:101DEC0013482B80FFF757FD03280CBF012200225C
:101DFC001F4B1A80E4E7FFF7C3F91E490F4803F0A5
:101E0C00A6FE2FE7002350E7002004E01C0700206B
:101E1C00000C0140FC090020E406002000080140F1
:101E2C00E807002004080020B408002084080020E3
:101E3C00EC080020D0080020856400082008002051
:101E4C00E80600209D640008B2640008C464000821
:101E5C00F4060020DB640008E8640008EE64000867
:101E6C00000800403C0900201E0700200C07002041
:101E7C000E070020916400083046FFF70CFD032884
:101E8C00ADD00023ACE700BF704770471C4B07B5C3
:101E9C009A69052042F001029A619A6902F00102E6
:101EAC000092009ADA6942F08052DA61DB6903F041
:101EBC0080530193019B01F0BBF8002201201146D5
:101ECC0001F0D4F8012001F013F90022042011468E
:101EDC0001F0CCF8042001F00BF90022052011468A
:101EEC0001F0C4F8052001F003F9064A536823F009
:101EFC00E06343F08073536003B05DF804FB00BFF4
:101F0C0000100240000001407047FEE7FEE7FEE7CC
:101F1C00FEE770477047704700F01CBD01F006BF2C
:101F2C0001F01ABB70470000014801F057BA00BF1E
:101F3C0084070020014801F051BA00BF3C0A002080
:101F4C00014800F059BD00BF54070020002210B515
:101F5C000A4B0B4C5A62204602F043FE6FF0010212
:101F6C0023681A61074B1A78012A05D102221A70CC
:101F7C004FF4FA72044BDA6310BD00BF000400404A
:101F8C00BC0900201C070020002C014010B50B4C94
:101F9C00204602F026FE6FF0010223681A6100232E
:101FAC00074A1370074A1380074A53639363074A1F
:101FBC0013889BB20BB90123138010BDBC09002000
:101FCC00E0060020E2060020000400401E0700206E
:101FDC00F8B5614C204602F004FE6FF00102236854
:101FEC005E4C1A61FFF700F82378032B00F2B380E4
:101FFC00DFE803F0021A02654FF48041584801F003
:10200C003FFE0121564801F03BFE4FF480515448ED
:10201C0001F036FE52484FF4005101F031FEBDE89C
:10202C00F8405048FFF737BC4F4B1B68012B26D0AC
:10203C00FEF7E0FF4D490B68012B05D14C4A1368A4
:10204C0001331D2B20DC13604A490B68012B05D191
:10205C00494A136801331D2B1EDC136047490B687A
:10206C00012B78D1464B1A6840F6B7339A42454B50
:10207C0023D81A680132092A16DC1A60F8BDFFF75A
:10208C00F5F80128D4D1F8BD002313603E4A0B604B
:10209C001360FFF7E1FAD7E7002313603B4A0B60AC
:1020AC001360FFF7D9FAD9E700221A60384B0A609F
:1020BC001A60BDE8F840FFF7CFBA0022DDE7FEF763
:1020CC0099FF2848FFF7E7FB0228324D324F334E79
:1020DC001BD12B6801330A2B2B602CD1002301223E
:1020EC0020211F482B6001F0B1FD4FF4FA724FF024
:1020FC0080434FF40051DA62194801F0C1FD03230B
:10210C0023703B7000233360F8BD1648FFF7C3FB08
:10211C000328DED003210022336839700133092BE8
:10212C002A6033600FDD4FF400510D4801F08EFD35
:10213C0001232370F8BD00222021094801F086FDFF
:10214C004FF47A72D3E7217005484FF40051BDE883
:10215C00F84001F095BDF8BDFC090020E406002014
:10216C00000C0140D0080020E80600209406002056
:10217C009C060020B8060020C0060020A006002007
:10218C00A8060020B406002098060020BC060020FB
:10219C00B0060020180700201C07002008070020AC
:1021AC0070B5334C204602F01CFD6FF00102236821
:1021BC001A61304B1A782AB11A78012A02D01A788F
:1021CC00032A05D100222C498A634A632B490A80D1
:1021DC001A78032A4AD01A78284D012A04BF022201
:1021EC001A70274B274C5B6AB3F5F87F10D922780D
:1021FC0002F0FF0362B901261F4A26702B8053633D
:10220C009363FEF75FFC204A13889BB203B91680D8
:10221C001B4B5A6A40F2E5339A4211D92678F6B232
:10222C00012E0DD10023144A23702B80536393632A
:10223C00FEF748FC144A13889BB2BBB9168070BDDC
:10224C00237803F0FF0223B90B4EB263FFF750FA69
:10225C0070632378012B05D10023074C6363FFF7D0
:10226C0047FAA0632B8801339BB22B8070BD00BF53
:10227C007C0900201C07002000040040E20600201E
:10228C00002C0140E00600201E07002010B5354C44
:10229C00204602F0A6FC6FF0010223681A61324B53
:1022AC001B889BB2012B314B0AD10321304A117090
:1022BC000021304A11601A78022A51D002221A7079
:1022CC001A78032A24D12A4A1278012A20D12A4AC0
:1022DC001268EAB9294A1268D2B9294A1268BAB9FD
:1022EC00284A1268A2B9284828490280098889B26C
:1022FC0001290DD11970264B9A635A6303F5943357
:10230C00DA630280FFF7BCF8BDE81040FFF704B9B0
:10231C001A78022A24D1164A1278032A0BD01B4AA7
:10232C00128892B23AB1144A1268012A03D0134AA5
:10233C001268012A10D103221A700023144A9363E5
:10234C00536302F59432D3630F4A1380FFF79FF85F
:10235C00BDE81040FFF7E7B8094A1268012AEAD035
:10236C0010BD00BF3C0900200C0700201C070020FA
:10237C00E40600200807002094060020A006002098
:10238C00B806002004070020E20600200E070020FB
:10239C0000040040014803F0ADBA00BF800A0020E1
:1023AC000F4B1A6842F001021A6059680D4A0A4034
:1023BC005A601A6822F0847222F480321A601A6809
:1023CC0022F480221A605A6822F4FE025A604FF4FA
:1023DC001F029A604FF00062034B9A60704700BF77
:1023EC00001002400000FFF800ED00E07FB5102265
:1023FC00002102A803F070FB002348F69F424FF027
:10240C00804114480093019380E8060083604FF4E8
:10241C007A7203618023C260836102F0BDFC08B153
:10242C00FFF732FD4FF4805302A90A48029302F0E1
:10243C00B3F908B1FFF728FD00236946054800935E
:10244C00019303F001F808B1FFF71EFD07B05DF82A
:10245C0004FB00BFFC0900207FB51022002102A85C
:10246C0003F03AFB00231448144A009380E80C0054
:10247C00019383604FF47A7203618023C26083619D
:10248C0002F08AFC08B1FFF7FFFC4FF4805302A95D
:10249C000948029302F080F908B1FFF7F5FC00231C
:1024AC00694605480093019302F0CEFF08B1FFF78F
:1024BC00EBFC07B05DF804FB3C0900200008004071
:1024CC001FB503682E4A93421CD12E4B18209A69D3
:1024DC0042F400629A6100229B69114603F4006386
:1024EC000093009B00F0C2FD182000F001FE0022BA
:1024FC001920114600F0BAFD192000F0F9FD05B0C5
:10250C005DF804FBB3F1804F11D103F50433DA69A4
:10251C001C2042F00102DA61DB69032203F00103A3
:10252C0001930121019B00F0A1FD1C20E5E7164A57
:10253C00934210D1134B1D20DA69002142F00202A4
:10254C00DA61DB69012203F002030293029B00F0C3
:10255C008DFD1D20D1E70D4A9342D0D1094B1E2091
:10256C00DA69012142F00402DA61DB69002203F02E
:10257C0004030393039B00F079FD1E20BDE700BF0D
:10258C00002C0140001002400004004000080040F4
:10259C00102230B5044689B00DEB0200002103F087
:1025AC009BFA2368254A93422FD102240325244BFE
:1025BC0004A99A69234842F008029A619A6902F0C8
:1025CC0008020192019A9A6942F004029A619B698D
:1025DC00049403F004030293029B0594079501F005
:1025EC00B7F94FF4806304A9174804930594079531
:1025FC0001F0AEF9154A536823F0C00343F0E063D1
:10260C0043F04003536009B030BD114A9342FAD1F4
:10261C000B4B04A99A690C4842F004029A619B691D
:10262C0003F004030393039BC02304930223059339
:10263C000323079301F08CF9E5E700BF002C014060
:10264C0000100240000C0140000801400000014055
:10265C000004004010B5002494B01022002102A800
:10266C0003F03AFA1C22214606A80094019403F0C8
:10267C0033FA1C2221460DA803F02EFA40F29F5388
:10268C002A482B4A846080E80C004FF47A73C360AC
:10269C00802304614461836102F07EFB08B1FFF783
:1026AC00F3FB4FF4805302A92048029302F074F814
:1026BC0008B1FFF7E9FB1D4802F0C2FB08B1FFF7B8
:1026CC00E3FB0024694619480094019402F0BCFE17
:1026DC0008B1FFF7D9FB4FF4FA7307934FF48073EB
:1026EC00082206A911480694089409940A940B939D
:1026FC000C9302F0A3FC08B1FFF7C6FB5F2200238A
:10270C0010924FF400520DA908480D930E930F939D
:10271C0011931292139302F023FE08B1FFF7B4FB4E
:10272C000248FFF735FF14B010BD00BFBC090020F4
:10273C00002C014010B58EB01022002103A803F02C
:10274C00CBF900241C2221460DEB020001940294CB
:10275C0003F0C2F92148224B846080E818004FF442
:10276C007A73C36080230461836102F015FB08B1A6
:10277C00FFF78AFB4FF4805303A91848039302F028
:10278C000BF808B1FFF780FB144802F0B1FB08B15D
:10279C00FFF77AFB002401A910480194029402F07F
:1027AC0053FE08B1FFF770FB6023002207A90B480A
:1027BC000793089409940B9402F0EAFC08B1FFF714
:1027CC0063FB042207A9054802F0E2FC08B1FFF7FD
:1027DC005BFB0248FFF7DCFE0EB010BD7C0900204D
:1027EC000004004008B54FF4E13E0A480A4B0C22A5
:1027FC0080E80840002342618360C3600361836109
:10280C00C36102F051FF18B1BDE80840FFF73CBBB3
:10281C0008BD00BF800A0020003801402DE9F041BE
:10282C001027064686B03A46002102A803F054F958
:10283C003268284B9A424AD103F558439A690025CD
:10284C0042F480429A619A694FF0800802F4804207
:10285C000092009A9A6902A942F008029A619B6957
:10286C001D4803F008030193019B402302930223AC
:10287C0003930323059301F06BF8174802A9CDF8D5
:10288C0008800395049501F063F8144A144C5368BE
:10289C00204643F0E06343F004035360114BA56002
:1028AC0084E88800C4F80C8025616561A561E56148
:1028BC0000F068FC08B1FFF7E7FA25203463022228
:1028CC000321666200F0D2FB252000F011FC06B05B
:1028DC00BDE8F08100380140000C014000000140CF
:1028EC003C0A00204400024038B50E4B05461878CF
:1028FC004FF47A73B3FBF0F30B4A1068B0FBF3F0B0
:10290C0000F00CFC044658B90F2D09D80246294694
:10291C004FF0FF3000F0AAFB044B20461D6038BD81
:10292C00012038BD0C0600200806002010060020EF
:10293C00074A08B51368032043F01003136000F036
:10294C0077FB0020FFF7D0FFFFF7A0FA002008BDAF
:10295C0000200240034A044B11681B780B4413609F
:10296C00704700BFC00A00200C060020014B1868FD
:10297C00704700BFC00A002038B50446FFF7F6FFC9
:10298C000546631C1EBF044B1B78E418FFF7EEFFD3
:10299C00401B8442FAD838BD0C060020436A10B59F
:1029AC009A6A12F0500F1BD19A6A42F400729A6222
:1029BC001A68926802F46022B2F5602F0CD1DA68C2
:1029CC0052B99A6A22F480729A629A6AD2045EBFF1
:1029DC009A6A42F001029A621846FFF747F810BD56
:1029EC001B6ABDE810401B6B1847704708B5406A5E
:1029FC00FFF7FBFF08BD70470368494A10B59342C7
:102A0C00044608D002F58062934204D040F2D951BA
:102A1C004448FFF73AFAE368012B04D940F2DA5143
:102A2C004048FFF732FA2369013B0F2B04D940F2DF
:102A3C00DB513C48FFF729FA23685A68900627D5E2
:102A4C001A68910724D5A26AD2065EBFA26A42F424
:102A5C000072A2629A6802F46022B2F5602F10D163
:102A6C00E26872B95A6822F020025A60A36A23F411
:102A7C008073A362A36ADB045EBFA36A43F0010305
:102A8C00A3622046FEF7F2FF6FF0120223681A6071
:102A9C0023685A68100630D51A6851072DD5A26ADA
:102AAC00D2065EBFA26A42F40052A2629A6802F495
:102ABC00E042B2F5E04F0AD05A68500516D49A6835
:102ACC0002F46022B2F5602F10D1E26872B95A6834
:102ADC0022F080025A60A36A23F48053A362A36A93
:102AEC00D9055EBFA36A43F00103A362204600F040
:102AFC009DFA6FF00C0223681A6023685A6852061C
:102B0C000DD51B68DB070AD5A36A204643F4803336
:102B1C00A362FFF770FF6FF0010223681A6010BD0B
:102B2C0000240140186500087047406A08B5836AA4
:102B3C0043F040038362C36A43F00403C362FFF7AC
:102B4C00F3FF08BD002373B5514A01930368044693
:102B5C0093420D4608D002F58062934204D040F2B5
:102B6C00AA614C48FFF791F92B68112B04D940F25C
:102B7C00AB614848FFF789F96B68013B0F2B04D90F
:102B8C0040F2AC614348FFF780F9AB68072B04D9DE
:102B9C0040F2AD613F48FFF778F994F82430012BEF
:102BAC0073D00123686884F82430062822682968C9
:102BBC004FEA800324D803441F20566B053B9840F2
:102BCC0026EA000001FA03F3034353630929AD68B5
:102BDC004FEA41032ED907260B44D0681E3B9E407A
:102BEC0020EA060005FA03F30343D360A1F11003B6
:102BFC00012B2AD90020002384F8243002B070BDA8
:102C0C000C280BD803441F20166B233B984026EA54
:102C1C00000001FA03F303431363D7E703441F20B7
:102C2C00D66A413B984026EA000001FA03F30343BD
:102C3C00D362CBE7072610690B449E4020EA0600BE
:102C4C0005FA03F303431361D0E7114B9A4216D1F3
:102C5C0093681B02CED49368102943F4000393604D
:102C6C00C8D10D4B0D4A1B68B3FBF2F20A23534338
:102C7C000193019B002BBDD0019B013BF8E7A36A9C
:102C8C00012043F02003A362B5E70220B6E700BFA2
:102C9C0000240140186500080806002040420F007F
:102CAC00002373B50193036804469A68D20702D5D2
:102CBC00002002B070BD9A6842F001029A60124B7B
:102CCC00124A1B68B3FBF2F30193019BC3B9FFF7E4
:102CDC004DFE064623689D6815F00105E8D1FFF707
:102CEC0045FE801B0228F5D9A36A84F8245043F0D2
:102CFC001003A362E36A012043F00103E362D8E707
:102D0C00019B013BE0E700BF0806002040420F009A
:102D1C00F8B51746404D02680446AA420E4604D048
:102D2C0040F2FC413D48FFF7B0F82368AB4202D0BB
:102D3C003B4A934204D1384B5B6813F4702F67D134
:102D4C0094F82430012B65D00123204684F82430DC
:102D5C00FFF7A6FF0546002856D1A36A216823F485
:102D6C00706323F0010343F48073A3622C4B9942EC
:102D7C0004D1294A536813F4702F3FD1A36A23F46A
:102D8C008013A3624B685B0548BFA36A206A42BFED
:102D9C0023F4405343F48053A362A36A324613F4E2
:102DAC00805318BFE36A01F14C0118BF23F00603EE
:102DBC00E362002384F824301A4B83621A4BC362FB
:102DCC001A4B03636FF0020341F84C3C51F8443C3E
:102DDC0043F4807341F8443C3B4600F063FA2368AB
:102DEC009A6802F46022B2F5602F9A680CBF42F424
:102DFC00A00242F480129A602846F8BDA36A43F4FC
:102E0C008013A3625368BEE7002384F82430F3E7F1
:102E1C000125F1E70225EFE70024014018650008C1
:102E2C0000280140A9290008F9290008372B0008BF
:102E3C0038B5036804469A68D20701D4002038BD1F
:102E4C009A6822F001029A60FFF790FD054623680C
:102E5C009B68DB07F2D5FFF789FD401B0228F6D9EA
:102E6C00A36A012043F01003A362E36A43F0010359
:102E7C00E36238BD70B50446002800F0C9800368D1
:102E8C00664A934208D002F58062934204D04FF414
:102E9C00C1716348FEF7F9FF636833F4006304D033
:102EAC0040F283115E48FEF7F0FFA36833F48073A1
:102EBC0004D04FF4C2715A48FEF7E7FFE368012BC8
:102ECC0004D940F285115648FEF7DFFFE36933F46D
:102EDC0020220CD023F40022B2F5C02F07D0B3F57A
:102EEC00402F04D04FF4C3714D48FEF7CEFFA368BA
:102EFC00DBB12369013B0F2B04D94FF4C571484852
:102F0C00FEF7C3FF6369012B04D940F28B114448CF
:102F1C00FEF7BBFF636943B1A369013B072B04D9DF
:102F2C004FF4C7713E48FEF7B0FFA36A2BB9E362BA
:102F3C0084F824302046FDF743FC2046FFF778FF49
:102F4C00A36A13F0100FA36A64D1002862D1E1695F
:102F5C0023F48853626823F0020343F002030A430C
:102F6C00A168A362E368B1F5807F42EA430238D0DE
:102F7C00012914BF06464FF480766569012D07D1EF
:102F8C00002B30D1A369013B46EA433545F400667A
:102F9C002368B1F5807F5D6825F4694545EA06052F
:102FAC005D609E681F4D05EA060545EA02059D60B9
:102FBC0001D0012920D1216901390905DD6A25F4E7
:102FCC0070052943D9629968174B0B409A4215D169
:102FDC000023E362A36A23F0030343F00103A3621B
:102FEC0070BD0E46C9E7A36A43F02003A362E36AEF
:102FFC0043F00103E362CBE70021DFE7A36A23F090
:10300C00120343F01003A362E36A43F00103E3628B
:10301C00012070BD43F01003A362F9E700240140C6
:10302C0018650008FDF7E1FFFE0E1FFF704700005A
:10303C00C31E042B10B5044603D9A2210948FEF780
:10304C0024FF094A2402D36804F4E06423F4E06307
:10305C001B041B0C43F0BF6343F400331C43D460CC
:10306C0010BD00BF5065000800ED00E00F2A70B5E0
:10307C0004460E46154603D9BA211A48FEF705FF39
:10308C000F2E03D9BB211748FEF7FFFE164B01206C
:10309C00D968C1F30221C1F107030A1D042B28BF13
:1030AC000423062A94BF0021033900FA03F2013AE3
:1030BC008840324001388A400540002C42EA050223
:1030CC004FEA0212AFBF04F16044084B04F00F0446
:1030DC00D2B2A5BFD2B204F561441A5584F80023CC
:1030EC0070BD00BF5065000800ED00E014ED00E07D
:1030FC0010B5041E03DACE210648FEF7C6FE0123E6
:10310C00620904F01F0403FA04F4034B43F8224051
:10311C0010BD00BF5065000800E100E00138B0F1BF
:10312C00807F0AD2F021064B064A586082F82310A1
:10313C000020072298601A6070470120704700BF7A
:10314C0010E000E000ED00E010B5044698B1026814
:10315C000A4B9A4203D077210948FEF796FE637911
:10316C0003F0FF021BB922712046FDF78FFB0123F0
:10317C000020637110BD012010BD00BF0030024063
:10318C008B65000810B50446002800F081800368A8
:10319C00404A934215D01432934212D014329342C7
:1031AC000FD0143293420CD01432934209D0143203
:1031BC00934206D01432934203D0AA213648FEF72C
:1031CC0064FE636833F0100206D0B3F5804F03D071
:1031DC00AB213148FEF759FEA36833F0400303D00E
:1031EC00AC212D48FEF751FEE36833F0800303D089
:1031FC00AD212948FEF749FE236933F4807206D0CD
:10320C00B3F5007F03D0AE212348FEF73EFE636981
:10321C0033F4806206D0B3F5006F03D0AF211E48A3
:10322C00FEF733FEA36933F0200303D0B0211A4814
:10323C00FEF72BFEE36933F4405303D0B12116485B
:10324C00FEF723FE14222168144BA0680B44B3FB39
:10325C00F2F39B002364124B0A68E363636822F465
:10326C007F520343E06822F030020343206903439A
:10327C0060690343A0690343E069034313430B6094
:10328C0000200123A06384F8213084F8200010BDB5
:10329C00012010BD08000240C3650008F8FFFDBF07
:1032AC00000002402DE9F041174698465A1E4FF691
:1032BC00FE739A4204460E4604D940F27F1122480E
:1032CC00FEF7E3FD94F82030012B39D0012394F85C
:1032DC00215084F820309D424FF002004FF0000343
:1032EC002AD12168A36384F82100226C0868E36B5F
:1032FC00954020F0010008605D606368C1F80480AF
:10330C00102BE36A22680BBF8F608E60CE60CF609B
:10331C0053B10B6843F00E030B601368002043F0AD
:10332C0001031360BDE8F0810B6823F004030B600C
:10333C000B6843F00A03EFE784F82030BDE8F08116
:10334C000220BDE8F08100BFC365000890F8213071
:10335C0010B5022B03D004238363012010BD036836
:10336C001A6822F00E021A601A6822F001021A6022
:10337C00184A93421FD0143293421ED014329342F7
:10338C001DD0143293421DD0143293421DD01432EE
:10339C0093420CBF4FF480134FF080730E4A0024FD
:1033AC005360012380F82130436B80F820407BB1BF
:1033BC009847204610BD0123F0E71023EEE74FF4A9
:1033CC008073EBE74FF48053E8E74FF48033E5E785
:1033DC00184610BD080002400000024070B40425DD
:1033EC00C66B026C3468036895402542196832D06C
:1033FC004D0730D51A6896065EBF1A6822F0040293
:10340C001A603E4A934219D01432934218D01432A7
:10341C00934217D01432934217D01432934217D0E0
:10342C00143293420CBF4FF480034FF08063344A44
:10343C005360C36A002B5ED070BC18470423F6E7B8
:10344C004023F4E74FF48063F1E74FF48043EEE759
:10345C004FF48023EBE702259540254235D08D07AC
:10346C0033D51A68940606D41A6822F00A021A6038
:10347C00012280F82120214A934219D01432934220
:10348C0018D01432934217D01432934217D01432FE
:10349C00934217D0143293420CBF4FF400134FF0E9
:1034AC000073174A5360002380F82030836AC1E709
:1034BC000223F6E72023F4E74FF40073F1E74FF40F
:1034CC000053EEE74FF40033EBE708259540254217
:1034DC0011D009070FD5196821F00E0119600123CD
:1034EC0003FA02F27260836380F82130002380F8C3
:1034FC002030036B9EE770BC704700BF0800024091
:10350C0000000240114AD36813F0100305D0104993
:10351C00CB6943F00203CB611023D268500706D568
:10352C000B4943F00403CA6942F00102CA61074A1D
:10353C00D169C90708D50648C16941F00401C161C8
:10354C00D16921F00101D161D360704700200240A4
:10355C00C80A002070477047424B70B5DA68424C7D
:10356C0012F0100F02D1DB685A070AD54FF0FF3367
:10357C00A568A360FFF7C6FF2846FFF7ECFF002302
:10358C002370384DEB689B0618D52023EB6023780D
:10359C00A3B12378012B27D16368013B6360636877
:1035AC00DBB1A068FFF7D6FFA06800F58060A060D3
:1035BC002B6923F002032B6100F010F9237803F040
:1035CC00FF014BB9274B1A6922F007021A611A69DD
:1035DC0022F4A0521A61217670BD4FF0FF30A0602A
:1035EC002370FFF7B7FFE9E72378022B09D12B698A
:1035FC00002023F004032B61FFF7ACFF00232370A2
:10360C00DCE76368013B63606368D3B1A368023392
:10361C00A360A668D4E90401020C42EA01420B0C37
:10362C00C4E904232B6923F001032B61D4E904239F
:10363C000023E3612B6992B243F001032B613280CA
:10364C00BCE72378032B06D1A068FFF783FF4FF06C
:10365C00FF33A360D2E72378A068042B0CBF023899
:10366C000638F2E700200240C80A0020064B186911
:10367C0010F0800007D0054A5A6002F188325A6077
:10368C001869C0F3C0107047002002402301674541
:10369C00034A0020136943F080031361704700BF95
:1036AC0000200240F8B50646FFF760F9114C0746BA
:1036BC002546E368D80712D4E368990644BF202353
:1036CC00E360EB68DA0606D4EB69DB0703D4E86841
:1036DC0010F0040002D0FFF715FF0120F8BD731C99
:1036EC00E7D00EB90320F8BDFFF740F9C01B8642A6
:1036FC00DFD2F7E7002002402DE9F84F1F462F4B91
:10370C0016461A7E8346012A8946984652D00123D2
:10371C0088F81830431E022B03D9C2212848FEF723
:10372C00B4FBB9F1006F06D3264B1B88802B38D124
:10373C00254B994503D9C3212148FEF7A6FB4CF232
:10374C005030FFF7AFFF38BBBBF1010F06D0BBF118
:10375C00020F0CBF4FF0020B4FF0040B0024A246DB
:10376C001A4D220130463946FCF7EAFCC8F81CA079
:10377C002B6980B243F001032B6129F814004CF241
:10378C005030FFF78FFF2B6923F001032B6118B921
:10379C000134E3B29B45E4D8002388F81830BDE827
:1037AC00F88F402B01D10A4BC3E7202B0CBF094BE0
:1037BC00094BBEE70220BDE8F88F00BFC80A002005
:1037CC00FB650008E0F7FF1FFFFF01080020024027
:1037DC00FFFF0008FF7F0008FF3F00080022064B98
:1037EC00DA61064B1A6942F002021A6158611A69D1
:1037FC0042F040021A617047C80A002000200240C3
:10380C002DE9F0414A4C0646237E0D46012B00F073
:10381C008B8001232376036833F0020303D0B82195
:10382C004448FEF732FB3368022B1CD14CF250306B
:10383C00FFF738FF20B1012000232376BDE8F0818B
:10384C003D4DE0612B694CF2503043F004032B6189
:10385C002B6943F040032B61FFF724FF2B6923F006
:10386C0004032B61E8E7B368B3F1006F06D3334A66
:10387C001288802A3CD1324A934203D9F9212D482F
:10388C00FEF703FB2D4BB2681B88F168802B38D1F7
:10389C00013A02EB81232A4A93428CBF0023012375
:1038AC001BB9FA212348FEF7F0FA4CF25030FFF71F
:1038BC00F9FE0028BFD14FF0FF3301202B60B76811
:1038CC00DFF87480F268B36803EB82239F42B3D2B3
:1038DC003846FFF783FF4CF25030FFF7E3FED8F881
:1038EC00103023F00203C8F81030D0B12F60A3E7DA
:1038FC00402A01D1134ABFE7202A0CBF124A134AAF
:10390C00BAE7402B04D1531E03EB81230D4AC3E7C6
:10391C00202B02F1FF3303EB81230CBF0A4A0B4A25
:10392C00BAE707F58067CDE70220BDE8F08100BF5C
:10393C00C80A00203566000800200240E0F7FF1F8F
:10394C00FFFF0108FFFF0008FF7F0008FF3F000892
:10395C002DE9F04FAA4A85B0904204468B4601925D
:10396C0013D002F5806290420FD002F58062904233
:10397C000BD002F58062904207D002F58062904233
:10398C0003D0CD219F48FEF780FADBF8002091B2DE
:10399C0011B1120C12041AB1CE219A48FEF775FA25
:1039AC00DBF80420032A17D9A2F11101012913D93C
:1039BC00954822F4001181420ED000F5801082420D
:1039CC000AD0A0F57020814206D090498A4203D0DB
:1039DC00CF218C48FEF759FA0025A846DFF844A2FF
:1039EC008B4E0122DBF8007002FA08F909EA07078E
:1039FC00B94540F08F80019B9C4211D085498C4287
:103A0C000ED0854B9C420BD001F500618C4207D047
:103A1C0001F580618C4203D0DD217A48FEF735FA3E
:103A2C00DBF80410122900F0D38000F28D800229FB
:103A3C0000F0C18077D8002900F09380012900F0B4
:103A4C00AE80FF2F82BF08F1804EAEF1080E4FEA18
:103A5C008E014FF00F0E9DBF204622684FEA880161
:103A6C0062680EFA01FC22EA0C0205FA01F188BF29
:103A7C00201D11430160DBF80400C3004AD5DAF8BD
:103A8C00182028F0030142F00102CAF81820DAF8D5
:103A9C00182001F1804102F00102039201F58031FE
:103AAC0008F0030C019B039A4FEA8C0C8A680EFAFF
:103ABC000CFE9C4222EA0E0E00F09B80554A94426A
:103ACC0000F09980544B9C4200F0978002F5006204
:103ADC00944214BF0422032202FA0CF242EA0E02B0
:103AEC008A603268C1034CBF3A43BA433260726891
:103AFC0083034CBF3A43BA437260B268C1024CBFF5
:103B0C003A43BA43B260F26883024CBF174322EACD
:103B1C000707F76008F10108B8F1100F7FF461AFE7
:103B2C0005B0BDE8F08F03295FD0112989D1DBF8EE
:103B3C000C20013A022A03D9EC213248FEF7A5F9F0
:103B4C00DBF80C5004357CE73448814209D01CD892
:103B5C00A0F58010814204D000F5803081427FF4C2
:103B6C0070AFDBF80810022904D940F20711254880
:103B7C00FEF78BF9DBF80810C9B301290CBFC4F8A8
:103B8C001090C4F8149008255BE725488142E8D0D2
:103B9C0000F580308142E4D0A0F58010DEE7DBF840
:103BAC000C20013A022A03D9E5211648FEF76DF9DB
:103BBC00DBF80C5045E7DBF80C20013A022A03D95C
:103BCC00F3211048FEF761F9DBF80C50083538E7A3
:103BDC00DBF80C20013A022A03D9FA210948FEF736
:103BEC0054F9DBF80C500C352BE7002529E704259C
:103BFC0027E7002270E701226EE702226CE700BF84
:103C0C00000801407266000800001110000022102C
:103C1C0000040140000C0140001001400000211084
:103C2C00000031100010024038B505460C4621B991
:103C3C0040F2C3110448FEF728F9AB681C4214BFCC
:103C4C000120002038BD00BF7266000870B5054623
:103C5C0016460C4621B940F2E3110848FEF715F957
:103C6C00012E06D94FF4F2710448FEF70EF92C61BF
:103C7C0070BD002EFBD12404F9E700BF726600086A
:103C8C0038B505460C4621B940F2F9110348FEF748
:103C9C00FCF8EB685C40EC6038BD00BF7266000855
:103CAC0038B50446002832D002681A4B9A4203D029
:103CBC00AD211948FEF7E9F86368062B03D9AE214C
:103CCC001548FEF7E2F8A368B3F5805F03D3AF2184
:103CDC001148FEF7DAF84CF6CC4223681A6045F22C
:103CEC0055521A6062685A60A2689A60FEF73EFEEE
:103CFC0005462368D86818B94AF6AA221A6038BD56
:103D0C00FEF734FE401B3028F3D9032038BD0120C8
:103D1C0038BD00BF00300040AB6600084AF6AA224E
:103D2C00036800201A6070477047000010B5054CFE
:103D3C006369DB0304D5FFF7F7FF4FF4803363614E
:103D4C0010BD00BF000401402DE9F341044620B929
:103D5C004FF4B871A548FEF798F8236833B11A07E9
:103D6C0004D140F27111A148FEF78FF82368DB07EC
:103D7C0018D423689F0772D42368190700F1B980FF
:103D8C0023685A0700F1EB80E369022B04D940F257
:103D9C00B9219648FEF779F8E269002A40F05E8175
:103DAC00002020E0636833F4803207D0B3F5A02FF5
:103DBC0004D040F277118D48FEF767F88C4D6B6894
:103DCC0003F00C03042B07D06B6803F00C03082BD7
:103DDC000CD16B68DE0309D52B689D03C9D56368CC
:103DEC00002BC6D1012002B0BDE8F0816368B3F5A9
:103DFC00803F10D12B6843F480332B60FEF7B6FD67
:103E0C0006462B689803B4D4FEF7B0FD801B6428DB
:103E1C00F7D90320E7E79BB92B6823F480332B6099
:103E2C002B6823F480232B60FEF7A0FD06462B683D
:103E3C0099039ED5FEF79AFD801B6428F7D9E8E715
:103E4C00B3F5A02F2B6803D143F480232B60D1E76B
:103E5C0023F480332B602B6823F48023CDE7236974
:103E6C00012B04D940F2AB116048FEF70EF86369E0
:103E7C001F2B04D94FF4D6715C48FEF706F85C4D45
:103E8C006B6813F00C0F07D06B6803F00C03082B56
:103E9C0010D16B68DA030DD42B689B0702D523690C
:103EAC00012B9FD12B68626923F0F80343EAC2030C
:103EBC002B6061E722694F4B6AB101221A60FEF751
:103ECC0055FD06462B689F07ECD4FEF74FFD801B73
:103EDC000228F7D99DE71A60FEF748FD06462B68C5
:103EEC0098077FF549AFFEF741FD801B0228F6D9F4
:103EFC008FE7A369012B04D94FF4F6713B48FDF70A
:103F0C00C4FFA2693A4D3C4BDAB101221A60FEF7AC
:103F1C002DFD06466B6A9B070DD54FF4FA52374BB5
:103F2C001B68B3FBF2F3019300BF019B5A1E019275
:103F3C00002BF9D124E7FEF719FD801B0228E9D9E3
:103F4C0067E71A60FEF712FD06466B6A9F077FF55E
:103F5C0017AFFEF70BFD801B0228F6D959E7E36873
:103F6C00012B06D9052B04D040F21B211F48FDF76D
:103F7C008CFF1F4DEB69D80024D40127EB6943F06B
:103F8C008053EB61EB6903F080530093009B1C4E54
:103F9C003368D90518D5E368012B33D12B6A43F06C
:103FAC0001032B62FEF7E2FC41F2883680462B6A55
:103FBC009B074CD5002F3FF4E7AEEB6923F0805301
:103FCC00EB61E1E60027E2E7336843F4807333608A
:103FDC00FEF7CCFC80463368DA05DCD4FEF7C6FC71
:103FEC00A0EB08006428F6D913E700BFE4660008CC
:103FFC0000100240000042428004424208060020A9
:10400C0000700040ABB92B6A41F2883823F00103F1
:10401C002B622B6A23F004032B62FEF7A7FC0646E7
:10402C002B6A9807C6D5FEF7A1FC801B4045F7D933
:10403C00EFE6052B2B6A03D143F004032B62ADE7AB
:10404C0023F001032B622B6A23F00403A9E7FEF78C
:10405C008DFCA0EB0800B042A9D9DAE6384D6B68AC
:10406C0003F00C03082B3FF4BDAE022A354E57D19A
:10407C00236A33F4803304D040F2C2213248FDF776
:10408C0004FF636A33F4402223F4802110D0B2F58C
:10409C00801F0DD0B2F5001F0AD0B1F5401F07D01C
:1040AC00B3F5601F04D040F2C3212748FDF7EDFEA5
:1040BC0000233360FEF75AFC07462B68990129D47C
:1040CC00236AB3F5803F0ED1A36833F4003304D0D8
:1040DC0040F2D9211C48FDF7D8FE6B68A26823F486
:1040EC00003313436B60236A616A6A680B4322F4E2
:1040FC00741213436B6001233360FEF737FC0446E4
:10410C002B689A013FF54CAEFEF730FC001B0228E1
:10411C00F6D97EE6FEF72AFCC01B0228CDD978E63C
:10412C0000233360FEF722FC04462B689B017FF5CD
:10413C0037AEFEF71BFC001B0228F6D969E600BF60
:10414C000010024060004242E466000830B5194B92
:10415C0087B002AC03F11005224618685968083381
:10416C0003C2AB421446F7D101238DF8043002236D
:10417C0011498DF805304B6803F00C02082A17D151
:10418C00C3F3834206A80244DB0312F8102C0CD5AF
:10419C004B680A48C3F34043504306AA134413F830
:1041AC00143CB0FBF3F007B030BD05485043FAE7C0
:1041BC000248F8E7AC6300080010024000127A00D5
:1041CC0000093D002DE9F0410E46044620B940F2AD
:1041DC002E317F48FDF759FE23681D0704D140F2AC
:1041EC002F317B48FDF751FE022E04D94FF44C7150
:1041FC007748FDF74AFE774A136803F007039E429F
:10420C003DD82368980747D42368DA0770D4714ADD
:10421C00136803F007039E42C0F0B58023686E4D0F
:10422C0013F0040F40F0BB8023681B0717D52369DC
:10423C0033F480620CD023F40072B2F5A06F07D077
:10424C00B3F5C06F04D04FF46E716148FDF71DFEDD
:10425C006B68226923F4605343EAC2036B60FFF777
:10426C0075FF6B685D4AC3F30313D35CD8405C4B9A
:10427C0018600020FEF738FB0020BDE8F0811368C1
:10428C0023F0070333431360136803F007039E42C4
:10429C00B7D00120BDE8F0814F4D13F0040F1EBFC5
:1042AC006A6842F4E0626A60190742BF6B6843F4C3
:1042BC0060536B60A36833F0800212D023F02002AD
:1042CC00902A0ED023F04002A02A0AD023F010022C
:1042DC00C02A06D0F02B04D040F256313C48FDF7F2
:1042EC00D4FD6B68A26823F0F00313436B608BE77B
:1042FC006368022B04D940F25D313548FDF7C5FDEA
:10430C006268354D012A2B681DD113F4003FC0D0D3
:10431C006B6841F2883823F0030313436B60FEF79C
:10432C0025FB63680746012B15D16B6803F00C0362
:10433C00042B3FF46CAFFEF719FBC01B4045F4D9BE
:10434C000320BDE8F081022A02D113F0007FDEE7E2
:10435C0013F0020FDBE7022B10D16B6803F00C0398
:10436C00082B3FF454AFFEF701FBC01B4045F4D9BA
:10437C00E6E7FEF7FBFAC01B4045E1D86B6813F08B
:10438C000C0FF6D143E7136823F007033343136094
:10439C00136803F007039E427FF47BAF3EE7E368AC
:1043AC0033F480620CD023F40072B2F5A06F07D006
:1043BC00B3F5C06F04D040F2B1310548FDF765FD8F
:1043CC006B68E26823F4E06313436B602CE700BF77
:1043DC00E46600080020024000100240006500085E
:1043EC0008060020044B054A5B68C3F30223D35C28
:1043FC00034A1068D840704700100240106500084E
:10440C0008060020044B054A5B68C3F3C223D35C47
:10441C00034A1068D840704700100240106500082D
:10442C000806002003682DE9F34113F0130F05462D
:10443C0003D17C214548FDF728FD2B68D90728D5E9
:10444C006B6833F4407303D082214048FDF71DFDA7
:10445C003F4CE369DA0044D40127E36943F080530D
:10446C00E361E36903F080530193019B394E336898
:10447C00DB0538D5236A13F4407348D1236A6A6884
:10448C0023F44073134323621FB1E36923F0805379
:10449C00E3612B689B070ED5AB6833F4404303D024
:1044AC00C9212A48FDF7F1FC294AA968536823F46D
:1044BC0040430B435360286810F0100024D0EB6885
:1044CC0033F4800304D040F225112048FDF7DDFCC5
:1044DC001F4AE9685368002023F480030B435360A0
:1044EC0012E00027C2E7336843F480733360FEF7B1
:1044FC003DFA80463368D805BCD4FEF737FAA0EBFA
:10450C0008006428F6D9032002B0BDE8F0816A687F
:10451C0002F440729342B1D001200F4A236A10601A
:10452C00002023F4407110602162D907A6D5FEF754
:10453C001DFA41F288380646236A9A079ED4FEF784
:10454C0015FA801B4045F7D9DDE700BF1C67000852
:10455C00001002400070004040044242036A2DE902
:10456C00F04123F001030362046AD0F804808669E9
:10457C000B6826F073061E438B6824F002041C4360
:10458C001A4B054698420F4627D1CB6833F00803E7
:10459C0004D041F23F211648FDF777FCFB6824F06C
:1045AC0008041C43BB6924F0040433F4007304D0E6
:1045BC0041F24C210E48FDF768FC7B6933F48073A3
:1045CC0004D041F24D210A48FDF75FFC7B69BA69C2
:1045DC0028F44078134343EA08087B68C5F8048044
:1045EC00AE616B632C62BDE8F08100BF002C014012
:1045FC0057670008036A2DE9F04123F480730362C6
:10460C00046AD0F80480C6690B6826F073061E4352
:10461C008B6824F4007444EA03241B4B054698422F
:10462C000F4628D1CB6833F0080304D041F2D421D3
:10463C001648FDF72AFCFB6824F4006444EA0324C2
:10464C00BB6924F4806433F4007304D041F2E1219B
:10465C000E48FDF71AFC7B6933F4807304D041F2E9
:10466C00E2210A48FDF711FC7B69BA6928F440582D
:10467C00134348EA03187B68C5F80480EE61EB63CA
:10468C002C62BDE8F08100BF002C01405767000888
:10469C00036A2DE9F04123F480530362056AD0F8D4
:1046AC000480C7690B6827F4E64747EA03278B6841
:1046BC0025F4005545EA03350D4B044698420E4649
:1046CC000DD14B6933F4807304D041F21F3109488A
:1046DC00FDF7DBFB736928F4804848EA831873689C
:1046EC00C4F80480E76123642562BDE8F08100BF53
:1046FC00002C0140576700080368114A10B593421B
:10470C0004460FD0B3F1804F0CD0A2F594329342F3
:10471C0008D002F58062934204D040F2331109486C
:10472C00FDF7B3FB0223226884F83D3013680020A8
:10473C0043F001031360012384F83D3010BD00BF2A
:10474C00002C0140576700080368104A10B59342CB
:10475C0004460FD0B3F1804F0CD0A2F594329342A3
:10476C0008D002F58062934204D040F261110848EF
:10477C00FDF78BFB23680020DA6842F00102DA6057
:10478C001A6842F001021A6010BD00BF002C0140F3
:10479C00576700087047704790F83C3070B5012B94
:1047AC0005460C464FF002002ED0012385F83C3014
:1047BC000B6885F83D00B3F5805F0CD0B3F5005F56
:1047CC0009D033F0300306D0402B04D040F6717181
:1047DC00B548FDF75AFB2B689A6822F47F4222F009
:1047EC0077029A602268402A00F062812CD8102A45
:1047FC0000F0B98109D8002A00F09B810123002028
:10480C0085F83D3085F83C0070BD202A00F0C5814C
:10481C00302AF3D1A54A93420FD0B3F1804F0CD07C
:10482C00A2F59432934208D002F58062934204D0F0
:10483C0040F6F9719C48FDF728FB2A68936823F031
:10484C00700343F03703A9E0702A00F0A98046D822
:10485C00502A00F0E780602AD0D1944A93420FD0BE
:10486C00B3F1804F0CD0A2F59432934208D002F5EC
:10487C008062934204D040F6C3718B48FDF705FB70
:10488C006368B3F5004F09D033F0020206D00A2B4F
:10489C0004D040F6C6718448FDF7F7FAE3680F2B95
:1048AC0004D940F6C7718048FDF7EFFA2B686668AB
:1048BC00186AE46820F01000186299691A6A21F4E9
:1048CC00704122F0A00242EA061241EA04319961D9
:1048DC001A629A6822F0700242F06702E2E0B2F5C6
:1048EC00805F44D0B2F5005F88D1704A93420FD0FC
:1048FC00B3F1804F0CD0A2F59432934208D002F55C
:10490C008062934204D04FF47A616748FDF7BDFA98
:10491C00A36833F4405304D040F6A3716248FDF70A
:10492C00B4FA6368B3F5004F09D033F0020206D035
:10493C000A2B04D040F6A4715B48FDF7A6FAE36895
:10494C000F2B04D940F6A5715748FDF79EFA2A683B
:10495C006068A36891680343E06821F47F4143EAEF
:10496C0000230B439360936843F4804316E04F4A53
:10497C0093420FD0B3F1804F0CD0A2F594329342F6
:10498C0008D002F58062934204D040F67D7146480F
:10499C00FDF77BFA2A68936823F0070393602DE7F1
:1049AC00424A93420FD0B3F1804F0CD0A2F594320F
:1049BC00934208D002F58062934204D040F686718F
:1049CC003948FDF762FAA36833F4405304D040F63B
:1049DC0089713548FDF759FA6368B3F5004F09D072
:1049EC0033F0020206D00A2B04D040F68A712E480E
:1049FC00FDF74BFAE3680F2B04D940F68B712A486C
:104A0C00FDF743FA2A686068A36891680343E0687D
:104A1C0021F47F4143EA00230B439360936843F0F6
:104A2C007703BBE7214A93420FD0B3F1804F0CD0F0
:104A3C00A2F59432934208D002F58062934204D0DE
:104A4C0040F6B4711848FDF720FA6368B3F5004FCF
:104A5C0009D033F0020206D00A2B04D040F6B7710D
:104A6C001148FDF712FAE3680F2B04D940F6B87120
:104A7C000D48FDF70AFA2B686168186AE6681C6A2B
:104A8C0020F00A0024F001041C629A69014322F010
:104A9C00F00242EA06129A6119629A6822F07002D8
:104AAC0042F057029A60A9E657670008002C0140B3
:104ABC00474A93420FD0B3F1804F0CD0A2F59432F9
:104ACC00934208D002F58062934204D040F6D27132
:104ADC004048FDF7DAF96368B3F5004F09D033F0BD
:104AEC00020206D00A2B04D040F6D5713948FDF7E6
:104AFC00CCF9E3680F2B04D940F6D6713548FDF795
:104B0C00C4F92B686168186AE6681C6A20F00A0010
:104B1C0024F001041C629A69014322F0F00242EA7B
:104B2C0006129A6119629A6822F0700242F04702EA
:104B3C00B8E7274A93420FD0B3F1804F0CD0A2F5BF
:104B4C009432934208D002F58062934204D040F62E
:104B5C00E1712048FDF799F92A68936823F07003F6
:104B6C0043F007031AE71A4A93420FD0B3F1804F70
:104B7C000CD0A2F59432934208D002F58062934295
:104B8C0004D040F6E9711348FDF77FF92A68936861
:104B9C0023F0700343F0170300E70D4A93420FD044
:104BAC00B3F1804F0CD0A2F59432934208D002F5A9
:104BBC008062934204D040F6F1710648FDF765F926
:104BCC002A68936823F0700343F02703E6E600BFDE
:104BDC00002C0140576700087047704770477047BA
:104BEC007047036810B51A69044691070ED5DA6848
:104BFC0092070BD56FF002021A6101229B690277B2
:104C0C009B0777D0FFF7EAFF0023237723681A6905
:104C1C00500710D5DA6851070DD56FF004021A61F0
:104C2C0002229B69227713F4407F204668D0FFF75D
:104C3C00D5FF0023237723681A6912070FD5DA688A
:104C4C0010070CD56FF008021A610422DB69227779
:104C5C00990720465AD0FFF7C1FF0023237723681A
:104C6C001A69D20610D5DA68D0060DD56FF010028D
:104C7C001A610822DB69227713F4407F20464BD05F
:104C8C00FFF7ACFF0023237723681A69D10708D5F7
:104C9C00DA68D20705D56FF0010220461A61FFF7DA
:104CAC009BFF23681A69100608D5DA68110605D52A
:104CBC006FF0800220461A6100F015FC23681A6917
:104CCC00520608D5DA68500605D56FF0400220462A
:104CDC001A61FFF785FF23681A69910622D5DA68F5
:104CEC0092061FD56FF020022046BDE810401A61D5
:104CFC0000F0F8BBFFF771FF2046FFF770FF83E76A
:104D0C00FFF76BFF2046FFF76AFF92E7FFF765FF9F
:104D1C002046FFF764FFA0E7FFF75FFF2046FFF791
:104D2C005EFFAFE710BD00001A4A036890420AD03C
:104D3C00B0F1804F07D0A2F59432904203D002F527
:104D4C008062904215D14A6823F070031343114AD4
:104D5C0090420AD0B0F1804F07D0A2F59432904225
:104D6C0003D002F58062904203D1CA6823F44073E9
:104D7C0013434A6923F08003134303608B68C362B7
:104D8C000B688362034B984204BF0B6903630123D6
:104D9C0043617047002C014010B50446002849D0EF
:104DAC000368254A93420ED0B3F1804F0BD0A2F585
:104DBC009432934207D002F58062934203D0D921FA
:104DCC001E48FDF762F8A36833F0100209D023F0F7
:104DDC004002202A05D0402B03D0DA211748FDF7DA
:104DEC0054F8236933F4807206D0B3F5007F03D0F6
:104DFC00DB211248FDF749F8A36933F0800303D097
:104E0C00DC210E48FDF741F894F83D3003F0FF0229
:104E1C0023B984F83C202046FDF752FB022320687E
:104E2C0084F83D30211DFFF77FFF0123002084F81B
:104E3C003D3010BD012010BD002C0140576700080B
:104E4C0010B5044600284DD00368274A93420FD072
:104E5C00B3F1804F0CD0A2F59432934208D002F5F6
:104E6C008062934204D040F2F1112048FDF70DF816
:104E7C00A36833F010020AD023F04002202A06D097
:104E8C00402B04D04FF4F9711848FCF7FEFF23694E
:104E9C0033F4807207D0B3F5007F04D040F2F311E5
:104EAC001248FCF7F2FFA36933F0800304D04FF4EF
:104EBC00FA710E48FCF7E9FF94F83D3003F0FF025D
:104ECC0023B984F83C202046FFF764FC02232068B9
:104EDC0084F83D30211DFFF727FF0123002084F8C3
:104EEC003D3010BD012010BD002C0140576700085B
:104EFC0010B5044600284DD00368274A93420FD0C2
:104F0C00B3F1804F0CD0A2F59432934208D002F545
:104F1C008062934204D040F2EE312048FCF7B5FF9A
:104F2C00A36833F010020AD023F04002202A06D0E6
:104F3C00402B04D040F2EF311848FCF7A6FF236950
:104F4C0033F4807207D0B3F5007F04D04FF47C713A
:104F5C001248FCF79AFFA36933F0800304D040F2A7
:104F6C00F1310E48FCF791FF94F83D3003F0FF024D
:104F7C0023B984F83C202046FFF70DFC022320685F
:104F8C0084F83D30211DFFF7CFFE0123002084F86B
:104F9C003D3010BD012010BD002C014057670008AA
:104FAC00036A2DE9F04123F010030362046AD0F880
:104FBC00048086690B6826F4E64646EA03268B686D
:104FCC0024F0200444EA03141A4B054698420F4679
:104FDC0028D1CB6833F0080304D041F2892116485C
:104FEC00FCF753FFFB6824F0800444EA0314BB690C
:104FFC0024F0400433F4007304D041F297210E489E
:10500C00FCF743FF7B6933F4807304D041F29821A1
:10501C000948FCF73AFF7B69BA6928F440681343E6
:10502C0048EA83087B68C5F80480AE61AB632C62E8
:10503C00BDE8F081002C014057670008182A70B5B4
:10504C0004460D46164603D84E4BD340DB0704D41A
:10505C004FF439614C48FCF718FF2B6823F0100211
:10506C0033F0300306D0402A04D040F69131464844
:10507C00FCF70BFFAB6833F0020304D040F692311F
:10508C004148FCF702FF94F83C300220012B2DD054
:10509C00012384F83D0084F83C300C2E20D8DFE846
:1050AC0006F0071F1F1F261F1F1F3F1F1F1F580023
:1050BC002368364A93420FD0B3F1804F0CD0A2F53F
:1050CC009432934208D002F58062934204D040F6A9
:1050DC009D312D48FCF7D9FE29462068FFF73EFA92
:1050EC000123002084F83D3084F83C0070BD236817
:1050FC00264A93420FD0B3F1804F0CD0A2F59432D4
:10510C00934208D002F58062934204D040F6A53158
:10511C001D48FCF7BAFE29462068FFF741FFDFE780
:10512C0023681A4A93420FD0B3F1804F0CD0A2F5EA
:10513C009432934208D002F58062934204D040F638
:10514C00AD311148FCF7A1FE29462068FFF752FA51
:10515C00C6E723680D4A93420FD0B3F1804F0CD0B1
:10516C00A2F59432934208D002F58062934204D0A7
:10517C0040F6B5310448FCF788FE29462068FFF755
:10518C0087FAADE71111000157670008002C0140A8
:10519C0090F83C3070B5012B04460D46164600F0D5
:1051AC00D6800123182A80F83C3003D8694BD340B1
:1051BC00DB0704D440F637416748FCF766FE2B68E2
:1051CC0023F01003602B04D040F638416248FCF702
:1051DC005CFEAB6833F0020304D040F639415E4804
:1051EC00FCF753FE2B6933F0040304D040F63A412C
:1051FC005948FCF74AFE022384F83D300C2E2DD87A
:10520C00DFE806F0072C2C2C332C2C2C592C2C2CB6
:10521C007F002368514A93420FD0B3F1804F0CD0DA
:10522C00A2F59432934208D002F58062934204D0E6
:10523C0040F642414848FCF728FE29462068FFF713
:10524C008DF9236829699A6942F008029A619A6972
:10525C0022F004029A619A690A439A6101230020A0
:10526C0084F83D3084F83C0070BD23683B4A93427F
:10527C000FD0B3F1804F0CD0A2F59432934208D0EA
:10528C0002F58062934204D040F651413248FCF75B
:10529C00FCFD29462068FFF783FE236829699A697B
:1052AC0042F400629A619A6922F480629A619A6966
:1052BC0042EA0122D1E72368284A93420FD0B3F186
:1052CC00804F0CD0A2F59432934208D002F5806244
:1052DC00934204D04FF446611F48FCF7D6FD294693
:1052EC002068FFF787F923682969DA6942F0080218
:1052FC00DA61DA6922F00402DA61DA690A43DA6106
:10530C00ACE72368154A93420FD0B3F1804F0CD011
:10531C00A2F59432934208D002F58062934204D0F5
:10532C0040F66F410C48FCF7B0FD29462068FFF7AA
:10533C00AFF923682969DA6942F40062DA61DA6943
:10534C0022F48062DA61DA6942EA0122D7E70220AC
:10535C0070BD00BF1111000157670008002C0140FF
:10536C0038B50268364B04469A420D4604D04FF4C9
:10537C00C1613448FCF789FD2B6833F4006304D019
:10538C0040F209612F48FCF780FD6B6833F48063B1
:10539C0004D040F20A612B48FCF777FDAB6833F47C
:1053AC00407304D040F20B612648FCF76EFDEB68AD
:1053BC00FF2B04D940F20C612248FCF766FD2B69E7
:1053CC0033F4805304D040F20D611E48FCF75DFDB0
:1053DC006B6933F4005304D040F20E611948FCF7AA
:1053EC0054FDAB6933F4804304D040F20F6115488F
:1053FC00FCF74BFD94F83C30012B1ED00020EB68E1
:10540C00AA6823F4407313436A6823F4806313433C
:10541C002A6823F4006313432A6923F4805313434B
:10542C006A6923F400531343AA6923F440431343DA
:10543C002268536484F83C0038BD022038BD00BF9C
:10544C00002C01408F67000838B5244A03680446D5
:10545C0093420D460FD0B3F1804F0CD0A2F594328D
:10546C00934208D002F58062934204D04FF4C76196
:10547C001B48FCF70AFD2B6833F0300306D0402B99
:10548C0004D040F239611648FCF7FFFC6B6833F02E
:10549C00800304D040F23A611148FCF7F6FC94F812
:1054AC003C300220012B18D0236884F83D005A6848
:1054BC00296822F070025A605A6800200A435A6028
:1054CC009A68696822F080029A609A680A439A6026
:1054DC00012384F83C0084F83D3038BD002C014099
:1054EC008F670008704770470368DA6822F490727F
:1054FC00DA605A6922F001025A61202380F83A30AE
:10550C00704700004268654B2DE9F0479A4281468E
:10551C0004D940F6A7116248FCF7B7FCD9F80C3057
:10552C0033F4005304D040F6A8115D48FCF7ADFCF1
:10553C00D9F8103033F4806207D0B3F5C06F04D0C3
:10554C0040F6A9115648FCF7A0FC4FF6F372D9F8B7
:10555C001430134200D123B940F6AA115048FCF77D
:10556C0094FCD9F80050D9F80C202B69D9F81010FC
:10557C0023F4405313432B61D9F80830EA680B43EA
:10558C00D9F8141022F4B05222F00C020B4313433E
:10559C00EB606B69D9F8182023F4407313436B61EB
:1055AC00404B19249D4246D1FEF72CFF04FB00F31F
:1055BC00D9F804604FF06408B600B3FBF6F3B3FB04
:1055CC00F8F31E01FEF71EFF6043D9F804309B0070
:1055DC00B0FBF3F7FEF716FF6043D9F804309B00DD
:1055EC00B0FBF3F3B3FBF8F308FB13731B0132337B
:1055FC00B3FBF8F303F0F007FEF704FF6043D9F8B0
:10560C0004209200B0FBF2FAFEF7FCFE6043D9F8DE
:10561C0004309B00B0FBF3F3B3FBF8F308FB13A3CC
:10562C001B013233B3FBF8F303F00F033B4333445A
:10563C00AB60BDE8F087FEF7D5FE04FB00F3D9F8AC
:10564C0004604FF06408B600B3FBF6F3B3FBF8F359
:10565C001E01FEF7C7FE6043D9F804309B00B0FB77
:10566C00F3F7FEF7BFFE6043D9F804309B00B0FBA4
:10567C00F3F3B3FBF8F308FB13731B013233B3FBE7
:10568C00F8F303F0F007FEF7ADFE6043D9F8042001
:10569C009200B0FBF2FAFEF7A5FEB7E720AA440091
:1056AC00CA6700080038014010B5044600285BD0DA
:1056BC00816903682D4A00294AD093420CD0A2F587
:1056CC007442934208D002F58062934204D040F2B7
:1056DC000F112748FCF7D9FBA36933F4407304D0AE
:1056EC004FF488712248FCF7D0FBA36833F4805345
:1056FC0004D04FF48B711E48FCF7C7FB94F839307B
:10570C0003F0FF0223B984F838202046FDF786F811
:10571C002423226884F83930D368204623F40053BC
:10572C00D360FFF7EFFE236800201A6922F4904241
:10573C001A615A6922F02A025A61DA6842F400525C
:10574C00DA602023E06384F8393084F83A3010BDF5
:10575C009342CAD0074A9342C7D002F58062934263
:10576C00C3D04FF48A71BDE7012010BD0038014051
:10577C00CA6700080044004038B50446134694F844
:10578C003920202A2AD139B333B394F83820012A8E
:10579C0024D00122002584F838202122E384206BB8
:1057AC00E56384F839200E4AA384216282620D4A93
:1057BC004563C2620C4A026322680432FDF772FD33
:1057CC006FF04002236828461A605A6984F83850F2
:1057DC0042F080025A6138BD012038BD022038BD2C
:1057EC00F957000827580008B158000808B5036895
:1057FC00426A1B6813F020030AD1D38413685A69D8
:10580C0022F080025A61DA6842F04002DA6008BD88
:10581C001046FBF7DBFB08BD704708B5406AFFF785
:10582C00FBFF08BD704790F83A3010B5222B36D1EB
:10583C0083680169B3F5805F0268836A23D152687B
:10584C00E9B9C2F3080223F8022B8362C48D013C30
:10585C00A4B2C4858CB90368DA6822F02002DA603D
:10586C00DA6822F48072DA605A6922F001025A6115
:10587C00202380F83A30FFF7D5FF002010BDD2B2BC
:10588C0023F8012BE1E721B9591C526881621A7087
:10589C00DCE75268591C816202F07F02F7E70220B4
:1058AC0010BD7047416A08B50B685A6991F8390008
:1058BC0021280AD1120608D50022CA84DA6822F0FF
:1058CC00C002DA60202281F839205B6991F83A2015
:1058DC00222A06D15B0604D500230846CB85FFF7A8
:1058EC0003FECB6B084643F01003CB63FFF7D9FFE5
:1058FC0008BD0000036870B51A6804461607D9681D
:10590C005D6907D196065AD58D0658D5BDE870400D
:10591C00FFF789BF15F0010502D111F4907F4ED02D
:10592C00D30705D5CE0542BFE36B43F00103E36318
:10593C00500704D51DB1E36B43F00203E3639307F7
:10594C0004D51DB1E36B43F00403E363160704D5E0
:10595C001DB1E36B43F00803E363E36B002B66D0EC
:10596C00950604D5880602D52046FFF75CFF236810
:10597C0020465D69E26B110702D415F040051AD080
:10598C00FFF7B2FD23685A69520610D55A69606B4D
:10599C0022F040025A6150B1254B4363FDF7D6FC0F
:1059AC00002844D0606BBDE87040436B184720461C
:1059BC00FFF777FF70BDFFF774FFE56370BD160648
:1059CC0027D50D0625D594F83920212A2FD1A26888
:1059DC00B2F5805F226A17D11188C1F308015960B2
:1059EC00216979B902322262E28C013A92B2E284E4
:1059FC00EAB9DA6822F08002DA60DA6842F0400232
:105A0C00DA6070BD0132EEE7511C216212785A60E7
:105A1C00EAE750060BD54A0609D5DA68204622F08B
:105A2C004002DA60202384F83930FBF7CFFA70BDDE
:105A3C00415A000808B50023406AC385C384FFF7A8
:105A4C0030FF08BD002103E00B4B5B584350043181
:105A5C000A480B4B42189A42F6D30A4A02E000233A
:105A6C0042F8043B084B9A42F9D3FCF799FC00F03E
:105A7C000FF8FCF737F8704740680008000000206A
:105A8C007806002078060020EC0A0020FEE70000D3
:105A9C0070B500250C4E0D4CA41BA410A54209D1C9
:105AAC0000F072FC00250A4E0A4CA41BA410A5425F
:105ABC0005D170BD56F8253098470135EEE756F8FC
:105ACC00253098470135F2E7386800083868000837
