:020000040800F2
:1000000000100020E96200085D2800085F28000851
:1000100000000000000000000000000000000000E0
:10002000000000000000000000000000612800083F
:100030000000000000000000632800086528000898
:100040003963000800000000396300086D280008CB
:10005000752800083963000839630008396300080F
:100060000000000039630008792800089128000882
:10007000A1280008B128000839630008000000002A
:10008000012900080000000000000000BD29000850
:1000900000000000A12A0008396300083963000845
:1000A000000000003963000800000000C52B0008B4
:1000B0000000000000000000000000000000000040
:1000C00010B5064C2378002B07D1054B002B02D02E
:1000D000044800E000BF0123237010BD90020020FF
:1000E00000000000246C0008044B10B5002B03D066
:1000F0000349044800E000BF10BDC04600000000F6
:1001000094020020246C000802B47146490849009A
:10011000095C49008E4402BC7047C0460022430877
:100120008B4274D303098B425FD3030A8B4244D3BF
:10013000030B8B4228D3030C8B420DD3FF22090201
:1001400012BA030C8B4202D31212090265D0030BC0
:100150008B4219D300E0090AC30B8B4201D3CB03B6
:10016000C01A5241830B8B4201D38B03C01A5241F8
:10017000430B8B4201D34B03C01A5241030B8B42FA
:1001800001D30B03C01A5241C30A8B4201D3CB02E5
:10019000C01A5241830A8B4201D38B02C01A5241CA
:1001A000430A8B4201D34B02C01A5241030A8B42CD
:1001B00001D30B02C01A5241CDD2C3098B4201D3E5
:1001C000CB01C01A524183098B4201D38B01C01A63
:1001D000524143098B4201D34B01C01A52410309DA
:1001E0008B4201D30B01C01A5241C3088B4201D389
:1001F000CB00C01A524183088B4201D38B00C01A36
:10020000524143088B4201D34B00C01A5241411A5C
:1002100000D20146524110467047FFE701B5002069
:1002200000F006F802BDC0460029F7D076E7704717
:100230007047C0468446101C62468C46191C6346B3
:1002400000E0C0461FB500F0F7FC002801D40021F3
:10025000C8421FBD10B500F051FC4042013010BD36
:1002600010B500F0E9FC002801DB002010BD0120E2
:1002700010BDC04610B500F0DFFC002801DD0020F5
:1002800010BD012010BDC04610B500F071FC002863
:1002900001DC002010BD012010BDC04610B500F0EB
:1002A00067FC002801DA002010BD012010BDC04607
:1002B0008446081C6146FFE71FB500F0B1F800282E
:1002C00001D40021C8421FBD10B500F043F84042E0
:1002D000013010BD10B500F0A3F8002801DB0020AC
:1002E00010BD012010BDC04610B500F099F80028DF
:1002F00001DD002010BD012010BDC04610B500F08A
:100300004FF8002801DC002010BD012010BDC046C0
:1003100010B500F045F8002801DA002010BD0120DA
:1003200010BDC0469E2110B5C905041CFFF7F0FFA3
:10033000002803D1201C00F071FB10BD9E21201C61
:10034000C90500F0CFF900F069FB80231B069C462D
:100350006044F2E770B5420045024E024C00C30F04
:100360006D0A120E760A240EC90F0120FF2A06D04C
:10037000FF2C03D0A24201D1B54206D070BD002DA2
:10038000FCD1FF2CFAD1002EF8D18B4206D00120EF
:10039000002AF3D12800451EA841EFE70020EDE731
:1003A000F0B5420045024C02C30F48006D0A120E20
:1003B000640A000EC90FFF2A1ED0FF2821D0002A90
:1003C0000AD16E426E41F6B200280FD1002C0DD139
:1003D0000020002D09D005E0002801D1002C01D01B
:1003E0008B4211D0012158420843F0BD002EF7D0B6
:1003F000012001390843F8E7002DDED002204042F9
:10040000F3E7002CDBD0F9E78242EBDC04DBA5420A
:10041000E8D80020A542E8D20121581E0843E4E7AD
:10042000F0B542004D024C004602760A120EC30F90
:100430006D0A240EC90FFF2A16D0FF2C18D0002AEF
:100440000AD170427041C0B2002C15D0002805D0EE
:10045000012001390843F0BD002C13D0994214D07B
:1004600001205B421843F6E70220002EF3D1E4E7B7
:100470000220002DEFD1E2E7002DE7D10020002E71
:10048000E9D0EDE7002DE9D1EAE7A24206DCDFDBA7
:10049000AE4203D80020AE42DAD3DCE70120494265
:1004A0000843D8E7F8B557464E464546DE46E0B520
:1004B0004702460088467F0A360EC40F002E47D0FA
:1004C000FF2E24D0FB008027FF041F430023994602
:1004D0009A467F3E43465D025800DB0F6D0A000ED0
:1004E000984643D0FF283BD0EB0080250022ED0446
:1004F0001D437F383618731C41469B464B4661406E
:1005000013430F2B64D875489B00C3589F46002F98
:1005100042D108239946063BFF269A46DAE7414630
:10052000022A28D0032A00D1CEE0012A00D0ACE074
:10053000114000200022CCB24002D205400AE4075C
:10054000104320433CBC90469946A246AB46F8BDBA
:10055000002F15D104239946033B00269A46B9E79C
:10056000FF200222002DC5D00322C3E7002D19D1A0
:1005700000200122BEE70124FF220C400020DBE71F
:10058000380001F065FA7626431F9F40002376422B
:10059000361A99469A469DE70C239946093BFF2651
:1005A0009A4697E7280001F053FA431F9D407623AF
:1005B0005B42181A00229DE780200024C003FF221E
:1005C000BAE73D005246ABE73D0021005246A7E79F
:1005D0003B0C9C462A04120C2B0C1400604665460A
:1005E0003F043F0C7C4342435D437B43270C9B18F5
:1005F000FF18BA4203D980235B029C466544240459
:100600003A04240C121993015C1EA3413F0C920E74
:100610007D191A43AD0115432B0104D501235E4614
:100620006A081D40154332007F32002A25DD6B0722
:1006300004D00F232B40042B00D004352B0103D50D
:100640003200274B80321D40FE2A94DC0124A80191
:10065000400AD2B20C406FE78020C003074207D0A7
:10066000054205D128434002400A4446FF2263E781
:1006700038434002400AFF225EE70124A31A1B2BE5
:1006800005DD0C400022002056E75E46CBE72A003D
:100690002020DA40C31A9D402B005D1EAB4113435E
:1006A0005A0704D00F221A40042A00D004335A01FA
:1006B00004D5012401220C4000203DE701249B01C8
:1006C000580A0C40002237E780200124C003284349
:1006D0004002400A0C40FF222EE7C0465C6C000836
:1006E000FFFFFFF7F0B54F46D64646464400C0B57B
:1006F000C20F47024802400A844666467B0A480009
:10070000C90F9A46240E1500DB00000E8946F6003C
:10071000FF2800D18FE001214F464F403900914220
:1007200066D0221A002A00DC9DE000283DD1002E70
:1007300000D18BE0511E002900D0B5E001249B1BA5
:100740005A0144D59B019F09380001F081F9053811
:100750008740844200DD96E0041B3A0020200134EB
:10076000E240041BA7403B005F1EBB410024134333
:100770005A0704D00F221A40042A00D004335A0129
:1007800027D50134FF2C00D179E001229B015B0ABF
:10079000E4B22A405B02E405580AD2072043104322
:1007A0001CBC90469946A246F0BDFF2CE0D08021AB
:1007B000C9040E431B2A7BDC31002020D140821A61
:1007C0009640721E96410E439B1B5A01BAD45A079B
:1007D000D0D10122DF082A40FF2C33D1002F00D1D5
:1007E000A8E08023DB033B435B025B0AFF24D1E7E5
:1007F000211A00294CDD00282AD0FF2CB8D08020F7
:10080000C00406431B2900DDAFE030002027C840AC
:10081000791A8E40711E8E4106439B195901D6D517
:100820000134FF2C00D185E001227A491A405B088F
:100830000B4013439CE7002E00D070E76BE73B1E94
:10084000C5D100227B025B0AE4B2A3E714008FE764
:10085000002E4DD0481E002857D19B1901245A0163
:10086000B5D50224E0E7002A25D1621CD2B2012AC4
:1008700072DD9F1B7A0135D5F71A0D0064E701225E
:1008800000232A4086E73B00634A241A13406FE79F
:1008900000296CD1611CC8B201284EDDFF2949D066
:1008A0009B195B080C0063E7FF2A41D00A0081E72F
:1008B00001269B1B89E7002C1CD0FF2821D0802417
:1008C000E404524223431B2A00DD96E01C0020254D
:1008D000D440AA1A93405A1E93412343F31A0400AA
:1008E0000D002DE7002F00D02EE700220024A9E7FD
:1008F0000C003DE7002B58D0D243002AEED0FF2851
:10090000E1D13300FF240D0032E7FF2910D00100B0
:1009100078E7002B6ED0FF24002E00D128E780223C
:100920005146D203114203D06146114200D1330037
:10093000FF241DE7FF2400232CE7002CE9D1002B26
:1009400063D0002E00D113E79B195A0100D43EE773
:10095000314A0C0013400BE7002C1ED1002B2FD185
:10096000002E4FD033000D0002E7012655E7002C82
:100970001FD1002B43D0C94300290BD0FF2839D009
:100980001B2944DC1C002027CC40791A8B40591EBF
:100990008B4123439B19040040E7002B1AD1002E02
:1009A00024D180270022FF031BE7330004000D0041
:1009B000DEE6FF281ED08024E40449422343DFE71B
:1009C000002E00D1D4E69F1B7A0100D437E7F31A3A
:1009D0000D00CDE6FF24002E00D1C9E6802250464E
:1009E000D2031042A4D060461042A1D133000D00C2
:1009F000FF24BDE63300FF24BAE601236EE733008F
:100A00000400B5E6002700221CE73300B0E601230E
:100A1000C0E7C046FFFFFF7DFFFFFFFB4102430031
:100A2000C20F490A1B0E00207E2B0DDD9D2B0CDC16
:100A3000802000040143952B0ADC9620C31AD9407C
:100A40004842002A00D108007047034BD018FBE74A
:100A5000963B9940F4E7C046FFFFFF7F70B5002842
:100A600030D0C317C4185C40C50F200000F0F0FF61
:100A70009E231B1A962B0DDC9622D21A94402A0034
:100A80006402640ADBB26402DB05600AD207184321
:100A9000104370BD992B19DC9922D21A002A29DD46
:100AA00094402200144C1440510704D00F210A40F6
:100AB000042A00D00434620113D4A401640ADBB216
:100AC0002A00E0E7002200230024DCE705222100C1
:100AD000121AD140B922D21A9440621E94410C439A
:100AE000DAE7054B2A001C409F23A4011B1A640A65
:100AF000DBB2C8E72200D5E7FFFFFFFBF0B54F46AA
:100B00004646D6465C00C0B51F03DB0F9A46174B1E
:100B10000E034D0084468046360B6D0DC90F91467D
:100B20003F0B640D01209D4208D09C4201D0A5429C
:100B30000BD01CBC90469946A246F0BD6346334399
:100B4000F7D1AC42F5D13A43F3D10120BE42F0D106
:100B5000C845EED1514507D0002DEAD163461E436A
:100B60003000461EB041E4E70020E2E7FF07000046
:100B7000F0B54546DE4657464E46E0B51F033D0BF1
:100B80002C4F0E034C00AB465D008446360B640DC3
:100B9000C90F90466D0DDB0FBC422AD0254FBD42D8
:100BA0002DD0002C0FD13043070081467842784188
:100BB000C0B2002D17D15F463A4314D14B460020F6
:100BC000002B0AD006E0002D02D15846024301D086
:100BD000994218D04842012108433CBC90469946AE
:100BE000A246AB46F0BD0028F2D00120013B1843DD
:100BF000F3E737000743D1D002204042EDE75F46DC
:100C00001743CED0F8E7AC42E4DC03DA481E0121FA
:100C10000843E2E75E45DDD806D000205E45DCD221
:100C20000123481E1843D8E7C445D3D80020C44543
:100C3000F6D3D2E7FF070000F0B54E464546DE4644
:100C400057465C00E0B51F03DB0F99462A4B0E03A5
:100C50004D00C90F8446360B6D0D8B4690463F0BF9
:100C6000640D9D4220D0244B9C4222D0002D12D1F5
:100C7000304343424341DBB2002C1FD0002B0CD049
:100C80004B460120013B034318003CBC904699466B
:100C9000A246AB46F0BD002C16D0CB4517D05B4624
:100CA000594201230B43EFE7310002230143EBD10B
:100CB000D9E7390002231143E6D1D7E73A43DDD122
:100CC00000230028E0D0EAE73A43E6D1E7E7A5426F
:100CD000E5DC05DBBE42E2D807D00023BE42D3D21A
:100CE0005946012301390B43CEE7C445D7D8002329
:100CF000C445F5D3C8E7C046FF070000F0B5574626
:100D00004546DE464E46E0B50C0398464E00230BA2
:100D100087B0070092469B46760DCD0F002E6BD014
:100D20006D4B9E4235D080245B46420F2404DB008D
:100D300014431C43C3009946684BA3469C460023BA
:100D400000276644029343461C035A00DB0F5046BB
:100D5000240B520D984600D176E05F4B9A426DD03D
:100D60008023410F1B040B435C49E4008C461C4369
:100D7000C300002062444146B6186940721C0191CC
:100D8000944607430F2F00D9B0E0554ABF00D2590F
:100D900097465B460343994600D087E000239B4675
:100DA000023308270293CEE742460192022867D019
:100DB000032800D10EE2012800D062E100230024C4
:100DC0000022994601990140CDB2002112030B0D7A
:100DD000120B1B051343434A240513401C436400B4
:100DE000ED0764082C434846210007B03CBC904600
:100DF0009946A246AB46F0BD034399464FD05B46A9
:100E0000002B00D189E1584600F022FE03000B3B85
:100E10001C2B00DD7AE11D22D31A3A0001005C464A
:100E2000DA4008398C4013008F4023439B46B94673
:100E300000232D4E0027361A029384E7534623439E
:100E40002AD10024022096E75346234320D0002CC9
:100E500000D157E1200000F0FBFD03000B3B1C2BF1
:100E600000DD49E11D21CB1A51460200D94053460D
:100E7000083A944093400C431B4A121A00207AE728
:100E80000125019B144C1D400023002299469CE73C
:100E90000024002201206EE7534603206BE7002365
:100EA0009B4601330427002602934CE70323814627
:100EB0000C27029347E7802200230025120399465E
:100EC000054C82E75C464B4602986FE75C464B4612
:100ED000019502986AE7C046FF07000001FCFFFF8A
:100EE0009C6C0008FFFF0F800DFCFFFF4A4649463F
:100EF000170C1A0C1B041B0C08041900000C4143AE
:100F00001500884619007D437943039589462900D9
:100F1000150045434D44029545462D0CAA46029DB9
:100F20005544A94506D98A46802149028946CA44C2
:100F300051460391290C0491414609042D04090CE2
:100F400088462900250C24044144240C05912100E5
:100F500041438846210079438A46684341465044CC
:100F60008146080C48446F43824503D980214902D9
:100F700089464F44010C8946390049440291414653
:100F80000F0404993F0C88460004C0198044414670
:100F9000049159460F0C0904090C884659438A46A6
:100FA00039005143894641464A435146090C8B4614
:100FB0007B43D2185A44934203D980235B029B4659
:100FC000D94451460904090C8A46414661437C4391
:100FD000130C12044B445244A1468A463C0041463D
:100FE0006C434D4351464D440F0C7D19A94503D91F
:100FF0008021490288464444049F0399B8464144ED
:101000008B468345804141428846514608042F045F
:10101000000C3F1858460299101889469042924198
:101020004F44BA46524299469346C244D144CB44B7
:101030008F42BF41C245894199459B4193459241A9
:101040007F4249422D0C52420F435B4213437F19AA
:10105000FF185B463C19DB0D059A64021C434302F2
:1010600013435D1EAB415A46C00D03435202134366
:10107000E20156D501205A0803401343E207134307
:1010800064085A48604400284DDD5A0709D00F22F1
:101090001A40042A05D01A1D9A429B415B42E4186B
:1010A0001300E20104D58020514AC000144060447E
:1010B000504A904200DDE3E60125DB0862071A434F
:1010C0006402019B9146220B4405640D1D407CE6A1
:1010D000802259461203114208D0144206D12243FD
:1010E0001203120B45469946434C6EE65B461A4383
:1010F0001203120B404C68E603005446283B9C4008
:101100000023B9E600F0A4FC2030A6E60300283B4B
:101110009F400023BB4699468AE600F099FC2030A8
:1011200074E6B446ADE701252A1A382A06DD019B8C
:1011300000241D4000230022994646E61F2A21DC98
:1011400020252000AD1A1E00AB40A840D6405D1EF1
:10115000AB4130431843D440430709D00F23034029
:10116000042B05D00300181D98429B415B42E418F4
:10117000230221D50125019B01241D4000230022CB
:10118000994622E61F2521006D42281AC140080019
:10119000202A1DD05F35AA1A944023435C1EA34128
:1011A000072503431D400022002D09D00F220024F3
:1011B0001A401800042AD6D1030065076402220BE6
:1011C000DB082B4301259946019B00241D40FCE5CB
:1011D0000024E2E780220125120322430199120331
:1011E000120B0D409946044CEFE5C046FF0300008A
:1011F000FFFFFFFEFE070000FF070000F0B54646B8
:10120000D6464F460C03C0B5CD0F4E00610A440FC1
:101210000C43C1005800400D84468A460F00190354
:10122000500F490A0143C648760DA846DB0FD2008D
:10123000844500D1D8E001204340AB4200D1A6E074
:101240006046351A002D00DC05E1002810D10B00A6
:10125000134300D1D7E06B1E002B00D04BE1534667
:101260009F1ABA458041641A4042241A01261EE0A2
:10127000B34B9E4248D080231B041943382D00DD18
:1012800019E11F2D00DD4CE120230F005B1B100036
:101290009A409F40E840531E9A41E9400743174354
:1012A0005346DF1B611ABA45A44164420C1B23025A
:1012B00000D4C5E06402650A002D00D1F6E02800E4
:1012C00000F0C6FB0300083B1F2B00DDE9E02022F5
:1012D0003C00D21A9D40D4409F4025439E4200DDF1
:1012E000DBE09E1B731C1F2B00DD0AE1202238006F
:1012F000D21A290097402C009140D8407A1E97417D
:10130000DC40002601430F437B0709D00F233B40FD
:10131000042B05D03B1DBB42BF417F42E4191F0097
:10132000230225D5864B01369E4200D1AFE0854B86
:1013300001251C4043466207FF08640276051743F7
:10134000240B760D1D4000212403230B0C0D7E4A37
:1013500024051C431440330523435B00ED075B0861
:101360002B43380019001CBC90469946A246F0BD9C
:10137000012543466207FF081743E4081D40704BF0
:101380009E4236D024037605240B760DDBE76346B8
:10139000F31A002B00DC94E06046002835D0684842
:1013A0008642B1D080273F043943382B00DCFDE072
:1013B0000A43170000217A1E974157445745804140
:1013C000091944420C1923023AD55D4B01369E425D
:1013D00000D14BE101225B4B1C407B0817401F43AF
:1013E000E207174364088FE70800104300D024E7A2
:1013F00021E723003B4300D1B9E1802212031443CB
:101400002403240B9FE72E007EE70800104300D141
:10141000CAE0581E8446002800D0E7E052445245F6
:10142000804164184042241817000126230207D582
:101430000226CFE764462C4300D1B3E12C00674677
:101440007B0700D062E76307FF081F43012543467F
:10145000E4081D4093E7002D78D1751C6D056D0DD6
:10146000012D00DCF2E05046801A8245BF41651A2A
:101470007F42ED1B8446280200D48CE05046171AA8
:10148000BA4292410C1B5542651B984614E7012550
:10149000434600241D40002755E72A4CF61A2C40ED
:1014A00032E73D0028388540002717E7380000F074
:1014B000CFFA203006E70A43170000217A1E974131
:1014C000EEE6002B00D0E5E0731C9C465B055B0D4F
:1014D000012B00DC9FE01A4B9C4500D1C5E0524433
:1014E00052458041641840422418E70752081743C8
:1014F0006408664608E71248854200D185E01D0071
:10150000BCE629001F3EF140202B00D17FE04022A5
:10151000D31A9D402F437D1EAF4100240F43002668
:101520008EE72B000F00203BDF40202D71D04023A1
:101530005D1BA9400A43511E8A4100211743AFE6B3
:10154000FF070000FFFF7FFFFFFF0F80002E3ED050
:10155000B34EB44545D0802636046D423443382D11
:1015600000DDA8E01F2D00DD1FE1202627005046EA
:10157000761BB740E84007435046B040461EB04196
:10158000EC403843171ABA4292410C1B5242A41A3B
:10159000664698468BE6644667462C4300D08BE649
:1015A000002500260027EAE61E00ADE61F2B60DCC2
:1015B0002027F81A0F00844687401000D8400743C0
:1015C00060468240501E8241D9401743F5E626000E
:1015D0005046064305D0ED43002DD3D0904EB44580
:1015E000BDD10C001700664698468DE68C488342B4
:1015F0000BD06346D9E6002D00D096E008001043DA
:1016000000D1E2E00C0017009846854E7CE60025EC
:1016100080E700218EE7230050460343002E00D0D0
:10162000A8E0002B00D1DEE00B00134300D16BE6F5
:101630005244524580416418404224181700230246
:1016400000D4FDE6774B66461C405DE6250050461B
:101650000543002ECFD1002D4FD10C00144300D1F3
:10166000A0E00C00170098464EE6664600240027CE
:1016700085E61F000800203FF8400700202B00D11E
:101680008EE04020C31A99400A43511E8A4100212E
:10169000174392E6002E14D126005046064362D02E
:1016A000DB43002B5CD18718974292416418524269
:1016B000A418664687E650462043441EA0410024F5
:1016C00060E7574EB4454ED0802636045B42344323
:1016D000382B00DD7FE01F2B00DD8BE0202627006C
:1016E0005046F61AB740D84007435046B040461E11
:1016F000B0410743DC40BF18D6E70D00154300D1C9
:1017000002E65046801A8245BF41651A7F42ED1BB2
:101710008446280200D48DE65046171ABA429241F8
:101720000C1B5242A41A9846EEE50D00154300D159
:101730006BE750466707C00807438020E4080003B2
:10174000044207D0CD08054204D12C009846D708A2
:1017500049070F437B0FE4001C43FF00304ED3E5E5
:101760002F4EB445B4D10C0017006646CCE50027D7
:101770000024E8E5002B39D00B00134300D144E7E7
:10178000C008670707438020E40800030442E1D053
:10179000CB080342DED1D70849070F431C00D9E725
:1017A000002171E700250027E9E52E002700203EF3
:1017B000F740202D2FD04026751BAC4050462043CB
:1017C000441EA04100243843DCE680240025240385
:1017D000134E0027D3E5504620430700781E87416B
:1017E0000024BF1860E70C0017008DE50C001700FF
:1017F0000B4E89E51E002700203EF740202B0CD021
:101800004026F31A9C4050462043441EA041074303
:101810000024BF1848E70024D0E70024F3E7C046BF
:10182000FF070000FFFF7FFF10B5041E28D000F067
:101830000FF9154B154A1B1AD21A1F2A15DD144A27
:10184000D21A9440002224035B05240B5B0D002177
:10185000100024030A0D240B120522430D4C1B0516
:10186000224013435B00590810BD210091400A003B
:101870000B21081AC4405B052403240B5B0DE6E72B
:10188000002300240022E2E71E04000033040000CD
:1018900013040000FFFF0F804100090E4B1C70B5C0
:1018A000DBB24602750AC40F012B14DDE0239B0056
:1018B0006D07360BCB1800210A0D280012051C4DB0
:1018C00032435B052A405B0813435B00E4075B0877
:1018D0002343190070BD002914D1002D1ED028000B
:1018E00000F0B6F80A281CDC0B232A001B1ADA4089
:1018F000030015339D400F4B12031B1A5B05160B9B
:101900005B0DD8E7002D06D0320B802636036D071D
:101910001643094BCFE7084B0026CCE700230026EF
:10192000C9E703002A000B3B9A400025E3E7C046C5
:10193000FFFF0F8089030000FF070000F0B54C0097
:10194000640D0B03621C450F5B0A52052B43C90F44
:10195000C500520D012A28DD3A4AA618FE2E1BDCCE
:10196000002E3EDD80010200501E82416D0F2A4391
:10197000DB0013435A0704D00F221A40042A00D078
:1019800004338022D2041A405AD00136FF2E03D0ED
:101990009B015B0AF4B201E0FF2400235802E40536
:1019A000400AC90720430843F0BD002C07D01D435F
:1019B000F2D08020DB0080040343FF26DAE72B43CC
:1019C00003D00523DB08FF2C03D05B025B0AE4B2E3
:1019D000E4E7002B32D08020C00303435B025B0AA4
:1019E000DCE73200173214DB80221E271204134377
:1019F000BF1B1F2F0FDC144A944664442A00A540E5
:101A00002E00A340751EAE41FA4033431343002617
:101A1000B0E70024D5E702225242961B1A00F2409A
:101A2000202F09D0094884466444A3402B435D1EFF
:101A3000AB41002613439DE70023F7E70023ADE702
:101A40003400BFE780FCFFFF82FCFFFFA2FCFFFF2A
:101A50001C2101231B04984201D3000C10391B0ADE
:101A6000984201D3000A08391B09984201D30009A2
:101A7000043902A2105C40187047C04604030202F9
:101A800001010101000000000000000030B585B038
:101A90000C22002101A804F07EFC04221F4C204BE4
:101AA0006261C222012523600023FF3220006360AF
:101AB000A360E3602561A361E36125626362A262C2
:101AC000E3622563636301F0A1FB002801D000F00D
:101AD000ABFE80235B010293072301A9200001953F
:101AE000039301F0FFFD002801D000F09DFE0223CA
:101AF00001A92000019301F0F5FD002801D000F0BC
:101B000093FE052301A92000019301F0EBFD0028BD
:101B100001D000F089FE05B030BDC04610030020A2
:101B20000024014070B5050088B01422002103A8EC
:101B300004F031FC204B2A689A423BD180201F4997
:101B400080008A69802602438A618B69760003409F
:101B500080200193019B4A69800202434A614B69DC
:101B600003A903400293029B90202623C005039300
:101B7000233B049302F040F9114C124B20002360E8
:101B800000236360A3608033E3608023DB00636134
:101B90002023A36180235B012661E36101F012FF32
:101BA000002801D000F040FE074A13683343136059
:101BB000EC63656208B070BD002401400010024073
:101BC000CC0200201C0002400000014010B50C4B6C
:101BD0000C4C236000232000237163716361A361B7
:101BE0000133236201F092FE002801D000F01CFEB8
:101BF000200001F0E5FE002801D000F015FE10BD28
:101C0000003002405C030020074B026882B09A4219
:101C100008D14020054A516901435161536903408D
:101C20000193019B02B07047003002400010024057
:101C300010B503220249034801F01CFC10BDC04648
:101C40008C030020100300208023084A1B0113602E
:101C5000074A1360074A1360074A13600122074BC3
:101C60001A605A609A60DA607047C046000000202F
:101C700004000020080000200C00002010000020BC
:101C8000D0B5041CFFF708FE0A4A0B4B06000F00F4
:101C9000FEF7FAFA002809D1084A094B300039004A
:101CA000FEF7DEFA002802D0064C00E0064C201CAD
:101CB000D0BDC046333333333333F33F9A999999C8
:101CC0009999E93FCDCC4C3F9A99993FF8B53D4F52
:101CD0003D4C38682168FEF721FA3C4E3860306888
:101CE0006168FEF71BFA3A4D30602868A168FEF77C
:101CF00015FA384B28601868E168FEF70FFA354B83
:101D000018603868344BC018FFF78EFD334A344BE7
:101D1000FEF7F4FF02000B0000203249FFF76EFAD5
:101D2000FFF70CFE304C20602068FFF7A9FF206011
:101D30003068294BC018FFF777FD284A284BFEF77B
:101D4000DDFF02000B0000202649FFF757FAFFF7DE
:101D5000F5FD264C20602068FFF792FF2060286880
:101D60001D4BC018FFF760FD1C4A1D4BFEF7C6FF58
:101D700002000B0000201B49FFF740FAFFF7DEFDD1
:101D80001B4C20602068FFF77BFF124B2060186817
:101D9000114BC018FFF748FD104A114BFEF7AEFF7C
:101DA00002000B0000200F49FFF728FAFFF7C6FDDD
:101DB000104C20602068FFF763FF2060FFF744FFAE
:101DC000F8BDC046000000201000002004000020E4
:101DD000080000200C00002000F8FFFF9A99999954
:101DE0009999193F0000F03F34000020380000208E
:101DF0003C0000204000002019481A4930B50488F2
:101E00008D68194A194BAC4208DD194912880868D7
:101E100012180A60DA680132DA6030BD04884D6851
:101E2000AC4208DD13491288086812180A609A68E3
:101E300001329A60F1E7008809681288884207DD5C
:101E40000D49086812180A605A6801325A60E4E7BE
:101E50000A49086812180A601A6801321A60DCE739
:101E6000BE020020240000208C030020100000206F
:101E70000C000020080000200400002000000020CA
:101E800070B50D4B002A01D001229A608A08140017
:101E90000500013C08D2920080180322114041182D
:101EA000884204D1186870BD40CD1E60F1E7027809
:101EB00001301A70F4E7C0460030024070B50B4C98
:101EC00014220021200004F066FA094D01222800A6
:101ED0006421FFF7D5FF07490200200004F064FAEF
:101EE0002800210004F082FA70BDC04614040020CE
:101EF00094030020DC6C000810B564220021024825
:101F000004F049FA10BDC0469403002007B5FFF75E
:101F1000F3FF074B07491A68074B08481B68096815
:101F20000091074904F040FAFFF7C8FF07BDC0461B
:101F3000ACF7FF1FB4F7FF1FB0F7FF1F940300209B
:101F4000E96C000810B5FFF7D7FF054B05491A8863
:101F5000054892B204F028FAFFF7B0FF10BDC04662
:101F6000CCF7FF1FFC6C00089403002010B5FFF7AE
:101F7000C3FF064C0649200004F038FA054920004A
:101F800004F034FAFFF79AFF10BDC0469403002016
:101F90000D6D0008176D0008024A1368002BFCD075
:101FA0007047C04620000020002210B50400074BF7
:101FB0001A6063220649074803F0D4FD0228F8D0CE
:101FC000002C01D0FFF7E8FF10BDC0462000002024
:101FD00094030020F8050020054B026810B59A42D2
:101FE00004D10122034B1A60FFF786FF10BDC046E3
:101FF000003801402000002010B5024802F0CEF861
:1020000010BDC04660040020104B11491A680A40F8
:10201000FF211A605A6C8A435A644022596C0A4361
:102020005A641022596C0A435A640822596C0A43B4
:102030005A640422596C0A435A640222596C0A43B6
:102040005A640122596C0A435A647047002C0140BB
:10205000FFFCFFFF044B05491A6A0A401A621A6A1C
:1020600003490A401A627047002C0140FFF7FFFF46
:10207000FFFDFFFF8022054B520159680A435A6059
:102080008022596892010A435A607047002C01402F
:102090001021114B114A10B59A622932DA62F53AD1
:1020A000FF3ADA631A6870208A431A60602219685E
:1020B00091431960D9698143D961D9690A43DA61C9
:1020C000A022196AD2000A431A62FFF7C3FFFFF782
:1020D000D1FFFFF799FF10BD002C0140BF030000A6
:1020E000FA2310B50B4C5B00E363A023226ADB00EC
:1020F00013432362FFF7AEFFFFF7BCFF0123E26843
:102100001A43E260226813432360FFF79DFDFFF747
:10211000DDFD10BD002C01400121104B1A698A43DE
:102120001A61DA688A43DA601A680D490A401A604F
:102130008022596892010A435A605A6809490A4044
:102140005A608022196A92000A431A621A6A064982
:102150000A401A620022DA637047C046002C014030
:10216000FEFF0000FFEFFFFFFFF7FFFFC023034A62
:102170001B02516C0B4353647047C046002C014056
:10218000044B05495A6C0A405A645A6C03490A4088
:102190005A647047002C0140FF7FFFFFFFBFFFFF25
:1021A00010B5FFF7E3FFFFF79BFF10BD10B5FFF77A
:1021B000E7FFFFF7B1FF10BD0022084B10B51A80F2
:1021C000074B5A639A63D96801321143D960196881
:1021D0000A431A6000F078F810BDC046BE02002025
:1021E000000400400121074B1A698A431A61DA682A
:1021F0008A43DA601A6804490A401A6000225A6366
:102200009A63704700040040FEFF0000C023034AA9
:102210001B02516C0B4353647047C04600040040DE
:10222000044B05495A6C0A405A645A6C03490A40E7
:102230005A64704700040040FF7FFFFFFFBFFFFFAD
:1022400010B5FFF7E3FFFFF7B7FF10BD10B5FFF7BD
:10225000E7FFFFF7C7FF10BDFA210122174B8900E6
:102260009A62D962002159639963196A0A431A6212
:102270000222196A0A4310211A621A6A0A431A6270
:102280002022186A02431A628022586852000243D0
:102290005A6080225868D20002435A609A690848FE
:1022A00002409A619869074A02439A611A688A4310
:1022B0001A601A6850318A431A607047000400405F
:1022C0008F8FFFFF60600000FE23054A9B051360AF
:1022D000044A1360044A1360044A13607047C046FE
:1022E000400000203C000020380000203400002086
:1022F0000B4A0C4B11889868814202DD0A4B186822
:10230000704711885868814201DD084BF7E7128851
:102310001B689A4201DD064BF1E7064BEFE7C0462A
:10232000BE02002024000020400000203C000020CD
:102330003800002034000020114B70B51A88EF2AB5
:1023400001D900221A801B880E4A5B009C5AFFF7B5
:10235000CFFFFE218905A4B2051CFDF7B5FF0028BB
:1023600008D12000FEF77AFB291CFEF79BF8FDF749
:10237000D9FF84B2201C0F2C00D20F2080B270BD78
:10238000BE020020440000200260009A0372C26076
:10239000019A002302610122416003754375836144
:1023A000C27583754372704710B504000188406898
:1023B00001F03AFE237A181A431E9841C0B210BDAC
:1023C00070B50400FFF7F0FFE67D050086421AD0E5
:1023D000002807D100F0B8FE0123A061A375E575C0
:1023E00000200FE000F0B0FEA369E16802005B1876
:1023F00001209A4203D30423E0751800637200237E
:102400006375237570BD002EEAD100F09DFEA369AF
:1024100022699B18984208D3637D012B02D1667212
:10242000607AEFE703236372FAE700F08DFEA36999
:10243000E2689B189842D3D3237D012BEFD002236F
:10244000F1E7000007B50120084A516901435161D5
:10245000536900220340019311000A30019B01F0EF
:10246000EFF90B2001F026FA07BDC046001002402C
:10247000F0B589B01422002103A803F08CFF80205E
:102480008025294BC0035969AD0201435961802160
:102490005A69C90202400092009A5A69234E2A439F
:1024A0005A615A6930002A400192019A5A690024FF
:1024B0000A435A615B6901220B400293E921029BA6
:1024C00001F0C4FD90200327194B03A9C005039315
:1024D0000497059401F090FC8C2390205B000393FB
:1024E000183BFF3B03A9C0050593049401F084FC4D
:1024F000E92303A903933000E83B0493059406976E
:1025000001F07AFC102303A930000393049705948B
:1025100001F072FC8020400201F0C2FD280001F0B1
:10252000BFFD09B0F0BDC0460010024000040048E5
:10253000011800000748084B10B5036006234360EC
:10254000064BC360836001F0D9FD002801D000F084
:102550006BF910BD6004002000300040FF0F000048
:1025600030B5102595B03022002108A803F013FFE4
:102570002A000021684603F00EFF2A00002104A86B
:1025800003F009FF1923089380235B021193802332
:1025900001240E955B030E3D08A810951293099433
:1025A0000D940F9401F002FE0723019500252100F0
:1025B000684600930295039502F0A2F804A80494DB
:1025C000069502F0A5F915B030BD0000F7B500F092
:1025D000A3FDFFF7C5FFFFF74BFFFFF733FFFFF743
:1025E000F5FAFFF753FAFFF7A5FF00F017FC00F02C
:1025F00021FB00F0EDFC00F089FC00F035FB00222F
:102600000A20110001F01CF90A2001F053F9002200
:102610000420110001F014F9042001F04BF900220C
:102620000320110001F00CF9032001F043F9FFF73A
:10263000FFFA03226C4B00261A70FFF729FDFFF703
:10264000AFFDFFF7B3FDFFF707FEFFF7F9FDFFF75B
:10265000FDFDFFF7D1FC01220821644801F0F6FCE2
:1026600001226248110001F0F1FC012240215F4883
:1026700001F0ECFC012280215C4801F0E7FC5C4C9D
:102680005C4F200002F000FB200002F02DFB5A4BB3
:102690001E706423FB62FFF7AFFCFA23DB0001939B
:1026A00080221E239021554D009352003300C9050E
:1026B0002800FFF769FEFA239B00019390211E2357
:1026C0004F4C009310223300C9052000FFF75CFE39
:1026D000FA239B00019390211E230822C905009331
:1026E00048483300FFF750FE2800FFF769FE20003E
:1026F000FFF766FE4348FFF763FEFA20400000F054
:1027000029FDFFF733FC0120FFF74EFCFFF7FEFB2E
:102710000120FFF749FCFFF715FC0120FFF744FCFF
:10272000FFF7EAFB2800FFF74BFE374E02281BD1CC
:102730003649300003F067FE0120FFF735FCFFF754
:102740005BFCFA20400000F005FD2800FFF738FE92
:10275000022809D12E49300003F055FE0120FFF771
:1027600023FC01222B4B1A6001252B49300003F07A
:102770004AFE0120FFF718FC1F4B00221D70FA23B0
:102780009B00FB620821194801F060FC002229002F
:10279000164801F05BFC00224021144801F056FC71
:1027A00000228021114801F051FC2000FFF708FEB3
:1027B000FA20400000F0CEFC2000FFF701FE0328C5
:1027C00006D11649300003F01EFE2800FFF7ECFB8F
:1027D0000122134C134B20009A6202F055FA20009C
:1027E00002F082FAC046FDE7BC0200200004004867
:1027F0003005002000440140AC020020F803002016
:10280000440400202804002094030020236D0008C5
:10281000356D0008B00200204C6D0008596D0008AD
:10282000F0040020002000407047704701200A4B50
:1028300082B099690143996180219A6949050240F2
:102840000092009ADA690A43DA61DB690B4001936E
:10285000019B02B07047C046001002407047FEE77F
:102860007047704710B500F067FC10BD10B501F05F
:1028700023FA10BD7047000010B5034801F0B3F90A
:10288000024801F0B0F910BDCC020020B4050020D0
:1028900010B5024801F0A7F910BDC0467005002030
:1028A00010B5024800F08EFE10BDC0461003002097
:1028B00010B50D4C200002F04CFA0222236852425F
:1028C0001A610023094A1380094A1370094A936365
:1028D0005363094B1A78012A05D101321A70F33279
:1028E000064BFF32DA6310BDB0040020BE020020A8
:1028F000BD02002000040040BC020020002C01406A
:1029000070B5284C200002F024FA022223685242BB
:102910001A61254B1A78002A05D01A78012A02D0AC
:102920001A78032A05D1002220498A634A63204984
:102930000A801A78032A34D01A78012A01D1013288
:102940001A701C4C636A002B04D0FA23626A5B0085
:102950009A4207D10023154A93635363144A1380A4
:10296000FFF7B4F9F423626AFF33134D9A4201D999
:1029700001222A70626A9A4201D800232B702C78B7
:10298000E4B2002C04D1FFF7D7FC084B58639C63DA
:102990002B78012B05D10023044C6363FFF7CCFC9B
:1029A000A06370BD70040020BC0200200004004041
:1029B000BE020020002C0140BD020020F8B52F4CC3
:1029C000200002F0C6F9022223682D4D52421A61FE
:1029D0002800FFF7F5FC2B4C022809D103222A4BD3
:1029E0001A700022294B1A602378022B21D1F8BDDE
:1029F0002800FFF7E5FC0328F0D02378244D032BB3
:102A00001AD1214B1F78FFB2012F15D10026214882
:102A10002E80FFF7D5FC03280ED11F4B27709E6335
:102A20005E631E4BDE632E80FFF7BAFBFFF708FCE8
:102A3000DDE702232370E0E72378022B16D1124B47
:102A40001B78032B0DD1032323700023124A9363B9
:102A50005363124AD3632B80FFF7A8FBFFF7F6FB03
:102A6000C5E70C48FFF7ACFC0428ECD0FFF7C4F92D
:102A70002B8801339BB22B80B9E7C046F0040020BD
:102A800028040020BC020020AC020020B402002078
:102A9000BE0200204404002000040040002C01403D
:102AA000F8B53C4C200002F054F90222236852424F
:102AB0001A61FFF7A1FA384C2078C0B2032824D855
:102AC000FDF722FB021302240821344801F0D8FA52
:102AD0000121324801F0D4FA4021304801F0D0FA07
:102AE00080212E4801F0CCFA0FE02D4B1B68012B02
:102AF0000BD1FFF701FA2B4B2B491A882B4892B2C6
:102B000003F052FC0020FFF74FFAF8BD284F3800C1
:102B1000FFF756FC274D284E02281AD12B68274F65
:102B200001332B600A2B2AD10023012220211B48CC
:102B30002B6001F08BFAFA235B00FB6280211748BF
:102B400001F09EFA03231E4A2370137000233360A2
:102B5000DBE73800FFF734FC0328DFD00321002235
:102B6000174B2A601970336801333360092B0EDD6F
:102B70007D310A4801F06AFA01232370C5E700227B
:102B80002021064801F062FAFA239B00D5E7217064
:102B9000A6E7C04630050020AC0200200004004833
:102BA000B00200208C0300206B6D0008940300200D
:102BB00028040020B8020020B40200200044014094
:102BC000BC02002010B5024803F002FB10BDC04655
:102BD000F80500200121114B11481A680A431A60B8
:102BE0005A6802405A601A680E4802401A601A6811
:102BF0000D4802401A605A680C4802400F205A6083
:102C0000DA6A8243DA621A6B094802401A635A6B25
:102C10008A435A6300229A607047C04600100240FF
:102C20000CB8FF08FFFFF6FEFFFFFBFFFFFFC0FF32
:102C3000ECFEFFFF0A480B4B10B503600123FA229C
:102C4000436000239200836003618033C26083612C
:102C500002F064F9002801D0FFF7E6FD10BDC04680
:102C6000F0040020002000400A480B4B10B5036020
:102C70000A4BFA22436000239200836003614361A0
:102C80008033C260836102F049F9002801D0FFF768
:102C9000CBFD10BD30050020004401407FBB00008B
:102CA0001FB50368284A934213D18020274A0001A8
:102CB00091690143916193690022034000930D20C3
:102CC0001100009B00F0BCFD0D2000F0F3FD05B0ED
:102CD00000BD1F4A93420FD102201C4AD169014313
:102CE000D161D3690022034001930E301100019B92
:102CF00000F0A6FD1020E8E7164A934210D180208C
:102D0000124A4000D1690143D161D36900220340D6
:102D10000293ED381100029B00F092FD1320D4E7DE
:102D20000D4A9342D3D18020084A80029169014321
:102D30009161936900220340039315201100039BC6
:102D400000F07EFD1520C0E7002C0140001002407D
:102D500000040040002000400044014030B5040061
:102D600089B01422002103A803F015FB2368274A29
:102D700093422FD18020264BC0025969022401437F
:102D80005961802103255A69890202400092009A04
:102D90005A6920480A435A615B6903940B400193C6
:102DA00003A9019B04940695079401F025F880235C
:102DB0009020DB0003930023C00503A9049405932E
:102DC0000695079401F018F88020000401F068F9D6
:102DD00009B030BD104A9342FAD180200C4A8002DB
:102DE000516901435161536903A903400293029B56
:102DF000C02390200393BE3B049301330693C00588
:102E0000023B079300F0F8FFE2E7C046002C0140C8
:102E100000100240000400480004004030B595B0A6
:102E20001022002102A803F0B6FA08220021684609
:102E300003F0B1FA1C22002106A803F0ACFA1C2210
:102E400000210DA803F0A7FA2E4C2F4BFA22236085
:102E5000F0239B00636000239200A3602361636101
:102E600020008033E260A36102F058F8002801D00E
:102E7000FFF7DAFC802302A95B012000029302F035
:102E800077FB002801D0FFF7CFFC200002F0A8F864
:102E9000002801D0FFF7C8FC0025694620000095F6
:102EA000019502F069FDA84201D0FFF7BDFCFA23AD
:102EB0005B0007930822F43B06A9200006950895BD
:102EC00009950A950B930C9302F0BCF9002801D0E8
:102ED000FFF7AAFC5F2210928022002392010DA925
:102EE00020000D930E930F9311931292139302F0FF
:102EF0008FFD002801D0FFF797FC2000FFF72EFF81
:102F000015B030BDB0040020002C014010B58EB0CB
:102F10001022002103A803F03EFA0822002101A894
:102F200003F039FA1C22002107A803F034FA264CDA
:102F3000264BFA2223600123636000239200A360E2
:102F4000236120008033E260A36101F0E7FF0028E5
:102F500001D0FFF769FC802303A95B0120000393E4
:102F600002F006FB002801D0FFF75EFC200002F013
:102F70009DF8002801D0FFF757FC002301A920008D
:102F80000193029302F0F8FC002801D0FFF74CFCFB
:102F90000022602307A920000793089209920B9250
:102FA00002F0F8F9002801D0FFF73EFC042207A93F
:102FB000200002F0EFF9002801D0FFF735FC2000D7
:102FC000FFF7CCFE0EB010BD7004002000040040DE
:102FD0000B480C4B10B50360E1235B0243600C22ED
:102FE000002342618360C36003618361C361036244
:102FF000436203F01DF8002801D0FFF715FC10BD57
:10300000F80500200038014030B5050089B01422D1
:10301000002103A803F0BFF92F4B2A689A4259D127
:1030200080202E4BC00199690143996180219A69E2
:10303000890202400192019A5A6990200A435A611A
:103040005B69C0050B400293029B82231B02039322
:10305000022304930133069303A9023B079300F074
:10306000CBFE1F4C1F4B8022236000232000636097
:10307000A360E26023616361A361E36100F0A2FCED
:10308000002801D0FFF7D0FB174B6C666562174C28
:10309000802223601023636000232000A360E2608D
:1030A00023616361A361E36100F08CFC002801D01F
:1030B000FFF7BAFB80230E4A9B0011681B200B43CD
:1030C000136000222C661100656200F0B9FB1B2022
:1030D00000F0F0FB09B030BD0038014000100240A4
:1030E000B40500203000024044000240700500207A
:1030F0000000014010B5040001F0F4FBFA21890042
:10310000FDF70CF800F0E8FB01200022210040420E
:1031100000F096FB002010BD1023064A10B5116880
:1031200000200B431360FFF7E5FFFFF77FFB002054
:1031300010BDC04600200240024A136801331360EC
:103140007047C04668060020014B18687047C046AB
:103150006806002037B50190FFF7F6FF019C0500D7
:10316000631C5A1E9341E418FFF7EEFF401BA04278
:10317000FAD337BD002373B503210193036804001C
:103180009A680A40012A07D11968114201D000202B
:1031900076BDDA681204FAD49968194A114208D047
:1031A00010230120626C13436364A36C0343A36484
:1031B000EEE7012299680A439A60124B1249186897
:1031C000FCF7ACFF0190019B002B15D1FFF7BCFF72
:1031D0000125060023681B682B42D8D1FFF7B4FFF6
:1031E000801B0228F6D91023626C0120134363640C
:1031F000A36C2B43A364CBE7019B013B0193E2E764
:10320000170000802402002040420F00F8B504009F
:103210000120002C00D1F6E08F4B22689A4204D0A6
:1032200074218E48FF31FFF700FB63688C4A13421C
:1032300008D080221206934204D0BA218748490060
:10324000FFF7F3FA1823A2689A4304D07621834843
:10325000FF31FFF7EAFA2023E2689A4304D0BB214A
:103260007E484900FFF7E1FA2369013B012B04D9AD
:1032700078217A48FF31FFF7D8FA236A012B04D965
:10328000BC2176484900FFF7D0FA636A012B04D9C4
:103290007A217248FF31FFF7C8FA724BE26A1A428C
:1032A00004D0BD216D484900FFF7BFFAA36A402250
:1032B000190091430AD0C02B08D0C222FF3293429A
:1032C00004D07C216548FF31FFF7AFFA236B012B57
:1032D00004D9BE2161484900FFF7A7FA04226369B7
:1032E000043B934304D07E215C48FF31FFF79DFAF5
:1032F000636B012B04D9BF2158484900FFF795FAA9
:10330000A369012B04D980215448FF31FFF78DFABE
:10331000E369012B04D9C02150484900FFF785FA21
:10332000636C002B06D122004032A364200013708E
:10333000FEF7F8FB636CDB0600D579E00422236816
:103340009868104000D073E0626C47491140022237
:103350000A43032162649A680A40012A00D06DE0A2
:103360001968114202D1DA68120467D5DA683F4958
:10337000256A0A40DA60A2696F039103E269D20309
:103380001143626B013A561EB2411603E2681143C3
:1033900022690F43022A00D10420226B616A520085
:1033A0003A4332430243012904D1002D2CD180211C
:1033B00049020A43C220A16AFF30814202D0E06A7A
:1033C00001430A438020D96840051143D960A16BAD
:1033D000814202D0481E062807D80725586929408F
:1033E000A8435861586901435961DB6820490B4083
:1033F0009A4211D100200322A064636C93431A0007
:10340000012313436364F8BD2020656C2843606486
:10341000A06C0143A164CDE71222636C01209343A9
:103420001A00102313436364A36C0343A364EAE705
:103430001023626C012013436364E4E71821DA6807
:103440008A43A1680A43DA601969626889008908B9
:10345000114319618AE7C046002401408A6D0008C3
:10346000FFFFFFBFFFF3FFFFFDFEFFFF1902FEFF9F
:10347000E7FF3F83F7B5244B0192026804000F0079
:103480009A4203D021492248FFF7CFF9236802204E
:103490009B685B0730D4260040363378012B2BD055
:1034A00001233370E369012B27D1636C194A00258E
:1034B0001A4080235B0013436364E06B164BA564E2
:1034C00035708362154B2168C362154B03631C235F
:1034D0000B604A680C3B13434B600123CA681343DB
:1034E000CB603A004031019B00F00EFB0423280022
:1034F000226891680B439360FEBD2000FFF73AFEFF
:103500000028F9D1D1E7C04600240140BC040000E6
:103510008A6D0008FEF0FFFF293500089B35000882
:10352000A9350008704700005022436A10B5596C55
:1035300011422AD1596CB132FF320A43C0215A6478
:103540001A680901D068084212D1196A00290FD1FE
:10355000116809070CD5916849070DD40C205168F2
:10356000814351605A6C0B49114001220A435A644D
:103570001800FFF7D7FF10BD2022596C0A435A6488
:103580000122996C0A439A64F2E7DB6B1B6B984744
:10359000F1E7C046FEFEFFFF704710B5406AFFF737
:1035A000FBFF10BD704770474023406A10B5426C66
:1035B000134343640423826C13438364FFF7F3FFD4
:1035C00010BD0000424B026870B504009A4203D05F
:1035D00040494148FFF729F9236A012B03D93F49A4
:1035E0003D48FFF722F904226369043B934304D06A
:1035F000AF213948C900FFF718F904222368196878
:10360000114202D05968114206D1082219681142AC
:1036100028D05968114225D0626CD20604D4802289
:10362000616C92000A436264C022D968120111429F
:1036300012D1226A002A0FD11A6812070CD59A6893
:1036400052073CD40C215A688A435A60636C244A5E
:103650001A400123134363642000FFF763FF0C2229
:1036600023681A60802523681A682A420CD05B6898
:103670002B4209D08023626C5B02134363642000F9
:10368000FFF790FF23681D6010222368196811421C
:1036900014D05968114211D0626B012A02D0DA6845
:1036A000D20708D50222A16C20000A43A26410228E
:1036B0001A60FFF778FF102223681A6070BD20237C
:1036C000626C134363640123A26C1343A364C3E7D6
:1036D00000240140760500008A6D0008770500008F
:1036E000FEFEFFFF0023F7B502680193474B04007D
:1036F0000D009A4203D046494648FFF796F82B68DA
:10370000112B03D944494348FFF78FF86B68434AAC
:103710009B18012B03D942493E48FFF786F88022C7
:10372000A36B520593420CD0013B062B09D9AB6821
:10373000934206D0013B062B03D93A493548FFF79F
:1037400074F82600403633780220012B2AD02368F3
:1037500001389A683070520752D433496F682A682A
:103760008F423BD09040996A084398628020A16BB9
:10377000400581420FD0013906290CD907205C6928
:10378000A9680440A14206D05C69014084435C61A1
:103790005C69214359611300103B012B03D90020C0
:1037A00000233370FEBD214B80211868102A13D0EE
:1037B000C90301431960102AF1D11D4B1D49186836
:1037C000FCF7ACFC0A2358430190019B002BE6D088
:1037D000019B013B0193F8E70904EAE79040996AED
:1037E000814399621300103B012BD8D80F4B196805
:1037F000102A03D0104A0A401A60D0E70F4AFAE7AD
:103800002023626C13436364CAE7C046002401406E
:10381000510600008A6D00085206000000F0FFFF0C
:103820005306000057060000011000000827014061
:103830002402002040420F00FFFFBFFFFFFF7FFF79
:1038400070B504000D00032903D99B211648FEF72B
:10385000ECFFA901002C14DA0F23E4B22340083B4B
:10386000124A9B089B009B18032214409440FC3290
:1038700015000A40A540A240D869A8430243DA6176
:1038800070BD0325A3082C40AC40FC352E00084A2F
:103890009B009B18C022A6402940A1409200985846
:1038A000B04301439950EBE7C26D000800ED00E022
:1038B00000E100E010B5041E03DAAB210448FEF776
:1038C000B4FF1F231C401E3BA340024A136010BDDF
:1038D000C26D000800E100E0094A431E0120934246
:1038E0000DD8C021074A08485360036A09061B0225
:1038F0001B0A0B430362002007239060136070478C
:10390000FFFFFF0010E000E000ED00E070B5041ED6
:1039100002D10125280070BD274B02689A4203D0CE
:1039200080212648FEF781FF637FDBB2002B03D1A5
:1039300023772000FEF768F902232000637700F068
:103940003FF8051EE5D16379012B03D999211B4866
:10395000FEF76BFF62792368002A2AD1013A1A61C7
:10396000602362699A4303D0A5211448FEF75DFFE6
:103970006021226893688B4361690B4393608023C5
:10398000A2699A4303D0A9210C48FEF74EFF80217B
:10399000226893688B43A1690B439360236A013BC0
:1039A000022B03D9AE210548FEF73FFF01236377C1
:1039B000B0E72269D3E7C04600300240FD6D000841
:1039C0000020704770B504000120002C00D181E078
:1039D0002368414A93420FD0404A93420CD0404A58
:1039E000934209D03F4A934206D03F4A934203D0C4
:1039F000A5213E48FEF719FF636810221900914384
:103A000007D08022D201934203D0A6213748FEF787
:103A10000CFF4023A2689A4303D0A7213348FEF746
:103A200004FF8023E2689A4303D0A8212F48FEF7C1
:103A3000FCFE23692E4A134207D080229200934253
:103A400003D0A9212948FEF7F0FE6369294A1342F1
:103A500007D080221201934203D0AA212348FEF707
:103A6000E4FE2023A2699A4303D0AB211F48FEF74E
:103A7000DCFE214BE2691A4203D0AC211B48FEF761
:103A8000D4FE02232068A51CEB7702681B4BA168BB
:103A90001A4063680B43E1680B4321690B4361697A
:103AA0000B43A1690B43E1690B4313430360144BC0
:103AB0001421C018FCF732FB124B80002064E36332
:103AC00000200123A062E06220636063A063E41829
:103AD000EB77E07770BDC046080002401C00024052
:103AE000300002404400024058000240356E000899
:103AF000FFFEFFFFFFFBFFFFFFCFFFFF0FC0FFFF3A
:103B0000F8FFFDBF00000240F8B515001F005A1E67
:103B1000214B04000E009A4204D9AF211F484900EE
:103B2000FEF783FE631CDA7F0220012A26D00122E1
:103B3000DA7722189446D27F0021D2B2012A28D106
:103B40006346D8772368A1631968206C914382404B
:103B50001960E16B4A6062685F602168102A0ED1CB
:103B60009D60DE60E26A1868002A0BD00E220243D4
:103B70001A60012300200A6813430B60F8BD9E60A1
:103B8000DD60EFE70A22024304201A601A688243CC
:103B9000EEE7D977F2E7C046FEFF0000356E000879
:103BA00070B5841CE37F022B04D004238363033BA2
:103BB000180070BD0E210368056C1A688A431A60EC
:103BC00001221968914319601100A940C36B596023
:103BD000E27700248318426BDC771300A242E7D01F
:103BE00090472300E4E7F8B504273E00016CC26B60
:103BF0008E40156803681C682E420DD03C420BD0E5
:103C00001968890602D41968B9431960C36A5660F5
:103C1000002B19D0984717E002273E008E402E4215
:103C200013D03C4211D01968890606D40A241968B9
:103C3000A14319600121C319D97756600022431CA2
:103C4000DA77836A9342E5D1F8BD082637008F40C2
:103C50003D42F9D03442F7D00E251C68AC431C60BD
:103C600001231C008C405460821C8363D3770022A4
:103C7000C318DA77036BE5E710210C4B30B5D86831
:103C80000022084205D00A480232C4692243C261B8
:103C90000A000420D968014205D00121044C0243E6
:103CA000E5692943E161DA6030BDC0460020024089
:103CB0007006002070477047F8B5434D434CEB68E1
:103CC000DB0602D4EB685B070AD50123A6685B42DA
:103CD000A360FFF7D1FF3000FFF7EDFF0023237053
:103CE0002023EA681A421AD0EB602378002B16D002
:103CF0002378012B28D16368013B63606368002B44
:103D00001BD0A068FFF7D6FF80230222A068DB004B
:103D1000C018A0602B6993432B6100F05BF82378F7
:103D2000DBB2002B08D107212A698A432A612A695C
:103D300027490A402A612376F8BD01204042A0604D
:103D40002370FFF7B7FFEAE72378022B09D104229B
:103D50002B69002093432B61FFF7ACFF00232370F6
:103D6000DDE76368013B63606368002B19D0A368DB
:103D70000233A360A668206961690B0C0F0401215E
:103D8000020C3A43226163612B698B432B612269E8
:103D900063690023E3612B6992B219432961328080
:103DA000BDE72378032B06D1A068FFF783FF01232B
:103DB0005B42A360D2E72378A068042B01D10238CC
:103DC000F3E70638F1E7C046002002407006002005
:103DD000FFEBFFFF0022064BDA61064B0232196946
:103DE0000A431A614022586119690A431A617047EF
:103DF00070060020002002409023F0B5DB0587B05C
:103E000004000D0098420FD07B4B98420CD07B4BA6
:103E1000984209D07A4B984206D07A4B984203D008
:103E2000C1217948FEF701FD2B689AB2002A01D022
:103E30001B0C03D0C2217448FEF7F7FC6B68032B00
:103E400012D91A00113A012A0ED9704A70491A4043
:103E5000521870490A4207D06F4A9B180B4203D090
:103E6000C3216948FEF7E1FCAB68022B03D9C421EA
:103E70006548FEF7DAFC002301932B6801991A00CC
:103E8000CA4001D107B0F0BD012201998A400392D6
:103E90001A40029200D1ABE010226B689343022BD0
:103EA00022D19023DB059C4206D0534B9C4203D089
:103EB000D3215548FEF7B9FC2B69062B03D9D42131
:103EC0005148FEF7B2FC07220198019B02400F20E7
:103ED00092009040DB089B00E318196A814328692F
:103EE000904002000A431A62019B6A685F00032344
:103EF0001E00BE401340F643BB40216831400B43D7
:103F0000236010239A43013A012A19D8EB68012B48
:103F100005D9032B03D0E8213B48FEF786FCEB686C
:103F20000121BB40A26832401343A3606268039B37
:103F30009A436B681B090B4001998B4013436360E4
:103F4000E36869683340AE68BE401E43E660CB005C
:103F50004ED5012003260F27304B9A6902439A6100
:103F60009B69034001980593304080008740059B82
:103F7000019B9A082A4B9200D2189368BB43902762
:103F80009C46FF050023BC420CD01B4F0133BC42B2
:103F900008D01A4F0133BC4204D0194F9B19BC42C0
:103FA00000D1330083406046034393601D4A029B67
:103FB0001668D8433343CF0301D433000340136062
:103FC0005668029B33438F0301D433000340536090
:103FD0009668029B3343CF0201D4330003409360C1
:103FE000D668029B3343890201D433000340D36077
:103FF000019B013340E7C046000400480008004828
:10400000000C0048001400486D6E0008FFFFDFFF41
:104010000000EFEFFFFFFEFF0000DFEF00100240A7
:10402000000001400004014070B505000C1E04D1E1
:104030008E210548FF31FEF7F8FB28692040431E1A
:104040009841C0B270BDC0466D6E000870B50500E5
:104050000C001600002904D1D62108484900FEF7BB
:10406000E4FB012E06D9AE210448FF31FEF7DDFB4B
:10407000AC6170BD002EFBD1AC62FAE76D6E00083A
:1040800070B505000C1E04D1E12104484900FEF77B
:10409000CCFB6B695C406C6170BDC0466D6E000806
:1040A0000200114B13B51A4004009A4208D0DF23D6
:1040B0001B04184209D102000C4B1A409A4204D04A
:1040C00094210B484900FEF7B0FB0120094A916991
:1040D00001439161936903400193019B064B1A6868
:1040E00014431C6013BDC0460000AAAA0002AAAA7D
:1040F000A66E0008001002400000014070B50400E8
:104100000120002C32D01F4B22689A4203D0B521E7
:104110001D48FEF78AFB6368062B03D9B6211A48AF
:10412000FEF783FB194DA368AB4203D9B7211648AC
:10413000FEF77BFBE368AB4203D9B8211248FEF7D8
:1041400074FB2368124A1A60124A1A6062685A6045
:10415000A2689A60FEF7F8FF05002368D868002877
:1041600005D11969E268914208D01A6170BDFEF765
:10417000EBFF401B2728F0D90320F7E7064A1A6017
:10418000F4E7C04600300040E16E0008FF0F000079
:10419000CCCC000055550000AAAA00000368024AD2
:1041A00000201A607047C046AAAA0000F0B50400BB
:1041B00085B0002804D18921B8484900FEF735FBB5
:1041C0002368002B06D0DB0604D11421B348FF314D
:1041D000FEF72BFB2368DB0748D423689B0700D539
:1041E000A5E023681B0700D5F0E023685B0700D536
:1041F0001BE12368DB062BD56369012B06D9053348
:1042000004D08021A5488900FEF70FFBA3691F2B6E
:1042100003D9A349A148FEF708FB6269A14D042315
:10422000012A00D08DE1696B02260B436B636B6B37
:104230001A436A63FEF788FF07006B6B334200D1B5
:1042400078E1F8216A6BA3698A43DB0013436B634F
:10425000236A022B04D99D2190488900FEF7E5FAD4
:10426000226A002A00D087E100201DE06368012B4C
:1042700006D9052B04D01A218848FF31FEF7D5FA5C
:104280000C21884D6A680A40042A06D06B680B40EE
:10429000082B0BD16B68DB0308D52B689B039CD5DF
:1042A0006368002B99D1012005B0F0BD6368012B34
:1042B00014D180232A685B0213432B60FEF744FF6E
:1042C00080260700B6022B68334200D085E7FEF750
:1042D0003BFFC01B6428F6D90320E5E7002B16D16D
:1042E0002B68714A802613402B602B686F4AB602F8
:1042F00013402B60FEF728FF07002B68334200D1E4
:104300006BE7FEF721FFC01B6428F6D9E4E7052B15
:1043100005D180232A68DB0213432B60C9E72B6891
:10432000614A13402B602B68604A1340C5E7E3687D
:10433000012B04D94E215948FF31FEF776FA236943
:104340001F2B04D9A72155484900FEF76EFA0C220D
:10435000544D6B68134206D06B681340082B10D184
:104360006B68DB030DD42B689B0702D5E368012B38
:1043700099D1F8212A6823698A43DB0013432B6013
:104380002FE7E2680123002A0FD02A680226134390
:104390002B60FEF7D9FE07002B683342E9D1FEF708
:1043A000D3FEC01B0228F7D996E72A6802269A4353
:1043B0002A60FEF7C9FE07002B68334200D110E7E0
:1043C000FEF7C2FEC01B0228F6D985E7E369012B80
:1043D00004D9C72131484900FEF727FAE2690123D1
:1043E000304D002A10D06A6A022613436B62FEF732
:1043F000ABFE07006B6A334200D0F6E6FEF7A4FE80
:10440000C01B0228F6D967E76A6A02269A436A62E5
:10441000FEF79AFE07006B6A334200D1E5E6FEF72D
:1044200093FEC01B0228F6D956E7A368012B06D9D4
:10443000052B04D0DD2119484900FEF7F6F980224A
:104440000021184D5205EB690091134208D1EB6928
:104450001343EB61EB6913400393039B0123009328
:104460008027134E7F0033683B4206D0A368012BA0
:1044700020D12A6A13432B623DE033683B4333600B
:10448000FEF762FE019033683B42EFD1FEF75CFE1F
:10449000019BC01A6428F6D91EE7C0461A6F0008AF
:1044A0000102000000100240FFFFFEFFFFFFFBFFC4
:1044B000007000400122002B14D12B6A0227934385
:1044C0002B622B6A033293432B62FEF73DFE0600FC
:1044D0002B6A3B4225D0FEF737FE644B801B984287
:1044E000F6D9F9E6052B0BD1296A013B0B432B6268
:1044F0002B6A1A432A62FEF727FE022706000DE008
:104500002B6A934304222B622B6A9343B3E7FEF793
:104510001BFE564B801B984200D9DDE62B6A3B42BE
:10452000F5D0009B012B00D063E6EB69504A1340A5
:10453000EB615EE6FEF708FEC01B022800D87CE6B1
:10454000CAE6053203D16A6B9A436A6379E66A6BFD
:104550000226134301226B636B6B93436B63FEF77D
:10456000F3FD07006B6B334200D171E6FEF7ECFD03
:10457000C01B0228F6D9AFE60C213E4D01206B6826
:104580000B40082B00D18FE63B4E022A5BD13B4B00
:10459000626A1A4203D03A493A48FEF746F9A26ADB
:1045A00039493A4B1140134013D0802040038342D5
:1045B0000FD08020800383420BD0C0239B039942FD
:1045C00007D0E0239B039A4203D031492D48FEF7E0
:1045D0002CF9E36A0F2B03D92E492A48FEF725F957
:1045E0002B681E402E60FEF7AFFD80260700B60444
:1045F0002B68334221D10F22EB6A9343E26A1343C3
:10460000EB62616AA36A6A680B43234980240A400B
:1046100013436B6080232A685B0413432B60FEF70F
:1046200093FD0600A4042B68234200D01CE6FEF78D
:104630008BFD801B0228F6D94EE6FEF785FDC01BD8
:104640000228D5D948E62B6880241E402E60FEF74C
:104650007BFD0600A4042B68234200D104E6FEF78C
:1046600073FD801B0228F6D936E6C0468813000089
:10467000FFFFFFEF00100240FFFFFFFEFFFFFEFF06
:104680007D0200001A6F0008FFFFFBFFFFFFF3FF32
:104690007E0200007F020000FFFFC2FF70B5144CD5
:1046A00088B010222100684601F06CFE210004ADA4
:1046B00010221031280001F065FE0C220D4E7368A7
:1046C0001A40082A11D10F206A46990C0140545C07
:1046D000F26A0240A95CDB0305D50748FBF71EFD23
:1046E000604308B070BD0548FAE70348F9E7C046E3
:1046F0003C6C00080010024000127A0000093D00E6
:10470000F7B504000F00002803D168496848FEF798
:104710008CF823685B0703D166496548FEF785F886
:10472000012F04D9B72162488900FEF77EF80122E3
:10473000614D2B6813409F421FD823689B0726D4E6
:104740002368DB0745D401232A681A40974200D228
:104750008AE02368594D5B0700D58DE0FFF79EFF87
:104760006B68574A1B061B0FD35CD840554B18602B
:104770000020FEF7BFFC002008E02B6893433B437A
:104780002B602B6813409F42D7D00120FEBDA36849
:1047900080221900914314D02022190091439029BE
:1047A0000FD0402219009143A0290AD010221900ED
:1047B0009143C02905D0F02B03D043493C48FEF774
:1047C00034F8F0213D4A53688B43A1680B43536092
:1047D000B6E76368022B03D93C493548FEF725F854
:1047E000364E62683368012A1AD19B03CDD5032166
:1047F00073688B4313437360FEF7A6FC63680190F4
:10480000012B15D10C2273681340042B9BD0FEF7AB
:104810009BFC019BC01A2E4B9842F3D90320B5E7AD
:10482000022A02D19B01E2D4AFE79B07DFD4ACE7B9
:10483000022B13D00C227368134200D183E7FEF7DA
:1048400083FC019BC01A224B9842F3D9E6E7FEF79E
:104850007BFC019BC01A1E4B9842DFD80C22736868
:104860001340082BF3D16EE72A689A432A602A681E
:104870001A4200D089E76CE7E368164A13420DD06C
:10488000A021154AC9001A408A4207D0C022D2008E
:10489000934203D011490648FDF7C7FF6B68104AE1
:1048A0001340E26813436B6058E7C046DA02000029
:1048B0001A6F0008DB0200000020024000100240D6
:1048C000726D000824020020F3020000FA020000CA
:1048D00088130000FFFBFFFFFFFDFFFF63030000E5
:1048E000FFF8FFFF014B18687047C0462402002004
:1048F000044B054A5B685B055B0FD35C034A106899
:10490000D840704700100240826D00082402002049
:10491000F0B54C4B026885B005009A4203D97E2160
:104920004948FDF782FF2B68DB0330D56B68474AA7
:10493000134203D084214448FDF777FF80220021F1
:10494000434C5205E3690091134208D1E3691343D4
:10495000E361E36913400393039B012300938027E2
:104960003C4E7F0033683B4238D0C022236A92001D
:10497000134045D1236A354A13406A6813432362C2
:10498000009B012B03D1E369334A1340E3612B6899
:10499000DB070DD5AB68032B03D9CB212A48FDF7E4
:1049A00044FF03212A4A136B8B43A9680B4313630B
:1049B0002B6800209B0621D51023EA689A43824287
:1049C00003D0EF212048FDF730FF1021204A0020BE
:1049D000136B8B43E9680B4313630FE033683B436E
:1049E0003360FEF7B1FB019033683B42BDD1FEF767
:1049F000ABFB019BC01A6428F6D9032005B0F0BDBB
:104A000069680A409342B5D08023226A206A5B021B
:104A100003432362236A0D49104811400340236277
:104A20002162D307A6D5FEF78FFB02270600236A73
:104A30003B429FD1FEF788FB094B801B9842F6D979
:104A4000DBE7C04621000100526F0008FFFCFFFFBA
:104A50000010024000700040FFFFFFEFFFFFFEFF6D
:104A600088130000F7B50122036A04009343036230
:104A7000056A47688369723293430A680E001A43D5
:104A800002239D438B6801921D431E4B984205D023
:104A90001D4B984202D01D4B98422CD10823F2683E
:104AA0009A4303D01A491B48FDF7BFFE08239D43D4
:104AB000F3681D4304239D43124B9C4205D0124BC7
:104AC0009C4202D0114B9C4215D1134BB2691A4241
:104AD00003D012490F48FDF7A8FE114B72691A4224
:104AE00003D010490B48FDF7A0FE0F4BB2691F40E1
:104AF000736913431F43019B6760A361736863631A
:104B00002562F7BD002C01400044014000480140EF
:104B1000901200008D6F0008FFFDFFFF9D12000046
:104B2000FFFEFFFF9E120000FFFCFFFFF0B50F002D
:104B30007321036A254A85B013400362046A4668FC
:104B4000C36905008B433968029219430191BB6820
:104B50001F491B020C401C431E4B0391984226D157
:104B60000823FA689A4303D01B491C48FDF75DFEF1
:104B70001B4BFA68234014021C431A4B1C40BB69B0
:104B8000039A134203D018491448FDF74EFE7B697F
:104B9000029A134203D015491048FDF746FE144B04
:104BA0007A693340BE69164336011E4305E0114B56
:104BB0009842E4D0104B9D42E1D0019B6E60EB61C6
:104BC0007B68EB632C6205B0F0BDC046FFFEFFFFC3
:104BD000FFFDFFFF002C0140251300008D6F000832
:104BE000FFF7FFFFFFFBFFFF32130000331300004E
:104BF000FFCFFFFF0044014000480140F7B5036AC2
:104C0000174A040013400362036A164A4568C769DD
:104C10000E0017400A6812021743134A13408A68AD
:104C200012031A43114B0192984205D0104B98423F
:104C300002D0104B98420CD10F4B72691A4203D02C
:104C40000E490F48FDF7F1FD0E4B1D4073699B01A6
:104C50001D4373686560E7612364019B2362F7BDB0
:104C6000FFEFFFFFFF8CFFFFFFDFFFFF002C014086
:104C70000044014000480140FFFEFFFF70130000A8
:104C80008D6F0008FFBFFFFF0368114A10B50400D5
:104C9000934210D00F4A93420DD00F4A93420AD04C
:104CA0000E4A934207D00E4A934204D098210D48F1
:104CB0004900FDF7BAFD22000223012120683D32A0
:104CC000137003680B4303600020117010BDC046D1
:104CD000002C01400004004000200040004401403E
:104CE000004801408D6F00080368104A10B50400A9
:104CF000934210D00E4A93420DD00E4A93420AD0EE
:104D00000D4A934207D00D4A934204D0AF210C487C
:104D10004900FDF78AFD012223680020D96811436C
:104D2000D96019680A431A6010BDC046002C0140C2
:104D300000040040002000400044014000480140C1
:104D40008D6F000870477047704770477047704715
:104D500070470222036810B51969040011420ED091
:104D6000D96811420BD0053A1A619B690432027767
:104D70009B0700D179E0FFF7E9FF002323770422A6
:104D800023681969114210D0D96811420DD0093A2F
:104D90001A61073222779A69C0239B0020001A42C9
:104DA00069D0FFF7D3FF002323770822236819690E
:104DB00011420ED0D96811420BD0113A1A61DB6949
:104DC0000D32227720009B075BD0FFF7BFFF002347
:104DD0002377102223681969114210D0D968114233
:104DE0000DD0213A1A6119322277DA69C0239B006B
:104DF00020001A424BD0FFF7A9FF0023237701229E
:104E000023681969114207D0D968114204D0033AC6
:104E10001A612000FFF798FF802223681969114268
:104E200008D0D968114205D0023AFF3A1A61200031
:104E300000F087FE402223681969114207D0D96823
:104E4000114204D0813A1A612000FFF781FF20222D
:104E500023681969114207D0D968114204D0413A38
:104E60001A61200000F06CFE10BDFFF76EFF2000FD
:104E7000FFF76DFF81E7FFF768FF2000FFF767FF8F
:104E800091E7FFF762FF2000FFF761FF9FE7FFF761
:104E90005CFF2000FFF75BFFAFE70000194A10B589
:104EA0000368904202D0184CA04208D17024A3435A
:104EB0004C68234390420BD0134CA04208D0134CB3
:104EC000A04205D0124CA04202D0124CA04203D105
:104ED000114C2340CC6823438024A3434C692343D3
:104EE00003608B68C3620B688362904205D0084BF5
:104EF000984202D0074B984201D10B69036301230A
:104F0000436110BD002C014000040040002000401F
:104F10000044014000480140FFFCFFFF70B5040061
:104F20000120002C4CD02368264A93420FD0264AF9
:104F300093420CD0254A934209D0254A934206D089
:104F4000244A934203D0D4212348FDF76EFCA36882
:104F50001022190091430AD04022190091432029C0
:104F600005D0402B03D0D5211B48FDF75EFC2369FB
:104F70001A4A134207D080229200934203D0D621CE
:104F80001548FDF752FC8023A2699A4303D0D7212C
:104F90001148FDF74AFC25003D352B78DBB2002B8C
:104FA00005D122003C3213702000FDF779FE022368
:104FB00020682B70211DFFF771FF012300202B704B
:104FC00070BDC046002C014000040040002000409D
:104FD00000440140004801408D6F0008FFFEFFFFC4
:104FE00070B504000120002C50D02368284A934259
:104FF00010D0284A93420DD0274A93420AD0274A1C
:10500000934207D0264A934204D0F521254849000F
:10501000FDF70BFCA3681022190091430BD040222E
:1050200019009143202906D0402B04D0EC211D48C3
:10503000FF31FDF7FAFB23691B4A134208D0802297
:105040009200934204D0F62116484900FDF7EDFB8B
:105050008023A2699A4304D0EE211248FF31FDF764
:10506000E4FB25003D352B78DBB2002B05D1220077
:105070003C3213702000FFF765FE022320682B707E
:10508000211DFFF70BFF012300202B7070BDC046D0
:10509000002C01400004004000200040004401407A
:1050A000004801408D6F0008FFFEFFFF70B504004F
:1050B0000120002C4DD02368264A93420FD0264A67
:1050C00093420CD0254A934209D0254A934206D0F8
:1050D000244A934203D024492448FDF7A6FBA36841
:1050E0001022190091430AD040221900914320292F
:1050F00005D0402B03D01E491C48FDF796FB2369C1
:105100001C4A134207D080229200934203D01A49CE
:105110001648FDF78AFB8023A2699A4304D0FA213E
:1051200012488900FDF781FB25003D352B78DBB265
:10513000002B05D122003C3213702000FFF703FE44
:10514000022320682B70211DFFF7A8FE01230020F9
:105150002B7070BD002C0140000400400020004076
:105160000044014000480140E50300008D6F000845
:10517000E6030000FFFEFFFFE7030000F7B5102283
:10518000036A040093430362066A234A45688369FD
:105190000F0013400A6812021A4320239E438B68B3
:1051A00001921B011E431D4B984227D10823CA6858
:1051B0009A4303D01A491B48FDF737FB80239E43CF
:1051C0003300FA6816011E4340239E43164BBA690A
:1051D0001A4203D015491348FDF727FB144B7A698F
:1051E0001A4203D013490F48FDF71FFB124B7A698F
:1051F0002B40BD691543AD001D4305E00F4B9842A0
:10520000E4D00F4B9C42E1D0019B6560A3617B68B9
:10521000A3632662F7BDC046FF8CFFFF002C014050
:10522000DA1200008D6F0008FFFDFFFFE81200009A
:10523000FFFEFFFFE9120000FFF3FFFF0044014003
:1052400000480140F7B504000D001600182A03D8E5
:10525000424BD340DB0703D441494248FDF7E5FA0E
:105260002B681022190091430A0030218B4305D08E
:10527000402A03D03C493B48FDF7D7FA0223AA68ED
:105280009A4303D039493748FDF7CFFA2700022364
:105290003C373A781800012A2ED001223A702200B9
:1052A0003D32019213700C2E21D83000FAF72CFFFA
:1052B000071F1F1F251F1F1F351F1F1F45002368A6
:1052C0002B4A93420FD02B4A93420CD02A4A934246
:1052D00009D02A4A934206D0294A934203D0294949
:1052E0002048FDF7A2FA29002068FFF7BBFB012345
:1052F0000020019A13703870FEBD23681C4A934247
:1053000006D01C4A934203D01F491648FDF78DFA78
:1053100029002068FFF732FFE9E72368144A934227
:1053200006D0144A934203D018490E48FDF77DFA7F
:1053300029002068FFF7FAFBD9E723680C4A93425B
:1053400006D00C4A934203D011490648FDF76DFA86
:1053500029002068FFF752FCC9E7C046111100017F
:10536000770B00008D6F0008780B0000790B0000B0
:10537000002C014000040040002000400044014097
:1053800000480140840B00008C0B0000940B0000CF
:105390009C0B0000F7B507003C373B7804000D007C
:1053A00016000220012B61D001233B70182A03D87C
:1053B0005A4AF240934303D059495A48FDF735FA07
:1053C00010232A689A43602A03D057495548FDF7AD
:1053D0002CFA0223AA689A4304D0C2215148090139
:1053E000FDF723FA04232A699A4303D04F494D4815
:1053F000FDF71BFA23003D3301930223019A13703A
:105400000C2E2ED83000FAF77FFE072C2C2C322CD5
:105410002C2C4F2C2C2C6C002368454A93420FD027
:10542000444A93420CD0444A934209D0434A93429F
:1054300006D0434A934203D042493A48FDF7F5F972
:1054400029002068FFF70EFB0822236899690A43A8
:1054500004219A619A698A439A619A6929690A437F
:105460009A6101230020019A13703870FEBD2368F1
:105470002F4A934206D02F4A934203D032492948FB
:10548000FDF7D3F929002068FFF778FE8022236812
:10549000120199690A439A619A692C490A409A61F2
:1054A0002A6999691202DAE72368214A934206D0F1
:1054B000204A934203D026491A48FDF7B6F929003D
:1054C0002068FFF733FB08222368D9690A430421C7
:1054D000DA61DA698A43DA61DA6929690A43DA61E9
:1054E000BFE72368124A934206D0124A934203D080
:1054F00018490C48FDF799F929002068FFF77EFB51
:10550000802223681201D9690A43DA61DA690F49F6
:105510000A40DA612A69D9691202DFE71111000134
:105520001E0C00008D6F00081F0C0000210C0000F5
:10553000002C0140000400400020004000440140D5
:1055400000480140290C0000380C0000FFFBFFFF61
:10555000470C0000560C000030B58468034D0A4328
:105560001B022C4013432343836030BDFF00FFFF29
:10557000F8B5060002233C36327805000C0018000E
:10558000012A28D02F0001223D373270A04A3B70FB
:105590000B6899189F4A114208D03022934305D0D6
:1055A000402B03D09C499D48FDF73FF92B689C494F
:1055B0009A680A409A602268402A00D15CE121D8AA
:1055C000102A00D1A3E107D8002A00D18CE10123E1
:1055D00000203B703070F8BD202A00D1A8E1302AAD
:1055E000F5D1904A934206D08F4A934203D08F4917
:1055F0008A48FDF71AF9702229688B6893431A00CC
:10560000372381E1702A00D193E03DD8502A00D1A0
:10561000C2E0602ADBD1834A934206D0824A934299
:1056200003D083497D48FDF700F9802263681202A8
:10563000934209D002221900914305D00A2B03D0CE
:105640007C497648FDF7F1F8E3680F2B03D97A49D6
:105650007248FDF7EAF86268E16810242B68774D1C
:10566000186A0903A04318629C69186A2C402143F8
:10567000A02499617021A043120102431A629A6822
:105680008A4311006722BFE0802149018A4237D056
:10569000802189018A429AD1624A934206D0624AA5
:1056A000934203D066495D48FDF7BFF8654BA26899
:1056B0001A4203D064495948FDF7B7F8802263685D
:1056C000120293420AD002221900914306D00A2BFB
:1056D00004D0FF2151480901FDF7A7F8E3680F2B1B
:1056E00003D95A494D48FDF7A0F8E3686268A168FC
:1056F0002868FFF731FF80232A68DB01916849E0C1
:10570000484A93420FD0484A93420CD0504A9342A1
:1057100009D0504A934206D04F4A934203D04F4992
:105720003E48FDF782F807212A6893688B4393600F
:105730004DE73C4A934206D03B4A934203D0484946
:105740003648FDF772F83F4BA2681A4203D045492C
:105750003248FDF76AF8802263681202934209D04A
:1057600002221900914305D00A2B03D03E492B4851
:10577000FDF75BF8E3680F2B03D93C492748FDF799
:1057800054F8E3686268A1682868FFF7E5FE7721AE
:105790002A6893680B43CAE7224A934207D0224AF9
:1057A000934204D080211D484901FDF73EF8802234
:1057B00063681202934209D002221900914305D076
:1057C0000A2B03D02A491548FDF72FF8E3680F2B61
:1057D00003D928491148FDF728F82B680125186AD4
:1057E0006168E2681C6A1201AC431C629C69EF3577
:1057F000AC4322430A24A04301439A6119627021F9
:105800009A688A43110057220A439A60DFE6C0462D
:1058100000F0FFFFFFEFFFFFBD0F00008D6F0008DE
:105820008800FFFF002C01400004004045100000EC
:105830000F1000001210000013100000FF0FFFFFF8
:10584000EC0F0000FFCFFFFFEF0F0000F10F000093
:10585000002000400044014000480140C90F000002
:10586000D20F0000D50F0000D60F0000D70F0000A8
:105870000310000004100000364A934206D0364A56
:10588000934203D035493648FCF7CFFF8022636846
:105890001202934209D002221900914305D00A2B2B
:1058A00003D030492E48FCF7C0FFE3680F2B03D923
:1058B0002D492B48FCF7B9FF2B680125186A616850
:1058C000E2681C6A1201AC431C629C69EF35AC4370
:1058D00022430A24A04301439A61196270219A6805
:1058E0008A43110047228FE71A4A934206D01A4A88
:1058F000934203D01D491A48FCF797FF702229688C
:105900008B6893431A00072313438B605FE6114AA9
:10591000934206D0104A934203D015491048FCF731
:1059200084FF702229688B6893431A001723EBE7E2
:10593000084A934206D0084A934203D00D490848CA
:10594000FCF773FF702229688B6893431A002723A2
:10595000DAE7C046002C0140000400401E100000A1
:105960008D6F000821100000221000002D10000093
:10597000351000003D10000003681F4A70B5050097
:105980000C00934206D01D4A934203D01C491D4887
:10599000FCF74BFF302322689A4305D0402A03D0FE
:1059A00019491848FCF741FF802362689A4303D0E5
:1059B00016491448FCF739FF29003C310B780220C6
:1059C000012B17D02E002B683D3630705A686E3090
:1059D00082435A605A682068024380205A609A685D
:1059E00082439A609A68606802439A6000200123AB
:1059F0003370087070BDC046002C014000040040A8
:105A000049060000C56F00084A0600004B0600006A
:105A1000F8B5394A036805000C0093420AD0374AAA
:105A2000934207D0364A934204D0CE213548C9006C
:105A3000FCF7FBFE2368344A134203D03349314854
:105A4000FCF7F3FE6368324A134203D031492D4814
:105A5000FCF7EBFE304FA3683B4203D02F492948A7
:105A6000FCF7E3FEE368FF2B03D92D492548FCF73B
:105A7000DCFE23692B4A134203D02B492148FCF753
:105A8000D4FE6369294A134203D029491D48FCF713
:105A9000CCFE284EA369334203D027491948FCF7AE
:105AA000C4FE2B003C331A780220012A22D02A009F
:105AB000E1683D321070A06839400143144801404C
:105AC00060680143104801402068014315480140C7
:105AD0002069014315480140606901430E40A169F6
