:020000040800F2
:1000000000100020B1570008411D0008431D0008E2
:1000100000000000000000000000000000000000E0
:10002000000000000000000000000000451D000866
:100030000000000000000000471D0008491D0008E6
:10004000015800080000000001580008511D000878
:10005000591D0008015800080158000801580008FF
:1000600000000000015800085D1D0008751D000813
:10007000851D0008951D00080158000800000000BB
:10008000E51D00080000000000000000991E0008A7
:1000900000000000851F00080158000801580008F2
:1000A0000000000001580008000000008D2000083A
:1000B0000000000000000000000000000000000040
:1000C00010B5064C2378002B07D1054B002B02D02E
:1000D000044800E000BF0123237010BDA0020020EF
:1000E00000000000EC600008044B10B5002B03D0AA
:1000F0000349044800E000BF10BDC04600000000F6
:10010000A4020020EC60000802B4714649084900CE
:10011000095C49008E4402BC7047C0460022430877
:100120008B4274D303098B425FD3030A8B4244D3BF
:10013000030B8B4228D3030C8B420DD3FF22090201
:1001400012BA030C8B4202D31212090265D0030BC0
:100150008B4219D300E0090AC30B8B4201D3CB03B6
:10016000C01A5241830B8B4201D38B03C01A5241F8
:10017000430B8B4201D34B03C01A5241030B8B42FA
:1001800001D30B03C01A5241C30A8B4201D3CB02E5
:10019000C01A5241830A8B4201D38B02C01A5241CA
:1001A000430A8B4201D34B02C01A5241030A8B42CD
:1001B00001D30B02C01A5241CDD2C3098B4201D3E5
:1001C000CB01C01A524183098B4201D38B01C01A63
:1001D000524143098B4201D34B01C01A52410309DA
:1001E0008B4201D30B01C01A5241C3088B4201D389
:1001F000CB00C01A524183088B4201D38B00C01A36
:10020000524143088B4201D34B00C01A5241411A5C
:1002100000D20146524110467047FFE701B5002069
:1002200000F006F802BDC0460029F7D076E7704717
:100230007047C0468446081C6146FFE71FB500F0C2
:1002400043FA002801D40021C8421FBD10B500F0B8
:10025000D5F94042013010BD10B500F035FA002844
:1002600001DB002010BD012010BDC04610B500F01C
:100270002BFA002801DD002010BD012010BDC04672
:1002800010B500F0E1F9002801DC002010BD0120CC
:1002900010BDC04610B500F0D7F9002801DA0020E3
:1002A00010BD012010BDC0469E2110B5C905041C1B
:1002B000FFF7F0FF002803D1201C00F003FD10BD64
:1002C0009E21201CC90500F061FB00F0FBFC80238F
:1002D0001B069C466044F2E7F0B5C6464E02470254
:1002E000760A7B0A4400C50FF7004800984600B51F
:1002F000240E2A00DB00000EC90FBC468D4267D0D9
:10030000221A002A00DCA5E000283AD1002F00D1F3
:1003100093E0511E002900D0BCE00124DB1B5A01F0
:1003200046D59B019E09300000F082FD05388640CD
:10033000844200DD9DE0041B320020200134E240B5
:10034000041BA64033005E1EB341002413435A072A
:1003500004D00F221A40042A00D004335A0129D5B0
:100360000134FF2C00D181E02A009B015B0AE4B23A
:100370005B02E405580AD2072043104304BC9046B0
:10038000F0BDFF2CE3D080213800C9040843844627
:100390001B2A00DD82E020206146D140821A60469F
:1003A00090400200501E82410A439B1A5A01B8D461
:1003B0005A07CED1DE082A00FF2C3AD1002E00D1F8
:1003C000AEE08023DB0333435B025B0AFF24CFE70D
:1003D000211A002952DD002831D0FF2CB7D080200F
:1003E0003E00C0040643B4461B2900DDAAE02026D7
:1003F0006046C840711A66468E4031004E1EB141BB
:1004000001435B185901D3D50134FF2C00D187E09B
:10041000012278491A405B080B40134397E7002CF0
:1004200000D0A7E0002B00D0B6E03B1E62D1002632
:10043000002273025B0AE4B29AE7140087E7002FF8
:100440004DD0481E002857D1634401245A01AFD52E
:100450000224DDE7002A24D1621CD2B2012ADEDDAB
:10046000DE1B720135D5FE1A0D005CE72A00002361
:100470007EE73300604A241A134068E7002963D1FD
:10048000611CC8B201284EDDFF2949D063445B08D6
:100490000C005CE7FF2A41D00A0079E701229B1A91
:1004A00084E7002C1DD0FF2822D08024E40452428F
:1004B00023431B2A00DD8AE01C002025D440AA1A11
:1004C00093405A1E9341234362460400D31A0D0001
:1004D00025E7002E00D026E700220024A9E70C0023
:1004E00035E7002B4DD0D243002AEDD0FF28E0D1D4
:1004F0006346FF240D002AE7FF290FD0010073E7B0
:10050000002B61D0FF24002F00D120E7802241463C
:10051000D203114202D0164200D13B00FF2416E75D
:10052000FF24002324E7002CEAD1002B58D0002F11
:1005300000D10CE763445A0100D439E72E4A0C007D
:10054000134004E701215CE7002C1ED1002B40D0B2
:10055000C94300290BD0FF2836D01B2947DC1C00DB
:100560002026CC40711A8B40591E8B412343634493
:10057000040047E7002B18D13B1E2DD00D00FF24AF
:10058000E5E63B0004000D00E1E6FF281CD08024D6
:10059000E40449422343E0E7002F00D1D7E6DE1B05
:1005A00072011FD5FB1A0D00D1E6FF24002F00D1E8
:1005B000CDE680224046D2031042AFD01642ADD1E4
:1005C0003B000D00FF24C2E66346FF24BFE6012383
:1005D0007AE73B000400BAE680260022F603F0E644
:1005E0003B00B4E6331E00D0E2E6002221E70123FF
:1005F000BDE7C046FFFFFF7DFFFFFFFB70B5420078
:1006000045024E024C00C30F6D0A120E760A240EEC
:10061000C90F0120FF2A06D0FF2C03D0A24201D12E
:10062000B54206D070BD002DFCD1FF2CFAD1002EB2
:10063000F8D18B4206D00120002AF3D12800451EB4
:10064000A841EFE70020EDE7F0B5420045024C027B
:10065000C30F48006D0A120E640A000EC90FFF2A6C
:100660001ED0FF2821D0002A0AD16E426E41F6B278
:1006700000280FD1002C0DD10020002D09D005E05D
:10068000002801D1002C01D08B4211D00121584209
:100690000843F0BD002EF7D0012001390843F8E7E8
:1006A000002DDED002204042F3E7002CDBD0F9E73A
:1006B0008242EBDC04DBA542E8D80020A542E8D268
:1006C0000121581E0843E4E7F0B542004D024C00FA
:1006D0004602760A120EC30F6D0A240EC90FFF2AB6
:1006E00016D0FF2C18D0002A0AD170427041C0B237
:1006F000002C15D0002805D0012001390843F0BD99
:10070000002C13D0994214D001205B421843F6E725
:100710000220002EF3D1E4E70220002DEFD1E2E722
:10072000002DE7D10020002EE9D0EDE7002DE9D122
:10073000EAE7A24206DCDFDBAE4203D80020AE428D
:10074000DAD3DCE7012049420843D8E7F8B5574639
:100750004E464546DE46E0B54702460088467F0ADB
:10076000360EC40F002E47D0FF2E24D0FB0080276A
:10077000FF041F43002399469A467F3E43465D028D
:100780005800DB0F6D0A000E984643D0FF283BD07F
:10079000EB0080250022ED041D437F383618731CC2
:1007A00041469B464B46614013430F2B64D8754826
:1007B0009B00C3589F46002F42D108239946063B11
:1007C000FF269A46DAE74146022A28D0032A00D1BA
:1007D000CEE0012A00D0ACE0114000200022CCB2D3
:1007E0004002D205400AE407104320433CBC904637
:1007F0009946A246AB46F8BD002F15D10423994671
:10080000033B00269A46B9E7FF200222002DC5D0FF
:100810000322C3E7002D19D100200122BEE70124E5
:10082000FF220C400020DBE7380000F001FB7626B9
:10083000431F9F4000237642361A99469A469DE709
:100840000C239946093BFF269A4697E7280000F0BB
:10085000EFFA431F9D4076235B42181A00229DE762
:1008600080200024C003FF22BAE73D005246ABE7D8
:100870003D0021005246A7E73B0C9C462A04120C7F
:100880002B0C1400604665463F043F0C7C434243FA
:100890005D437B43270C9B18FF18BA4203D9802382
:1008A0005B029C46654424043A04240C121993010B
:1008B0005C1EA3413F0C920E7D191A43AD011543F6
:1008C0002B0104D501235E466A081D401543320002
:1008D0007F32002A25DD6B0704D00F232B40042B29
:1008E00000D004352B0103D53200274B80321D4048
:1008F000FE2A94DC0124A801400AD2B20C406FE722
:100900008020C003074207D0054205D1284340029A
:10091000400A4446FF2263E738434002400AFF2270
:100920005EE70124A31A1B2B05DD0C4000220020EA
:1009300056E75E46CBE72A002020DA40C31A9D40E6
:100940002B005D1EAB4113435A0704D00F221A40FF
:10095000042A00D004335A0104D5012401220C409A
:1009600000203DE701249B01580A0C40002237E794
:1009700080200124C00328434002400A0C40FF228B
:100980002EE7C04624610008FFFFFFF7F0B54F4691
:10099000D64646464400C0B5C20F47024802400A48
:1009A000844666467B0A4800C90F9A46240E150005
:1009B000DB00000E8946F600FF2800D18FE0012100
:1009C0004F464F403900914266D0221A002A00DC7F
:1009D0009DE000283DD1002E00D18BE0511E002962
:1009E00000D0B5E001249B1B5A0144D59B019F090F
:1009F000380000F01DFA05388740844200DD96E09B
:100A0000041B3A0020200134E240041BA7403B00B5
:100A10005F1EBB41002413435A0704D00F221A4023
:100A2000042A00D004335A0127D50134FF2C00D109
:100A300079E001229B015B0AE4B22A405B02E405F3
:100A4000580AD207204310431CBC90469946A24640
:100A5000F0BDFF2CE0D08021C9040E431B2A7BDCB3
:100A600031002020D140821A9640721E96410E43DA
:100A70009B1B5A01BAD45A07D0D10122DF082A4061
:100A8000FF2C33D1002F00D1A8E08023DB033B43B0
:100A90005B025B0AFF24D1E7211A00294CDD002804
:100AA0002AD0FF2CB8D08020C00406431B2900DDCB
:100AB000AFE030002027C840791A8E40711E8E4169
:100AC00006439B195901D6D50134FF2C00D185E08E
:100AD00001227A491A405B080B4013439CE7002E21
:100AE00000D070E76BE73B1EC5D100227B025B0A9A
:100AF000E4B2A3E714008FE7002E4DD0481E002873
:100B000057D19B1901245A01B5D50224E0E7002AE8
:100B100025D1621CD2B2012A72DD9F1B7A0135D524
:100B2000F71A0D0064E7012200232A4086E73B0004
:100B3000634A241A13406FE700296CD1611CC8B2C4
:100B400001284EDDFF2949D09B195B080C0063E7A3
:100B5000FF2A41D00A0081E701269B1B89E7002C70
:100B60001CD0FF2821D08024E404524223431B2AB6
:100B700000DD96E01C002025D440AA1A93405A1E9E
:100B800093412343F31A04000D002DE7002F00D0FA
:100B90002EE700220024A9E70C003DE7002B58D0E7
:100BA000D243002AEED0FF28E1D13300FF240D000C
:100BB00032E7FF2910D0010078E7002B6ED0FF2428
:100BC000002E00D128E780225146D203114203D0E3
:100BD0006146114200D13300FF241DE7FF240023AA
:100BE0002CE7002CE9D1002B63D0002E00D113E7B5
:100BF0009B195A0100D43EE7314A0C0013400BE721
:100C0000002C1ED1002B2FD1002E4FD033000D0011
:100C100002E7012655E7002C1FD1002B43D0C94322
:100C200000290BD0FF2839D01B2944DC1C002027C9
:100C3000CC40791A8B40591E8B4123439B190400E9
:100C400040E7002B1AD1002E24D180270022FF0379
:100C50001BE7330004000D00DEE6FF281ED08024D1
:100C6000E40449422343DFE7002E00D1D4E69F1B72
:100C70007A0100D437E7F31A0D00CDE6FF24002EE9
:100C800000D1C9E680225046D2031042A4D060466B
:100C90001042A1D133000D00FF24BDE63300FF2434
:100CA000BAE601236EE733000400B5E60027002210
:100CB0001CE73300B0E60123C0E7C046FFFFFF7D1D
:100CC000FFFFFFFB41024300C20F490A1B0E002039
:100CD0007E2B0DDD9D2B0CDC802000040143952B29
:100CE0000ADC9620C31AD9404842002A00D10800E5
:100CF0007047034BD018FBE7963B9940F4E7C0469A
:100D0000FFFFFF7F70B5002830D0C317C4185C40C8
:100D1000C50F200000F08CF89E231B1A962B0DDCCB
:100D20009622D21A94402A006402640ADBB264025A
:100D3000DB05600AD2071843104370BD992B19DCFC
:100D40009922D21A002A29DD94402200144C144022
:100D5000510704D00F210A40042A00D00434620154
:100D600013D4A401640ADBB22A00E0E700220023C6
:100D70000024DCE705222100121AD140B922D21A40
:100D80009440621E94410C43DAE7054B2A001C4054
:100D90009F23A4011B1A640ADBB2C8E72200D5E72F
:100DA000FFFFFFFB10B5041E27D000F041F89E2383
:100DB0001B1A962B0ADC9622D21A94406402640A0B
:100DC000DBB26402DB05600A184310BD992B17DC07
:100DD0009922D21A002A27DD94402200134C144095
:100DE000510704D00F210A40042A00D004346201C4
:100DF00012D4A401640ADBB2E3E700230024E0E795
:100E0000B9222100D21A91400A00511E8A410521BF
:100E1000091ACC401443DBE7044B1C409F23A40178
:100E20001B1A640ADBB2CCE72200D7E7FFFFFFFB07
:100E30001C2101231B04984201D3000C10391B0A0A
:100E4000984201D3000A08391B09984201D30009CE
:100E5000043902A2105C40187047C0460403020225
:100E600001010101000000000000000030B585B064
:100E70000C22002101A804F0F2FC04221F4C204B9C
:100E80006261C222012523600023FF3220006360DB
:100E9000A360E3602561A361E36125626362A262EE
:100EA000E3622563636301F015FC002801D000F0C4
:100EB0002DFF80235B010293072301A920000195E8
:100EC000039301F073FE002801D000F01FFF0223FE
:100ED00001A92000019301F069FE002801D000F073
:100EE00015FF052301A92000019301F05FFE0028F2
:100EF00001D000F00BFF05B030BDC0462403002038
:100F00000024014070B5050088B01422002103A818
:100F100004F0A5FC204B2A689A423BD180201F494F
:100F200080008A69802602438A618B6976000340CB
:100F300080200193019B4A69800202434A614B6908
:100F400003A903400293029B90202623C00503932C
:100F5000233B049302F0B4F9114C124B20002360A0
:100F600000236360A3608033E3608023DB00636160
:100F70002023A36180235B012661E36101F086FFEA
:100F8000002801D000F0C2FE074A13683343136003
:100F9000EC63656208B070BD00240140001002409F
:100FA000E00200201C0002400000014010B50C4B84
:100FB0000C4C236000232000237163716361A361E3
:100FC0000133236201F006FF002801D000F09EFEED
:100FD000200001F059FF002801D000F097FE10BD5D
:100FE0000030024070030020074B026882B09A4232
:100FF00008D14020054A51690143516153690340BA
:101000000193019B02B07047003002400010024083
:1010100010B503220249034801F090FC10BDC04600
:10102000A0030020240300200023074A1360074A7E
:101030001360074A1360074A13600122064B1A60C7
:101040005A609A60DA607047200000202400002077
:10105000280000202C0000203000002010B588421D
:1010600024D9401AFFF79EFE1449FFF76FFBFE21BB
:101070008905FFF731F91249041CFFF701F900282F
:1010800019D11049201CFFF7E7F8002800D00D4CBB
:10109000201C10BD081AFFF785FE0849FFF756FB14
:1010A000011CFE208005FFF771FCE4E78842F1D3C4
:1010B000FE24A405ECE7024CEAE7C0469A99993968
:1010C000CDCCCC3FCDCCCC3E70B5051C0C1CFFF775
:1010D000C3F800280DD00F49281CFFF7FDF8051CA8
:1010E000011C201CFFF7C2F8002800D12C1C201C7A
:1010F00070BD211C281CFFF7C3F80028F6D0054955
:10110000281CFFF743FC051C011C201CFFF7C2F83C
:10111000EAE7C046A69BC43BF8B5284C284F386880
:101120002168FEF7FBFF274E386030686168FEF7E4
:10113000F5FF254D30602868A168FEF7EFFF234BCF
:1011400028601868E168FEF7E9FF80241F4B24013E
:10115000186038682100FFF781FF1D4B1D4F186094
:10116000011C3868FFF7B0FF386030682100FFF7D6
:1011700075FF194E194B011C18603068FFF7A4FF6A
:10118000306021002868FFF769FF154D154B011CE1
:1011900018602868FFF798FF0C4B2860186821003A
:1011A000FFF75CFF104B114C011C18602068FFF723
:1011B0008BFF2060FFF738FFF8BDC04630000020ED
:1011C0002000002024000020280000202C00002007
:1011D00040000020100000201400002044000020E7
:1011E00018000020480000204C0000201C000020B7
:1011F00019481A4930B504888D68194A194BAC4210
:1012000008DD19491288086812180A60DA68013284
:10121000DA6030BD04884D68AC4208DD134912889D
:10122000086812180A609A6801329A60F1E700882B
:1012300009681288884207DD0D49086812180A609B
:101240005A6801325A60E4E70A49086812180A60CD
:101250001A6801321A60DCE7BE020020000000209C
:10126000A0030020300000202C00002028000020D7
:10127000240000202000002070B50D4B002A01D072
:1012800001229A608A0814000500013C08D29200ED
:101290008018032211404118884204D1186870BD9B
:1012A00040CD1E60F1E7027801301A70F4E7C046C5
:1012B0000030024070B50B4C14220021200004F0D5
:1012C000CEFA094D012228006421FFF7D5FF074916
:1012D0000200200004F0CCFA2800210004F0EAFA11
:1012E00070BDC04628040020A803002064610008E7
:1012F00010B564220021024804F0B1FA10BDC046C6
:10130000A803002007B5FFF7F3FF074B07491A684A
:10131000074B08481B6809680091074904F0A8FAC0
:10132000FFF7C8FF07BDC046ACF7FF1FB4F7FF1FAC
:10133000B0F7FF1FA80300207161000810B5FFF788
:10134000D7FF054B05491A88054892B204F090FA78
:10135000FFF7B0FF10BDC046CCF7FF1F8461000847
:10136000A803002010B5FFF7C3FF064C0649200074
:1013700004F0A0FA0549200004F09CFAFFF79AFF58
:1013800010BDC046A8030020956100089F610008B9
:10139000024A1368002BFCD07047C0463002002080
:1013A000002210B50400074B1A6063220649074863
:1013B00003F03CFE0228F8D0002C01D0FFF7E8FF34
:1013C00010BDC04630020020A80300200C060020FB
:1013D000054B026810B59A4204D10122034B1A60F2
:1013E000FFF786FF10BDC0460038014030020020E4
:1013F00010B5024802F036F910BDC0467404002052
:10140000F0B5274B8DB01B68012B46D1FFF770FF5D
:10141000244B00241A88244992B209925A8892B225
:101420000A929B889BB20B93204B1D68204B1E6831
:10143000204B1F68204B1868204B1B780794033BF8
:101440005A42534105940693FFF780F9FEF72CFFAB
:1014500080B215490490381CFFF778F9FEF724FF95
:1014600080B211490390301CFFF770F9FEF71CFFA2
:1014700080B20D490290281CFFF768F9FEF714FFAF
:101480000B9B80B201900093099A0A9B0C490D486E
:1014900004F0EEF92000FFF783FF0DB0F0BDC04669
:1014A000C4020020A00300200000C8421000002059
:1014B00014000020180000201C000020C0020020A2
:1014C000AB610008A8030020104B11491A680A40BC
:1014D000FF211A605A6C8A435A644022596C0A43AD
:1014E0005A641022596C0A435A640822596C0A4300
:1014F0005A640422596C0A435A640222596C0A4302
:101500005A640122596C0A435A647047002C014006
:10151000FFFCFFFF8022054B1201196A0A431A6281
:101520008022196A92000A431A627047002C014017
:101530008022054B520159680A435A60802259683B
:1015400092010A435A607047002C01401021114B50
:10155000114A10B59A622932DA62F53AFF3ADA6333
:101560001A6870208A431A606022196891431960D2
:10157000D9698143D961D9690A43DA61A022196A1C
:10158000D2000A431A62FFF7C5FFFFF7D1FFFFF74A
:101590009BFF10BD002C0140BF030000FA2310B5D3
:1015A0000C4C5B00E363A023226ADB00134323623D
:1015B000FFF7B0FFFFF7BCFFFFF786FF0123E268EC
:1015C0001A43E260226813432360FFF72DFDFFF703
:1015D000A3FD10BD002C01400121104B1A698A4364
:1015E0001A61DA688A43DA601A680D490A401A609B
:1015F0008022596892010A435A605A6809490A4090
:101600005A608022196A92000A431A621A6A0649CD
:101610000A401A620022DA637047C046002C01407B
:10162000FEFF0000FFEFFFFFFFF7FFFFC023034AAD
:101630001B02516C0B4353647047C046002C0140A1
:10164000044B05495A6C0A405A645A6C03490A40D3
:101650005A647047002C0140FF7FFFFFFFBFFFFF70
:1016600010B5FFF7E3FFFFF799FF10BD10B5FFF7C7
:10167000E7FFFFF7B1FF10BD0022084B10B51A803D
:10168000074B5A639A63D96801321143D9601968CC
:101690000A431A6000F078F810BDC046BE02002070
:1016A000000400400121074B1A698A431A61DA6875
:1016B0008A43DA601A6804490A401A6000225A63B1
:1016C0009A63704700040040FEFF0000C023034AF5
:1016D0001B02516C0B4353647047C046000400402A
:1016E000044B05495A6C0A405A645A6C03490A4033
:1016F0005A64704700040040FF7FFFFFFFBFFFFFF9
:1017000010B5FFF7E3FFFFF7B7FF10BD10B5FFF708
:10171000E7FFFFF7C7FF10BDFA210122174B890031
:101720009A62D962002159639963196A0A431A625D
:101730000222196A0A4310211A621A6A0A431A62BB
:101740002022186A02431A6280225868520002431B
:101750005A6080225868D20002435A609A69084849
:1017600002409A619869074A02439A611A688A435B
:101770001A601A6850318A431A60704700040040AA
:101780008F8FFFFF60600000FC23054A9B051360FC
:10179000044A1360044A1360044A13607047C04649
:1017A0001C00002018000020140000201000002061
:1017B0000B4A0C4B11889868814202DD0A4B18686D
:1017C000704711885868814201DD084BF7E712889D
:1017D0001B689A4201DD064BF1E7064BEFE7C04676
:1017E000BE020020000000201C0000201800002085
:1017F0001400002010000020144B70B51A88EF2A46
:1018000001D900221A801B88114A5B009C5AFFF7FD
:10181000CFFFFE218905A4B2051CFEF717FD0028A5
:1018200008D12000FFF76EFA291CFEF78FFFFEF7A4
:101830003BFD84B2074B201C9C4202D9181C80B28D
:1018400070BDA3B21E2BFAD21E20F8E7BE02002004
:1018500050000020CA0300000260009A0372C260B8
:10186000019A00230261012241600375437583617F
:10187000C27583754372704710B5040001884068D3
:1018800001F036FE237A181A431E9841C0B210BDEB
:1018900070B50400FFF7F0FFE67D050086421AD020
:1018A000002807D100F0B4FE0123A061A375E575FF
:1018B00000200FE000F0ACFEA369E16802005B18B5
:1018C00001209A4203D30423E075180063720023B9
:1018D0006375237570BD002EEAD100F099FEA369EF
:1018E00022699B18984208D3637D012B02D166724E
:1018F000607AEFE703236372FAE700F089FEA369D9
:10190000E2689B189842D3D3237D012BEFD00223AA
:10191000F1E7000007B50120084A51690143516110
:10192000536900220340019311000A30019B01F02A
:10193000EBF90B2001F022FA07BDC046001002406F
:10194000F0B589B01422002103A803F088FF80209D
:101950008025294BC0035969AD020143596180219B
:101960005A69C90202400092009A5A69234E2A43DA
:101970005A615A6930002A400192019A5A6900243A
:101980000A435A615B6901220B400293E921029BE1
:1019900001F0C0FD90200327194B03A9C005039354
:1019A0000497059401F08CFC8C2390205B0003933A
:1019B000183BFF3B03A9C0050593049401F080FC8C
:1019C000E92303A903933000E83B049305940697A9
:1019D00001F076FC102303A93000039304970594CB
:1019E00001F06EFC8020400201F0BEFD280001F0F5
:1019F000BBFD09B0F0BDC046001002400004004825
:101A0000011800000748084B10B503600623436027
:101A1000064BC360836001F0D5FD002801D000F0C3
:101A200075F910BD7404002000300040FF0F000065
:101A300030B5102595B03022002108A803F00FFF23
:101A40002A000021684603F00AFF2A00002104A8AA
:101A500003F005FF1923089380235B021193802371
:101A600001240E955B030E3D08A81095129309946E
:101A70000D940F9401F0FEFD072301950025210030
:101A8000684600930295039502F09EF804A804941A
:101A9000069502F0A1F915B030BD0000F7B500F0D1
:101AA0009FFDFFF7C5FFFFF74BFFFFF733FFFFF782
:101AB0007DFAFFF7DBF9FFF7A5FF00F013FC00F05C
:101AC0001DFB00F0E9FC00F085FC00F031FB00227A
:101AD0000A20110001F018F90A2001F04FF9002244
:101AE0000420110001F010F9042001F047F9002250
:101AF0000320110001F008F9032001F03FF9FFF77E
:101B000087FA0322714B00251A70FFF71FFDFFF7BC
:101B1000A7FDFFF7ABFDFFF7FFFDFFF7F1FDFFF7B7
:101B2000F5FDFFF765FC01220821694801F0F2FC90
:101B300001226748110001F0EDFC012240216448B8
:101B400001F0E8FC01228021614801F0E3FC614CD6
:101B5000614E200002F0FCFA200002F029FB5F4BEE
:101B60001D706423F362FFF743FCFA23DB0001934B
:101B700080221E2390215A4F009352002B00C9054A
:101B80003800FFF769FEFA239B00019390211E2382
:101B900010220093C9052B005248FFF75DFEFA237F
:101BA0009B00019390211E234F4C0822C9050093EE
:101BB00020002B00FFF750FE3800FFF769FE494870
:101BC000FFF766FE2000FFF763FEFA20400000F0FA
:101BD00025FDFFF7C7FB0120FFF7E2FBFFF792FBB4
:101BE0000120FFF7DDFBFFF7A9FB0120FFF7D8FB82
:101BF000FFF77EFB2000FFF74BFE3800FFF748FEA3
:101C00003A4D02281BD13A49280003F060FE01201A
:101C1000FFF7C6FBFFF7ECFBFA20400000F0FEFCEC
:101C20003800FFF735FE022809D13249280003F0B9
:101C30004EFE0120FFF7B4FB01222F4B1A60012753
:101C40002E49280003F043FE0120FFF7A9FB234B98
:101C500000221F70FA239B00F36208211C4801F048
:101C600059FC002239001A4801F054FC002240219E
:101C7000174801F04FFC00228021154801F04AFC72
:101C80002000FFF705FE1748FFF702FEFA2040008C
:101C900000F0C4FC1348FFF7FBFD032806D11849E8
:101CA000280003F014FE3800FFF77AFB2000FFF74E
:101CB000EFFD0122134C144B20009A6202F048FA07
:101CC000200002F075FAC046FDE7C046D0020020B1
:101CD000000400484405002000440140C0020020E8
:101CE0000C040020580400203C040020A80300201D
:101CF000096200081B620008C4020020326200086A
:101D00003F62000804050020002000407047704733
:101D100001200A4B82B099690143996180219A6937
:101D2000490502400092009ADA690A43DA61DB69E8
:101D30000B400193019B02B07047C0460010024067
:101D40007047FEE77047704710B500F059FC10BDB2
:101D500010B501F015FA10BD7047000010B503482A
:101D600001F0A5F9024801F0A2F910BDE00200203F
:101D7000C805002010B5024801F099F910BDC04611
:101D80008405002010B5024800F080FE10BDC0465A
:101D90002403002010B50D4C200002F03EFA022270
:101DA000236852421A610023094A1380094A1370BA
:101DB000094A93635363094B1A78012A05D101320A
:101DC0001A70F332064BFF32DA6310BDC4040020F0
:101DD000BE020020BC02002000040040D00200200F
:101DE000002C014070B5264C200002F016FA0222A9
:101DF000236852421A61234B1A78002A05D01A78B8
:101E0000012A02D01A78032A05D100221E498A63CA
:101E10004A631E490A801A78032A10D01A78012AC8
:101E200001D101321A701A4B5A6A002A04D0FA22E0
:101E3000596A5200914203D10022144B1A8070BD9E
:101E4000F422596AFF32134C914201D901212170C9
:101E50005B6A934201D8002323702378DBB2002B06
:101E600004D1094DAB63FFF7C7FC68632378012BEE
:101E7000E5D10023044C6363FFF7BEFCA063DEE7FB
:101E800084040020D002002000040040BE02002094
:101E9000002C0140BC020020F8B5314C200002F0BB
:101EA000BCF9022223682F4C52421A612000FFF72E
:101EB000EFFC2D4D022809D103222C4B1A70002271
:101EC0002B4B1A602B78022B21D1F8BD2000FFF795
:101ED000DFFC0328F0D02B78264C032B1AD1234BA0
:101EE0001F78FFB2012F15D1002623482680FFF767
:101EF000CFFC03280ED1214B2F709E635E63204BD5
:101F0000DE632680FFF7ACFBFFF7FAFBDDE7022379
:101F10002B70E0E72B78022B0BD02388002B01D10C
:101F2000FFF7FAF8FFF764F9238801339BB22380A7
:101F3000CBE70E4B1B78032B04D00F48FFF7A8FC10
:101F40000428EAD103232B7000230C4A93635363C4
:101F50000B4AD3632380FFF789FBFFF7D7FBB4E776
:101F6000040500203C040020D0020020C002002014
:101F7000C8020020BE0200205804002000040040D7
:101F8000002C0140F8B5394C200002F046F902223D
:101F9000236852421A61FFF72BFA354C2078C0B201
:101FA000032816D8FEF7B0F80216021908213148A6
:101FB00001F0CAFA01212F4801F0C6FA40212D484C
:101FC00001F0C2FA2B48802101F0BEFA2A48FFF73F
:101FD0005FFCF8BDFFF714FAFBE7FFF711FA264F95
:101FE0003800FFF755FC254D254E02281AD12B68E5
:101FF000244F01332B600A2B2AD1002301222021F8
:102000001C482B6001F086FAFA235B00FB628021FA
:10201000184801F099FA03231B4A23701370002318
:102020003360D6E73800FFF733FC0328DFD0032105
:102030000022154B2A601970336801333360092B75
:102040000EDD7D310B4801F065FA01232370C0E7F6
:1020500000222021074801F05DFAFA239B00D5E712
:1020600021700448802101F06FFAB2E74405002096
:10207000C0020020000400483C040020CC020020E4
:10208000C802002000440140D002002010B50248E0
:1020900003F002FB10BDC0460C0600200121114BCD
:1020A00011481A680A431A605A6802405A601A684E
:1020B0000E4802401A601A680D4802401A605A68B9
:1020C0000C4802400F205A60DA6A8243DA621A6BC7
:1020D000094802401A635A6B8A435A6300229A6085
:1020E0007047C046001002400CB8FF08FFFFF6FE24
:1020F000FFFFFBFFFFFFC0FFECFEFFFF0A480B4B9B
:1021000010B503600123FA2243600023920083602C
:1021100003618033C260836102F064F9002801D05A
:10212000FFF7F4FD10BDC04604050020002000406C
:102130000A480B4B10B503600A4BFA224360002398
:1021400092008360036143618033C260836102F067
:1021500049F9002801D0FFF7D9FD10BD4405002042
:10216000004401407FBB00001FB50368284A93422A
:1021700013D18020274A000191690143916193693D
:102180000022034000930D201100009B00F0BCFDD5
:102190000D2000F0F3FD05B000BD1F4A93420FD1A2
:1021A00002201C4AD1690143D161D3690022034056
:1021B00001930E301100019B00F0A6FD1020E8E70E
:1021C000164A934210D18020124A4000D16901433F
:1021D000D161D369002203400293ED381100029BC4
:1021E00000F092FD1320D4E70D4A9342D3D1802012
:1021F000084A80029169014391619369002203407A
:10220000039315201100039B00F07EFD1520C0E70D
:10221000002C01400010024000040040002000405B
:102220000044014030B5040089B01422002103A805
:1022300003F015FB2368274A93422FD18020264BB9
:10224000C0025969022401435961802103255A695A
:10225000890202400092009A5A6920480A435A6152
:102260005B6903940B40019303A9019B04940695B9
:10227000079401F025F880239020DB0003930023CE
:10228000C00503A9049405930695079401F018F876
:102290008020000401F068F909B030BD104A934273
:1022A000FAD180200C4A800251690143516153697F
:1022B00003A903400293029BC02390200393BE3BDB
:1022C000049301330693C005023B079300F0F8FF27
:1022D000E2E7C046002C0140001002400004004824
:1022E0000004004030B595B01022002102A803F090
:1022F000B6FA08220021684603F0B1FA1C22002138
:1023000006A803F0ACFA1C2200210DA803F0A7FADE
:102310002E4C2F4BFA222360F0239B006360002396
:102320009200A3602361636120008033E260A361B7
:1023300002F058F8002801D0FFF7E8FC802302A93A
:102340005B012000029302F077FB002801D0FFF729
:10235000DDFC200002F0A8F8002801D0FFF7D6FC31
:102360000025694620000095019502F069FDA8420C
:1023700001D0FFF7CBFCFA235B0007930822F43B64
:1023800006A920000695089509950A950B930C93CC
:1023900002F0BCF9002801D0FFF7B8FC5F221092D0
:1023A0008022002392010DA920000D930E930F931C
:1023B00011931292139302F08FFD002801D0FFF7C2
:1023C000A5FC2000FFF72EFF15B030BDC40400208F
:1023D000002C014010B58EB01022002103A803F09C
:1023E0003EFA0822002101A803F039FA1C2200213C
:1023F00007A803F034FA264C264BFA222360012367
:10240000636000239200A360236120008033E260B8
:10241000A36101F0E7FF002801D0FFF777FC8023DC
:1024200003A95B012000039302F006FB002801D002
:10243000FFF76CFC200002F09DF8002801D0FFF7A8
:1024400065FC002301A920000193029302F0F8FC2F
:10245000002801D0FFF75AFC0022602307A92000C2
:102460000793089209920B9202F0F8F9002801D024
:10247000FFF74CFC042207A9200002F0EFF9002826
:1024800001D0FFF743FC2000FFF7CCFE0EB010BDDB
:1024900084040020000400400B480C4B10B503607E
:1024A000E1235B0243600C22002342618360C3602E
:1024B00003618361C3610362436203F01DF8002876
:1024C00001D0FFF723FC10BD0C06002000380140AE
:1024D00030B5050089B01422002103A803F0BFF92C
:1024E0002F4B2A689A4259D180202E4BC0019969FE
:1024F0000143996180219A69890202400192019AFF
:102500005A6990200A435A615B69C0050B400293E7
:10251000029B82231B02039302230493013306933D
:1025200003A9023B079300F0CBFE1F4C1F4B8022F8
:102530002360002320006360A360E2602361636185
:10254000A361E36100F0A2FC002801D0FFF7DEFBED
:10255000174B6C666562174C802223601023636002
:1025600000232000A360E26023616361A361E36153
:1025700000F08CFC002801D0FFF7C8FB80230E4A36
:102580009B0011681B200B43136000222C66110076
:10259000656200F0B9FB1B2000F0F0FB09B030BD14
:1025A0000038014000100240C80500203000024001
:1025B00044000240840500200000014010B50400E2
:1025C00001F0F4FBFA218900FDF7A8FD00F0E8FB1B
:1025D000012000222100404200F096FB002010BDA7
:1025E0001023064A10B5116800200B431360FFF753
:1025F000E5FFFFF78DFB002010BDC0460020024024
:10260000024A1368013313607047C0467C060020FD
:10261000014B18687047C0467C06002037B5019012
:10262000FFF7F6FF019C0500631C5A1E9341E41856
:10263000FFF7EEFF401BA042FAD337BD002373B56E
:1026400003210193036804009A680A40012A07D114
:102650001968114201D0002076BDDA681204FAD45C
:102660009968194A114208D010230120626C134363
:102670006364A36C0343A364EEE7012299680A43F1
:102680009A60124B12491868FDF748FD0190019BB2
:10269000002B15D1FFF7BCFF0125060023681B683E
:1026A0002B42D8D1FFF7B4FF801B0228F6D91023A4
:1026B000626C012013436364A36C2B43A364CBE7D8
:1026C000019B013B0193E2E71700008034020020E8
:1026D00040420F00F8B504000120002C00D1F6E0C4
:1026E0008F4B22689A4204D074218E48FF31FFF745
:1026F0000EFB63688C4A134208D080221206934274
:1027000004D0BA2187484900FFF701FB1823A268CB
:102710009A4304D076218348FF31FFF7F8FA20234B
:10272000E2689A4304D0BB217E484900FFF7EFFAE4
:102730002369013B012B04D978217A48FF31FFF747
:10274000E6FA236A012B04D9BC2176484900FFF739
:10275000DEFA636A012B04D97A217248FF31FFF750
:10276000D6FA724BE26A1A4204D0BD216D48490084
:10277000FFF7CDFAA36A4022190091430AD0C02B7B
:1027800008D0C222FF32934204D07C216548FF3139
:10279000FFF7BDFA236B012B04D9BE216148490024
:1027A000FFF7B5FA04226369043B934304D07E210A
:1027B0005C48FF31FFF7ABFA636B012B04D9BF21F3
:1027C00058484900FFF7A3FAA369012B04D98021D7
:1027D0005448FF31FFF79BFAE369012B04D9C0216C
:1027E00050484900FFF793FA636C002B06D1220092
:1027F0004032A36420001370FEF784FB636CDB0699
:1028000000D579E0042223689868104000D073E076
:10281000626C4749114002220A43032162649A68AC
:102820000A40012A00D06DE01968114202D1DA682D
:10283000120467D5DA683F49256A0A40DA60A2695E
:102840006F039103E269D2031143626B013A561E92
:10285000B2411603E268114322690F43022A00D1F4
:102860000420226B616A52003A4332430243012939
:1028700004D1002D2CD1802149020A43C220A16A33
:10288000FF30814202D0E06A01430A438020D968C8
:1028900040051143D960A16B814202D0481E062831
:1028A00007D8072558692940A8435861586901434A
:1028B0005961DB6820490B409A4211D10020032264
:1028C000A064636C93431A00012313436364F8BD4F
:1028D0002020656C28436064A06C0143A164CDE7AF
:1028E0001222636C012093431A0010231343636484
:1028F000A36C0343A364EAE71023626C0120134333
:102900006364E4E71821DA688A43A1680A43DA605D
:102910001969626889008908114319618AE7C0460C
:102920000024014069620008FFFFFFBFFFF3FFFFC3
:10293000FDFEFFFF1902FEFFE7FF3F83F7B5244BC3
:102940000192026804000F009A4203D021492248F4
:10295000FFF7DDF9236802209B685B0730D426006F
:1029600040363378012B2BD001233370E369012BE0
:1029700027D1636C194A00251A4080235B0013435A
:102980006364E06B164BA56435708362154B216858
:10299000C362154B03631C230B604A680C3B134353
:1029A0004B600123CA681343CB603A004031019B5E
:1029B00000F00EFB04232800226891680B4393600B
:1029C000FEBD2000FFF73AFE0028F9D1D1E7C0464E
:1029D00000240140BC04000069620008FEF0FFFF13
:1029E000F1290008632A0008712A000870470000D6
:1029F0005022436A10B5596C11422AD1596CB13238
:102A0000FF320A43C0215A641A680901D06808429B
:102A100012D1196A00290FD1116809070CD59168E4
:102A200049070DD40C205168814351605A6C0B4901
:102A3000114001220A435A641800FFF7D7FF10BD66
:102A40002022596C0A435A640122996C0A439A6401
:102A5000F2E7DB6B1B6B9847F1E7C046FEFEFFFF1A
:102A6000704710B5406AFFF7FBFF10BD7047704715
:102A70004023406A10B5426C134343640423826CC4
:102A800013438364FFF7F3FF10BD0000424B02685D
:102A900070B504009A4203D040494148FFF737F926
:102AA000236A012B03D93F493D48FFF730F904223F
:102AB0006369043B934304D0AF213948C900FFF751
:102AC00026F9042223681968114202D0596811427C
:102AD00006D108221968114228D05968114225D020
:102AE000626CD20604D48022616C92000A43626454
:102AF000C022D9681201114212D1226A002A0FD1D4
:102B00001A6812070CD59A6852073CD40C215A68EF
:102B10008A435A60636C244A1A4001231343636456
:102B20002000FFF763FF0C2223681A6080252368CA
:102B30001A682A420CD05B682B4209D08023626C51
:102B40005B02134363642000FFF790FF23681D605E
:102B5000102223681968114214D05968114211D00B
:102B6000626B012A02D0DA68D20708D50222A16C72
:102B700020000A43A26410221A60FFF778FF102297
:102B800023681A6070BD2023626C134363640123C1
:102B9000A26C1343A364C3E7002401407605000040
:102BA0006962000877050000FEFEFFFF0023F7B50D
:102BB00002680193474B04000D009A4203D0464936
:102BC0004648FFF7A4F82B68112B03D94449434822
:102BD000FFF79DF86B68434A9B18012B03D94249C4
:102BE0003E48FFF794F88022A36B520593420CD025
:102BF000013B062B09D9AB68934206D0013B062B5B
:102C000003D93A493548FFF782F826004036337831
:102C10000220012B2AD0236801389A6830705207AD
:102C200052D433496F682A688F423BD09040996AEA
:102C3000084398628020A16B400581420FD0013982
:102C400006290CD907205C69A9680440A14206D076
:102C50005C69014084435C615C69214359611300F4
:102C6000103B012B03D9002000233370FEBD214B04
:102C700080211868102A13D0C90301431960102A53
:102C8000F1D11D4B1D491868FDF748FA0A23584336
:102C90000190019B002BE6D0019B013B0193F8E7DB
:102CA0000904EAE79040996A814399621300103B56
:102CB000012BD8D80F4B1968102A03D0104A0A40AC
:102CC0001A60D0E70F4AFAE72023626C134363646B
:102CD000CAE7C046002401405106000069620008AE
:102CE0005206000000F0FFFF5306000057060000E8
:102CF00001100000082701403402002040420F006C
:102D0000FFFFBFFFFFFF7FFF70B504000D00032929
:102D100003D99B211648FEF7FAFFA901002C14DA0B
:102D20000F23E4B22340083B124A9B089B009B18E8
:102D3000032214409440FC3215000A40A540A240F2
:102D4000D869A8430243DA6170BD0325A3082C406B
:102D5000AC40FC352E00084A9B009B18C022A640C0
:102D60002940A14092009858B04301439950EBE7A5
:102D7000A162000800ED00E000E100E010B5041ED3
:102D800003DAAB210448FEF7C2FF1F231C401E3BA1
:102D9000A340024A136010BDA162000800E100E0F8
:102DA000094A431E012093420DD8C021074A084812
:102DB0005360036A09061B021B0A0B4303620020CF
:102DC0000723906013607047FFFFFF0010E000E0F2
:102DD00000ED00E070B5041E02D10125280070BD91
:102DE000274B02689A4203D080212648FEF78FFFC6
:102DF000637FDBB2002B03D123772000FEF7F4F8CA
:102E000002232000637700F03FF8051EE5D16379C7
:102E1000012B03D999211B48FEF779FF62792368BA
:102E2000002A2AD1013A1A61602362699A4303D0C9
:102E3000A5211448FEF76BFF6021226893688B433D
:102E400061690B4393608023A2699A4303D0A9214F
:102E50000C48FEF75CFF8021226893688B43A169D0
:102E60000B439360236A013B022B03D9AE21054833
:102E7000FEF74DFF01236377B0E72269D3E7C04631
:102E800000300240DC6200080020704770B504008A
:102E90000120002C00D181E02368414A93420FD0E9
:102EA000404A93420CD0404A934209D03F4A934251
:102EB00006D03F4A934203D0A5213E48FEF727FFA4
:102EC000636810221900914307D08022D2019342F7
:102ED00003D0A6213748FEF71AFF4023A2689A4381
:102EE00003D0A7213348FEF712FF8023E2689A43FC
:102EF00003D0A8212F48FEF70AFF23692E4A134268
:102F000007D080229200934203D0A9212948FEF7DE
:102F1000FEFE6369294A134207D0802212019342C0
:102F200003D0AA212348FEF7F2FE2023A2699A4388
:102F300003D0AB211F48FEF7EAFE214BE2691A429B
:102F400003D0AC211B48FEF7E2FE02232068A51C3B
:102F5000EB7702681B4BA1681A4063680B43E1687A
:102F60000B4321690B4361690B43A1690B43E16981
:102F70000B4313430360144B1421C018FDF7CEF824
:102F8000124B80002064E36300200123A062E06212
:102F900020636063A063E418EB77E07770BDC04600
:102FA000080002401C000240300002404400024081
:102FB0005800024014630008FFFEFFFFFFFBFFFF05
:102FC000FFCFFFFF0FC0FFFFF8FFFDBF0000024073
:102FD000F8B515001F005A1E214B04000E009A423E
:102FE00004D9AF211F484900FEF791FE631CDA7F28
:102FF0000220012A26D00122DA7722189446D27FB5
:103000000021D2B2012A28D16346D8772368A16370
:103010001968206C914382401960E16B4A606268D4
:103020005F602168102A0ED19D60DE60E26A186838
:10303000002A0BD00E2202431A60012300200A68E6
:1030400013430B60F8BD9E60DD60EFE70A22024388
:1030500004201A601A688243EEE7D977F2E7C04687
:10306000FEFF00001463000870B5841CE37F022B90
:1030700004D004238363033B180070BD0E21036852
:10308000056C1A688A431A60012219689143196015
:103090001100A940C36B5960E27700248318426B8A
:1030A000DC771300A242E7D090472300E4E7F8B5AD
:1030B00004273E00016CC26B8E40156803681C68D3
:1030C0002E420DD03C420BD01968890602D41968F3
:1030D000B9431960C36A5660002B19D0984717E0AE
:1030E00002273E008E402E4213D03C4211D0196878
:1030F000890606D40A241968A14319600121C3195D
:10310000D97756600022431CDA77836A9342E5D16F
:10311000F8BD082637008F403D42F9D03442F7D041
:103120000E251C68AC431C6001231C008C405460BD
:10313000821C8363D3770022C318DA77036BE5E739
:1031400010210C4B30B5D8680022084205D00A483F
:103150000232C4692243C2610A000420D9680142D4
:1031600005D00121044C0243E5692943E161DA609D
:1031700030BDC046002002408006002070477047E6
:10318000F8B5434D434CEB68DB0602D4EB685B07B4
:103190000AD50123A6685B42A360FFF7D1FF300088
:1031A000FFF7EDFF002323702023EA681A421AD0AC
:1031B000EB602378002B16D02378012B28D163688D
:1031C000013B63606368002B1BD0A068FFF7D6FF4C
:1031D00080230222A068DB00C018A0602B69934303
:1031E0002B6100F05BF82378DBB2002B08D10721BC
:1031F0002A698A432A612A6927490A402A61237673
:10320000F8BD01204042A0602370FFF7B7FFEAE756
:103210002378022B09D104222B69002093432B61D0
:10322000FFF7ACFF00232370DDE76368013B6360B9
:103230006368002B19D0A3680233A360A6682069D5
:1032400061690B0C0F040121020C3A432261636196
:103250002B698B432B61226963690023E3612B692E
:1032600092B2194329613280BDE72378032B06D13E
:10327000A068FFF783FF01235B42A360D2E72378B6
:10328000A068042B01D10238F3E70638F1E7C04605
:103290000020024080060020FFEBFFFF0022064BCB
:1032A000DA61064B023219690A431A6140225861F9
:1032B00019690A431A617047800600200020024005
:1032C0009023F0B5DB0587B004000D0098420FD0C5
:1032D0007B4B98420CD07B4B984209D07A4B98425A
:1032E00006D07A4B984203D0C1217948FEF70FFDF2
:1032F0002B689AB2002A01D01B0C03D0C22174485B
:10330000FEF705FD6B68032B12D91A00113A012A4A
:103310000ED9704A70491A40521870490A4207D0B3
:103320006F4A9B180B4203D0C3216948FEF7EFFC9C
:10333000AB68022B03D9C4216548FEF7E8FC0023E3
:1033400001932B6801991A00CA4001D107B0F0BD62
:10335000012201998A4003921A40029200D1ABE007
:1033600010226B689343022B22D19023DB059C42F1
:1033700006D0534B9C4203D0D3215548FEF7C7FCDF
:103380002B69062B03D9D4215148FEF7C0FC072234
:103390000198019B02400F2092009040DB089B00A7
:1033A000E318196A81432869904002000A431A62AF
:1033B000019B6A685F0003231E00BE401340F64372
:1033C000BB40216831400B43236010239A43013AEC
:1033D000012A19D8EB68012B05D9032B03D0E8216A
:1033E0003B48FEF794FCEB680121BB40A2683240E9
:1033F0001343A3606268039B9A436B681B090B40ED
:1034000001998B4013436360E36869683340AE6899
:10341000BE401E43E660CB004ED5012003260F2799
:10342000304B9A6902439A619B6903400198059366
:10343000304080008740059B019B9A082A4B9200F0
:10344000D2189368BB4390279C46FF050023BC42DB
:103450000CD01B4F0133BC4208D01A4F0133BC4281
:1034600004D0194F9B19BC4200D133008340604601
:10347000034393601D4A029B1668D8433343CF032E
:1034800001D43300034013605668029B33438F031B
:1034900001D43300034053609668029B3343CF024C
:1034A00001D4330003409360D668029B3343890202
:1034B00001D433000340D360019B013340E7C04691
:1034C0000004004800080048000C004800140048B0
:1034D0004C630008FFFFDFFF0000EFEFFFFFFEFF80
:1034E0000000DFEF00100240000001400004014036
:1034F00070B505000C1E04D18E210548FF31FEF782
:1035000006FC28692040431E9841C0B270BDC046E9
:103510004C63000870B505000C001600002904D1AA
:10352000D62108484900FEF7F2FB012E06D9AE214C
:103530000448FF31FEF7EBFBAC6170BD002EFBD100
:10354000AC62FAE74C63000870B505000C1E04D1AC
:10355000E12104484900FEF7DAFB6B695C406C61CD
:1035600070BDC0464C6300080200114B13B51A40F1
:1035700004009A4208D0DF231B04184209D102003C
:103580000C4B1A409A4204D094210B484900FEF794
:10359000BEFB0120094A916901439161936903408F
:1035A0000193019B064B1A6814431C6013BDC0466F
:1035B0000000AAAA0002AAAA85630008001002401F
:1035C0000000014070B504000120002C32D01F4BD8
:1035D00022689A4203D0B5211D48FEF798FB636824
:1035E000062B03D9B6211A48FEF791FB194DA368A3
:1035F000AB4203D9B7211648FEF789FBE368AB421B
:1036000003D9B8211248FEF782FB2368124A1A60D8
:10361000124A1A6062685A60A2689A60FEF7F8FF60
:1036200005002368D868002805D11969E26891422D
:1036300008D01A6170BDFEF7EBFF401B2728F0D9B8
:103640000320F7E7064A1A60F4E7C046003000405E
:10365000C0630008FF0F0000CCCC000055550000EF
:10366000AAAA00000368024A00201A607047C046F8
:10367000AAAA0000F0B5040085B0002804D1892171
:10368000B8484900FEF743FB2368002B06D0DB0651
:1036900004D11421B348FF31FEF739FB2368DB075F
:1036A00048D423689B0700D5A5E023681B0700D5F5
:1036B000F0E023685B0700D51BE12368DB062BD510
:1036C0006369012B06D9053304D08021A548890000
:1036D000FEF71DFBA3691F2B03D9A349A148FEF7E1
:1036E00016FB6269A14D0423012A00D08DE1696BAC
:1036F00002260B436B636B6B1A436A63FEF788FF0A
:1037000007006B6B334200D178E1F8216A6BA36943
:103710008A43DB0013436B63236A022B04D99D2188
:1037200090488900FEF7F3FA226A002A00D087E168
:1037300000201DE06368012B06D9052B04D01A2157
:103740008848FF31FEF7E3FA0C21884D6A680A4089
:10375000042A06D06B680B40082B0BD16B68DB0387
:1037600008D52B689B039CD56368002B99D1012059
:1037700005B0F0BD6368012B14D180232A685B0279
:1037800013432B60FEF744FF80260700B6022B6828
:10379000334200D085E7FEF73BFFC01B6428F6D913
:1037A0000320E5E7002B16D12B68714A80261340D1
:1037B0002B602B686F4AB60213402B60FEF728FF80
:1037C00007002B68334200D16BE7FEF721FFC01BD7
:1037D0006428F6D9E4E7052B05D180232A68DB02AB
:1037E00013432B60C9E72B68614A13402B602B6899
:1037F000604A1340C5E7E368012B04D94E215948BC
:10380000FF31FEF784FA23691F2B04D9A7215548FD
:103810004900FEF77CFA0C22544D6B68134206D027
:103820006B681340082B10D16B68DB030DD42B6839
:103830009B0702D5E368012B99D1F8212A682369F7
:103840008A43DB0013432B602FE7E2680123002A41
:103850000FD02A68022613432B60FEF7D9FE07001B
:103860002B683342E9D1FEF7D3FEC01B0228F7D9FB
:1038700096E72A6802269A432A60FEF7C9FE0700E7
:103880002B68334200D110E7FEF7C2FEC01B0228AE
:10389000F6D985E7E369012B04D9C72131484900EE
:1038A000FEF735FAE2690123304D002A10D06A6A2A
:1038B000022613436B62FEF7ABFE07006B6A3342CE
:1038C00000D0F6E6FEF7A4FEC01B0228F6D967E793
:1038D0006A6A02269A436A62FEF79AFE07006B6ADA
:1038E000334200D1E5E6FEF793FEC01B0228F6D96D
:1038F00056E7A368012B06D9052B04D0DD21194812
:103900004900FEF704FA80220021184D5205EB69A8
:103910000091134208D1EB691343EB61EB6913404B
:103920000393039B012300938027134E7F0033688A
:103930003B4206D0A368012B20D12A6A13432B6295
:103940003DE033683B433360FEF762FE019033682D
:103950003B42EFD1FEF75CFE019BC01A6428F6D90A
:103960001EE7C046F9630008010200000010024093
:10397000FFFFFEFFFFFFFBFF007000400122002B56
:1039800014D12B6A022793432B622B6A0332934391
:103990002B62FEF73DFE06002B6A3B4225D0FEF768
:1039A00037FE644B801B9842F6D9F9E6052B0BD104
:1039B000296A013B0B432B622B6A1A432A62FEF7EA
:1039C00027FE022706000DE02B6A934304222B6298
:1039D0002B6A9343B3E7FEF71BFE564B801B9842BE
:1039E00000D9DDE62B6A3B42F5D0009B012B00D0CD
:1039F00063E6EB69504A1340EB615EE6FEF708FEB2
:103A0000C01B022800D87CE6CAE6053203D16A6BE7
:103A10009A436A6379E66A6B0226134301226B6359
:103A20006B6B93436B63FEF7F3FD07006B6B3342E5
:103A300000D171E6FEF7ECFDC01B0228F6D9AFE617
:103A40000C213E4D01206B680B40082B00D18FE606
:103A50003B4E022A5BD13B4B626A1A4203D03A4981
:103A60003A48FEF754F9A26A39493A4B11401340DB
:103A700013D08020400383420FD0802080038342F4
:103A80000BD0C0239B03994207D0E0239B039A42AB
:103A900003D031492D48FEF73AF9E36A0F2B03D9D9
:103AA0002E492A48FEF733F92B681E402E60FEF798
:103AB000AFFD80260700B6042B68334221D10F22C8
:103AC000EB6A9343E26A1343EB62616AA36A6A6832
:103AD0000B43234980240A4013436B6080232A68E8
:103AE0005B0413432B60FEF793FD0600A4042B68D0
:103AF000234200D01CE6FEF78BFD801B0228F6D97E
:103B00004EE6FEF785FDC01B0228D5D948E62B6896
:103B100080241E402E60FEF77BFD0600A4042B6867
:103B2000234200D104E6FEF773FD801B0228F6D97C
:103B300036E6C04688130000FFFFFFEF001002408A
:103B4000FFFFFFFEFFFFFEFF7D020000F96300089C
:103B5000FFFFFBFFFFFFF3FF7E0200007F0200007C
:103B6000FFFFC2FF70B5144C88B0102221006846D8
:103B700001F06CFE210004AD10221031280001F08C
:103B800065FE0C220D4E73681A40082A11D10F20D1
:103B90006A46990C0140545CF26A0240A95CDB035E
:103BA00005D50748FCF7BAFA604308B070BD054870
:103BB000FAE70348F9E7C046046100080010024034
:103BC00000127A0000093D00F7B504000F0000283C
:103BD00003D168496848FEF79AF823685B0703D168
:103BE00066496548FEF793F8012F04D9B72162486A
:103BF0008900FEF78CF80122614D2B6813409F422B
:103C00001FD823689B0726D42368DB0745D40123EC
:103C10002A681A40974200D28AE02368594D5B0710
:103C200000D58DE0FFF79EFF6B68574A1B061B0F00
:103C3000D35CD840554B18600020FEF7BFFC002035
:103C400008E02B6893433B432B602B6813409F4253
:103C5000D7D00120FEBDA36880221900914314D063
:103C600020221900914390290FD04022190091433E
:103C7000A0290AD0102219009143C02905D0F02BA9
:103C800003D043493C48FEF742F8F0213D4A5368CF
:103C90008B43A1680B435360B6E76368022B03D9DB
:103CA0003C493548FEF733F8364E62683368012ADE
:103CB0001AD19B03CDD5032173688B4313437360E3
:103CC000FEF7A6FC63680190012B15D10C227368E6
:103CD0001340042B9BD0FEF79BFC019BC01A2E4B7C
:103CE0009842F3D90320B5E7022A02D19B01E2D41E
:103CF000AFE79B07DFD4ACE7022B13D00C2273682D
:103D0000134200D183E7FEF783FC019BC01A224BCC
:103D10009842F3D9E6E7FEF77BFC019BC01A1E4BE5
:103D20009842DFD80C2273681340082BF3D16EE75A
:103D30002A689A432A602A681A4200D089E76CE709
:103D4000E368164A13420DD0A021154AC9001A4053
:103D50008A4207D0C022D200934203D011490648BC
:103D6000FDF7D5FF6B68104A1340E26813436B60A0
:103D700058E7C046DA020000F9630008DB020000E1
:103D8000002002400010024051620008340200206E
:103D9000F3020000FA02000088130000FFFBFFFF9F
:103DA000FFFDFFFF63030000FFF8FFFF014B1868F2
:103DB0007047C04634020020044B054A5B685B052F
:103DC0005B0FD35C034A1068D84070470010024074
:103DD0006162000834020020F0B54C4B026885B0E7
:103DE00005009A4203D97E214948FDF790FF2B68D0
:103DF000DB0330D56B68474A134203D08421444823
:103E0000FDF785FF80220021434C5205E3690091B4
:103E1000134208D1E3691343E361E3691340039359
:103E2000039B0123009380273C4E7F0033683B4275
:103E300038D0C022236A9200134045D1236A354A04
:103E400013406A6813432362009B012B03D1E3698B
:103E5000334A1340E3612B68DB070DD5AB68032BB6
:103E600003D9CB212A48FDF752FF03212A4A136BBD
:103E70008B43A9680B4313632B6800209B0621D555
:103E80001023EA689A43824203D0EF212048FDF7CD
:103E90003EFF1021204A0020136B8B43E9680B433F
:103EA00013630FE033683B433360FEF7B1FB0190CF
:103EB00033683B42BDD1FEF7ABFB019BC01A6428BF
:103EC000F6D9032005B0F0BD69680A409342B5D029
:103ED0008023226A206A5B0203432362236A0D491E
:103EE00010481140034023622162D307A6D5FEF794
:103EF0008FFB02270600236A3B429FD1FEF788FB17
:103F0000094B801B9842F6D9DBE7C046210001002F
:103F100031640008FFFCFFFF001002400070004009
:103F2000FFFFFFEFFFFFFEFF88130000F7B5012240
:103F3000036A040093430362056A47688369723227
:103F400093430A680E001A4302239D438B68019233
:103F50001D431E4B984205D01D4B984202D01D4B6D
:103F600098422CD10823F2689A4303D01A491B487F
:103F7000FDF7CDFE08239D43F3681D4304239D43B5
:103F8000124B9C4205D0124B9C4202D0114B9C42DA
:103F900015D1134BB2691A4203D012490F48FDF7ED
:103FA000B6FE114B72691A4203D010490B48FDF757
:103FB000AEFE0F4BB2691F40736913431F43019B51
:103FC0006760A361736863632562F7BD002C0140DD
:103FD0000044014000480140901200006C64000859
:103FE000FFFDFFFF9D120000FFFEFFFF9E1200007D
:103FF000FFFCFFFFF0B50F007321036A254A85B06F
:1040000013400362046A4668C36905008B4339683C
:10401000029219430191BB681F491B020C401C43CB
:104020001E4B0391984226D10823FA689A4303D085
:104030001B491C48FDF76BFE1B4BFA68234014021A
:104040001C431A4B1C40BB69039A134203D0184906
:104050001448FDF75CFE7B69029A134203D01549B0
:104060001048FDF754FE144B7A693340BE6916437D
:1040700036011E4305E0114B9842E4D0104B9D429F
:10408000E1D0019B6E60EB617B68EB632C6205B055
:10409000F0BDC046FFFEFFFFFFFDFFFF002C01400B
:1040A000251300006C640008FFF7FFFFFFFBFFFF14
:1040B0003213000033130000FFCFFFFF0044014024
:1040C00000480140F7B5036A174A04001340036231
:1040D000036A164A4568C7690E0017400A6812024B
:1040E0001743134A13408A6812031A43114B019273
:1040F000984205D0104B984202D0104B98420CD1F8
:104100000F4B72691A4203D00E490F48FDF7FFFDAD
:104110000E4B1D4073699B011D4373686560E76129
:104120002364019B2362F7BDFFEFFFFFFF8CFFFFBE
:10413000FFDFFFFF002C0140004401400048014028
:10414000FFFEFFFF701300006C640008FFBFFFFF5D
:104150000368114A10B50400934210D00F4A9342ED
:104160000DD00F4A93420AD00E4A934207D00E4A0E
:10417000934204D098210D484900FDF7C8FD220064
:104180000223012120683D32137003680B43036052
:104190000020117010BDC046002C014000040040FA
:1041A0000020004000440140004801406C640008C9
:1041B0000368104A10B50400934210D00E4A93428F
:1041C0000DD00E4A93420AD00D4A934207D00D4AB1
:1041D000934204D0AF210C484900FDF798FD01221D
:1041E00023680020D9681143D96019680A431A600E
:1041F00010BDC046002C01400004004000200040DB
:1042000000440140004801406C640008704770475A
:10421000704770477047704770470222036810B5B7
:104220001969040011420ED0D96811420BD0053A29
:104230001A619B69043202779B0700D179E0FFF78E
:10424000E9FF00232377042223681969114210D063
:10425000D96811420DD0093A1A61073222779A695A
:10426000C0239B0020001A4269D0FFF7D3FF002330
:10427000237708222368196911420ED0D9681142A8
:104280000BD0113A1A61DB690D32227720009B07AF
:104290005BD0FFF7BFFF0023237710222368196943
:1042A000114210D0D96811420DD0213A1A61193249
:1042B0002277DA69C0239B0020001A424BD0FFF717
:1042C000A9FF00232377012223681969114207D02F
:1042D000D968114204D0033A1A612000FFF798FF11
:1042E000802223681969114208D0D968114205D08B
:1042F000023AFF3A1A61200000F087FE402223684C
:104300001969114207D0D968114204D0813A1A6163
:104310002000FFF781FF202223681969114207D08E
:10432000D968114204D0413A1A61200000F06CFEB5
:1043300010BDFFF76EFF2000FFF76DFF81E7FFF76D
:1043400068FF2000FFF767FF91E7FFF762FF20009B
:10435000FFF761FF9FE7FFF75CFF2000FFF75BFFC0
:10436000AFE70000194A10B50368904202D0184C1C
:10437000A04208D17024A3434C68234390420BD041
:10438000134CA04208D0134CA04205D0124CA042BE
:1043900002D0124CA04203D1114C2340CC682343DD
:1043A0008024A3434C69234303608B68C3620B687A
:1043B0008362904205D0084B984202D0074B984246
:1043C00001D10B6903630123436110BD002C01403F
:1043D000000400400020004000440140004801402B
:1043E000FFFCFFFF70B504000120002C4CD02368B7
:1043F000264A93420FD0264A93420CD0254A934234
:1044000009D0254A934206D0244A934203D0D421AE
:104410002348FDF77CFCA3681022190091430AD0C1
:10442000402219009143202905D0402B03D0D521EB
:104430001B48FDF76CFC23691A4A134207D08022FF
:104440009200934203D0D6211548FDF760FC8023EB
:10445000A2699A4303D0D7211148FDF758FC2500E3
:104460003D352B78DBB2002B05D122003C32137096
:104470002000FDF779FE022320682B70211DFFF735
:1044800071FF012300202B7070BDC046002C01403D
:10449000000400400020004000440140004801406A
:1044A0006C640008FFFEFFFF70B504000120002CC3
:1044B00050D02368284A934210D0284A93420DD006
:1044C000274A93420AD0274A934207D0264A93426A
:1044D00004D0F52125484900FDF719FCA3681022F6
:1044E000190091430BD0402219009143202906D096
:1044F000402B04D0EC211D48FF31FDF708FC236957
:104500001B4A134208D080229200934204D0F62125
:1045100016484900FDF7FBFB8023A2699A4304D0AB
:10452000EE211248FF31FDF7F2FB25003D352B78D7
:10453000DBB2002B05D122003C3213702000FFF7C4
:1045400065FE022320682B70211DFFF70BFF01235E
:1045500000202B7070BDC046002C014000040040BC
:104560000020004000440140004801406C64000805
:10457000FFFEFFFF70B504000120002C4DD0236822
:10458000264A93420FD0264A93420CD0254A9342A2
:1045900009D0254A934206D0244A934203D02449A5
:1045A0002448FDF7B4FBA3681022190091430AD0F8
:1045B000402219009143202905D0402B03D01E49E9
:1045C0001C48FDF7A4FB23691C4A134207D0802234
:1045D0009200934203D01A491648FDF798FB8023B6
:1045E000A2699A4304D0FA2112488900FDF78FFB93
:1045F00025003D352B78DBB2002B05D122003C3263
:1046000013702000FFF703FE022320682B70211D8A
:10461000FFF7A8FE012300202B7070BD002C014085
:1046200000040040002000400044014000480140D8
:10463000E50300006C640008E6030000FFFEFFFFD6
:10464000E7030000F7B51022036A040093430362F6
:10465000066A234A456883690F0013400A681202FC
:104660001A4320239E438B6801921B011E431D4B5E
:10467000984227D10823CA689A4303D01A491B4895
:10468000FDF745FB80239E433300FA6816011E4365
:1046900040239E43164BBA691A4203D0154913486A
:1046A000FDF735FB144B7A691A4203D013490F48C2
:1046B000FDF72DFB124B7A692B40BD691543AD0008
:1046C0001D4305E00F4B9842E4D00F4B9C42E1D0D4
:1046D000019B6560A3617B68A3632662F7BDC0464A
:1046E000FF8CFFFF002C0140DA1200006C64000810
:1046F000FFFDFFFFE8120000FFFEFFFFE9120000D0
:10470000FFF3FFFF0044014000480140F7B50400FB
:104710000D001600182A03D8424BD340DB0703D400
:1047200041494248FDF7F3FA2B68102219009143E2
:104730000A0030218B4305D0402A03D03C493B4836
:10474000FDF7E5FA0223AA689A4303D039493748AE
:10475000FDF7DDFA270002233C373A781800012ADA
:104760002ED001223A7022003D32019213700C2E9D
:1047700021D83000FBF7C8FC071F1F1F251F1F1F74
:10478000351F1F1F450023682B4A93420FD02B4A29
:1047900093420CD02A4A934209D02A4A934206D027
:1047A000294A934203D029492048FDF7B0FA29004D
:1047B0002068FFF7BBFB01230020019A13703870BB
:1047C000FEBD23681C4A934206D01C4A934203D084
:1047D0001F491648FDF79BFA29002068FFF732FFB2
:1047E000E9E72368144A934206D0144A934203D05F
:1047F00018490E48FDF78BFA29002068FFF7FAFBED
:10480000D9E723680C4A934206D00C4A934203D05E
:1048100011490648FDF77BFA29002068FFF752FC92
:10482000C9E7C04611110001770B00006C64000855
:10483000780B0000790B0000002C014000040040C0
:10484000002000400044014000480140840B00006B
:104850008C0B0000940B00009C0B0000F7B50700C8
:104860003C373B7804000D0016000220012B61D07C
:1048700001233B70182A03D85A4AF240934303D0CD
:1048800059495A48FDF743FA10232A689A43602A87
:1048900003D057495548FDF73AFA0223AA689A43CC
:1048A00004D0C22151480901FDF731FA04232A69D5
:1048B0009A4303D04F494D48FDF729FA23003D3371
:1048C00001930223019A13700C2E2ED83000FBF7AF
:1048D0001BFC072C2C2C322C2C2C4F2C2C2C6C0041
:1048E0002368454A93420FD0444A93420CD0444A2D
:1048F000934209D0434A934206D0434A934203D09D
:1049000042493A48FDF703FA29002068FFF70EFBF9
:104910000822236899690A4304219A619A698A43A3
:104920009A619A6929690A439A6101230020019AD0
:1049300013703870FEBD23682F4A934206D02F4A69
:10494000934203D032492948FDF7E1F92900206854
:10495000FFF778FE80222368120199690A439A6161
:104960009A692C490A409A612A6999691202DAE720
:104970002368214A934206D0204A934203D0264915
:104980001A48FDF7C4F929002068FFF733FB082215
:104990002368D9690A430421DA61DA698A43DA6152
:1049A000DA6929690A43DA61BFE72368124A934248
:1049B00006D0124A934203D018490C48FDF7A7F9D4
:1049C00029002068FFF77EFB802223681201D96945
:1049D0000A43DA61DA690F490A40DA612A69D9695A
:1049E0001202DFE7111100011E0C00006C640008C8
:1049F0001F0C0000210C0000002C014000040040AE
:104A0000002000400044014000480140290C000003
:104A1000380C0000FFFBFFFF470C0000560C0000A5
:104A200030B58468034D0A431B022C4013432343D3
:104A3000836030BDFF00FFFFF8B5060002233C365F
:104A4000327805000C001800012A28D02F0001221E
:104A50003D373270A04A3B700B6899189F4A11424B
:104A600008D03022934305D0402B03D09C499D4869
:104A7000FDF74DF92B689C499A680A409A602268B4
:104A8000402A00D15CE121D8102A00D1A3E107D847
:104A9000002A00D18CE1012300203B703070F8BD6A
:104AA000202A00D1A8E1302AF5D1904A934206D0BD
:104AB0008F4A934203D08F498A48FDF728F9702224
:104AC00029688B6893431A00372381E1702A00D14B
:104AD00093E03DD8502A00D1C2E0602ADBD1834A5E
:104AE000934206D0824A934203D083497D48FDF722
:104AF0000EF9802263681202934209D00222190043
:104B0000914305D00A2B03D07C497648FDF7FFF886
:104B1000E3680F2B03D97A497248FDF7F8F8626809
:104B2000E16810242B68774D186A0903A0431862C6
:104B30009C69186A2C402143A02499617021A043EC
:104B4000120102431A629A688A4311006722BFE089
:104B5000802149018A4237D0802189018A429AD135
:104B6000624A934206D0624A934203D066495D4846
:104B7000FDF7CDF8654BA2681A4203D06449594845
:104B8000FDF7C5F880226368120293420AD0022220
:104B90001900914306D00A2B04D0FF215148090186
:104BA000FDF7B5F8E3680F2B03D95A494D48FDF7D7
:104BB000AEF8E3686268A1682868FFF731FF8023D8
:104BC0002A68DB01916849E0484A93420FD0484A7D
:104BD00093420CD0504A934209D0504A934206D097
:104BE0004F4A934203D04F493E48FDF790F80721C2
:104BF0002A6893688B4393604DE73C4A934206D002
:104C00003B4A934203D048493648FDF780F83F4B72
:104C1000A2681A4203D045493248FDF778F880224D
:104C200063681202934209D002221900914305D011
:104C30000A2B03D03E492B48FDF769F8E3680F2B98
:104C400003D93C492748FDF762F8E3686268A16828
:104C50002868FFF7E5FE77212A6893680B43CAE7C7
:104C6000224A934207D0224A934204D080211D4811
:104C70004901FDF74CF8802263681202934209D083
:104C800002221900914305D00A2B03D02A49154866
:104C9000FDF73DF8E3680F2B03D928491148FDF7CC
:104CA00036F82B680125186A6168E2681C6A1201EF
:104CB000AC431C629C69EF35AC4322430A24A043F9
:104CC00001439A61196270219A688A431100572240
:104CD0000A439A60DFE6C04600F0FFFFFFEFFFFFE8
:104CE000BD0F00006C6400088800FFFF002C01402D
:104CF00000040040451000000F10000012100000DA
:104D000013100000FF0FFFFFEC0F0000FFCFFFFFAD
:104D1000EF0F0000F10F00000020004000440140B0
:104D200000480140C90F0000D20F0000D50F00005D
:104D3000D60F0000D70F0000031000000410000081
:104D4000364A934206D0364A934203D03549364814
:104D5000FCF7DDFF802263681202934209D0022231
:104D60001900914305D00A2B03D030492E48FCF797
:104D7000CEFFE3680F2B03D92D492B48FCF7C7FF63
:104D80002B680125186A6168E2681C6A1201AC434D
:104D90001C629C69EF35AC4322430A24A0430143C3
:104DA0009A61196270219A688A43110047228FE73D
:104DB0001A4A934206D01A4A934203D01D491A4810
:104DC000FCF7A5FF702229688B6893431A0007231C
:104DD00013438B605FE6114A934206D0104A934218
:104DE00003D015491048FCF792FF702229688B68A0
:104DF00093431A001723EBE7084A934206D0084A68
:104E0000934203D00D490848FCF781FF70222968BE
:104E10008B6893431A002723DAE7C046002C014031
:104E2000000400401E1000006C6400082110000007
:104E3000221000002D100000351000003D10000071
:104E400003681F4A70B505000C00934206D01D4A46
:104E5000934203D01C491D48FCF759FF30232268B8
:104E60009A4305D0402A03D019491848FCF74FFF50
:104E7000802362689A4303D016491448FCF747FF21
:104E800029003C310B780220012B17D02E002B6813
:104E90003D3630705A686E3082435A605A682068D6
:104EA000024380205A609A6882439A609A686068D8
:104EB00002439A60002001233370087070BDC04621
:104EC000002C01400004004049060000A4640008D2
:104ED0004A0600004B060000F8B5394A0368050091
:104EE0000C0093420AD0374A934207D0364A934285
:104EF00004D0CE213548C900FCF709FF2368344AA5
:104F0000134203D033493148FCF701FF6368324A4A
:104F1000134203D031492D48FCF7F9FE304FA36806
:104F20003B4203D02F492948FCF7F1FEE368FF2BF1
:104F300003D92D492548FCF7EAFE23692B4A134281
:104F400003D02B492148FCF7E2FE6369294A13424A
:104F500003D029491D48FCF7DAFE284EA3693342E5
:104F600003D027491948FCF7D2FE2B003C331A78AE
:104F70000220012A22D02A00E1683D321070A06888
:104F80003940014314480140606801431048014022
:104F9000206801431548014020690143154801403C
:104FA000606901430E40A16916480E4306400E4356
:104FB000296800204E64012111701870F8BDC046A8
:104FC000002C01400044014000480140A464000856
:104FD000FFF7FFFF71060000FFFBFFFF72060000F6
:104FE000FFFCFFFF7306000074060000FFEFFFFFE9
:104FF00075060000FFDFFFFF76060000FFBFFFFF22
:1050000077060000FF7FFFFF70477047036806497F
:105010001A686A300A401A609A682331FF318A435D
:105020009A60202303707047DFFEFFFF1300020029
:1050300070B56932147805000220202C34D1013873
:10504000002931D0002B2FD08024AE686401A64205
:1050500004D12C69002C01D1014225D12E006836E3
:1050600034780220012C1FD00138307028005030D5
:10507000E9640024038043802120EC661070286ED0
:105080000A4A446382620A4AC2620A4A02632A687E
:105090002832FDF79DFF402220002B681A62996894
:1050A00092180A4334709A6070BDC046B950000827
:1050B000EB500008F95000082021036810B51B6868
:1050C000426A0B400CD1110052310B8080211368D1
:1050D0009A688A439A60402219680A431A6010BD90
:1050E0001000FCF775F9FAE7704710B5406AFFF752
:1050F000FBFF10BD7047704710B5446A210069314D
:105100000B78212B0DD123689A68120609D522004D
:105110000020523210801A68C03082431A60202367
:105120000B7023006A331B78222B0AD123689B68FB
:105130005B0606D5230000225A331A802000FFF7B1
:1051400065FF1023E26E20001343E366FFF7D3FFF1
:1051500010BD406A0023020010B55A321380083A8D
:105160001380FFF7C8FF10BD5E4B426870B50400A6
:105170009A4203D95C495D48FCF7C9FD5C4BA268C3
:105180001A4203D05B495948FCF7C1FD5A4BE2680B
:105190001A4203D059495548FCF7B9FD2369584ACA
:1051A000134207D0C022D200934203D055494F4842
:1051B000FCF7ADFD63690C221900914301D1002B6E
:1051C00003D151494948FCF7A2FD504BA2691A424C
:1051D00003D04F494548FCF79AFD4E4B226A1A42CC
:1051E00003D04D494148FCF792FD4C4BE2691A420D
:1051F00003D04B493D48FCF78AFD2069A368256828
:10520000034360692968E269034346481343014048
:105210000B432B606B684449206A0B40E1680B43E9
:105220006B60A369A9680343404801400B43032115
:10523000AB603F4B1B6B0B403E49C85C80231B029D
:105240009A422CD1082827D8FAF75EFF05260B26AC
:105250001E2626262100FEF7AFFD636840005B088E
:1052600002E063685808344BC0186168FAF756FFCB
:1052700083B200200F22190091430A001B07216806
:105280005B0F1343CB6070BDFEF76CFCE5E7636812
:10529000580880235B02E7E701200023EAE708289B
:1052A0001DD8FAF731FF051C0A1C141C1C1C170022
:1052B000FEF782FD61684B0802E061681F4B4808F9
:1052C000C018FAF72BFF80B2E8600020DBE7FEF79A
:1052D00049FCEFE7802361681B024808F0E70120E2
:1052E000D1E7C046808D5B0046080000E3640008FB
:1052F000FFEFFFFF47080000FFDFFFFF4808000047
:10530000FFFBFFFF490800004A080000FFFCFFFF09
:105310004B080000FFF7FFFF4C080000FF7FFFFF76
:105320004D080000F369FFFFFFCFFFFFFFF4FFFF11
:1053300000100240DF6400080024F40000127A002C
:10534000436A70B50400FF2B03D954495448FCF755
:10535000DEFC636ADB070DD5524DA36A2B4203D0F6
:1053600051494F48FCF7D3FC2268A16A53682B408F
:105370000B435360636A9B070DD54C4DE36A2B4288
:1053800003D04B494648FCF7C2FC2268E16A5368E7
:105390002B400B435360636A5B070DD5454D236B70
:1053A0002B4203D044493E48FCF7B1FC2268216BF4
:1053B00053682B400B435360636A1B070DD53F4D69
:1053C000636B2B4203D03E493548FCF7A0FC2268B2
:1053D000616B53682B400B435360636ADB060DD54A
:1053E000384DA36B2B4203D037492D48FCF78FFC77
:1053F0002268A16B93682B400B439360636A9B0602
:105400000DD5324DE36B2B4203D031492448FCF7D4
:105410007EFC2268E16B93682B400B439360636AC8
:105420005B0628D52B4B22689A4203D02A491C4898
:10543000FCF76DFC294D236C2B4203D028491848FA
:10544000FCF765FC2168226C4B682B4013434B60D2
:1054500080235B039A420ED1224B626C1A4203D026
:1054600021490F48FCF753FC2268204953680B4040
:10547000616C0B435360636A1B060DD51C4DA36C16
:105480002B4203D01B490648FCF741FC2268A16C63
:1054900053682B400B43536070BDC046A908000001
:1054A000E3640008FFFFFDFFAE080000FFFFFEFF02
:1054B000B5080000FFFFFBFFBC080000FF7FFFFFF7
:1054C000C3080000FFEFFFFFCA080000FFDFFFFF77
:1054D000D108000000380140D8080000FFFFEFFFAE
:1054E000D9080000FFFFDFFFDE080000FFFF9FFF7D
:1054F000FFFFF7FFE608000070B5041E01D1012090
:1055000070BD8169224B026800293BD09A4204D0C9
:10551000972149001F48FCF7FAFB250069352B78D5
:10552000DBB2002B05D12200683213702000FCF79B
:10553000CFFF2423012122682B70136820008B43A6
:105540001360FFF711FE0128D9D0636A002B02D047
:105550002000FFF7F5FE23680F495A6800200A4033
:1055600008215A609A688A439A60012219680A439E
:105570001A6022002023E0666A3268342B701370B0
:105580002070BDE79A42C8D03421FF31C2E7C0463F
:1055900000380140E3640008FFF7FFFF030030B567
:1055A00069331B7802000220212B0FD114005234E2
:1055B000238811689BB2002B09D10A687E30824390
:1055C0000A604022086802430A60002030BD802043
:1055D00095684001D36C85420DD1106900280AD12D
:1055E00018880233C005C00D0885D3642388013BA9
:1055F0009BB22380E9E7581CD0641B780B85F5E744
:105600004021026810B513688B4313600300202209
:1056100069331A70FBF7DCFE002010BD020070B584
:105620006A321178036822292DD1010080245C316F
:105630000D88998C640129408568436DA5421ED16F
:105640000469002C1BD1198002334365010000243A
:105650005A310B88013B9BB20B80A3420DD10368EA
:105660000C4D19682940196099682335FF35A94305
:10567000996020231370FFF73DFD200070BD5C1C76
:1056800044651970E2E70822996902240A439A6185
:10569000F3E7C046DFFEFFFF0F2270B5040000688D
:1056A000C36901681A4008D120252B4205D0294240
:1056B00003D02000FFF7B2FF70BD8568002A60D0DC
:1056C0000122154003D190267600314259D0134271
:1056D00005D0CE0503D50262E66E3243E2660222B1
:1056E000134206D0002D04D00262E66E92183243B7
:1056F000E2660422134206D0002D04D00262E66E58
:10570000023A3243E2661A0708D58A0601D4002D10
:1057100004D008220262E06E0243E266E26E002AD2
:10572000CAD02022134204D0114202D02000FFF739
:1057300075FFE36E20001B0704D423689D68402397
:105740001D401AD0FFF762FC402123689A680A4284
:105750000FD09A68606E8A439A60002809D0134B74
:105760004363FDF781FC0028A6D0606E436B984729
:10577000A2E72000FFF7BFFC9EE7FFF7BCFCE56651
:105780009AE78022134205D0114203D02000FFF790
:1057900005FF91E74022134200D18DE7114200D16D
:1057A0008AE72000FFF72CFF86E7C0465351000828
:1057B0000D4885460D480E490E4A002302E0D45894
:1057C000C4500433C4188C42F9D30B4A0B4C002349
:1057D00001E013600432A242FBD3FCF75FFC00F04F
:1057E00011F8FCF75BF9FEE7001000200000002034
:1057F0009C02002058650008A0020020A40600209A
:10580000FEE7000070B500260C4D0D4C641BA41083
:10581000A64209D1002600F069FC0A4D0A4C641B1F
:10582000A410A64205D170BDB300EB5898470136CD
:10583000EEE7B300EB5898470136F2E750650008F1
:10584000506500085065000854650008002310B535
:105850009A4200D110BDCC5CC4540133F8E7030078
:105860008218934200D1704719700133F9E70000A4
:105870000EB410B59DB002A9029008610B488224B5
:1058800088604861012040421FABC881084804CBB2
:10589000A400006801938C8100F084F80023029A30
:1058A00013701DB010BC08BC03B01847FFFFFF7F8A
:1058B00038020020020010B51378002B05D1CC5C13
:1058C000D4540133002CFAD110BD0132F4E7031C8B
:1058D0000A7801311A700133002AF9D170470000AB
:1058E000F0B58E6885B007000C00039201939E42CC
:1058F00039D890238A89DB001A4234D003250969FC
:1059000023685B1A0293636902985D43EB0F5D198C
:10591000019B6D1001331B18AB4200D91D005305CC
:1059200032D52900380000F031FB061E09D10C23C6
:105930003B6040230120A28940421343A38105B06C
:10594000F0BD029A2169FFF781FFA389144A1A402A
:1059500080231343A381029B2661F61826606561AC
:10596000019EED1AA560019BB34200D21E003200D9
:105970000399206800F0ADFAA36800209B1BA36088
:1059800023689E192660DAE72A00380000F05CFBE5
:10599000061EE0D12169380000F0AEFAC7E7C04624
:1059A0007FFBFFFFF0B59FB0029005938B890F003E
:1059B00016001B0611D50B69002B0ED1402100F0FB
:1059C000E5FA38603861002805D10C23029A0138C5
:1059D00013601FB0F0BD40237B61002306AD6B61F7
:1059E00020336B761033AB7634002378002B47D10D
:1059F000A31B04930DD0A31B320039000298FFF7BC
:105A00006FFF431C00D1B5E06A69049B9446634470
:105A10006B612378002B00D1ACE0012200235242BD
:105A20006A6002A95432521801342B60EB60AB60FB
:105A30001370AB65584E05222178300000F03EFA15
:105A4000621C002820D12968CB0604D5532302AE5E
:105A500020309B1918700B0704D553232B2002AE5E
:105A60009B19187023782A2B16D000200A21099B35
:105A70002278303A092A55D9002815D0099313E025
:105A8000252BB5D00134B0E70123801B8340296862
:105A900014000B432B60CDE7059B181D1B68059078
:105AA000002B39DB0993140023782E2B0BD163785C
:105AB000621C2A2B3ED1059B02341A1D1B680592DD
:105AC000002B34DB0793354E21780322300000F0A1
:105AD000F5F9002806D04023801B83402A68013452
