:020000040800F2
:1000000000500020215B0008A51F0008A71F000862
:10001000A91F0008AB1F0008AD1F0008000000006A
:10002000000000000000000000000000AF1F0008FA
:10003000B11F000800000000B31F0008B51F000832
:10004000695B0008B91F0008695B0008695B00086C
:10005000BD1F0008C11F0008695B0008695B00083C
:10006000695B0008695B0008695B0008C51F000840
:10007000695B0008695B0008D11F0008695B000824
:10008000695B0008695B0008DD1F0008695B000808
:10009000695B0008695B0008695B0008695B000830
:1000A000E91F000845200008695B0008695B00083B
:1000B0005D2000086122000839230008695B000800
:1000C000695B0008695B0008695B0008695B000800
:1000D000695B00086D240008695B0008695B000823
:1000E000695B0008695B0008695B000800000000AC
:1000F0000000000000000000000000000000000000
:0C01000000000000000000005FF808F1A3
:10010C0010B5054C237833B9044B13B10448AFF345
:10011C0000800123237010BDB802002000000000F5
:10012C006464000808B5034B1BB103490348AFF3E3
:10013C00008008BD00000000BC02002064640008C0
:10014C00D0400B1CD1409C46203AD340184352421D
:10015C00634693401843704780F0004002E000BFB4
:10016C0081F0004142001FBF5FEA410392EA030F96
:10017C007FEA226C7FEA236C6AD04FEA1262D2EBE0
:10018C001363C1BFD218414048404140B8BF5B42E5
:10019C00192B88BF704710F0004F40F4000020F07E
:1001AC007F4018BF404211F0004F41F4000121F094
:1001BC007F4118BF494292EA030F3FD0A2F10102DE
:1001CC0041FA03FC10EB0C00C3F1200301FA03F11C
:1001DC0000F0004302D5494260EB4000B0F5000F3F
:1001EC0013D3B0F1807F06D340084FEA310102F1FE
:1001FC000102FE2A51D2B1F1004F40EBC25008BFB0
:10020C0020F0010040EA03007047490040EB000079
:10021C0010F4000FA2F10102EDD1B0FA80FCACF1A8
:10022C00080CB2EB0C0200FA0CF0AABF00EBC250A7
:10023C0052421843BCBFD0401843704792F0000F95
:10024C0081F4000106BF80F400000132013BB5E7E8
:10025C004FEA41037FEA226C18BF7FEA236C21D05E
:10026C0092EA030F04D092F0000F08BF08467047C3
:10027C0090EA010F1CBF0020704712F07F4F04D191
:10028C00400028BF40F00040704712F100723CBFA4
:10029C0000F50000704700F0004343F0FE4040F4CE
:1002AC00000070477FEA226216BF08467FEA23638C
:1002BC000146420206BF5FEA412390EA010F40F477
:1002CC00800070474FF0000304E000BF10F00043C3
:1002DC0048BF40425FEA000C08BF704743F09643AA
:1002EC0001464FF000001CE050EA010208BF7047C5
:1002FC004FF000030AE000BF50EA010208BF70474C
:10030C0011F0004302D5404261EB41015FEA010C60
:10031C0002BF84460146002043F0B64308BFA3F158
:10032C008053A3F50003BCFA8CF2083AA3EBC2533A
:10033C0010DB01FA02FC634400FA02FCC2F1200259
:10034C00BCF1004F20FA02F243EB020008BF20F090
:10035C000100704702F1200201FA02FCC2F12002F6
:10036C0050EA4C0021FA02F243EB020008BF20EAEB
:10037C00DC7070474FF0FF0C1CEAD0521EBF1CEA19
:10038C00D15392EA0C0F93EA0C0F6FD01A4480EA07
:10039C00010C400218BF5FEA41211ED04FF00063F0
:1003AC0043EA501043EA5111A0FB01310CF000401C
:1003BC00B1F5000F3EBF490041EAD3715B0040EA42
:1003CC00010062F17F02FD2A1DD8B3F1004F40EB12
:1003DC00C25008BF20F00100704790F0000F0CF0E5
:1003EC00004C08BF49024CEA502040EA51207F3AA9
:1003FC00C2BFD2F1FF0340EAC250704740F4000084
:10040C004FF00003013A5DDC12F1190FDCBF00F074
:10041C0000407047C2F10002410021FA02F1C2F122
:10042C00200200FA02FC5FEA310040F1000053EABE
:10043C004C0308BF20EADC70704792F0000F00F00C
:10044C00004C02BF400010F4000F013AF9D040EA12
:10045C000C0093F0000F01F0004C02BF490011F4A6
:10046C00000F013BF9D041EA0C018FE70CEAD153A4
:10047C0092EA0C0F18BF93EA0C0F0AD030F0004C24
:10048C0018BF31F0004CD8D180EA010000F00040D8
:10049C00704790F0000F17BF90F0004F084691F096
:1004AC00000F91F0004F14D092EA0C0F01D14202D0
:1004BC000FD193EA0C0F03D14B0218BF084608D199
:1004CC0080EA010000F0004040F0FE4040F40000E3
:1004DC00704740F0FE4040F4400070474FF0FF0C76
:1004EC001CEAD0521EBF1CEAD15392EA0C0F93EABD
:1004FC000C0F69D0A2EB030280EA010C49024FEA0F
:10050C00402037D04FF0805343EA111143EA1013C7
:10051C000CF000408B4238BF5B0042F17D024FF47F
:10052C00000C8B4224BF5B1A40EA0C00B3EB510F5A
:10053C0024BFA3EB510340EA5C00B3EB910F24BF43
:10054C00A3EB910340EA9C00B3EBD10F24BFA3EBC8
:10055C00D10340EADC001B0118BF5FEA1C1CE0D190
:10056C00FD2A3FF650AF8B4240EBC25008BF20F043
:10057C00010070470CF0004C4CEA50207F32C2BF97
:10058C00D2F1FF0340EAC250704740F400004FF034
:10059C000003013A37E792F0000F00F0004C02BF65
:1005AC00400010F4000F013AF9D040EA0C0093F02F
:1005BC00000F01F0004C02BF490011F4000F013B89
:1005CC00F9D041EA0C0195E70CEAD15392EA0C0FF1
:1005DC0008D142027FF47DAF93EA0C0F7FF470AF29
:1005EC00084676E793EA0C0F04D14B023FF44CAF6C
:1005FC0008466EE730F0004C18BF31F0004CCAD101
:10060C0030F000427FF45CAF31F000437FF43CAF3C
:10061C005FE700BF4FF0FF3C06E000BF4FF0010C5E
:10062C0002E000BF4FF0010C4DF804CD4FEA400240
:10063C004FEA41037FEA226C18BF7FEA236C11D08A
:10064C0001B052EA530C18BF90EA010F58BFB2EB3D
:10065C00030088BFC81738BF6FEAE17018BF40F0BD
:10066C00010070477FEA226C02D15FEA402C05D171
:10067C007FEA236CE4D15FEA412CE1D05DF8040BF6
:10068C00704700BF844608466146FFE70FB5FFF789
:10069C00C9FF002848BF10F1000F0FBD4DF808ED41
:1006AC00FFF7F4FF0CBF012000205DF808FB00BF32
:1006BC004DF808EDFFF7EAFF34BF012000205DF88C
:1006CC0008FB00BF4DF808EDFFF7E0FF94BF0120D9
:1006DC0000205DF808FB00BF4DF808EDFFF7D2FFD6
:1006EC0094BF012000205DF808FB00BF4DF808ED19
:1006FC00FFF7C8FF34BF012000205DF808FB00BFE6
:10070C0042000ED2B2F1FE4F0BD34FF09E03B3EB6F
:10071C00126209D44FEA002343F0004323FA02F09B
:10072C0070474FF00000704712F1610F01D1420287
:10073C0002D14FF0FF3070474FF00000704700BF00
:10074C001FB51A481A4A0023012402604FF4602294
:10075C000193029303938360C4604361C26143605D
:10076C00046102F0EFFB08B101F0D6FB072301A9ED
:10077C000E4801940294039302F04CFA08B101F074
:10078C00CBFB022301A90948019302F043FA08B1FB
:10079C0001F0C2FB052301A90448019302F03AFAC7
:1007AC0008B101F0B9FB04B010BD00BFA0030020DC
:1007BC000024014030B5054687B01022002102A864
:1007CC0005F0F2F92A68224B9A423ED103F56C43AC
:1007DC009A69204842F400729A619A6902A902F45B
:1007EC0000720092009A9A691B4C42F004029A61C2
:1007FC009B6903F004030193019B3E2302930323A3
:10080C00039303F00DF9154B20462360002363601E
:10081C00A3608023E3604FF4807323614FF4806303
:10082C0063612023A3614FF48053E36102F012FD56
:10083C0008B101F071FB2C621220012203216562C8
:10084C0002F07CFC122002F0BBFC07B030BD00BFF4
:10085C000024014000080140D003002008000240A1
:10086C0008B50548054B036002F0D6FC18B1BDE88D
:10087C00084001F051BB08BD1404002000300240B8
:10088C000268084B82B09A420AD1A3F500535A6908
:10089C0042F040025A615B6903F040030193019BF3
:1008AC0002B070470030024003220249024802F0B5
:1008BC0097BA00BF28040020A003002000231F4A81
:1008CC0010B513601E4A1F4913601F4A00201360A5
:1008DC001E4A1F4C136001220A604A608A60CA607B
:1008EC001C490A600021C4E900011B4C22601B4A10
:1008FC00C2E900011A4A13601A4A13601A4A1360BB
:10090C001A4A13601A4A13601A4A13601A4A13607F
:10091C001A4A13601A4A13601A4A13601A4A13606F
:10092C001A4A13601A4A13601A4A13601A4A13605F
:10093C001A4A13601A4A138010BD00BF2800002009
:10094C002C00002038000020300000203400002053
:10095C002803002048000020000000201003002085
:10096C00E8020020F00200206C030020700300203D
:10097C0074030020780300208403002088030020E7
:10098C008C030020900300206003002080030020D3
:10099C005C0300207C030020400300203C0300206B
:1009AC00D4020020884210B522D9401AFFF78AFCE5
:1009BC001249FFF7DFFC4FF07E51FFF7D3FB1049D4
:1009CC000446FFF793FEB8B90E492046FFF770FEB8
:1009DC0000B10C4C204610BD081AFFF773FC0749F8
:1009EC00FFF7C8FC01464FF07E50FFF7B9FBE6E776
:1009FC00F2D34FF07E54EDE7014CEBE79A9999391D
:100A0C00CDCCCC3FCDCCCC3E38B505460C46FFF713
:100A1C004FFE60B10E492846FFF7A4FB0546014680
:100A2C002046FFF74FFE00B92C46204638BD214624
:100A3C002846FFF75BFE0028F6D005492846FFF74D
:100A4C008FFB054601462046FFF746FEEBE700BF4D
:100A5C00A69BC43B4FF0804330B5834205DC00229B
:100A6C00022404251BB990B230BD9B10F5E7D118B8
:100A7C008842A4BF5A18401A92FBF4F293FBF5F388
:100A8C00F0E7000038B50C4A0C4B0D4C1B68126893
:100A9C00B3FBF2F323602068FFF7DCFF094B206007
:100AAC0020681D68FFF70EFC2946FFF763FCFFF773
:100ABC0027FE206038BD00BF5C03002060030020CF
:100ACC00080300200400002038B50C4A0C4B0D4CD8
:100ADC001B681268B3FBF2F323602068FFF7BAFFC0
:100AEC00094B206020681D68FFF7ECFB2946FFF7D7
:100AFC0041FCFFF705FE206038BD00BF7C030020E1
:100B0C0080030020240300204C000020044B054AE5
:100B1C001B681268B3FBF2F3034A1360704700BF03
:100B2C00400300203C030020EC0200201F4A1388E5
:100B3C009BB2012B38D0012313801D4B1A681D4B1F
:100B4C001A601D4B1A681D4B1A601D4B1A681D4B01
:100B5C001A601D4B1A681D4B1A601D4B1D4A1968F3
:100B6C00116059681C4A116099681C4A1160DA6856
:100B7C001B4B1A601B4BD3E900231B4B1A601B4BFE
:100B8C00D3E900231A4B1A601A4B1A681A4B1A60D5
:100B9C001A4B1A681A4B1A601A4B1A681A4B1A60BD
:100BAC001A4B1A681A4B1A60704700BFD402002007
:100BBC00280000206C0300202C0000207003002073
:100BCC003000002074030020340000207803002043
:100BDC003800002084030020880300208C030020B0
:100BEC009003002010030020600300202803002045
:100BFC0080030020000000205C030020480000203F
:100C0C007C030020E802002040030020F0020020BA
:100C1C003C030020F8B56A4B1B889BB20BB9FFF75D
:100C2C0085FFFFF751FFFFF72DFFFFF76FFF654BB8
:100C3C0065491A680968654CB2FBF1F264491A609F
:100C4C0022680968634DB2FBF1F2634922602A689D
:100C5C000968624EB2FBF1F261492A603268096898
:100C6C00604FB2FBF1F2326018684FF40061FFF78D
:100C7C0099FE5D4B014618603868FFF7C5FE386079
:100C8C0020684FF40061FFF78DFE584C584B01461D
:100C9C0018602068FFF7B8FE206028684FF40061E8
:100CAC00FFF780FE534D544B014618602868FFF740
:100CBC00ABFE286030684FF40061FFF773FE4F4EB7
:100CCC004F4B014618603068FFF79EFE306030686D
:100CDC00296826684B4C3D682368D3B9FFF742FA64
:100CEC003146FFF73FFA2946FFF73CFA4649FFF732
:100CFC0041FBFFF705FDC93880B2B0F5C77F08D9B5
:100D0C00424A13680133B3F5FA6F1360C4BF012371
:100D1C0023603F4A136873B93E4B196840F6AB53D6
:100D2C00994208D93C490B680133B3F57A7F0B60C3
:100D3C00C4BF01231360394B1A68DAB9384A1168F9
:100D4C00B1F5967F02D21168642909D8354801683B
:100D5C000131B1F5FA7F016002DD01221A6009E070
:100D6C001268B2F5BE7F05D32E490A680132022AF9
:100D7C000A60F2DC2C490B680C4673B941F28732DD
:100D8C002A4B186890420CD9294802680132B2F5F6
:100D9C00FA7F026005DD01230B60BDE8F840FFF728
:100DAC008DBD1A6842F227339A42F6D9204A13684D
:100DBC000133022B1360C4BF01232360EDE700BF96
:100DCC00D40200206C030020840300207003002058
:100DDC0088030020740300208C030020780300207B
:100DEC009003002018000020500000201C00002060
:100DFC005400002020000020580000202400002077
:100E0C005C000020D80200200000C842DC02002058
:100E1C00E4020020EC020020F40200201803002061
:100E2C00240300201C030020FC02002008030020E7
:100E3C0000030020324A30B51368324D0133136081
:100E4C00314B5A8894B25A88D5E9000192B2624368
:100E5C00801841EBE271C5E900012C492C4D0A6860
:100E6C0001320A601A8894B21A88D5E9000192B24C
:100E7C006243801841EBE271C5E9000125499A886B
:100E8C00086892B202440A60234924480A688468BC
:100E9C0001320A6022490A8892B2A242214A09DD33
:100EAC0021491B8808689BB203440B60D36801334B
:100EBC00D36030BD0C884568A4B2AC4209DD1B4937
:100ECC001B8808689BB203440B60936801339360E2
:100EDC0030BD0988006889B21B8881429BB207DD4E
:100EEC001349086803440B6053680133536030BDE9
:100EFC001049086803440B6013680133136030BD5C
:100F0C0000000020100300202804002048000020CE
:100F1C0028030020E8020020F00200200800002036
:100F2C003203002038000020340000203000002064
:100F3C002C0000202800002010B512B101220C4B0F
:100F4C009A6021F003030A4A0344984207D101F046
:100F5C000301074819448B4205D1106810BD50F8A5
:100F6C00044B1460F1E713F8014B0470F3E700BF76
:100F7C000030024010B5074B0AB101229A60054AB5
:100F8C0011F1FF3101D2186810BD50F8044B1460F8
:100F9C00F6E700BF0030024038B50B4C0B4D142265
:100FAC000021204604F000FE012264212846FFF7B0
:100FBC00C3FF07490246204604F0FEFD21462846A1
:100FCC00BDE8384004F01CBEE80400206804002092
:100FDC008C64000864220021014804F0E5BD00BFC8
:100FEC006804002007B5FFF7F5FF084B08491A689D
:100FFC0004331B68096807480091074904F0DCFDBD
:10100C0003B05DF804EBFFF7C7BF00BFACF7FF1FE1
:10101C00B4F7FF1F68040020A764000808B5FFF7A9
:10102C00D9FF054B05491A88054892B204F0C4FD56
:10103C00BDE80840FFF7B0BFCCF7FF1FBA6400084B
:10104C006804002010B5074CFFF7C4FF0649204682
:10105C0004F0D6FD2046054904F0D2FDBDE8104051
:10106C00FFF79ABF68040020CB640008D564000821
:10107C00024A1368002BFCD0704700BF44020020CA
:10108C00002270B50446084B084E094D1A606322C5
:10109C003146284604F0D8FB0228F8D01CB1BDE834
:1010AC007040FFF7E5BF70BD4402002068040020CB
:1010BC00C80600200268044B9A4204D10122034B5B
:1010CC001A60FFF787BF70470038014044020020C8
:1010DC00014802F08BBE00BF780500202DE9F04FCF
:1010EC003B4B8DB01B68012B6ED13A4CFFF772FF56
:1010FC0023683949012BDFF814B1384A09D00B6841
:10110C00012B06D0DBF80030012B02D01368012B29
:10111C000BD10B920A91FFF7D7FCFFF7B3FCFFF74B
:10112C00F5FCFFF7CBFB0B9A0A992D4B12681D6847
:10113C002C4BADB21E682C4BB6B29F882B4BBFB25A
:10114C00D3F800802A4BD3F800902A4BD3F800A098
:10115C00294B1868294B1B7809920A682849089270
:10116C0022680792DA1E534253410693DBF8003093
:10117C000593FFF7FFF8FFF7C3FA80B204902049FC
:10118C005046FFF7F7F8FFF7BBFA80B203901C4903
:10119C004846FFF7EFF8FFF7B3FA80B20290184910
:1011AC004046FFF7E7F8FFF7ABFA80B201900097E3
:1011BC0033462A461349144804F0FEFC00200DB0B7
:1011CC00BDE8F04FFFF75CBF0DB0BDE8F08F00BF7E
:1011DC0044030020E402002018030020FC0200203D
:1011EC0024030020080300202804002018000020FD
:1011FC001C000020200000202400002034030020CC
:10120C000000C842E164000868040020D8020020F5
:10121C000023034A13605360024A1360704700BFF7
:10122C004C0300204803002010B5094C6068FFF700
:10123C0049F80849FFF79EF8074B18602068FFF73C
:10124C0041F80449FFF796F8044B186010BD00BF35
:10125C004C0300203333533A040000204C00002090
:10126C00842140F63462024B83E80600FFF7DCBFB2
:10127C004C030020034B1B680BB9FFF7F1BFFFF7C2
:10128C00D3BF00BF4803002070B501250D4C0E4E96
:10129C002A4684E80300082120463560FFF76AFEE1
:1012AC000A4B01461860002000F018FB2168284604
:1012BC0000F014FB6168022000F010FB0023336087
:1012CC0070BD00BF4C0300205403002048030020D5
:1012DC0070B50124104E114D3460FFF799FF29466B
:1012EC00002000F0DBFA0E49204600F0D7FA0D4939
:1012FC00022000F0D3FA082122460948FFF73AFEF3
:10130C0000212B683160984203D0FFF781FF08461B
:10131C0070BD204670BD00BF540300204803002060
:10132C004C0300205003002010B50024084B1C80F7
:10133C00FFF7A0FF074B93E80300FFF7A5FF064953
:10134C00064804F06CFC2046BDE81040FFF798BE40
:10135C00400200204C03002099640008680400201F
:10136C0010B5204800F021FB04461F4800F01DFB7F
:10137C001E4A1388092B03D801331380002010BD9B
:10138C00022815D1022C1A4C25D01A4B188880B281
:10139C00FEF79CFF1849FEF7EDFF01461748FFF7D3
:1013AC009DF8FFF7ADF92060FFF7BEFF012010BDDF
:1013BC00022CE3D10F4B588880B2FEF787FF0E4901
:1013CC00FEF7D8FF01460E48FFF788F8FFF798F9AB
:1013DC00074B5860E8E7FFF743FF94E80300FFF77B
:1013EC0053FFE1E74C0400203004002040020020B1
:1013FC004C030020280400203333533A000066438A
:10140C0000007A44104B1A6822F440721A605A6C2D
:10141C0022F0FF025A645A6C42F040025A645A6C31
:10142C0042F010025A645A6C42F008025A645A6C28
:10143C0042F004025A645A6C42F002025A645A6C2A
:10144C0042F001025A647047002C0140044B1A6AA6
:10145C0042F400621A621A6A42F400721A6270470D
:10146C00002C0140044B5A6842F480525A605A686E
:10147C0042F400525A607047002C014040F2BF32D7
:10148C0008B5124B9A624FF47A72DA624FF4FA7220
:10149C00DA631A6822F010021A601A6822F06002ED
:1014AC001A60DA6922F07002DA61DA6942F06002DD
:1014BC00DA611A6A42F4A0621A62FFF7C7FFFFF7FB
:1014CC00D1FFBDE80840FFF79DBF00BF002C0140D5
:1014DC0008B54FF4FA730D49CB630B6A43F4A06360
:1014EC000B62FFF7B3FFFFF7BDFFFFF78BFFCB6876
:1014FC0043F00103CB600B6843F001030B60FFF773
:10150C00DDF9BDE80840FFF785BB00BF002C0140AA
:10151C00104B1A6922F001021A61DA6822F00102FA
:10152C00DA601A6822F001021204120C1A605A686E
:10153C0042F400525A605A6822F480525A601A6A75
:10154C0042F400721A621A6A22F400621A620022D1
:10155C00DA637047002C0140024A536C43F4404359
:10156C0053647047002C0140044B5A6C22F4004227
:10157C005A645A6C22F480425A647047002C014021
:10158C0008B5FFF7E9FFBDE80840FFF7A1BF08B5B4
:10159C00FFF7EAFFBDE80840FFF7BABF0022074B90
:1015AC001A80074B5A639A63DA6842F00102DA60D8
:1015BC001A6842F001021A6000F0E2B8320300200F
:1015CC0000040040094B1A6922F001021A61DA6822
:1015DC0022F00102DA601A6822F001021204120CE5
:1015EC001A6000225A639A63704700BF00040040DF
:1015FC00024A536C43F44043536470470004004068
:10160C00044B5A6C22F400425A645A6C22F4804205
:10161C005A6470470004004008B5FFF7E9FFBDE8C5
:10162C000840FFF7BBBF08B5FFF7EAFFBDE808406D
:10163C00FFF7C8BF00224FF47A71194B9A62D96236
:10164C005A639A631A6A42F001021A621A6A42F0E9
:10165C0002021A621A6A42F010021A621A6A42F004
:10166C0020021A625A6842F480725A605A6842F434
:10167C0080625A609A6922F4E04222F070029A6108
:10168C009A6942F4C04242F060029A611A6822F0F0
:10169C0010021A601A6822F060021A60704700BFCC
:1016AC00000400402A4A0346506A10F000501FBF45
:1016BC00516A012041F08071516245F25551254A21
:1016CC000A2B116025D907215160022B2AD0032B3C
:1016DC002AD0042B2AD0052B2AD0062B2AD0072B54
:1016EC002AD0082B2ED0092B2FD00A2B27D00B2B2E
:1016FC0028D00C2B29D00D2B40F6FF7318BF0023DC
:10170C00144A93604AF6AA2313604CF6CC43136038
:10171C007047032151601BB1012BD6D10A23EFE78F
:10172C000523EDE70F23EBE71F23E9E73D23E7E76D
:10173C007B23E5E7FF23E3E740F2FF13E0E740F606
:10174C00FF73DDE740F2FF33DAE740F2FF73D7E7D0
:10175C0000100240003000404FF07C53044A1360EC
:10176C00044A1360044A1360044A1360704700BFB4
:10177C0024000020200000201C0000201800002065
:10178C0008B5FFF7E9FF0023064A1360064A136009
:10179C00064A1360064A1360064A1360064A136031
:1017AC0008BD00BFD8020020E0020020DC020020AF
:1017BC001C03002020030020180300200C4B0D4AB2
:1017CC001988906889B2814202DD0B4B186870470A
:1017DC001988506889B2814201DD084BF6E71B88F5
:1017EC0012689BB29342CCBF054B064BEEE700BF91
:1017FC0032030020080000202400002020000020DC
:10180C001C0000201800002038B5134B1A8892B227
:10181C00EF2A84BF00221A801B88104A9BB232F830
:10182C001340FFF7CBFF4FF07E51A4B20546FEF7F5
:10183C0035FF40B92046FEF749FD2946FEF79AFDD3
:10184C00FEF75EFF84B240F2CA30A04228BF2046A9
:10185C001E2838BF1E2038BD320300206000002037
:10186C0010B586B001F06AFF0123002405930A4BE2
:10187C0001A902A80493029402F02AF838B901F0E5
:10188C006FFF0198431C5842584106B010BD01F03F
:10189C0067FF2046F9E700BF00FC000809289FBF3E
:1018AC00800000F1006000F57C4003689ABF0120C5
:1018BC000B600020704701440A290BDD00207047A3
:1018CC00830003F1006303F57C431B68013042F88D
:1018DC00043B80B28142F3DC0120704709282DE9DA
:1018EC00F04105460F4619D8840004F1006404F554
:1018FC007C442368013308D101F020FF7B1C29D1E3
:10190C0001F02EFF0120BDE8F081174E0A2132466E
:10191C000020FFF7D0FF20B901F022FF0020BDE826
:10192C00F08146F82570FFF79BFF01F007FF0F4D84
:10193C00DFF83C8005F17843A3F57C43F258294647
:10194C000023022001F040FF0028E5D10435454575
:10195C00F0D1D1E73A4600232146022001F034FFB2
:10196C000028D9D1CCE700BF5005002000FC0008AE
:10197C0028FC00080260009A0372C260019A0023DE
:10198C00026101224160037543758361C2758375E1
:10199C004372704710B504460188406802F0ACF9F8
:1019AC00237A181A18BF012010BD70B50446FFF732
:1019BC00F1FFE67D054686421AD038B901F03CF8B5
:1019CC000123A061A375E575002070BD01F034F80A
:1019DC00A369E2681344984228BF04234FF0010026
:1019EC0022BF6372E075184600236375237570BDC2
:1019FC00002EE9D101F020F8A36922691344984222
:101A0C0008D3637D012B02D16672607A70BD03230B
:101A1C006372FAE701F010F8A369E2681344984284
:101A2C00D2D3237D012BEFD00223F1E70E4B07B568
:101A3C005A69022142F001025A615B69002203F0EB
:101A4C00010301930B20019B01F078FB0B2001F0AB
:101A5C00B7FB002203210E2001F070FB0E2001F0D9
:101A6C00AFFB03B05DF804FB001002401022F0B590
:101A7C0089B00DEB0200002104F096F8324B334D87
:101A8C009A69284642F010029A619A6947F221013C
:101A9C0002F010020092009A9A69032642F020028A
:101AAC009A619A692A4F02F020020192019A9A696E
:101ABC00002442F004029A619A6902F00402029234
:101ACC00029A9A6942F008029A619B69012203F01A
:101ADC0008030393039B02F021F94FF4005304A96C
:101AEC001C480493059601F09BFF40F2012304A9C6
:101AFC0038460493059601F093FF47F221030493B3
:101B0C00012304A9284605930694079601F088FF43
:101B1C0048F2044304A9284604930594069401F062
:101B2C007FFF4FF4316304A928460493059601F016
:101B3C0077FF4FF4C85304A93846049305940694D0
:101B4C0001F06EFF09B0F0BD00100240000C014026
:101B5C00000801400010014008B5062240F6FF7352
:101B6C000548064980E80E0002F002F918B1BDE8FC
:101B7C00084000F0D1B908BD7805002000300040C5
:101B8C00282210B594B00DEB0200002104F00CF8E3
:101B9C00142200210DEB020004F006F800211022A3
:101BAC0001A804F001F809230A934FF480330224AE
:101BBC0001220B9312934FF4E0130AA80E92109289
:101BCC001393119402F028F90F234FF480620593BC
:101BDC000023214605A8079308920993069402F066
:101BEC0059FB4FF4004301A80194039302F082FCCB
:101BFC0014B010BDB04B83B55A68002442F00202F9
:101C0C005A605A684FF47A6642F480725A6000F057
:101C1C00F5FEFFF7B5FFFFF729FFFFF707FFFEF70C
:101C2C001FFEFFF799FF00F07BFD00F0E9FD00F0CF
:101C3C0079FC00F041FC00F03BFEFEF781FD0C202E
:101C4C00FFF730FDFFF744FAFEF72EFE03229B4B05
:101C5C0042F210771A70FFF711FCFFF791FCFFF7B7
:101C6C0096FCFFF7E7FCFFF7D7FCFFF7DCFCFFF770
:101C7C002FFA01224FF48041914802F04FF80122D3
:101C8C008F48114602F04AF801224FF480518C48DB
:101C9C0002F044F84FF400510122894802F03EF85A
:101CAC00884802F091FD874802F0B6FD64224FF09F
:101CBC008043854D2C70DA62FFF70AFA8DE8C0007C
:101CCC0023464FF4006281498148FFF753FE8DE8AB
:101CDC00C0001E264FF4FA6723464FF480527B490E
:101CEC007C48FFF747FE8DE8C00023464FF40042C6
:101CFC0073497948FFF73EFE8DE8C0004FF47A77C0
:101D0C0023464FF4807271497448FFF733FE234623
:101D1C0004226B4972488DE8C000FFF72BFE234666
:101D2C004FF4806266496F488DE8C000FFF722FED1
:101D3C006A48FFF73AFE6A48FFF737FE6948FFF733
:101D4C0034FE6348FFF731FE6248FFF72EFE62480F
:101D5C00FFF72BFE4FF4FA7000F074FEFFF7B8FAA1
:101D6C00002840F0A0806049604803F058FFFFF75E
:101D7C0077FA0120FFF784F9FFF764F90120FFF7E8
:101D8C007FF9FFF72FF90120FFF77AF9FFF746F9F2
:101D9C000120FFF775F9FFF71DF94F48FFF705FE16
:101DAC000228534C40F086805249504803F037FFCC
:101DBC000120FFF765F901234A482360FFF7F5FD81
:101DCC004648FFF7F2FD02281BD14B49474803F068
:101DDC0026FF0120FFF754F9FFF77AF94FF4FA7058
:101DEC0000F030FE3D48FFF7E0FD022809D14349E1
:101DFC003E4803F014FF0120FFF742F90122404B4B
:101E0C001A604049394803F00AFF0120FFF738F9FE
:101E1C0001244FF080434FF47A722C704FF48041C0
:101E2C00DA622748002201F079FF0022214624487B
:101E3C0001F074FF00224FF48051214801F06EFF35
:101E4C0000224FF400511E4801F068FF2548FFF7AF
:101E5C00ACFD2348FFF7A9FD4FF4FA7000F0F2FD3A
:101E6C001F48FFF7A2FD032806D127491F4803F09E
:101E7C00D6FE2046FFF704F900241A48FFF795FD1B
:101E8C00224B10489C6202F09FFC0E4802F0C4FCEE
:101E9C0002261F4D2B889BB2012BFBD12E80FEF707
:101EAC00B9FE2C80F6E7FFF7E5F91A490F4803F065
:101EBC00B6FE5EE700237FE7002004E06803002005
:101ECC00000C014084050020340300200008014070
:101EDC00300400204C040020FC040020CC04002022
:101EEC003405002018050020556500086804002002
:101EFC00380300206D6500088265000894650008B1
:101F0C0044030020AB650008B865000800080040D9
:101F1C006A03002061650008704770471C4B07B5C9
:101F2C009A69052042F001029A619A6902F0010255
:101F3C000092009ADA6942F08052DA61DB6903F0B0
:101F4C0080530193019B01F0DBF800220120114624
:101F5C0001F0F4F8012001F033F9002204201146BD
:101F6C0001F0ECF8042001F02BF9002205201146B9
:101F7C0001F0E4F8052001F023F9064A536823F038
:101F8C00E06343F08073536003B05DF804FB00BF63
:101F9C0000100240000001407047FEE7FEE7FEE73C
:101FAC00FEE770477047704700F03ABD01F026BF5E
:101FBC0001F03ABB70470000014801F077BA00BF4E
:101FCC00D0030020014801F071BA00BF8406002044
:101FDC00014800F079BD00BFA003002010B50F4CE4
:101FEC00204602F066FE6FF00102236800241A619D
:101FFC000B4B1C800B4B1C700B4B1C80FEF796FD87
:10200C000A4B9C635C630A4B1A78012A05D10222A5
:10201C001A704FF4FA72074BDA6310BD04060020F5
:10202C003203002030030020D402002000040040C2
:10203C0068030020002C014010B5044C204602F02F
:10204C0038FE6FF0010223681A6110BD04060020EF
:10205C00F8B56B4C204602F02CFE6FF001022368A1
:10206C00684C1A61FFF734F82378032B00F2C68012
:10207C00DFE803F0021A02784FF48041624801F065
:10208C0067FE0121604801F063FE4FF480515E4809
:10209C0001F05EFE5C484FF4005101F059FEBDE8C2
:1020AC00F8405A48FFF781BC594B1B68012B31D0C3
:1020BC00FFF714F857490B68012B05D1564A1368E2
:1020CC0001331D2B2BDC136054490B68012B05D1FC
:1020DC00534A136801331D2B29DC136051490B68DB
:1020EC00012B05D1504A136801331D2B27DC1360DB
:1020FC004E490B68012B40F081804D4B1A6840F61D
:10210C00B7339A424B4B2BD81A680132092A1EDC82
:10211C001A60F8BDFFF724F90128C9D1F8BD0023D6
:10212C001360454A0B601360FFF716FBCCE70023E6
:10213C001360424A0B601360FFF70EFBCEE70023DF
:10214C0013603F4A0B601360FFF706FBD0E70022D9
:10215C001A603C4B0A601A60BDE8F840FFF7FCBA05
:10216C000022D5E7FEF7BAFF2848FFF71EFC02282D
:10217C00354D364F364E1BD12B6801330A2B2B6055
:10218C002CD10023012220211F482B6001F0C6FD19
:10219C004FF4FA724FF080434FF40051DA621A4850
:1021AC0001F0D6FD032323703B7000233360F8BD90
:1021BC001648FFF7FAFB0328DED003210022336810
:1021CC0039700133092B2A6033600FDD4FF4005155
:1021DC000D4801F0A3FD01232370F8BD002220213E
:1021EC00094801F09BFD4FF47A72D3E72170064841
:1021FC004FF40051BDE8F84001F0AABDF8BD00BF96
:10220C004406002034030020000C01401805002077
:10221C0038030020D8020020E00200201803002020
:10222C0020030020FC02002004030020E402002014
:10223C00EC020020F8020020DC0200201C0300202D
:10224C0000030020F4020020640300206803002037
:10225C005803002038B52D4C204602F02AFD6FF0B3
:10226C00010223681A612A4B1A782AB11A78012ABA
:10227C0002D01A78032A05D1002226498A634A63C0
:10228C0025490A801A78032A3FD01A78012A04BFFC
:10229C0002221A70214B5A6AB2F5F97F04D05A6A9D
:1022AC0040F2E6339A420ED100231A4A1A491C4CCA
:1022BC000B8053639363208880B208B9012020807F
:1022CC000B8053639363154B164C5B6AB3F5FA7F23
:1022DC0029BF0122002222700022134B38BF22702A
:1022EC001A80FEF723FC237803F0FF0223B9094D73
:1022FC00AA63FFF789FA68632378012B05D10023C1
:10230C00044C6363FFF780FAA06338BDC40500205A
:10231C00680300200004004032030020002C014020
:10232C006A03002030030020D4020020F8B53F4C93
:10233C00204602F0BEFC6FF0010223683C481A6193
:10234C00FFF733FB02283B4C09D103223A4B1A709E
:10235C0000223A4B1A602378022B31D1F8BD344855
:10236C00FFF723FB0328F0D02378354E032B2AD11B
:10237C00314B1F78FFB2012F25D1324B1B6813BB99
:10238C00314B1B68FBB9314B1B68E3B9304B1B68F5
:10239C00CBB9304B1D68B5B92F483580FFF705FB1D
:1023AC00032810D12D4B27709D635D6303F5943387
:1023BC00DD633580FFF7E4F8BDE8F840FFF72CB992
:1023CC0002232370D0E72378022B28D11A4B1B78D9
:1023DC00032B0FD1032323700023204A93635363F1
:1023EC0002F59432D3633380FFF7D1F8BDE8F8409F
:1023FC00FFF719B91848FFF7D8FA0428EAD0114B9F
:10240C001B68012BE6D0104B1B68012BE2D00F4B45
:10241C001B68012BDED00E4B1B68012BDAD0FEF7AC
:10242C0009FD338801339BB23380F8BD840500204D
:10243C0018050020680300203403002058030020F6
:10244C0032030020D8020020E402002018030020F0
:10245C00FC0200205403002034050020000400403E
:10246C00014803F0AFBA00BFC80600200F4B1A6832
:10247C0042F001021A6059680D4A0A405A601A6803
:10248C0022F0847222F480321A601A6822F48022BC
:10249C001A605A6822F4FE025A604FF41F029A60C6
:1024AC004FF00062034B9A60704700BF001002406F
:1024BC000000FFF800ED00E07FB51022002102A81B
:1024CC0003F072FB002348F69F424FF08041144802
:1024DC000093019380E8060083604FF47A720361E5
:1024EC008023C260836102F0BFFC08B1FFF714FDCA
:1024FC004FF4805302A90A48029302F0B5F908B1CF
:10250C00FFF70AFD0023694605480093019303F089
:10251C0003F808B1FFF700FD07B05DF804FB00BF3E
:10252C00440600207FB51022002102A803F03CFBDA
:10253C0000231448144A009380E80C000193836034
:10254C004FF47A7203618023C260836102F08CFCC9
:10255C0008B1FFF7E1FC4FF4805302A9094802933C
:10256C0002F082F908B1FFF7D7FC00236946054851
:10257C000093019302F0D0FF08B1FFF7CDFC07B038
:10258C005DF804FB84050020000800401FB50368BB
:10259C002E4A93421CD12E4B18209A6942F40062A9
:1025AC009A6100229B69114603F400630093009B1F
:1025BC0000F0C4FD182000F003FE00221920114683
:1025CC0000F0BCFD192000F0FBFD05B05DF804FB2C
:1025DC00B3F1804F11D103F50433DA691C2042F0BA
:1025EC000102DA61DB69032203F00103019301218B
:1025FC00019B00F0A3FD1C20E5E7164A934210D185
:10260C00134B1D20DA6942F00202DA610022DB6909
:10261C00114603F002030293029B00F08FFD1D2074
:10262C00D1E70D4A9342D0D1094B1E20DA69012122
:10263C0042F00402DA61DB69002203F00403039325
:10264C00039B00F07BFD1E20BDE700BF002C01406A
:10265C00001002400004004000080040102230B579
:10266C00044689B00DEB0200002103F09DFA2368AB
:10267C00254A93422FD102240325244B04A99A699D
:10268C00234842F008029A619A6902F0080201920A
:10269C00019A9A6942F004029A619B69049403F0CE
:1026AC0004030293029B0594079501F0B9F94FF4CA
:1026BC00806304A9174804930594079501F0B0F9B9
:1026CC00154A536823F0C00343F0E06343F0400322
:1026DC00536009B030BD114A9342FAD10B4B04A997
:1026EC009A690C4842F004029A619B6903F0040356
:1026FC000393039BC02304930223059303230793A3
:10270C0001F08EF9E5E700BF002C014000100240FB
:10271C00000C014000080140000001400004004092
:10272C0010B5002494B01022002102A803F03CFA4A
:10273C001C22214606A80094019403F035FA1C22B1
:10274C0021460DA803F030FA40F29F532A482B4A39
:10275C00846080E80C004FF47A73C36080230461BA
:10276C004461836102F080FB08B1FFF7D5FB4FF4A5
:10277C00805302A92048029302F076F808B1FFF7C3
:10278C00CBFB1D4802F0C4FB08B1FFF7C5FB0024CE
:10279C00694619480094019402F0BEFE08B1FFF797
:1027AC00BBFB4FF4FA7307934FF48073082206A90E
:1027BC0011480694089409940A940B930C9302F014
:1027CC00A5FC08B1FFF7A8FB5F22002310924FF481
:1027DC0000520DA908480D930E930F93119312926A
:1027EC00139302F025FE08B1FFF796FB0248FFF7A2
:1027FC0035FF14B010BD00BF04060020002C0140B2
:10280C0010B58EB01022002103A803F0CDF90024DE
:10281C001C2221460DEB02000194029403F0C4F932
:10282C002148224B846080E818004FF47A73C3600F
:10283C0080230461836102F017FB08B1FFF76CFB86
:10284C004FF4805303A91848039302F00DF808B114
:10285C00FFF762FB144802F0B3FB08B1FFF75CFB17
:10286C00002401A910480194029402F055FE08B10D
:10287C00FFF752FB6023002207A90B48079308942B
:10288C0009940B9402F0ECFC08B1FFF745FB042211
:10289C0007A9054802F0E4FC08B1FFF73DFB02482C
:1028AC00FFF7DCFE0EB010BDC40500200004004094
:1028BC0008B54FF4E13E0A480A4B0C2280E8084068
:1028CC00002342618360C36003618361C36102F0D2
:1028DC0053FF18B1BDE80840FFF71EBB08BD00BF91
:1028EC00C8060020003801402DE9F04110270646AB
:1028FC0086B03A46002102A803F056F93268284BFC
:10290C009A424AD103F558439A69002542F4804211
:10291C009A619A694FF0800802F480420092009A02
:10292C009A6902A942F008029A619B691D4803F05A
:10293C0008030193019B4023029302230393032377
:10294C00059301F06DF8174802A9CDF8088003959E
:10295C00049501F065F8144A144C5368204643F072
:10296C00E06343F004035360114BA56084E88800D6
:10297C00C4F80C8025616561A561E56100F06AFC15
:10298C0008B1FFF7C9FA25203463022203216662DD
:10299C0000F0D4FB252000F013FC06B0BDE8F0815C
:1029AC0000380140000C014000000140840600206A
:1029BC004400024038B50E4B054618784FF47A7334
:1029CC00B3FBF0F30B4A1068B0FBF3F000F00EFC15
:1029DC00044658B90F2D09D8024629464FF0FF304E
:1029EC0000F0ACFB044B20461D6038BD012038BD07
:1029FC004C0200204802002050020020074A08B573
:102A0C001368032043F01003136000F079FB0020DF
:102A1C00FFF7D0FFFFF782FA002008BD002002402C
:102A2C00034A044B11681B780B441360704700BFBA
:102A3C00080700204C020020014B1868704700BFAB
:102A4C000807002038B50446FFF7F6FF0546631C5F
:102A5C001EBF044B1B78E418FFF7EEFF401B8442AB
:102A6C00FAD838BD4C0200207047436A10B59A6AF8
:102A7C0012F0500F1BD19A6A42F400729A621A68D3
:102A8C00926802F46022B2F5602F0CD1DA6852B968
:102A9C009A6A22F480729A629A6AD2045EBF9A6A27
:102AAC0042F001029A621846FFF7DEFF10BD1B6A66
:102ABC00BDE810401B6B1847704708B5406AFFF71C
:102ACC00FBFF08BD704700000368494A10B59342EC
:102ADC00044608D002F58062934204D040F2D951EA
:102AEC004448FFF71AFAE368012B04D940F2DA5193
:102AFC004048FFF712FA2369013B0F2B04D940F22F
:102B0C00DB513C48FFF709FA23685A68900627D531
:102B1C001A68910724D5A26AD2065EBFA26A42F453
:102B2C000072A2629A6802F46022B2F5602F10D192
:102B3C00E26872B95A6822F020025A60A36A23F440
:102B4C008073A362A36ADB045EBFA36A43F0010334
:102B5C00A3622046FFF788FF6FF0120223681A6009
:102B6C0023685A68100630D51A6851072DD5A26A09
:102B7C00D2065EBFA26A42F40052A2629A6802F4C4
:102B8C00E042B2F5E04F0AD05A68500516D49A6864
:102B9C0002F46022B2F5602F10D1E26872B95A6863
:102BAC0022F080025A60A36A23F48053A362A36AC2
:102BBC00D9055EBFA36A43F00103A362204600F06F
:102BCC009DFA6FF00C0223681A6023685A6852064B
:102BDC000DD51B68DB070AD5A36A204643F4803366
:102BEC00A362FFF76FFF6FF0010223681A6010BD3C
:102BFC0000240140E26500087047406A08B5836A0A
:102C0C0043F040038362C36A43F00403C362FFF7DB
:102C1C00F3FF08BD002373B5514A019303680446C2
:102C2C0093420D4608D002F58062934204D040F2E4
:102C3C00AA614C48FFF771F92B68112B04D940F2AB
:102C4C00AB614848FFF769F96B68013B0F2B04D95E
:102C5C0040F2AC614348FFF760F9AB68072B04D92D
:102C6C0040F2AD613F48FFF758F994F82430012B3E
:102C7C0073D00123686884F82430062822682968F8
:102C8C004FEA800324D803441F20566B053B984021
:102C9C0026EA000001FA03F3034353630929AD68E4
:102CAC004FEA41032ED907260B44D0681E3B9E40A9
:102CBC0020EA060005FA03F30343D360A1F11003E5
:102CCC00012B2AD90020002384F8243002B070BDD7
:102CDC000C280BD803441F20166B233B984026EA84
:102CEC00000001FA03F303431363D7E703441F20E7
:102CFC00D66A413B984026EA000001FA03F30343ED
:102D0C00D362CBE7072610690B449E4020EA0600ED
:102D1C0005FA03F303431361D0E7114B9A4216D122
:102D2C0093681B02CED49368102943F4000393607C
:102D3C00C8D10D4B0D4A1B68B3FBF2F20A23534367
:102D4C000193019B002BBDD0019B013BF8E7A36ACB
:102D5C00012043F02003A362B5E70220B6E700BFD1
:102D6C0000240140E26500084802002040420F00A8
:102D7C00002373B50193036804469A68D20702D501
:102D8C00002002B070BD9A6842F001029A60124BAA
:102D9C00124A1B68B3FBF2F30193019BC3B9FFF713
:102DAC004BFE064623689D6815F00105E8D1FFF738
:102DBC0043FE801B0228F5D9A36A84F8245043F003
:102DCC001003A362E36A012043F00103E362D8E736
:102DDC00019B013BE0E700BF4802002040420F008E
:102DEC00F8B51746404D02680446AA420E4604D078
:102DFC0040F2FC413D48FFF790F82368AB4202D00B
:102E0C003B4A934204D1384B5B6813F4702F67D163
:102E1C0094F82430012B65D00123204684F824300B
:102E2C00FFF7A6FF0546002856D1A36A216823F4B4
:102E3C00706323F0010343F48073A3622C4B99421B
:102E4C0004D1294A536813F4702F3FD1A36A23F499
:102E5C008013A3624B685B0548BFA36A206A42BF1C
:102E6C0023F4405343F48053A362A36A324613F411
:102E7C00805318BFE36A01F14C0118BF23F006031D
:102E8C00E362002384F824301A4B83621A4BC3622A
:102E9C001A4B03636FF0020341F84C3C51F8443C6D
:102EAC0043F4807341F8443C3B4600F063FA2368DA
:102EBC009A6802F46022B2F5602F9A680CBF42F453
:102ECC00A00242F480129A602846F8BDA36A43F42B
:102EDC008013A3625368BEE7002384F82430F3E721
:102EEC000125F1E70225EFE700240140E265000827
:102EFC0000280140772A0008C72A0008072C000880
:102F0C0038B5036804469A68D20701D4002038BD4E
:102F1C009A6822F001029A60FFF78EFD054623683D
:102F2C009B68DB07F2D5FFF787FD401B0228F6D91B
:102F3C00A36A012043F01003A362E36A43F0010388
:102F4C00E36238BD70B50446002800F0C980036800
:102F5C00664A934208D002F58062934204D04FF443
:102F6C00C1716348FEF7D9FF636833F4006304D082
:102F7C0040F283115E48FEF7D0FFA36833F48073F0
:102F8C0004D04FF4C2715A48FEF7C7FFE368012B17
:102F9C0004D940F285115648FEF7BFFFE36933F4BC
:102FAC0020220CD023F40022B2F5C02F07D0B3F5A9
:102FBC00402F04D04FF4C3714D48FEF7AEFFA36809
:102FCC00DBB12369013B0F2B04D94FF4C571484881
:102FDC00FEF7A3FF6369012B04D940F28B1144481F
:102FEC00FEF79BFF636943B1A369013B072B04D92F
:102FFC004FF4C7713E48FEF790FFA36A2BB9E3620A
:10300C0084F824302046FDF7D5FB2046FFF778FFE7
:10301C00A36A13F0100FA36A64D1002862D1E1698E
:10302C0023F48853626823F0020343F002030A433B
:10303C00A168A362E368B1F5807F42EA430238D00D
:10304C00012914BF06464FF480766569012D07D11E
:10305C00002B30D1A369013B46EA433545F40066A9
:10306C002368B1F5807F5D6825F4694545EA06055E
:10307C005D609E681F4D05EA060545EA02059D60E8
:10308C0001D0012920D1216901390905DD6A25F416
:10309C0070052943D9629968174B0B409A4215D198
:1030AC000023E362A36A23F0030343F00103A3624A
:1030BC0070BD0E46C9E7A36A43F02003A362E36A1E
:1030CC0043F00103E362CBE70021DFE7A36A23F0BF
:1030DC00120343F01003A362E36A43F00103E362BB
:1030EC00012070BD43F01003A362F9E700240140F6
:1030FC00E2650008FDF7E1FFFE0E1FFF70470000C0
:10310C00C31E042B10B5044603D9A2210948FEF7AF
:10311C0004FF094A2402D36804F4E06423F4E06356
:10312C001B041B0C43F0BF6343F400331C43D460FB
:10313C0010BD00BF1A66000800ED00E00F2A70B544
:10314C0004460E46154603D9BA211A48FEF7E5FE89
:10315C000F2E03D9BB211748FEF7DFFE164B0120BB
:10316C00D968C1F30221C1F107030A1D042B28BF42
:10317C000423062A94BF0021033900FA03F2013A12
:10318C008840324001388A400540002C42EA050252
:10319C004FEA0212AFBF04F16044084B04F00F0475
:1031AC00D2B2A5BFD2B204F561441A5584F80023FB
:1031BC0070BD00BF1A66000800ED00E014ED00E0E1
:1031CC0010B5041E03DACE210648FEF7A6FE012335
:1031DC00620904F01F0403FA04F4034B43F8224081
:1031EC0010BD00BF1A66000800E100E00138B0F124
:1031FC00807F0AD2F021064B064A586082F82310D1
:10320C000020072298601A6070470120704700BFA9
:10321C0010E000E000ED00E010B5044698B1026843
:10322C000A4B9A4203D077210948FEF776FE637960
:10323C0003F0FF021BB922712046FDF721FB01238D
:10324C000020637110BD012010BD00BF0030024092
:10325C005566000810B50446002800F0818003680C
:10326C00404A934215D01432934212D014329342F6
:10327C000FD0143293420CD01432934209D0143232
:10328C00934206D01432934203D0AA213648FEF75B
:10329C0044FE636833F0100206D0B3F5804F03D0C0
:1032AC00AB213148FEF739FEA36833F0400303D05D
:1032BC00AC212D48FEF731FEE36833F0800303D0D8
:1032CC00AD212948FEF729FE236933F4807206D01C
:1032DC00B3F5007F03D0AE212348FEF71EFE6369D1
:1032EC0033F4806206D0B3F5006F03D0AF211E48D3
:1032FC00FEF713FEA36933F0200303D0B0211A4864
:10330C00FEF70BFEE36933F4405303D0B1211648AA
:10331C00FEF703FE14222168144BA0680B44B3FB88
:10332C00F2F39B002364124B0A68E363636822F494
:10333C007F520343E06822F03002034320690343C9
:10334C0060690343A0690343E069034313430B60C3
:10335C0000200123A06384F8213084F8200010BDE4
:10336C00012010BD080002408D660008F8FFFDBF6B
:10337C00000002402DE9F041174698465A1E4FF6C0
:10338C00FE739A4204460E4604D940F27F1122483D
:10339C00FEF7C3FD94F82030012B39D0012394F8AB
:1033AC00215084F820309D424FF002004FF0000372
:1033BC002AD12168A36384F82100226C0868E36B8E
:1033CC00954020F0010008605D606368C1F80480DE
:1033DC00102BE36A22680BBF8F608E60CE60CF60CB
:1033EC0053B10B6843F00E030B601368002043F0DD
:1033FC0001031360BDE8F0810B6823F004030B603C
:10340C000B6843F00A03EFE784F82030BDE8F08145
:10341C000220BDE8F08100BF8D66000890F82130D5
:10342C0010B5022B03D004238363012010BD036865
:10343C001A6822F00E021A601A6822F001021A6051
:10344C00184A93421FD0143293421ED01432934226
:10345C001DD0143293421DD0143293421DD014321D
:10346C0093420CBF4FF480134FF080730E4A00242C
:10347C005360012380F82130436B80F820407BB1EE
:10348C009847204610BD0123F0E71023EEE74FF4D8
:10349C008073EBE74FF48053E8E74FF48033E5E7B4
:1034AC00184610BD080002400000024070B404250C
:1034BC00C66B026C3468036895402542196832D09B
:1034CC004D0730D51A6896065EBF1A6822F00402C2
:1034DC001A603E4A934219D01432934218D01432D7
:1034EC00934217D01432934217D01432934217D010
:1034FC00143293420CBF4FF480034FF08063344A74
:10350C005360C36A002B5ED070BC18470423F6E7E7
:10351C004023F4E74FF48063F1E74FF48043EEE788
:10352C004FF48023EBE702259540254235D08D07DB
:10353C0033D51A68940606D41A6822F00A021A6067
:10354C00012280F82120214A934219D0143293424F
:10355C0018D01432934217D01432934217D014322D
:10356C00934217D0143293420CBF4FF400134FF018
:10357C000073174A5360002380F82030836AC1E738
:10358C000223F6E72023F4E74FF40073F1E74FF43E
:10359C000053EEE74FF40033EBE708259540254246
:1035AC0011D009070FD5196821F00E0119600123FC
:1035BC0003FA02F27260836380F82130002380F8F2
:1035CC002030036B9EE770BC704700BF08000240C0
:1035DC0000000240114AD36813F0100305D01049C3
:1035EC00CB6943F00203CB611023D268500706D598
:1035FC000B4943F00403CA6942F00102CA61074A4D
:10360C00D169C90708D50648C16941F00401C161F7
:10361C00D16921F00101D161D360704700200240D3
:10362C001007002070477047424B70B5DA68424C67
:10363C0012F0100F02D1DB685A070AD54FF0FF3396
:10364C00A568A360FFF7C6FF2846FFF7ECFF002331
:10365C002370384DEB689B0618D52023EB6023783C
:10366C00A3B12378012B27D16368013B63606368A6
:10367C00DBB1A068FFF7D6FFA06800F58060A06002
:10368C002B6923F002032B6100F010F9237803F06F
:10369C00FF014BB9274B1A6922F007021A611A690C
:1036AC0022F4A0521A61217670BD4FF0FF30A06059
:1036BC002370FFF7B7FFE9E72378022B09D12B69B9
:1036CC00002023F004032B61FFF7ACFF00232370D1
:1036DC00DCE76368013B63606368D3B1A3680233C2
:1036EC00A360A668D4E90401020C42EA01420B0C67
:1036FC00C4E904232B6923F001032B61D4E90423CF
:10370C000023E3612B6992B243F001032B613280F9
:10371C00BCE72378032B06D1A068FFF783FF4FF09B
:10372C00FF33A360D2E72378A068042B0CBF0238C8
:10373C000638F2E70020024010070020064B1869FB
:10374C0010F0800007D0054A5A6002F188325A60A6
:10375C001869C0F3C0107047002002402301674570
:10376C00034A0020136943F080031361704700BFC4
:10377C0000200240F8B50646FFF75EF9114C0746EB
:10378C002546E368D80712D4E368990644BF202382
:10379C00E360EB68DA0606D4EB69DB0703D4E86870
:1037AC0010F0040002D0FFF715FF0120F8BD731CC8
:1037BC00E7D00EB90320F8BDFFF73EF9C01B8642D7
:1037CC00DFD2F7E7002002402DE9F84F1F462F4BC0
:1037DC0016461A7E8346012A8946984652D0012302
:1037EC0088F81830431E022B03D9C2212848FEF753
:1037FC0094FBB9F1006F06D3264B1B88802B38D174
:10380C00254B994503D9C3212148FEF786FB4CF281
:10381C005030FFF7AFFF38BBBBF1010F06D0BBF147
:10382C00020F0CBF4FF0020B4FF0040B0024A2460A
:10383C001A4D220130463946FCF782FCC8F81CA010
:10384C002B6980B243F001032B6129F814004CF270
:10385C005030FFF78FFF2B6923F001032B6118B950
:10386C000134E3B29B45E4D8002388F81830BDE856
:10387C00F88F402B01D10A4BC3E7202B0CBF094B0F
:10388C00094BBEE70220BDE8F88F00BF10070020EF
:10389C00C5660008E0F7FF1FFFFF0108002002408B
:1038AC00FFFF0008FF7F0008FF3F00080022064BC7
:1038BC00DA61064B1A6942F002021A6158611A6900
:1038CC0042F040021A6170471007002000200240AD
:1038DC002DE9F0414A4C0646237E0D46012B00F0A3
:1038EC008B8001232376036833F0020303D0B821C5
:1038FC004448FEF712FB3368022B1CD14CF25030BB
:10390C00FFF738FF20B1012000232376BDE8F081BA
:10391C003D4DE0612B694CF2503043F004032B61B8
:10392C002B6943F040032B61FFF724FF2B6923F035
:10393C0004032B61E8E7B368B3F1006F06D3334A95
:10394C001288802A3CD1324A934203D9F9212D485E
:10395C00FEF7E3FA2D4BB2681B88F168802B38D147
:10396C00013A02EB81232A4A93428CBF00230123A4
:10397C001BB9FA212348FEF7D0FA4CF25030FFF76E
:10398C00F9FE0028BFD14FF0FF3301202B60B76840
:10399C00DFF87480F268B36803EB82239F42B3D2E2
:1039AC003846FFF783FF4CF25030FFF7E3FED8F8B0
:1039BC00103023F00203C8F81030D0B12F60A3E709
:1039CC00402A01D1134ABFE7202A0CBF124A134ADE
:1039DC00BAE7402B04D1531E03EB81230D4AC3E7F6
:1039EC00202B02F1FF3303EB81230CBF0A4A0B4A55
:1039FC00BAE707F58067CDE70220BDE8F08100BF8C
:103A0C0010070020FF66000800200240E0F7FF1FAF
:103A1C00FFFF0108FFFF0008FF7F0008FF3F0008C1
:103A2C002DE9F04FAA4A85B0904204468B4601928C
:103A3C0013D002F5806290420FD002F58062904262
:103A4C000BD002F58062904207D002F58062904262
:103A5C0003D0CD219F48FEF760FADBF8002091B22D
:103A6C0011B1120C12041AB1CE219A48FEF755FA74
:103A7C00DBF80420032A17D9A2F11101012913D96B
:103A8C00954822F4001181420ED000F5801082423C
:103A9C000AD0A0F57020814206D090498A4203D00A
:103AAC00CF218C48FEF739FA0025A846DFF844A24E
:103ABC008B4E0122DBF8007002FA08F909EA0707BD
:103ACC00B94540F08F80019B9C4211D085498C42B6
:103ADC000ED0854B9C420BD001F500618C4207D077
:103AEC0001F580618C4203D0DD217A48FEF715FA8E
:103AFC00DBF80410122900F0D38000F28D8002292B
:103B0C0000F0C18077D8002900F09380012900F0E3
:103B1C00AE80FF2F82BF08F1804EAEF1080E4FEA47
:103B2C008E014FF00F0E9DBF204622684FEA880190
:103B3C0062680EFA01FC22EA0C0205FA01F188BF58
:103B4C00201D11430160DBF80400C3004AD5DAF8EC
:103B5C00182028F0030142F00102CAF81820DAF804
:103B6C00182001F1804102F00102039201F580312D
:103B7C0008F0030C019B039A4FEA8C0C8A680EFA2E
:103B8C000CFE9C4222EA0E0E00F09B80554A944299
:103B9C0000F09980544B9C4200F0978002F5006233
:103BAC00944214BF0422032202FA0CF242EA0E02DF
:103BBC008A603268C1034CBF3A43BA4332607268C0
:103BCC0083034CBF3A43BA437260B268C1024CBF24
:103BDC003A43BA43B260F26883024CBF174322EAFD
:103BEC000707F76008F10108B8F1100F7FF461AF17
:103BFC0005B0BDE8F08F03295FD0112989D1DBF81E
:103C0C000C20013A022A03D9EC213248FEF785F93F
:103C1C00DBF80C5004357CE73448814209D01CD8C1
:103C2C00A0F58010814204D000F5803081427FF4F1
:103C3C0070AFDBF80810022904D940F207112548AF
:103C4C00FEF76BF9DBF80810C9B301290CBFC4F8F7
:103C5C001090C4F8149008255BE725488142E8D001
:103C6C0000F580308142E4D0A0F58010DEE7DBF86F
:103C7C000C20013A022A03D9E5211648FEF74DF92A
:103C8C00DBF80C5045E7DBF80C20013A022A03D98B
:103C9C00F3211048FEF741F9DBF80C50083538E7F2
:103CAC00DBF80C20013A022A03D9FA210948FEF765
:103CBC0034F9DBF80C500C352BE7002529E70425EB
:103CCC0027E7002270E701226EE702226CE700BFB3
:103CDC00000801403C670008000011100000221091
:103CEC0000040140000C01400010014000002110B4
:103CFC00000031100010024038B505460C4621B9C1
:103D0C0040F2C3110448FEF708F9AB681C4214BF1B
:103D1C000120002038BD00BF3C67000870B5054687
:103D2C0016460C4621B940F2E3110848FEF7F5F8A7
:103D3C00012E06D94FF4F2710448FEF7EEF82C610F
:103D4C0070BD002EFBD12404F9E700BF3C670008CE
:103D5C0038B505460C4621B940F2F9110348FEF777
:103D6C00DCF8EB685C40EC6038BD00BF3C670008D9
:103D7C0038B50446002832D002681A4B9A4203D058
:103D8C00AD211948FEF7C9F86368062B03D9AE219B
:103D9C001548FEF7C2F8A368B3F5805F03D3AF21D3
:103DAC001148FEF7BAF84CF6CC4223681A6045F27B
:103DBC0055521A6062685A60A2689A60FEF73CFE1F
:103DCC0005462368D86818B94AF6AA221A6038BD85
:103DDC00FEF732FE401B3028F3D9032038BD0120FA
:103DEC0038BD00BF00300040756700084AF6AA22B3
:103DFC00036800201A6070477047000010B5054C2E
:103E0C006369DB0304D5FFF7F7FF4FF4803363617D
:103E1C0010BD00BF000401402DE9F341044620B958
:103E2C004FF4B871A548FEF778F8236833B11A0738
:103E3C0004D140F27111A148FEF76FF82368DB073B
:103E4C0018D423689F0772D42368190700F1B9802E
:103E5C0023685A0700F1EB80E369022B04D940F286
:103E6C00B9219648FEF759F8E269002A40F05E81C4
:103E7C00002020E0636833F4803207D0B3F5A02F24
:103E8C0004D040F277118D48FEF747F88C4D6B68E3
:103E9C0003F00C03042B07D06B6803F00C03082B06
:103EAC000CD16B68DE0309D52B689D03C9D56368FB
:103EBC00002BC6D1012002B0BDE8F0816368B3F5D8
:103ECC00803F10D12B6843F480332B60FEF7B4FD98
:103EDC0006462B689803B4D4FEF7AEFD801B64280D
:103EEC00F7D90320E7E79BB92B6823F480332B60C9
:103EFC002B6823F480232B60FEF79EFD06462B686F
:103F0C0099039ED5FEF798FD801B6428F7D9E8E746
:103F1C00B3F5A02F2B6803D143F480232B60D1E79A
:103F2C0023F480332B602B6823F48023CDE72369A3
:103F3C00012B04D940F2AB116048FDF7EEFF636929
:103F4C001F2B04D94FF4D6715C48FDF7E6FF5C4D8E
:103F5C006B6813F00C0F07D06B6803F00C03082B85
:103F6C0010D16B68DA030DD42B689B0702D523693B
:103F7C00012B9FD12B68626923F0F80343EAC2033B
:103F8C002B6061E722694F4B6AB101221A60FEF780
:103F9C0053FD06462B689F07ECD4FEF74DFD801BA6
:103FAC000228F7D99DE71A60FEF746FD06462B68F6
:103FBC0098077FF549AFFEF73FFD801B0228F6D925
:103FCC008FE7A369012B04D94FF4F6713B48FDF739
:103FDC00A4FFA2693A4D3C4BDAB101221A60FEF7FC
:103FEC002BFD06466B6A9B070DD54FF4FA52374BE7
:103FFC001B68B3FBF2F3019300BF019B5A1E0192A5
:10400C00002BF9D124E7FEF717FD801B0228E9D914
:10401C0067E71A60FEF710FD06466B6A9F077FF58F
:10402C0017AFFEF709FD801B0228F6D959E7E368A4
:10403C00012B06D9052B04D040F21B211F48FDF79C
:10404C006CFF1F4DEB69D80024D40127EB6943F0BA
:10405C008053EB61EB6903F080530093009B1C4E83
:10406C003368D90518D5E368012B33D12B6A43F09B
:10407C0001032B62FEF7E0FC41F2883680462B6A86
:10408C009B074CD5002F3FF4E7AEEB6923F0805330
:10409C00EB61E1E60027E2E7336843F480733360B9
:1040AC00FEF7CAFC80463368DA05DCD4FEF7C4FCA4
:1040BC00A0EB08006428F6D913E700BFAE67000830
:1040CC00001002400000424280044242480200209C
:1040DC0000700040ABB92B6A41F2883823F0010321
:1040EC002B622B6A23F004032B62FEF7A5FC064619
:1040FC002B6A9807C6D5FEF79FFC801B4045F7D965
:10410C00EFE6052B2B6A03D143F004032B62ADE7DA
:10411C0023F001032B622B6A23F00403A9E7FEF7BB
:10412C008BFCA0EB0800B042A9D9DAE6384D6B68DD
:10413C0003F00C03082B3FF4BDAE022A354E57D1C9
:10414C00236A33F4803304D040F2C2213248FDF7A5
:10415C00E4FE636A33F4402223F4802110D0B2F5DC
:10416C00801F0DD0B2F5001F0AD0B1F5401F07D04B
:10417C00B3F5601F04D040F2C3212748FDF7CDFEF4
:10418C0000233360FEF758FC07462B68990129D4AD
:10419C00236AB3F5803F0ED1A36833F4003304D007
:1041AC0040F2D9211C48FDF7B8FE6B68A26823F4D5
:1041BC00003313436B60236A616A6A680B4322F411
:1041CC00741213436B6001233360FEF735FC044615
:1041DC002B689A013FF54CAEFEF72EFC001B022813
:1041EC00F6D97EE6FEF728FCC01B0228CDD978E66E
:1041FC0000233360FEF720FC04462B689B017FF5FF
:10420C0037AEFEF719FC001B0228F6D969E600BF91
:10421C000010024060004242AE67000830B5194BF6
:10422C0087B002AC03F110052246186859680833B0
:10423C0003C2AB421446F7D101238DF8043002239C
:10424C0011498DF805304B6803F00C02082A17D180
:10425C00C3F3834206A80244DB0312F8102C0CD5DE
:10426C004B680A48C3F34043504306AA134413F85F
:10427C00143CB0FBF3F007B030BD05485043FAE7EF
:10428C000248F8E77C6400080010024000127A0033
:10429C0000093D002DE9F0410E46044620B940F2DC
:1042AC002E317F48FDF739FE23681D0704D140F2FB
:1042BC002F317B48FDF731FE022E04D94FF44C719F
:1042CC007748FDF72AFE774A136803F007039E42EE
:1042DC003DD82368980747D42368DA0770D4714A0D
:1042EC00136803F007039E42C0F0B58023686E4D3F
:1042FC0013F0040F40F0BB8023681B0717D523690C
:10430C0033F480620CD023F40072B2F5A06F07D0A6
:10431C00B3F5C06F04D04FF46E716148FDF7FDFD2D
:10432C006B68226923F4605343EAC2036B60FFF7A6
:10433C0075FF6B685D4AC3F30313D35CD8405C4BC9
:10434C0018600020FEF736FB0020BDE8F0811368F2
:10435C0023F0070333431360136803F007039E42F3
:10436C00B7D00120BDE8F0814F4D13F0040F1EBFF4
:10437C006A6842F4E0626A60190742BF6B6843F4F2
:10438C0060536B60A36833F0800212D023F02002DC
:10439C00902A0ED023F04002A02A0AD023F010025B
:1043AC00C02A06D0F02B04D040F256313C48FDF721
:1043BC00B4FD6B68A26823F0F00313436B608BE7CA
:1043CC006368022B04D940F25D313548FDF7A5FD39
:1043DC006268354D012A2B681DD113F4003FC0D003
:1043EC006B6841F2883823F0030313436B60FEF7CC
:1043FC0023FB63680746012B15D16B6803F00C0394
:10440C00042B3FF46CAFFEF717FBC01B4045F4D9EF
:10441C000320BDE8F081022A02D113F0007FDEE711
:10442C0013F0020FDBE7022B10D16B6803F00C03C7
:10443C00082B3FF454AFFEF7FFFAC01B4045F4D9EC
:10444C00E6E7FEF7F9FAC01B4045E1D86B6813F0BC
:10445C000C0FF6D143E7136823F0070333431360C3
:10446C00136803F007039E427FF47BAF3EE7E368DB
:10447C0033F480620CD023F40072B2F5A06F07D035
:10448C00B3F5C06F04D040F2B1310548FDF745FDDE
:10449C006B68E26823F4E06313436B602CE700BFA6
:1044AC00AE6700080020024000100240CA650008F8
:1044BC0048020020044B054A5B68C3F30223D35C1B
:1044CC00034A1068D840704700100240DA650008B3
:1044DC0048020020044B054A5B68C3F3C223D35C3B
:1044EC00034A1068D840704700100240DA65000893
:1044FC004802002003682DE9F34113F0130F054621
:10450C0003D17C214548FDF708FD2B68D90728D538
:10451C006B6833F4407303D082214048FDF7FDFCF7
:10452C003F4CE369DA0044D40127E36943F080533C
:10453C00E361E36903F080530193019B394E3368C7
:10454C00DB0538D5236A13F4407348D1236A6A68B3
:10455C0023F44073134323621FB1E36923F08053A8
:10456C00E3612B689B070ED5AB6833F4404303D053
:10457C00C9212A48FDF7D1FC294AA968536823F4BC
:10458C0040430B435360286810F0100024D0EB68B4
:10459C0033F4800304D040F225112048FDF7BDFC14
:1045AC001F4AE9685368002023F480030B435360CF
:1045BC0012E00027C2E7336843F480733360FEF7E0
:1045CC003BFA80463368D805BCD4FEF735FAA0EB2D
:1045DC0008006428F6D9032002B0BDE8F0816A68AF
:1045EC0002F440729342B1D001200F4A236A10604A
:1045FC00002023F4407110602162D907A6D5FEF784
:10460C001BFA41F288380646236A9A079ED4FEF7B5
:10461C0013FA801B4045F7D9DDE700BFE6670008B9
:10462C00001002400070004040044242036A2DE931
:10463C00F04123F001030362046AD0F80480866918
:10464C000B6826F073061E438B6824F002041C438F
:10465C001A4B054698420F4627D1CB6833F0080316
:10466C0004D041F23F211648FDF757FCFB6824F0BB
:10467C0008041C43BB6924F0040433F4007304D015
:10468C0041F24C210E48FDF748FC7B6933F48073F2
:10469C0004D041F24D210A48FDF73FFC7B69BA6911
:1046AC0028F44078134343EA08087B68C5F8048073
:1046BC00AE616B632C62BDE8F08100BF002C014041
:1046CC0021680008036A2DE9F04123F4807303622A
:1046DC00046AD0F80480C6690B6826F073061E4382
:1046EC008B6824F4007444EA03241B4B054698425F
:1046FC000F4628D1CB6833F0080304D041F2D42103
:10470C001648FDF70AFCFB6824F4006444EA032411
:10471C00BB6924F4806433F4007304D041F2E121CA
:10472C000E48FDF7FAFB7B6933F4807304D041F239
:10473C00E2210A48FDF7F1FB7B69BA6928F440587D
:10474C00134348EA03187B68C5F80480EE61EB63F9
:10475C002C62BDE8F08100BF002C014021680008EC
:10476C00036A2DE9F04123F480530362056AD0F803
:10477C000480C7690B6827F4E64747EA03278B6870
:10478C0025F4005545EA03350D4B044698420E4678
:10479C000DD14B6933F4807304D041F21F310948B9
:1047AC00FDF7BBFB736928F4804848EA83187368EB
:1047BC00C4F80480E76123642562BDE8F08100BF82
:1047CC00002C0140216800080368114A10B593427F
:1047DC0004460FD0B3F1804F0CD0A2F59432934223
:1047EC0008D002F58062934204D040F2331109489C
:1047FC00FDF793FB0223226884F83D3013680020F8
:10480C0043F001031360012384F83D3010BD00BF59
:10481C00002C0140216800080368104A10B593422F
:10482C0004460FD0B3F1804F0CD0A2F594329342D2
:10483C0008D002F58062934204D040F2611108481E
:10484C00FDF76BFB23680020DA6842F00102DA60A6
:10485C001A6842F001021A6010BD00BF002C014022
:10486C00216800087047704790F83C3070B5012BF8
:10487C0005460C464FF002002ED0012385F83C3043
:10488C000B6885F83D00B3F5805F0CD0B3F5005F85
:10489C0009D033F0300306D0402B04D040F67171B0
:1048AC00B548FDF73AFB2B689A6822F47F4222F058
:1048BC0077029A602268402A00F062812CD8102A74
:1048CC0000F0B98109D8002A00F09B810123002057
:1048DC0085F83D3085F83C0070BD202A00F0C5817C
:1048EC00302AF3D1A54A93420FD0B3F1804F0CD0AC
:1048FC00A2F59432934208D002F58062934204D020
:10490C0040F6F9719C48FDF708FB2A68936823F080
:10491C00700343F03703A9E0702A00F0A98046D851
:10492C00502A00F0E780602AD0D1944A93420FD0ED
:10493C00B3F1804F0CD0A2F59432934208D002F51B
:10494C008062934204D040F6C3718B48FDF7E5FAC0
:10495C006368B3F5004F09D033F0020206D00A2B7E
:10496C0004D040F6C6718448FDF7D7FAE3680F2BE4
:10497C0004D940F6C7718048FDF7CFFA2B686668FA
:10498C00186AE46820F01000186299691A6A21F418
:10499C00704122F0A00242EA061241EA0431996108
:1049AC001A629A6822F0700242F06702E2E0B2F5F5
:1049BC00805F44D0B2F5005F88D1704A93420FD02B
:1049CC00B3F1804F0CD0A2F59432934208D002F58B
:1049DC008062934204D04FF47A616748FDF79DFAE8
:1049EC00A36833F4405304D040F6A3716248FDF73A
:1049FC0094FA6368B3F5004F09D033F0020206D085
:104A0C000A2B04D040F6A4715B48FDF786FAE368E4
:104A1C000F2B04D940F6A5715748FDF77EFA2A688A
:104A2C006068A36891680343E06821F47F4143EA1E
:104A3C0000230B439360936843F4804316E04F4A82
:104A4C0093420FD0B3F1804F0CD0A2F59432934225
:104A5C0008D002F58062934204D040F67D7146483E
:104A6C00FDF75BFA2A68936823F0070393602DE740
:104A7C00424A93420FD0B3F1804F0CD0A2F594323E
:104A8C00934208D002F58062934204D040F68671BE
:104A9C003948FDF742FAA36833F4405304D040F68A
:104AAC0089713548FDF739FA6368B3F5004F09D0C1
:104ABC0033F0020206D00A2B04D040F68A712E483D
:104ACC00FDF72BFAE3680F2B04D940F68B712A48BB
:104ADC00FDF723FA2A686068A36891680343E068CD
:104AEC0021F47F4143EA00230B439360936843F026
:104AFC007703BBE7214A93420FD0B3F1804F0CD020
:104B0C00A2F59432934208D002F58062934204D00D
:104B1C0040F6B4711848FDF700FA6368B3F5004F1E
:104B2C0009D033F0020206D00A2B04D040F6B7713C
:104B3C001148FDF7F2F9E3680F2B04D940F6B87170
:104B4C000D48FDF7EAF92B686168186AE6681C6A7B
:104B5C0020F00A0024F001041C629A69014322F03F
:104B6C00F00242EA06129A6119629A6822F0700207
:104B7C0042F057029A60A9E621680008002C014017
:104B8C00474A93420FD0B3F1804F0CD0A2F5943228
:104B9C00934208D002F58062934204D040F6D27161
:104BAC004048FDF7BAF96368B3F5004F09D033F00C
:104BBC00020206D00A2B04D040F6D5713948FDF715
:104BCC00ACF9E3680F2B04D940F6D6713548FDF7E4
:104BDC00A4F92B686168186AE6681C6A20F00A0060
:104BEC0024F001041C629A69014322F0F00242EAAB
:104BFC0006129A6119629A6822F0700242F047021A
:104C0C00B8E7274A93420FD0B3F1804F0CD0A2F5EE
:104C1C009432934208D002F58062934204D040F65D
:104C2C00E1712048FDF779F92A68936823F0700345
:104C3C0043F007031AE71A4A93420FD0B3F1804F9F
:104C4C000CD0A2F59432934208D002F580629342C4
:104C5C0004D040F6E9711348FDF75FF92A689368B0
:104C6C0023F0700343F0170300E70D4A93420FD073
:104C7C00B3F1804F0CD0A2F59432934208D002F5D8
:104C8C008062934204D040F6F1710648FDF745F975
:104C9C002A68936823F0700343F02703E6E600BF0D
:104CAC00002C01402168000870477047704770471E
:104CBC007047036810B51A69044691070ED5DA6877
:104CCC0092070BD56FF002021A6101229B690277E1
:104CDC009B0777D0FFF7EAFF0023237723681A6935
:104CEC00500710D5DA6851070DD56FF004021A6120
:104CFC0002229B69227713F4407F204668D0FFF78D
:104D0C00D5FF0023237723681A6912070FD5DA68B9
:104D1C0010070CD56FF008021A610422DB692277A8
:104D2C00990720465AD0FFF7C1FF00232377236849
:104D3C001A69D20610D5DA68D0060DD56FF01002BC
:104D4C001A610822DB69227713F4407F20464BD08E
:104D5C00FFF7ACFF0023237723681A69D10708D526
:104D6C00DA68D20705D56FF0010220461A61FFF709
:104D7C009BFF23681A69100608D5DA68110605D559
:104D8C006FF0800220461A6100F015FC23681A6946
:104D9C00520608D5DA68500605D56FF04002204659
:104DAC001A61FFF785FF23681A69910622D5DA6824
:104DBC0092061FD56FF020022046BDE810401A6104
:104DCC0000F0F8BBFFF771FF2046FFF770FF83E799
:104DDC00FFF76BFF2046FFF76AFF92E7FFF765FFCF
:104DEC002046FFF764FFA0E7FFF75FFF2046FFF7C1
:104DFC005EFFAFE710BD00001A4A036890420AD06C
:104E0C00B0F1804F07D0A2F59432904203D002F556
:104E1C008062904215D14A6823F070031343114A03
:104E2C0090420AD0B0F1804F07D0A2F59432904254
:104E3C0003D002F58062904203D1CA6823F4407318
:104E4C0013434A6923F08003134303608B68C362E6
:104E5C000B688362034B984204BF0B690363012305
:104E6C0043617047002C014010B50446002849D01E
:104E7C000368254A93420ED0B3F1804F0BD0A2F5B4
:104E8C009432934207D002F58062934203D0D92129
:104E9C001E48FDF742F8A36833F0100209D023F046
:104EAC004002202A05D0402B03D0DA211748FDF709
:104EBC0034F8236933F4807206D0B3F5007F03D045
:104ECC00DB211248FDF729F8A36933F0800303D0E6
:104EDC00DC210E48FDF721F894F83D3003F0FF0279
:104EEC0023B984F83C202046FDF750FB02232068B0
:104EFC0084F83D30211DFFF77FFF0123002084F84B
:104F0C003D3010BD012010BD002C0140216800086F
:104F1C0010B5044600284DD00368274A93420FD0A1
:104F2C00B3F1804F0CD0A2F59432934208D002F525
:104F3C008062934204D040F2F1112048FCF7EDFF5F
:104F4C00A36833F010020AD023F04002202A06D0C6
:104F5C00402B04D04FF4F9711848FCF7DEFF23699D
:104F6C0033F4807207D0B3F5007F04D040F2F31114
:104F7C001248FCF7D2FFA36933F0800304D04FF43E
:104F8C00FA710E48FCF7C9FF94F83D3003F0FF02AC
:104F9C0023B984F83C202046FFF764FC02232068E8
:104FAC0084F83D30211DFFF727FF0123002084F8F2
:104FBC003D3010BD012010BD002C014021680008BF
:104FCC0010B5044600284DD00368274A93420FD0F1
:104FDC00B3F1804F0CD0A2F59432934208D002F575
:104FEC008062934204D040F2EE312048FCF795FFEA
:104FFC00A36833F010020AD023F04002202A06D016
:10500C00402B04D040F2EF311848FCF786FF23699F
:10501C0033F4807207D0B3F5007F04D04FF47C7169
:10502C001248FCF77AFFA36933F0800304D040F2F6
:10503C00F1310E48FCF771FF94F83D3003F0FF029C
:10504C0023B984F83C202046FFF70DFC022320688E
:10505C0084F83D30211DFFF7CFFE0123002084F89A
:10506C003D3010BD012010BD002C0140216800080E
:10507C00036A2DE9F04123F010030362046AD0F8AF
:10508C00048086690B6826F4E64646EA03268B689C
:10509C0024F0200444EA03141A4B054698420F46A8
:1050AC0028D1CB6833F0080304D041F2892116488B
:1050BC00FCF733FFFB6824F0800444EA0314BB695B
:1050CC0024F0400433F4007304D041F297210E48CD
:1050DC00FCF723FF7B6933F4807304D041F29821F1
:1050EC000948FCF71AFF7B69BA6928F44068134336
:1050FC0048EA83087B68C5F80480AE61AB632C6218
:10510C00BDE8F081002C014021680008182A70B518
:10511C0004460D46164603D84E4BD340DB0704D449
:10512C004FF439614C48FCF7F8FE2B6823F0100261
:10513C0033F0300306D0402A04D040F69131464873
:10514C00FCF7EBFEAB6833F0020304D040F692316F
:10515C004148FCF7E2FE94F83C300220012B2DD0A4
:10516C00012384F83D0084F83C300C2E20D8DFE875
:10517C0006F0071F1F1F261F1F1F3F1F1F1F580052
:10518C002368364A93420FD0B3F1804F0CD0A2F56E
:10519C009432934208D002F58062934204D040F6D8
:1051AC009D312D48FCF7B9FE29462068FFF73EFAE1
:1051BC000123002084F83D3084F83C0070BD236846
:1051CC00264A93420FD0B3F1804F0CD0A2F5943203
:1051DC00934208D002F58062934204D040F6A53188
:1051EC001D48FCF79AFE29462068FFF741FFDFE7D0
:1051FC0023681A4A93420FD0B3F1804F0CD0A2F51A
:10520C009432934208D002F58062934204D040F667
:10521C00AD311148FCF781FE29462068FFF752FAA0
:10522C00C6E723680D4A93420FD0B3F1804F0CD0E0
:10523C00A2F59432934208D002F58062934204D0D6
:10524C0040F6B5310448FCF768FE29462068FFF7A4
:10525C0087FAADE71111000121680008002C01400C
:10526C0090F83C3070B5012B04460D46164600F004
:10527C00D6800123182A80F83C3003D8694BD340E0
:10528C00DB0704D440F637416748FCF746FE2B6831
:10529C0023F01003602B04D040F638416248FCF731
:1052AC003CFEAB6833F0020304D040F639415E4853
:1052BC00FCF733FE2B6933F0040304D040F63A417B
:1052CC005948FCF72AFE022384F83D300C2E2DD8C9
:1052DC00DFE806F0072C2C2C332C2C2C592C2C2CE6
:1052EC007F002368514A93420FD0B3F1804F0CD00A
:1052FC00A2F59432934208D002F58062934204D016
:10530C0040F642414848FCF708FE29462068FFF762
:10531C008DF9236829699A6942F008029A619A69A1
:10532C0022F004029A619A690A439A6101230020CF
:10533C0084F83D3084F83C0070BD23683B4A9342AE
:10534C000FD0B3F1804F0CD0A2F59432934208D019
:10535C0002F58062934204D040F651413248FCF78A
:10536C00DCFD29462068FFF783FE236829699A69CA
:10537C0042F400629A619A6922F480629A619A6995
:10538C0042EA0122D1E72368284A93420FD0B3F1B5
:10539C00804F0CD0A2F59432934208D002F5806273
:1053AC00934204D04FF446611F48FCF7B6FD2946E2
:1053BC002068FFF787F923682969DA6942F0080247
:1053CC00DA61DA6922F00402DA61DA690A43DA6135
:1053DC00ACE72368154A93420FD0B3F1804F0CD041
:1053EC00A2F59432934208D002F58062934204D025
:1053FC0040F66F410C48FCF790FD29462068FFF7FA
:10540C00AFF923682969DA6942F40062DA61DA6972
:10541C0022F48062DA61DA6942EA0122D7E70220DB
:10542C0070BD00BF1111000121680008002C014063
:10543C0038B50268364B04469A420D4604D04FF4F8
:10544C00C1613448FCF769FD2B6833F4006304D068
:10545C0040F209612F48FCF760FD6B6833F4806300
:10546C0004D040F20A612B48FCF757FDAB6833F4CB
:10547C00407304D040F20B612648FCF74EFDEB68FC
:10548C00FF2B04D940F20C612248FCF746FD2B6936
:10549C0033F4805304D040F20D611E48FCF73DFDFF
:1054AC006B6933F4005304D040F20E611948FCF7D9
:1054BC0034FDAB6933F4804304D040F20F611548DE
:1054CC00FCF72BFD94F83C30012B1ED00020EB6830
:1054DC00AA6823F4407313436A6823F4806313436C
:1054EC002A6823F4006313432A6923F4805313437B
:1054FC006A6923F400531343AA6923F4404313430A
:10550C002268536484F83C0038BD022038BD00BFCB
:10551C00002C01405968000838B5244A0368044639
:10552C0093420D460FD0B3F1804F0CD0A2F59432BC
:10553C00934208D002F58062934204D04FF4C761C5
:10554C001B48FCF7EAFC2B6833F0300306D0402BE9
:10555C0004D040F239611648FCF7DFFC6B6833F07D
:10556C00800304D040F23A611148FCF7D6FC94F861
:10557C003C300220012B18D0236884F83D005A6877
:10558C00296822F070025A605A6800200A435A6057
:10559C009A68696822F080029A609A680A439A6055
:1055AC00012384F83C0084F83D3038BD002C0140C8
:1055BC0059680008704770470368DA6822F49072E3
:1055CC00DA605A6922F001025A61202380F83A30DD
:1055DC00704700004268654B2DE9F0479A428146BE
:1055EC0004D940F6A7116248FCF797FCD9F80C30A7
:1055FC0033F4005304D040F6A8115D48FCF78DFC41
:10560C00D9F8103033F4806207D0B3F5C06F04D0F2
:10561C0040F6A9115648FCF780FC4FF6F372D9F806
:10562C001430134200D123B940F6AA115048FCF7AC
:10563C0074FCD9F80050D9F80C202B69D9F810104B
:10564C0023F4405313432B61D9F80830EA680B4319
:10565C00D9F8141022F4B05222F00C020B4313436D
:10566C00EB606B69D9F8182023F4407313436B611A
:10567C00404B19249D4246D1FEF72CFF04FB00F34E
:10568C00D9F804604FF06408B600B3FBF6F3B3FB33
:10569C00F8F31E01FEF71EFF6043D9F804309B009F
:1056AC00B0FBF3F7FEF716FF6043D9F804309B000C
:1056BC00B0FBF3F3B3FBF8F308FB13731B013233AA
:1056CC00B3FBF8F303F0F007FEF704FF6043D9F8DF
:1056DC0004209200B0FBF2FAFEF7FCFE6043D9F80E
:1056EC0004309B00B0FBF3F3B3FBF8F308FB13A3FC
:1056FC001B013233B3FBF8F303F00F033B4333448A
:10570C00AB60BDE8F087FEF7D5FE04FB00F3D9F8DB
:10571C0004604FF06408B600B3FBF6F3B3FBF8F388
:10572C001E01FEF7C7FE6043D9F804309B00B0FBA6
:10573C00F3F7FEF7BFFE6043D9F804309B00B0FBD3
:10574C00F3F3B3FBF8F308FB13731B013233B3FB16
:10575C00F8F303F0F007FEF7ADFE6043D9F8042030
:10576C009200B0FBF2FAFEF7A5FEB7E720AA4400C0
:10577C00946800080038014010B5044600285BD03E
:10578C00816903682D4A00294AD093420CD0A2F5B6
:10579C007442934208D002F58062934204D040F2E6
:1057AC000F112748FCF7B9FBA36933F4407304D0FD
:1057BC004FF488712248FCF7B0FBA36833F4805394
:1057CC0004D04FF48B711E48FCF7A7FB94F83930CA
:1057DC0003F0FF0223B984F838202046FDF784F843
:1057EC002423226884F83930D368204623F40053EC
:1057FC00D360FFF7EFFE236800201A6922F4904271
:10580C001A615A6922F02A025A61DA6842F400528B
:10581C00DA602023E06384F8393084F83A3010BD24
:10582C009342CAD0074A9342C7D002F58062934292
:10583C00C3D04FF48A71BDE7012010BD0038014080
:10584C00946800080044004038B50446134694F8A8
:10585C003920202A2AD139B333B394F83820012ABD
:10586C0024D00122002584F838202122E384206BE7
:10587C00E56384F839200E4AA384216282620D4AC2
:10588C004563C2620C4A026322680432FDF772FD62
:10589C006FF04002236828461A605A6984F8385021
:1058AC0042F080025A6138BD012038BD022038BD5B
:1058BC00C9580008F75800088159000808B5036852
:1058CC00426A1B6813F020030AD1D38413685A6907
:1058DC0022F080025A61DA6842F04002DA6008BDB8
:1058EC001046FBF7E7FB08BD704708B5406AFFF7A9
:1058FC00FBFF08BD704790F83A3010B5222B36D11B
:10590C0083680169B3F5805F0268836A23D15268AA
:10591C00E9B9C2F3080223F8022B8362C48D013C5F
:10592C00A4B2C4858CB90368DA6822F02002DA606C
:10593C00DA6822F48072DA605A6922F001025A6144
:10594C00202380F83A30FFF7D5FF002010BDD2B2EB
:10595C0023F8012BE1E721B9591C526881621A70B6
:10596C00DCE75268591C816202F07F02F7E70220E3
:10597C0010BD7047416A08B50B685A6991F8390037
:10598C0021280AD1120608D50022CA84DA6822F02E
:10599C00C002DA60202281F839205B6991F83A2044
:1059AC00222A06D15B0604D500230846CB85FFF7D7
:1059BC0003FECB6B084643F01003CB63FFF7D9FF14
:1059CC0008BD0000036870B51A6804461607D9684C
:1059DC005D6907D196065AD58D0658D5BDE870403D
:1059EC00FFF789BF15F0010502D111F4907F4ED05D
:1059FC00D30705D5CE0542BFE36B43F00103E36348
:105A0C00500704D51DB1E36B43F00203E363930726
:105A1C0004D51DB1E36B43F00403E363160704D50F
:105A2C001DB1E36B43F00803E363E36B002B66D01B
:105A3C00950604D5880602D52046FFF75CFF23683F
:105A4C0020465D69E26B110702D415F040051AD0AF
:105A5C00FFF7B2FD23685A69520610D55A69606B7C
:105A6C0022F040025A6150B1254B4363FDF7D6FC3E
:105A7C00002844D0606BBDE87040436B184720464B
:105A8C00FFF777FF70BDFFF774FFE56370BD160677
:105A9C0027D50D0625D594F83920212A2FD1A268B7
:105AAC00B2F5805F226A17D11188C1F308015960E1
:105ABC00216979B902322262E28C013A92B2E28413
:105ACC00EAB9DA6822F08002DA60DA6842F0400261
