:020000040800F2
:1000000000100020E16A00089D2F00089F2F0008C3
:1000100000000000000000000000000000000000E0
:10002000000000000000000000000000A12F0008F8
:100030000000000000000000A32F0008A52F00080A
:10004000316B000800000000316B0008AD2F000884
:10005000B52F0008316B0008316B0008316B0008C8
:1000600000000000316B0008B92F0008D12F0008F4
:10007000E12F0008F12F0008316B0008000000009C
:10008000253000080000000000000000F9300008E2
:1000900000000000D1310008316B0008316B00080E
:1000A00000000000316B000800000000E932000889
:1000B0000000000000000000000000000000000040
:1000C00010B5064C2378002B07D1054B002B02D02E
:1000D000044800E000BF0123237010BD500200203F
:1000E00000000000B06B0008044B10B5002B03D0DB
:1000F0000349044800E000BF10BDC04600000000F6
:1001000054020020B06B000802B47146490849004F
:10011000095C49008E4402BC7047C0460022430877
:100120008B4274D303098B425FD3030A8B4244D3BF
:10013000030B8B4228D3030C8B420DD3FF22090201
:1001400012BA030C8B4202D31212090265D0030BC0
:100150008B4219D300E0090AC30B8B4201D3CB03B6
:10016000C01A5241830B8B4201D38B03C01A5241F8
:10017000430B8B4201D34B03C01A5241030B8B42FA
:1001800001D30B03C01A5241C30A8B4201D3CB02E5
:10019000C01A5241830A8B4201D38B02C01A5241CA
:1001A000430A8B4201D34B02C01A5241030A8B42CD
:1001B00001D30B02C01A5241CDD2C3098B4201D3E5
:1001C000CB01C01A524183098B4201D38B01C01A63
:1001D000524143098B4201D34B01C01A52410309DA
:1001E0008B4201D30B01C01A5241C3088B4201D389
:1001F000CB00C01A524183088B4201D38B00C01A36
:10020000524143088B4201D34B00C01A5241411A5C
:1002100000D20146524110467047FFE701B5002069
:1002200000F006F802BDC0460029F7D076E7704717
:100230007047C046D0400B1CD1409C46203AD3406A
:100240001843524263469340184370478446101C3B
:1002500062468C46191C634600E0C0461FB501F09B
:1002600007FC002801D40021C8421FBD10B501F0D1
:1002700061FB4042013010BD10B501F0F9FB0028D0
:1002800001DB002010BD012010BDC04610B501F0FB
:10029000EFFB002801DD002010BD012010BDC0468D
:1002A00010B501F081FB002801DC002010BD012009
:1002B00010BDC04610B501F077FB002801DA002020
:1002C00010BD012010BDC0468446081C6146FFE7F2
:1002D0001FB500F06BFC002801D40021C8421FBDEF
:1002E00010B500F0FDFB4042013010BD10B500F02C
:1002F0005DFC002801DB002010BD012010BDC046C0
:1003000010B500F053FC002801DD002010BD0120D5
:1003100010BDC04610B500F009FC002801DC00202B
:1003200010BD012010BDC04610B500F0FFFB002835
:1003300001DA002010BD012010BDC046002B11D1F4
:10034000002A0FD1002900D1002802D00021C94382
:10035000081C07B4024802A14018029003BDC04621
:10036000D1FEFFFF03B4684601B5029800F01EF805
:10037000019B9E4602B00CBC7047C0469E2110B542
:10038000C905041CFFF7D0FF002803D1201C00F092
:100390000BFF10BD9E21201CC90500F069FD00F077
:1003A00003FF80231B069C466044F2E7F0B55746E6
:1003B0004E464546DE46E0B5040083B00D00924649
:1003C00099468B422FD82CD04946504601F0ACFCC0
:1003D00029000600200001F0A7FC331A9846203BB4
:1003E0009B4600D574E053465A4693401F0053463F
:1003F000424693401E00AF4229D826D05B46A41B3C
:10040000BD41002B00DA79E0002200230092019325
:1004100001235A469340019301234246934000939F
:1004200019E08242D0D900220023009201930C9B54
:10043000002B01D01C605D600098019903B03CBCAA
:1004400090469946A246AB46F0BDA342D6D90022BB
:100450000023009201934346002BE8D0FB0772086B
:100460001A4346467B080EE0AB4201D1A2420CD8AB
:10047000A41A9D41012024196D410021013E241838
:100480004D41002E06D0AB42EED9013E24196D41FC
:10049000002EF8D15B460098019900196941002BA4
:1004A00022DB2B005A46D3402A004446E2401C007F
:1004B0005B461500002B2CDB26009E4033002600F7
:1004C0004746BE403200801A994100900191AEE744
:1004D000424620239B1A5246DA40414613004A46C0
:1004E0008A4017001F4382E7424620239B1A2A00B6
:1004F00046469A402300F3401343D5E74246202363
:1005000000219B1A0022009101920122DA400192FF
:1005100082E74246202326009B1ADE402F00B44685
:10052000974066463B003343C9E7C046F0B5C64630
:100530004E024702760A7B0A4400C50FF7004800C6
:10054000984600B5240E2A00DB00000EC90FBC46F9
:100550008D4267D0221A002A00DCA5E000283AD19B
:10056000002F00D193E0511E002900D0BCE00124EF
:10057000DB1B5A0146D59B019E09300001F0B6FBFA
:1005800005388640844200DD9DE0041B32002020B7
:100590000134E240041BA64033005E1EB341002438
:1005A00013435A0704D00F221A40042A00D0043300
:1005B0005A0129D50134FF2C00D181E02A009B018A
:1005C0005B0AE4B25B02E405580AD20720431043F9
:1005D00004BC9046F0BDFF2CE3D080213800C90454
:1005E000084384461B2A00DD82E020206146D1407A
:1005F000821A604690400200501E82410A439B1AB4
:100600005A01B8D45A07CED1DE082A00FF2C3AD1BD
:10061000002E00D1AEE08023DB0333435B025B0A94
:10062000FF24CFE7211A002952DD002831D0FF2C0A
:10063000B7D080203E00C0040643B4461B2900DD2D
:10064000AAE020266046C840711A66468E403100F6
:100650004E1EB14101435B185901D3D50134FF2C23
:1006600000D187E0012278491A405B080B40134310
:1006700097E7002C00D0A7E0002B00D0B6E03B1E8F
:1006800062D10026002273025B0AE4B29AE71400EA
:1006900087E7002F4DD0481E002857D1634401241E
:1006A0005A01AFD50224DDE7002A24D1621CD2B260
:1006B000012ADEDDDE1B720135D5FE1A0D005CE776
:1006C0002A0000237EE73300604A241A134068E7BB
:1006D000002963D1611CC8B201284EDDFF2949D031
:1006E00063445B080C005CE7FF2A41D00A0079E70D
:1006F00001229B1A84E7002C1DD0FF2822D08024E1
:10070000E404524223431B2A00DD8AE01C0020251A
:10071000D440AA1A93405A1E9341234362460400D0
:10072000D31A0D0025E7002E00D026E70022002472
:10073000A9E70C0035E7002B4DD0D243002AEDD0BD
:10074000FF28E0D16346FF240D002AE7FF290FD0E0
:10075000010073E7002B61D0FF24002F00D120E7B8
:1007600080224146D203114202D0164200D13B0002
:10077000FF2416E7FF24002324E7002CEAD1002BF6
:1007800058D0002F00D10CE763445A0100D439E758
:100790002E4A0C00134004E701215CE7002C1ED117
:1007A000002B40D0C94300290BD0FF2836D01B298D
:1007B00047DC1C002026CC40711A8B40591E8B410F
:1007C00023436344040047E7002B18D13B1E2DD080
:1007D0000D00FF24E5E63B0004000D00E1E6FF28E4
:1007E0001CD08024E40449422343E0E7002F00D1D9
:1007F000D7E6DE1B72011FD5FB1A0D00D1E6FF24E0
:10080000002F00D1CDE680224046D2031042AFD067
:100810001642ADD13B000D00FF24C2E66346FF2423
:10082000BFE601237AE73B000400BAE680260022F7
:10083000F603F0E63B00B4E6331E00D0E2E6002209
:1008400021E70123BDE7C046FFFFFF7DFFFFFFFB60
:10085000F0B557464E46DE464546E0B544024300F5
:10086000C60F83B00F1C640A1B0EB24653D0FF2B79
:1008700027D08022E400D20414437F2252429046C3
:100880009844002399469B467D027800FB0F6D0A31
:10089000000E009324D0FF2846D080230021ED00D5
:1008A000DB041D437F384746381A4F460F43BF00CD
:1008B000B9463300009A874F53404A46BA580193CD
:1008C0009746002C4ED108239946F7339846FD3BB6
:1008D0009B467D027800FB0F6D0A000E0093DAD173
:1008E000002D26D1002001213300009A7A4F534079
:1008F0004246101A4A460A439200BA581D009746CB
:10090000009B2C009A468B465B46022B31D1534606
:10091000FF21002438E0002C17D10423994600233E
:10092000984601339B46AFE7FF20002D0BD10221F3
:10093000DAE7280001F0DAF9431F9D4076235B4295
:10094000181A0021AFE70321ADE7200001F0CEF92E
:10095000431F9C4076235B421B1A9846002399460E
:100960009B4691E70C239946F3339846FC3B9B4604
:100970008AE7032B00D1A5E05546012B00D081E08A
:100980000123002100242B406402C905600ADB0713
:100990000843184303B03CBC90469946A246AB4678
:1009A000F0BD80240023E403FF21EDE7FF210024B4
:1009B000EAE70123591A1B2966DD019A1340002139
:1009C0000024E1E78023DB031C4238D01D4251D0D4
:1009D0001C436402640A3300FF21D5E763016C0104
:1009E000A3423BD21B260021013801251F004900EC
:1009F0005B00002F01DB9C4201D81B1B2943013EF9
:100A0000002EF3D11C00631E9C410C4301007F317A
:100A10000029CEDD630704D00F232340042B00D030
:100A20000434230103D501002C4B80311C40FE29E6
:100A30000DDD0123019AFF2113400024A4E7802348
:100A4000DB031C436402640A3300FF219CE701239B
:100A5000019AA401640AC9B2134095E71B1B1A2628
:100A60000121C2E7009B8B469A4600244CE76302B3
:100A7000E5D500258024E4032C436402640A009B2E
:100A8000FF2181E70195C1E723002020CB40411AD7
:100A90008C40611E8C411C43630704D00F2323400C
:100AA000042B00D00434630105D50123019A0121F0
:100AB0001340002468E70123019AA401640A13404B
:100AC000002161E78023DB031C436402640A534670
:100AD000FF2159E7E86B0008286C0008FFFFFFF7CB
:100AE00070B5420045024E024C00C30F6D0A120E53
:100AF000760A240EC90F0120FF2A06D0FF2C03D04E
:100B0000A24201D1B54206D070BD002DFCD1FF2C10
:100B1000FAD1002EF8D18B4206D00120002AF3D161
:100B20002800451EA841EFE70020EDE7F0B54200A0
:100B300045024C02C30F48006D0A120E640A000EF3
:100B4000C90FFF2A1ED0FF2821D0002A0AD16E42E9
:100B50006E41F6B200280FD1002C0DD10020002DDF
:100B600009D005E0002801D1002C01D08B4211D022
:100B7000012158420843F0BD002EF7D00120013971
:100B80000843F8E7002DDED002204042F3E7002CB6
:100B9000DBD0F9E78242EBDC04DBA542E8D8002099
:100BA000A542E8D20121581E0843E4E7F0B542000F
:100BB0004D024C004602760A120EC30F6D0A240E37
:100BC000C90FFF2A16D0FF2C18D0002A0AD1704274
:100BD0007041C0B2002C15D0002805D00120013989
:100BE0000843F0BD002C13D0994214D001205B4281
:100BF0001843F6E70220002EF3D1E4E70220002D8F
:100C0000EFD1E2E7002DE7D10020002EE9D0EDE79B
:100C1000002DE9D1EAE7A24206DCDFDBAE4203D8D1
:100C20000020AE42DAD3DCE7012049420843D8E78E
:100C3000F8B557464E464546DE46E0B54702460003
:100C400088467F0A360EC40F002E47D0FF2E24D0D0
:100C5000FB008027FF041F43002399469A467F3EEE
:100C600043465D025800DB0F6D0A000E984643D0E4
:100C7000FF283BD0EB0080250022ED041D437F3888
:100C80003618731C41469B464B46614013430F2B5D
:100C900064D875489B00C3589F46002F42D1082353
:100CA0009946063BFF269A46DAE74146022A28D0B3
:100CB000032A00D1CEE0012A00D0ACE01140002090
:100CC0000022CCB24002D205400AE4071043204380
:100CD0003CBC90469946A246AB46F8BD002F15D1C4
:100CE00004239946033B00269A46B9E7FF200222D7
:100CF000002DC5D00322C3E7002D19D10020012209
:100D0000BEE70124FF220C400020DBE7380000F0A2
:100D1000EDFF7626431F9F4000237642361A994600
:100D20009A469DE70C239946093BFF269A4697E78A
:100D3000280000F0DBFF431F9D4076235B42181A1A
:100D400000229DE780200024C003FF22BAE73D0077
:100D50005246ABE73D0021005246A7E73B0C9C46BC
:100D60002A04120C2B0C1400604665463F043F0C0D
:100D70007C4342435D437B43270C9B18FF18BA42D8
:100D800003D980235B029C46654424043A04240C66
:100D9000121993015C1EA3413F0C920E7D191A4358
:100DA000AD0115432B0104D501235E466A081D40A1
:100DB000154332007F32002A25DD6B0704D00F2354
:100DC0002B40042B00D004352B0103D53200274BD8
:100DD00080321D40FE2A94DC0124A801400AD2B2D0
:100DE0000C406FE78020C003074207D0054205D1C1
:100DF00028434002400A4446FF2263E7384340024A
:100E0000400AFF225EE70124A31A1B2B05DD0C40DC
:100E10000022002056E75E46CBE72A002020DA4079
:100E2000C31A9D402B005D1EAB4113435A0704D0EB
:100E30000F221A40042A00D004335A0104D5012499
:100E400001220C4000203DE701249B01580A0C4080
:100E5000002237E780200124C00328434002400AD3
:100E60000C40FF222EE7C046686C0008FFFFFFF72A
:100E7000F0B54F46D64646464400C0B5C20F4702BD
:100E80004802400A844666467B0A4800C90F9A46D3
:100E9000240E1500DB00000E8946F600FF2800D165
:100EA0008FE001214F464F403900914266D0221A0F
:100EB000002A00DC9DE000283DD1002E00D18BE00F
:100EC000511E002900D0B5E001249B1B5A0144D5D6
:100ED0009B019F09380000F009FF053887408442D4
:100EE00000DD96E0041B3A0020200134E240041BA0
:100EF000A7403B005F1EBB41002413435A0704D0A8
:100F00000F221A40042A00D004335A0127D5013495
:100F1000FF2C00D179E001229B015B0AE4B22A4058
:100F20005B02E405580AD207204310431CBC9046DC
:100F30009946A246F0BDFF2CE0D08021C9040E43A3
:100F40001B2A7BDC31002020D140821A9640721E81
:100F500096410E439B1B5A01BAD45A07D0D10122A5
:100F6000DF082A40FF2C33D1002F00D1A8E08023D6
:100F7000DB033B435B025B0AFF24D1E7211A002914
:100F80004CDD00282AD0FF2CB8D08020C0040643B6
:100F90001B2900DDAFE030002027C840791A8E40C1
:100FA000711E8E4106439B195901D6D50134FF2C81
:100FB00000D185E001227A491A405B080B401343B7
:100FC0009CE7002E00D070E76BE73B1EC5D10022E6
:100FD0007B025B0AE4B2A3E714008FE7002E4DD03A
:100FE000481E002857D19B1901245A01B5D5022467
:100FF000E0E7002A25D1621CD2B2012A72DD9F1BD4
:101000007A0135D5F71A0D0064E7012200232A4042
:1010100086E73B00634A241A13406FE700296CD12E
:10102000611CC8B201284EDDFF2949D09B195B081D
:101030000C0063E7FF2A41D00A0081E701269B1BD1
:1010400089E7002C1CD0FF2821D08024E4045242E0
:1010500023431B2A00DD96E01C002025D440AA1A59
:1010600093405A1E93412343F31A04000D002DE7C9
:10107000002F00D02EE700220024A9E70C003DE756
:10108000002B58D0D243002AEED0FF28E1D1330004
:10109000FF240D0032E7FF2910D0010078E7002B74
:1010A0006ED0FF24002E00D128E780225146D203C3
:1010B000114203D06146114200D13300FF241DE7E5
:1010C000FF2400232CE7002CE9D1002B63D0002E55
:1010D00000D113E79B195A0100D43EE7314A0C00B6
:1010E00013400BE7002C1ED1002B2FD1002E4FD028
:1010F00033000D0002E7012655E7002C1FD1002B1D
:1011000043D0C94300290BD0FF2839D01B2944DC28
:101110001C002027CC40791A8B40591E8B41234359
:101120009B19040040E7002B1AD1002E24D1802700
:101130000022FF031BE7330004000D00DEE6FF285A
:101140001ED08024E40449422343DFE7002E00D16F
:10115000D4E69F1B7A0100D437E7F31A0D00CDE6E1
:10116000FF24002E00D1C9E680225046D20310424F
:10117000A4D060461042A1D133000D00FF24BDE68B
:101180003300FF24BAE601236EE733000400B5E61E
:10119000002700221CE73300B0E60123C0E7C04669
:1011A000FFFFFF7DFFFFFFFB41024300C20F490A23
:1011B0001B0E00207E2B0DDD9D2B0CDC80200004FF
:1011C0000143952B0ADC9620C31AD9404842002AD5
:1011D00000D108007047034BD018FBE7963B9940BD
:1011E000F4E7C046FFFFFF7F70B5002830D0C3177B
:1011F000C4185C40C50F200000F078FD9E231B1A28
:10120000962B0DDC9622D21A94402A006402640ABE
:10121000DBB26402DB05600AD2071843104370BDDD
:10122000992B19DC9922D21A002A29DD9440220038
:10123000144C1440510704D00F210A40042A00D056
:101240000434620113D4A401640ADBB22A00E0E78B
:10125000002200230024DCE705222100121AD140DD
:10126000B922D21A9440621E94410C43DAE7054B2E
:101270002A001C409F23A4011B1A640ADBB2C8E7A2
:101280002200D5E7FFFFFFFB10B5041E27D000F0BA
:101290002DFD9E231B1A962B0ADC9622D21A94400F
:1012A0006402640ADBB26402DB05600A184310BD05
:1012B000992B17DC9922D21A002A27DD94402200AC
:1012C000134C1440510704D00F210A40042A00D0C7
:1012D0000434620112D4A401640ADBB2E3E7002300
:1012E0000024E0E7B9222100D21A91400A00511EE1
:1012F0008A410521091ACC401443DBE7044B1C400A
:101300009F23A4011B1A640ADBB2CCE72200D7E7B3
:10131000FFFFFFFBF8B54546DE4657464E460C0339
:10132000E0B54E00C90F88460D00610A440F0C431A
:10133000C70019035800DB0F9B464B0A510F0B43A4
:10134000760D400D1900D200D84500D1AEE0351A17
:10135000002D00DCF6E000280FD1134300D1DBE0C4
:101360006B1E002B00D037E1BA1A9742BF41641AB6
:101370007F42E41B0126170024E0C64B9E424DD05D
:1013800080231B041943382D00DD07E11F2D00DDEC
:1013900038E12020431B9A460B0050468340994673
:1013A00013004846EB401843030050468240501E4D
:1013B0008241E9401A43BA1A611A9742A4411700C0
:1013C00064420C1B230262D56402650A002D00D121
:1013D000DFE0280000F08AFC0300083B1F2B00DD43
:1013E000D2E020223C00D21A9D40D4409F402543A9
:1013F0009E4200DDC4E09E1B731C1F2B00DDF1E04C
:10140000202238002900D21AD840914097402C0061
:101410000143781E8741DC4000260F437B0709D03B
:101420000F233B40042B05D03B1DBB42BF417F42F5
:10143000E4191F0023022CD5964B01369E4200D1A1
:101440009AE04546944BFF081C406007760564020D
:101450000743240B760D00212403230B0C0D8F4A28
:1014600024051C431440330523435B00ED075B0850
:101470002B43380019003CBC90469946A246AB4627
:10148000F8BD6446044300D111E2040067467B07BF
:10149000C6D145466007FF080743E4087D4B9E42DE
:1014A00030D024037605240B760DD4E7331A9A4600
:1014B000002B78DD002831D076488642AED08020DF
:1014C000000401435346382B00DCE9E00A43511E77
:1014D0008A410021D219BA42BF4109197C42170042
:1014E0000C192302D3D56B4B01369E4200D13AE151
:1014F0000120694B1C407B0807401F43E00707435E
:1015000064088BE723003B4300D1CBE18022120328
:1015100014432403240B9EE72E007FE708001043AA
:1015200000D1B4E0581E002800D0DEE0BA18BA425C
:101530009B4164185B42E418170001262302A6D5DC
:101540000226D5E7002D6ED1701C4005400D012804
:1015500000DCF9E0B81A844687428041E51A40422F
:101560002D1A280200D489E0D71BBA4292411C1BD5
:101570005242A51AD84629E74546002400276AE7C3
:10158000454CF61A2C4049E73D0028388540002795
:101590002EE7380000F0AAFB20301DE70A43511E59
:1015A0008A41002107E7002B00D0F3E0701C4305BF
:1015B0005B0D012B00DCADE0364B984200D1D1E051
:1015C000BA18BA42BF4164187F42E419E7075208CB
:1015D00017436408060021E72E48854200D193E0B6
:1015E0001D00D0E629001F3EF140202B00D18DE0E8
:1015F0004022D31A9D402F437D1EAF4100240F434C
:10160000002644E72B000800203BD8400300202D93
:1016100000D17DE04020451BA9400A43511E8A416C
:1016200000211A43C7E6002E50D01A4EB04257D0C0
:1016300080266B429946360434434B46382B00DDF6
:10164000D6E01F2B00DD35E12026F51A2600AE403E
:10165000B2463E00DE40AC46350056462E43654657
:10166000AF407D1EAF41DC403743D71BBA429241A9
:101670000C1B5242A41A0600D846A3E664466746ED
:101680002C4300D0A2E600250026002706E71E0016
:10169000C4E6C046FF070000FFFF7FFFFFFF0F808B
:1016A0001F2B63DC2020C31A080098409C46834609
:1016B00053461000D84003005846184363469A40EA
:1016C000531E9A4153460243D94003E726003E4346
:1016D00006D0EB439946002BC7D0944EB042ACD114
:1016E0000C0017000600D84698E6904B9A450BD0A0
:1016F0008246E7E6002800D09EE01800104300D1A3
:10170000E9E01C001700D846884E87E6002572E7FE
:10171000002182E723003B43002E00D0ABE0002BEA
:1017200000D1E7E00B00134300D177E6BA18BA42C4
:10173000BF4164187F42E419230200D4F2E07C4BDD
:1017400017001C40060069E620003843002ED1D166
:1017500000285BD11C00144300D1A8E01C00170036
:10176000D8465BE606000024002797E650460B00AB
:101770002038C34099465346202B00D195E04023A2
:1017800050461B1A99400A43511E8A414B4600217C
:101790001A439FE6002E30D126003E4367D0DB433C
:1017A0009A46002B1CD0614EB04260D05346382B75
:1017B00000DD96E01F2B00DD9FE02026F31A2600B7
:1017C0009E409C46B34653463E00DE4033005E4694
:1017D0001E4363469F407B1E9F415346DC40374378
:1017E000BF189742924164185242A418060078E646
:1017F00027437C1EA741002437E74C4EB04236D029
:1018000080265B4236049A463443CFE718001043E3
:1018100000D103E6B81A84466745AD41E01A6D422F
:10182000401B050200D42CE6D71BBA4292411C1B78
:101830005242A41AD846F1E51800104300D163E7DC
:10184000F808670707438020E4080003044208D033
:10185000DD08054205D1D208590711430F002C00BD
:10186000D8467B0FE4001C43FF00304ED6E50C0049
:1018700017000600D2E5002B38D00B00134300D12F
:1018800042E7F808670707438020E40800030442A2
:10189000E7D0CB080342E4D1D208490711430F0037
:1018A0001C00DEE700270024D5E500216BE70025BA
:1018B0000027F3E54E462500203EF5404B462E001E
:1018C000202B2DD04025ED1AAC4027437C1EA7418C
:1018D00000243743C9E6802400252403134E002743
:1018E000DCE527437C1EA741002479E70C001700A4
:1018F0000E4E93E50C00170090E556462300203E5F
:10190000F34099465346202B0ED0402356469B1B4E
:101910009C4027437C1EA7414B4600241F435FE7A2
:101920000024D2E71700B2E50024F2E7FF07000029
:10193000FFFF7FFFF0B54F464646D6465C00C0B578
:101940001F03DB0F9A46174B0E034D00844680465B
:10195000360B6D0DC90F91463F0B640D01209D4262
:1019600008D09C4201D0A5420BD01CBC90469946A1
:10197000A246F0BD63463343F7D1AC42F5D13A43BA
:10198000F3D10120BE42F0D1C845EED1514507D078
:10199000002DEAD163461E433000461EB041E4E705
:1019A0000020E2E7FF070000F0B54546DE46574657
:1019B0004E46E0B51F033D0B2C4F0E034C00AB46CB
:1019C0005D008446360B640DC90F90466D0DDB0F2C
:1019D000BC422AD0254FBD422DD0002C0FD1304320
:1019E0000700814678427841C0B2002D17D15F468A
:1019F0003A4314D14B460020002B0AD006E0002DBC
:101A000002D15846024301D0994218D048420121E0
:101A100008433CBC90469946A246AB46F0BD002820
:101A2000F2D00120013B1843F3E737000743D1D040
:101A300002204042EDE75F461743CED0F8E7AC42C4
:101A4000E4DC03DA481E01210843E2E75E45DDD805
:101A500006D000205E45DCD20123481E1843D8E79B
:101A6000C445D3D80020C445F6D3D2E7FF07000011
:101A7000F0B54E464546DE4657465C00E0B51F03CE
:101A8000DB0F99462A4B0E034D00C90F8446360BD7
:101A90006D0D8B4690463F0B640D9D4220D0244B2C
:101AA0009C4222D0002D12D1304343424341DBB24D
:101AB000002C1FD0002B0CD04B460120013B0343D0
:101AC00018003CBC90469946A246AB46F0BD002C9F
:101AD00016D0CB4517D05B46594201230B43EFE7A5
:101AE000310002230143EBD1D9E73900022311432E
:101AF000E6D1D7E73A43DDD100230028E0D0EAE77A
:101B00003A43E6D1E7E7A542E5DC05DBBE42E2D891
:101B100007D00023BE42D3D25946012301390B43DB
:101B2000CEE7C445D7D80023C445F5D3C8E7C0469F
:101B3000FF0700004100090E4B1C70B5DBB24602E6
:101B4000750AC40F012B14DDE0239B006D07360BD3
:101B5000CB1800210A0D280012051C4D32435B05ED
:101B60002A405B0813435B00E4075B08234319002A
:101B700070BD002914D1002D1ED0280000F0B6F849
:101B80000A281CDC0B232A001B1ADA400300153339
:101B90009D400F4B12031B1A5B05160B5B0DD8E71C
:101BA000002D06D0320B802636036D071643094BF5
:101BB000CFE7084B0026CCE700230026C9E7030047
:101BC0002A000B3B9A400025E3E7C046FFFF0F8049
:101BD00089030000FF070000F0B54C00640D0B0303
:101BE000621C450F5B0A52052B43C90FC500520DFD
:101BF000012A28DD3A4AA618FE2E1BDC002E3EDD07
:101C000080010200501E82416D0F2A43DB00134306
:101C10005A0704D00F221A40042A00D0043380222D
:101C2000D2041A405AD00136FF2E03D09B015B0A22
:101C3000F4B201E0FF2400235802E405400AC9077A
:101C400020430843F0BD002C07D01D43F2D0802074
:101C5000DB0080040343FF26DAE72B4303D0052390
:101C6000DB08FF2C03D05B025B0AE4B2E4E7002B45
:101C700032D08020C00303435B025B0ADCE7320002
:101C8000173214DB80221E2712041343BF1B1F2FA1
:101C90000FDC144A944664442A00A5402E00A34059
:101CA000751EAE41FA40334313430026B0E70024CB
:101CB000D5E702225242961B1A00F240202F09D08B
:101CC000094884466444A3402B435D1EAB41002673
:101CD00013439DE70023F7E70023ADE73400BFE798
:101CE00080FCFFFF82FCFFFFA2FCFFFF1C21012301
:101CF0001B04984201D3000C10391B0A984201D3EF
:101D0000000A08391B09984201D30009043902A2CC
:101D1000105C40187047C046040302020101010133
:101D2000000000000000000010B5002903D1FFF7FB
:101D3000DDFF203002E0081CFFF7D8FF10BDC046D1
:101D400030B585B00C22002101A804F020FF042248
:101D50001F4C204B6261C222012523600023FF3209
:101D600020006360A360E3602561A361E3612562F5
:101D70006362A262E3622563636301F0D9FD002818
:101D800001D001F0F1F880235B010293072301A940
:101D900020000195039302F037F8002801D001F0EC
:101DA000E3F8022301A92000019302F02DF8002896
:101DB00001D001F0D9F8052301A92000019302F018
:101DC00023F8002801D001F0CFF805B030BDC0469F
:101DD000FC0200200024014070B5050088B01422E8
:101DE000002103A804F0D3FE204B2A689A423BD17D
:101DF00080201F4980008A69802602438A618B699E
:101E00007600034080200193019B4A6980020243CF
:101E10004A614B6903A903400293029B9020262349
:101E2000C0050393233B049302F096FC114C124B24
:101E30002000236000236360A3608033E36080237D
:101E4000DB0063612023A36180235B012661E361E2
:101E500002F04AF9002801D001F086F8074A136819
:101E600033431360EC63656208B070BD0024014029
:101E700000100240B80200201C0002400000014097
:101E800010B50C4B0C4C23600023200023716371B0
:101E90006361A3610133236202F0CAF8002801D014
:101EA00001F062F8200002F01DF9002801D001F0D5
:101EB0005BF810BD0030024048030020074B026869
:101EC00082B09A4208D14020054A516901435161CC
:101ED000536903400193019B02B0704700300240F8
:101EE0000010024010B503220249034801F054FEDD
:101EF00010BDC04678030020FC0200200023002013
:101F000000210C4A13600C4A13600C4A13600C4AFF
:101F100013600C4A0133136053609360D3600A4A24
:101F200013600A4A10605160094A1360094B186037
:101F300059607047280000202C000020300000204D
:101F400034000020380000204800002080020020DB
:101F5000000000207002002010B5884224D9401AE9
:101F6000FFF792F91449FEF763FEFE218905FEF79B
:101F7000DDFA1249041CFEF7CDF9002819D11049E9
:101F8000201CFEF7B3F9002800D00D4C201C10BD1A
:101F9000081AFFF779F90849FEF74AFE011CFE20EE
:101FA0008005FEF765FFE4E78842F1D3FE24A4052F
:101FB000ECE7024CEAE7C0469A999939CDCCCC3F80
:101FC000CDCCCC3E70B5051C0C1CFEF78FF900285B
:101FD0000DD00F49281CFEF7A9FA051C011C201C76
:101FE000FEF78EF9002800D12C1C201C70BD211C8E
:101FF000281CFEF78FF90028F6D00549281CFEF7AB
:1020000037FF051C011C201CFEF78EF9EAE7C046CD
:10201000A69BC43B802310B5DB05834205DC002270
:102020000324002B03D190B210BD9B10F5E7D1180B
:10203000884201DB401A5A18D10F8A18D91721405B
:10204000CB1852109B10ECE70D4B70B5186859680F
:102050000C4B1A680023FEF771F90B4C20602068C6
:10206000FFF7D8FF094B206020681D68FFF70CF9C7
:10207000291CFEF7DDFDFEF781F9206070BDC0462A
:1020800070020020000000206C02002004000020EC
:102090000D4B70B5186859680C4B1A680023FEF791
:1020A0004DF90B4C20602068FFF7B4FF094B20600E
:1020B00020681D68FFF7E8F8291CFEF7B9FDFEF758
:1020C0005DF9206070BDC0468002002048000020FD
:1020D000780200204C000020F8B5FFF7D9FFFFF789
:1020E000B3FF284C284F38682168FEF717F8274EB1
:1020F000386030686168FEF711F8254D3060286857
:10210000A168FEF70BF8234B28601868E168FEF71A
:1021100005F880241F4B2401186038682100FFF760
:102120001BFF1D4B1D4F1860011C3868FFF74AFF4D
:10213000386030682100FFF70FFF194E194B011C62
:1021400018603068FFF73EFF306021002868FFF715
:1021500003FF154D154B011C18602868FFF732FF6F
:102160000C4B286018682100FFF7F6FE104B114C4D
:10217000011C18602068FFF725FF2060FFF7BEFEF6
:10218000F8BDC04638000020280000202C000020A8
:1021900030000020340000205000002018000020F3
:1021A0001C000020540000202000002058000020C7
:1021B0005C00002024000020294A70B51368294ED5
:1021C00001331360284A51885388346875684B433B
:1021D0001800D91700196941306071602349244EF5
:1021E0000B6801330B6011881388346875684B43A2
:1021F0001800D91700196941306071601D481E49E7
:1022000004888D681D4BAC4208DD1D4912880868A2
:1022100012180A60DA680132DA6070BD04884D680D
:10222000AC4208DD17491288086812180A609A68DB
:1022300001329A60F1E7008809681288884207DD58
:102240001149086812180A605A6801325A60E4E7B6
:102250000E49086812180A601A6801321A60DCE731
:1022600000000020700200207803002048000020B9
:10227000800200208A020020080000203800002090
:1022800034000020300000202C0000202800002016
:10229000054B002A01D001229A60013901D2186849
:1022A000704704C81A60F8E70030024010B5642295
:1022B0000021024804F06BFC10BDC046B8030020AA
:1022C000024A1368002BFCD07047C046440200202D
:1022D000002210B50400074B1A6063220649074824
:1022E00004F03CF80228F8D0002C01D0FFF7E8FFFA
:1022F00010BDC04644020020B80300206006002044
:10230000054B026810B59A4204D10122034B1A60B2
:10231000FFF7CCFF10BDC04600380140440200204A
:10232000014A024B1A607047AAAA00000030004020
:10233000014B1B687047C0469402002010B5094C41
:102340006068FEF7A1FF0849FEF772FC074B1860B2
:102350002068FEF799FF0449FEF76AFC044B1860F9
:1023600010BDC0469C0200203333533A04000020C5
:102370004C000020842110B5024B034A06C3FFF72E
:10238000DDFF10BD9C020020340E0000054B10B58F
:102390001B68002B02D1FFF7EDFF10BDFFF7CEFF4A
:1023A000FBE7C0469802002070B501250D4C0E4E8B
:1023B0002A0020606160200008213560FFF768FF77
:1023C0000A4B01001860002000F082FA2168280002
:1023D00000F07EFA6168022000F07AFA0023336090
:1023E00070BDC0469C020020A4020020980200207C
:1023F00010B50024074B1C80FFF7C8FF064B03CB2A
:10240000FFF7D2FF0549064804F0C9FB2000FFF79B
:102410005FFF10BD400200209C020020A86C000855
:10242000B803002070B5204800F0B4FA05001F483A
:1024300000F0B0FA1E4A1388092B03D8002001339C
:10244000138070BD022815D11A4C022D26D01A4BCC
:10245000188880B2FEF7C8FE1849FEF7E9FB011C98
:102460001748FEF7F5F9FDF789FF2060FFF7C0FF79
:102470000120E6E70020022DE3D10F4B588880B2FF
:10248000FEF7B2FE0D49FEF7D3FB011C0D48FEF727
:10249000DFF9FDF773FF074B5860E7E7FFF76AFFC7
:1024A00003CCFFF781FFE1E79C03002080030020BD
:1024B000400200209C020020780300203333533A6E
:1024C0000000664300007A44104B11491A680A4024
:1024D000FF211A605A6C8A435A644022596C0A439D
:1024E0005A641022596C0A435A640822596C0A43F0
:1024F0005A640422596C0A435A640222596C0A43F2
:102500005A640122596C0A435A647047002C0140F6
:10251000FFFCFFFF8022054B1201196A0A431A6271
:102520008022196A92000A431A627047002C014007
:102530008022054B520159680A435A60802259682B
:1025400092010A435A607047002C01401021114B40
:10255000114A10B59A62114A7020DA62F43AFF3AD1
:10256000DA631A688A431A60602219689143196015
:10257000D9698143D961D9690A43DA61A022196A0C
:10258000D2000A431A62FFF7C5FFFFF7D1FFFFF73A
:102590009BFF10BD002C0140BF030000E7030000BB
:1025A000FA220B4B520010B5DA63A022196AD2004E
:1025B0000A431A62FFF7AEFFFFF7BAFFFFF784FF87
:1025C00000F0FCF8FFF79AFCFFF786FD10BDC0464F
:1025D000002C01400121104B1A698A431A61DA6804
:1025E0008A43DA601A680D490A401A6080225968E5
:1025F00092010A435A605A6809490A405A60802287
:10260000196A92000A431A621A6A06490A401A6253
:102610000022DA637047C046002C0140FEFF000034
:10262000FFEFFFFFFFF7FFFFC023034A1B02516CC0
:102630000B4353647047C046002C0140044B0549CE
:102640005A6C0A405A645A6C03490A405A647047EB
:10265000002C0140FF7FFFFFFFBFFFFF10B5FFF71A
:10266000E3FF10BD10B5FFF7E9FFFFF7B3FF10BDA3
:10267000002310B50A4A0B4C13806363A363FFF772
:102680008FFF0123084AD1681943D16011681943AB
:102690001160E2681A43E26022681343236010BDB0
:1026A0008A02002000040040002C01400121074B59
:1026B0001A698A431A61DA688A43DA601A68044937
:1026C0000A401A6000225A639A637047000400406F
:1026D000FEFF0000C023034A1B02516C0B435364EE
:1026E0007047C04600040040044B05495A6C0A403C
:1026F0005A645A6C03490A405A6470470004004007
:10270000FF7FFFFFFFBFFFFF10B5FFF7E3FFFFF7FE
:10271000AFFF10BD10B5FFF7E7FFFFF7C7FF10BD14
:102720000122184B18499A62D962002159639963B2
:10273000196A0A431A620222196A0A4310211A62AC
:102740001A6A0A431A622022186A02431A62802215
:102750005868520002435A6080225868D2000243EF
:102760005A609A69094802409A619869084A024386
:102770009A611A688A431A601A6850318A431A604B
:102780007047C04600040040E70300008F8FFFFF42
:1027900060600000FC23054A9B051360044A136037
:1027A000044A1360044A13607047C04624000020A6
:1027B000200000201C0000201800002010B5FFF7AA
:1027C000E9FF10BD0B4A0C4B11889868814202DD6D
:1027D0000A4B1868704711885868814201DD084B20
:1027E000F7E712881B689A4201DD064BF1E7064BBA
:1027F000EFE7C0468A0200200800002024000020E5
:10280000200000201C00002018000020144B70B590
:102810001A880020EE2A1CD81B88124A5B009C5A9A
:10282000FFF7D0FFFE218905A4B2051CFDF758FD76
:10283000002808D12000FEF7D7FC291CFEF7F8F984
:10284000FDF79CFD84B2084B201C9C4202D9181C49
:1028500080B270BDA3B21E2BFAD21E20F8E7C0468C
:102860008A02002060000020CA0300001FB501F0AA
:1028700043FE0123002403930A4B694601A80293F7
:10288000019401F0FBFEA04208D101F047FE009B3D
:10289000581C44426041C0B204B010BD01F03EFE7D
:1028A0002000F9E7007C0008411810B500230A2930
:1028B00008DD180010BD054C83001B191B68013092
:1028C00008C280B28142F6DC0123F2E7007C0008F6
:1028D000F8B504000D000020092C17D81B4BA400EC
:1028E000E7183B68013307D101F006FE6B1C23D1CA
:1028F00001F014FE012009E0154E0A213200FFF715
:10290000D3FF002803D101F009FE0020F8BDA55136
:10291000FFF7ACFF01F0F0FD0C4C0E4B2100E3186B
:10292000F2580220002301F02DFE0028EBD10A4BC3
:1029300004349C42F1D1D7E72A0000233900022059
:1029400001F020FE0028DED1D2E7C046007C00085E
:10295000A00400200084FFF7287C00080260009A91
:102960000372C260019A0023026101224160037573
:1029700043758361C27583754372704710B5040057
:102980000188406802F000F8237A181A431E984123
:10299000C0B210BD70B50400FFF7F0FFE67D050082
:1029A00086421AD0002807D100F060FF0123A06101
:1029B000A375E57500200FE000F058FFA369E168FA
:1029C00002005B1801209A4203D30423E07518002B
:1029D000637200236375237570BD002EEAD100F089
:1029E00045FFA36922699B18984208D3637D012B98
:1029F00002D16672607AEFE703236372FAE700F0B0
:102A000035FFA369E2689B189842D3D3237D012B3D
:102A1000EFD00223F1E7000007B50120084A516911
:102A200001435161536903220340019311000A30AD
:102A3000019B01F097FA0B2001F0CEFA07BDC046CA
:102A400000100240F0B589B01422002103A804F060
:102A50009EF880208025284BC0035969AD020143B0
:102A6000596180215A69C90202400092009A5A694C
:102A7000224E2A435A615A6930002A400192019A33
:102A80005A6900240A435A615B6901220B40029390
:102A9000E921029B01F08AFF90200327184B03A92C
:102AA000C00503930497059401F056FE154B902042
:102AB0000393012303A9C0050593049401F04CFE80
:102AC000E92303A903933000E83B04930594069798
:102AD00001F042FE102303A93000039304970594EC
:102AE00001F03AFE8020400201F08AFF280001F048
:102AF00087FF09B0F0BDC046001002400004004846
:102B000001180000191900000748084B10B50360B0
:102B100006234360064BC360836001F09FFF0028DB
:102B200001D000F021FA10BDC804002000300040A0
:102B3000FF0F000030B5102595B03022002108A805
:102B400004F025F82A000021684604F020F82A0045
:102B5000002104A804F01BF81923089380235B02CA
:102B60001193802301240E955B030E3D08A8109558
:102B7000129309940D940F9401F0C0FF072301955F
:102B800000252100684600930295039502F060FA43
:102B900004A80494069502F063FB15B030BD000054
:102BA0008020F0B58027CE4AC003916985B00143EB
:102BB000916193693F0103400393039BC94B8024B8
:102BC0009A6864013A439A6001225242DA609A603C
:102BD000596803320A435A609A68C34E22439A6086
:102BE00000F02CFEFFF7A6FFFFF72CFFFFF714FF06
:102BF000FFF746F9FFF7A4F8FFF786FF00F0A0FC07
:102C000000F0AAFB00F076FD00F012FD00F0BEFB24
:102C100003220A20110001F0A5F90A2001F0DCF9D5
:102C200000220420110001F09DF9042001F0D4F9E4
:102C300000220320110001F095F9032001F0CCF9E6
:102C4000FFF750F90322A94B1A70FFF77FFCFFF73B
:102C500005FDFFF707FDFFF763FDFFF755FDFFF7E4
:102C600059FDFFF75DFB01220821A14801F09EFEFE
:102C700001229F48110001F099FE012240219C4849
:102C800001F094FE80210122994801F08FFE994DB8
:102C9000280002F0A1FC280002F0CEFC0022964B96
:102CA000FA251A706423954A2D01D362FFF738FB89
:102CB00090213A00019600950023C9059048FFF73E
:102CC0004DFE90212200019600950023C9058D48F4
:102CD000FA24FFF743FE1E2690218B4FE4003800B4
:102CE0000194009600230122C905FFF737FE8022D8
:102CF00090210194009600235200C9058348FA25CB
:102D0000FFF72CFE9021AD000195009600231022C4
:102D1000C9057F48FFF722FE90217E4C0023082240
:102D2000C905019500962000FFF718FE7748FFF7C8
:102D300031FE7748FFF72EFE2000FFF72BFE70488C
:102D4000FFF728FE6F48FFF725FE3800FFF722FE49
:102D5000FA20400000F090FDFFF7A8FA3800FFF7D6
:102D600019FE664F6C4D6D4E0023022807D16C4949
:102D7000280003F014FF0120FFF7AAFA0123200026
:102D80003360FFF707FE6148FFF704FE02281BD1FE
:102D90006449280003F003FF0120FFF799FAFFF7C9
:102DA000BFFAFA20400000F067FD5848FFF7F2FD37
:102DB000022809D15C49280003F0F1FE0120FFF749
:102DC00087FA0122594B1A6001265949280003F05D
:102DD000E6FE0120FFF77CFA474B00221E70FA2323
:102DE0009B00FB620821424801F0E0FD0022310017
:102DF0003F4801F0DBFD002240213D4801F0D6FDB7
:102E0000002280213A4801F0D1FD2000FFF7C2FDE9
:102E10003F48FFF7BFFDFA20400000F02DFD3C4881
:102E2000FFF7B8FD032806D14249280003F0B7FE9A
:102E30003000FFF74DFA2000FFF7ACFD01223E4CB9
:102E40003E4B20009A6202F0C7FB200002F0F4FB28
:102E50003B4BC0461A68012AFBD1002202201A60AF
:102E600000F00AFD374C2068FEF764FE364A374B07
:102E7000FDF716FA364F374E374D002806D0374B40
:102E800023603B6033602B60C046E1E72068FEF7BB
:102E900051FE334A334BFEF73DFAFEF79DFE2060AC
:102EA0003868FEF747FE2E4A2E4BFEF733FAFEF740
:102EB00093FE38603068FEF73DFE294A294BFEF745
:102EC00029FAFEF789FE30602868FEF733FE244AAF
:102ED000244BFEF71FFAFEF77FFE2860D4E7C046BA
:102EE000001002400058014010270000B4020020EA
:102EF00000040048980500208C0200200044014096
:102F0000800300209C0300204C0400201C040020AF
:102F10008404002068040020B803002090020020F0
:102F2000B66C0008CB6C0008DD6C00089402002031
:102F3000F46C0008016D00085805002000200040D6
:102F4000AC02002018000020666666666666F63FE2
:102F50001C0000202000002024000020CDCCCC3E0E
:102F60009A9999999999B93F7047704701200A4BEE
:102F700082B099690143996180219A6949050240AB
:102F80000092009ADA690A43DA61DB690B40019327
:102F9000019B02B07047C046001002407047FEE738
:102FA0007047704710B500F059FC10BD10B501F026
:102FB00015FA10BD7047000010B5034801F0A5F9DF
:102FC000024801F0A2F910BDB80200201C06002042
:102FD00010B5024801F099F910BDC046D80500208F
:102FE00010B5024800F080FE10BDC046FC02002073
:102FF0000022084B5A62084B023A1B681A61074BC1
:103000001A78012A05D101321A70F332044BFF32CB
:10301000DA6370470004004018050020B402002065
:10302000002C014002222C4B52421B6870B51A61E1
:103030002A4B2B4D1A78002A05D01A78012A02D083
:103040001A78032A0CD1002226498A634A632A800F
:103050001A78032A26D01A78012A01D101321A706F
:10306000F821214A4900506A204C88420BD9237824
:10307000DBB2002B07D101221A4922704B631C4995
:103080000A602B800EE0526A1A4B9A420BD92378C1
:10309000DBB2012B07D10022124922708A63144946
:1030A0000B602A8070BD2378DBB2002B04D10D4E5B
:1030B000B363FFF7ABFB70632378012B05D10023CB
:1030C000084C6363FFF7A2FBA063FFF775F82B883A
:1030D00001339BB2D5E7C046D8040020B4020020DB
:1030E0008A02002000040040002C014088020020D9
:1030F000AC020020E503000002222B4B70B51B68D8
:103100002A4D52421A612800FFF744FC284C02283D
:1031100009D10322274B1A700022274B1A6023780B
:10312000022B23D170BD2800FFF734FC0328F0D018
:103130002378032B1DD11F4B1E78F6B2012E18D118
:103140001E4B1D68002D14D11D48FFF723FC0328DA
:103150000FD11C4B26709D635D631B4BDD631B4BC6
:103160001D80FFF77BFAFFF7CFFADBE7022323701E
:10317000DEE72378022BD5D10E4B1B78032B04D02E
:103180000F48FFF707FC0428CCD10323237000234A
:103190000C4A936353630C4AD3630C4A1380FFF7C2
:1031A00061FAFFF7B7FABDE7580500206804002070
:1031B000B40200208C020020A8020020A4020020FB
:1031C0008404002000040040002C01408A020020FA
:1031D0000222F8B53B4B52421B681A61FFF7A0F878
:1031E000394C2078C0B2032816D8FCF78DFF0216A0
:1031F00002220821354801F0F3FB0121334801F098
:10320000EFFB4021314801F0EBFB3048802101F019
:10321000E7FB2F48FFF7BEFBF8BD2E4B1B68012BC9
:1032200002D0FFF785F8F7E7FFF7FCF80128F8D19F
:10323000F2E7FFF77DF8264F3800FFF7ABFB264D8E
:10324000264E02281AD12B68254F01332B600A2BFA
:103250002AD10023012220211C482B6001F0A6FB6B
:10326000FA235B00FB628021184801F0B9FB0323BD
:103270001C4A2370137000233360CDE73800FFF73A
:1032800089FB0328DFD003210022164B2A60197026
:10329000336801333360092B0EDD7D310B4801F0BB
:1032A00085FB01232370B7E700222021074801F0A6
:1032B0007DFBFA239B00D5E721700448802101F0B3
:1032C0008FFBA9E7980500208C020020000400482D
:1032D0006804002090020020B0020020A802002014
:1032E00000440140B402002010B5024803F06CFB1A
:1032F00010BDC046600600200121114B11481A681C
:103300000A431A605A6802405A601A680E4802401E
:103310001A601A680D4802401A605A680C48024048
:103320000F205A60DA6A8243DA621A6B0948024057
:103330001A635A6B8A435A6300229A607047C046E8
:10334000001002400CB8FF08FFFFF6FEFFFFFBFF76
:10335000FFFFC0FFECFEFFFF0A480B4B10B50360F8
:103360000123FA22436000239200836003618033CB
:10337000C260836102F0D0F9002801D0FFF7F4FDAC
:1033800010BDC04658050020002000400A480B4BE5
:1033900010B503600A4BFA22436000239200836059
:1033A000036143618033C260836102F0B5F9002894
:1033B00001D0FFF7D9FD10BD980500200044014061
:1033C0007FBB00001FB50368284A934213D18020B9
:1033D000274A0001916901439161936900220340EA
:1033E00000930D201100009B00F0BCFD0D2000F0AB
:1033F000F3FD05B000BD1F4A93420FD102201C4AC5
:10340000D1690143D161D3690022034001930E3099
:103410001100019B00F0A6FD1020E8E7164A934238
:1034200010D18020124A4000D1690143D161D36993
:10343000032203400293ED381100029B00F092FD3D
:103440001320D4E70D4A9342D3D18020084A80024A
:10345000916901439161936903220340039315200D
:103460001100039B00F07EFD1520C0E7002C0140F9
:1034700000100240000400400020004000440140D1
:1034800030B5040089B01422002103A803F07FFBAB
:103490002368274A93422FD18020264BC0025969C6
:1034A000022401435961802103255A69890202409F
:1034B0000092009A5A6920480A435A615B69039452
:1034C0000B40019303A9019B04940695079401F016
:1034D00043F980239020DB0003930023C00503A958
:1034E000049405930695079401F036F980200004B2
:1034F00001F086FA09B030BD104A9342FAD180201B
:103500000C4A8002516901435161536903A9034088
:103510000293029BC02390200393BE3B049301338C
:103520000693C005023B079301F016F9E2E7C04697
:10353000002C01400010024000040048000400403C
:1035400030B595B01022002102A803F020FB08221C
:103550000021684603F01BFB1C22002106A803F093
:1035600016FB1C2200210DA803F011FB2E4C2F4B43
:10357000FA222360F0239B00636000239200A36083
:103580002361636120008033E260A36102F0C4F82C
:10359000002801D0FFF7E8FC802302A95B0120008E
:1035A000029302F0E3FB002801D0FFF7DDFC2000CE
:1035B00002F014F9002801D0FFF7D6FC0025694677
:1035C00020000095019502F0D5FDA84201D0FFF73B
:1035D000CBFCFA235B0007930822F43B06A92000EA
:1035E0000695089509950A950B930C9302F028FA15
:1035F000002801D0FFF7B8FC5F2210928022002340
:1036000092010DA920000D930E930F931193129226
:10361000139302F0FBFD002801D0FFF7A5FC20006A
:10362000FFF72EFF15B030BD18050020002C01401B
:1036300010B58EB01022002103A803F0A8FA0822CA
:10364000002101A803F0A3FA1C22002107A803F01F
:103650009EFA264C264BFA22236001236360002346
:103660009200A360236120008033E260A36102F036
:1036700053F8002801D0FFF777FC802303A95B01F2
:103680002000039302F072FB002801D0FFF76CFCCE
:10369000200002F009F9002801D0FFF765FC0023A3
:1036A00001A920000193029302F064FD002801D0DB
:1036B000FFF75AFC0022602307A920000793089215
:1036C00009920B9202F064FA002801D0FFF74CFC3B
:1036D000042207A9200002F05BFA002801D0FFF7BE
:1036E00043FC2000FFF7CCFE0EB010BDD804002034
:1036F000000400400B480C4B10B50360E1235B0253
:1037000043600C22002342618360C36003618361D4
:10371000C3610362436203F087F8002801D0FFF71A
:1037200023FC10BD600600200038014030B50500C4
:1037300089B01422002103A803F029FA2F4B2A682C
:103740009A4259D180202E4BC00199690143996159
:1037500080219A69890202400192019A5A69902057
:103760000A435A615B69C0050B400293029B8223A6
:103770001B020393022304930133069303A9023B24
:10378000079300F0E9FF1F4C1F4B802223600023AA
:1037900020006360A360E26023616361A361E36171
:1037A00000F0A2FC002801D0FFF7DEFB174B6C668F
:1037B0006562174C80222360102363600023200081
:1037C000A360E26023616361A361E36100F08CFCAC
:1037D000002801D0FFF7C8FB80230E4A9B00116828
:1037E0001B200B43136003222C661100656200F05E
:1037F000B9FB1B2000F0F0FB09B030BD00380140E0
:10380000001002401C06002030000240440002402C
:10381000D80500200000014010B5040001F00AFDA9
:10382000FA218900FCF77AFC00F0E8FB0120002275
:103830002100404200F096FB002010BD1023064AF4
:1038400010B5116800200B431360FFF7E5FFFFF789
:103850008DFB002010BDC04600200240024A1368C4
:10386000013313607047C046D0060020014B186832
:103870007047C046D006002037B50190FFF7F6FF2D
:10388000019C0500631C5A1E9341E418FFF7EEFFEC
:10389000401BA042FAD337BD002373B50321019327
:1038A000036804009A680A40012A07D11968114286
:1038B00001D0002076BDDA681204FAD49968194A5A
:1038C000114208D010230120626C13436364A36C7F
:1038D0000343A364EEE7012299680A439A60124BFE
:1038E00012491868FCF71AFC0190019B002B15D1B6
:1038F000FFF7BCFF0125060023681B682B42D8D1C7
:10390000FFF7B4FF801B0228F6D91023626C012058
:1039100013436364A36C2B43A364CBE7019B013B7C
:103920000193E2E7170000804802002040420F00A8
:10393000F8B504000120002C00D1F6E08F4B22687E
:103940009A4204D074218E48FF31FFF70EFB636862
:103950008C4A134208D080221206934204D0BA2126
:1039600087484900FFF701FB1823A2689A4304D057
:1039700076218348FF31FFF7F8FA2023E2689A4363
:1039800004D0BB217E484900FFF7EFFA2369013BD1
:10399000012B04D978217A48FF31FFF7E6FA236A30
:1039A000012B04D9BC2176484900FFF7DEFA636A8F
:1039B000012B04D97A217248FF31FFF7D6FA724BF6
:1039C000E26A1A4204D0BD216D484900FFF7CDFAE2
:1039D000A36A4022190091430AD0C02B08D0C2220A
:1039E000FF32934204D07C216548FF31FFF7BDFAD6
:1039F000236B012B04D9BE2161484900FFF7B5FABA
:103A000004226369043B934304D07E215C48FF3168
:103A1000FFF7ABFA636B012B04D9BF21584849006B
:103A2000FFF7A3FAA369012B04D980215448FF3181
:103A3000FFF79BFAE369012B04D9C02150484900E4
:103A4000FFF793FA636C002B06D122004032A36487
:103A500020001370FEF7C0F9636CDB0600D579E037
:103A6000042223689868104000D073E0626C4749D4
:103A7000114002220A43032162649A680A40012A23
:103A800000D06DE01968114202D1DA68120467D5DE
:103A9000DA683F49256A0A40DA60A2696F03910338
:103AA000E269D2031143626B013A561EB24116031A
:103AB000E268114322690F43022A00D10420226BDD
:103AC000616A52003A4332430243012904D1002D76
:103AD0002CD1802149020A43C220A16AFF308142D1
:103AE00002D0E06A01430A438020D96840051143AF
:103AF000D960A16B814202D0481E062807D807254D
:103B000058692940A8435861586901435961DB68E5
:103B100020490B409A4211D100200322A064636C1B
:103B200093431A00012313436364F8BD2020656C9E
:103B300028436064A06C0143A164CDE71222636C4A
:103B4000012093431A00102313436364A36C0343BF
:103B5000A364EAE71023626C012013436364E4E783
:103B60001821DA688A43A1680A43DA601969626831
:103B700089008908114319618AE7C0460024014081
:103B80002B6D0008FFFFFFBFFFF3FFFFFDFEFFFFF0
:103B90001902FEFFE7FF3F83F7B5244B019202684D
:103BA00004000F009A4203D021492248FFF7DDF9B3
:103BB000236802209B685B0730D4260040363378A8
:103BC000012B2BD001233370E369012B27D1636CC8
:103BD000194A00251A4080235B0013436364E06B9D
:103BE000164BA56435708362154B2168C362154B73
:103BF00003631C230B604A680C3B13434B60012397
:103C0000CA681343CB603A004031019B00F00EFBC1
:103C100004232800226891680B439360FEBD2000B6
:103C2000FFF73AFE0028F9D1D1E7C0460024014051
:103C3000BC0400002B6D0008FEF0FFFF4D3C0008A7
:103C4000BF3C0008CD3C0008704700005022436A8A
:103C500010B5596C11422AD1596CB132FF320A4366
:103C6000C0215A641A680901D068084212D1196A41
:103C700000290FD1116809070CD5916849070DD4A7
:103C80000C205168814351605A6C0B49114001224C
:103C90000A435A641800FFF7D7FF10BD2022596C61
:103CA0000A435A640122996C0A439A64F2E7DB6B77
:103CB0001B6B9847F1E7C046FEFEFFFF704710B54B
:103CC000406AFFF7FBFF10BD704770474023406A12
:103CD00010B5426C134343640423826C1343836422
:103CE000FFF7F3FF10BD0000424B026870B50400FF
:103CF0009A4203D040494148FFF737F9236A012B24
:103D000003D93F493D48FFF730F904226369043B7A
:103D1000934304D0AF213948C900FFF726F90422A4
:103D200023681968114202D05968114206D108224D
:103D30001968114228D05968114225D0626CD20608
:103D400004D48022616C92000A436264C022D96864
:103D50001201114212D1226A002A0FD11A681207E9
:103D60000CD59A6852073CD40C215A688A435A6091
:103D7000636C244A1A400123134363642000FFF755
:103D800063FF0C2223681A60802523681A682A4280
:103D90000CD05B682B4209D08023626C5B0213431A
:103DA00063642000FFF790FF23681D6010222368E2
:103DB0001968114214D05968114211D0626B012A5E
:103DC00002D0DA68D20708D50222A16C20000A438B
:103DD000A26410221A60FFF778FF102223681A608D
:103DE00070BD2023626C134363640123A26C1343F0
:103DF000A364C3E700240140760500002B6D000892
:103E000077050000FEFEFFFF0023F7B5026801936F
:103E1000474B04000D009A4203D046494648FFF73D
:103E2000A4F82B68112B03D944494348FFF79DF8A8
:103E30006B68434A9B18012B03D942493E48FFF760
:103E400094F88022A36B520593420CD0013B062BC1
:103E500009D9AB68934206D0013B062B03D93A49F6
:103E60003548FFF782F82600403633780220012BD0
:103E70002AD0236801389A683070520752D43349E7
:103E80006F682A688F423BD09040996A08439862D5
:103E90008020A16B400581420FD0013906290CD941
:103EA00007205C69A9680440A14206D05C69014012
:103EB00084435C615C69214359611300103B012B11
:103EC00003D9002000233370FEBD214B80211868E8
:103ED000102A13D0C90301431960102AF1D11D4BD8
:103EE0001D491868FCF71AF90A2358430190019BF1
:103EF000002BE6D0019B013B0193F8E70904EAE7B8
:103F00009040996A814399621300103B012BD8D8E5
:103F10000F4B1968102A03D0104A0A401A60D0E7E4
:103F20000F4AFAE72023626C13436364CAE7C04672
:103F300000240140510600002B6D000852060000CD
:103F400000F0FFFF530600005706000001100000BC
:103F5000082701404802002040420F00FFFFBFFF3A
:103F6000FFFF7FFF70B504000D00032903D99B21DB
:103F70001648FEF7FAFFA901002C14DA0F23E4B269
:103F80002340083B124A9B089B009B1803221440C5
:103F90009440FC3215000A40A540A240D869A843CD
:103FA0000243DA6170BD0325A3082C40AC40FC3508
:103FB0002E00084A9B009B18C022A6402940A14021
:103FC00092009858B04301439950EBE7636D0008A5
:103FD00000ED00E000E100E010B5041E03DAAB21C3
:103FE0000448FEF7C2FF1F231C401E3BA340024AA9
:103FF000136010BD636D000800E100E0094A431E34
:10400000012093420DD8C021074A08485360036A33
:1040100009061B021B0A0B43036200200723906062
:1040200013607047FFFFFF0010E000E000ED00E0CC
:1040300070B5041E02D10125280070BD274B02680F
:104040009A4203D080212648FEF78FFF637FDBB2C0
:10405000002B03D123772000FDF730FF022320003F
:10406000637700F03FF8051EE5D16379012B03D992
:1040700099211B48FEF779FF62792368002A2AD12B
:10408000013A1A61602362699A4303D0A52114485A
:10409000FEF76BFF6021226893688B4361690B43D5
:1040A00093608023A2699A4303D0A9210C48FEF7AC
:1040B0005CFF8021226893688B43A1690B43936066
:1040C000236A013B022B03D9AE210548FEF74DFFC1
:1040D00001236377B0E72269D3E7C046003002408E
:1040E0009E6D00080020704770B504000120002C70
:1040F00000D181E02368414A93420FD0404A934265
:104100000CD0404A934209D03F4A934206D03F4ADE
:10411000934203D0A5213E48FEF727FF6368102293
:104120001900914307D08022D201934203D0A621E7
:104130003748FEF71AFF4023A2689A4303D0A7210D
:104140003348FEF712FF8023E2689A4303D0A82188
:104150002F48FEF70AFF23692E4A134207D0802218
:104160009200934203D0A9212948FEF7FEFE63691D
:10417000294A134207D080221201934203D0AA2178
:104180002348FEF7F2FE2023A2699A4303D0AB2115
:104190001F48FEF7EAFE214BE2691A4203D0AC2128
:1041A0001B48FEF7E2FE02232068A51CEB7702689D
:1041B0001B4BA1681A4063680B43E1680B432169FC
:1041C0000B4361690B43A1690B43E1690B43134343
:1041D0000360144B1421C018FBF7A0FF124B8000A2
:1041E0002064E36300200123A062E0622063606337
:1041F000A063E418EB77E07770BDC046080002408A
:104200001C000240300002404400024058000240BE
:10421000D66D0008FFFEFFFFFFFBFFFFFFCFFFFF94
:104220000FC0FFFFF8FFFDBF00000240F8B515000A
:104230001F005A1E214B04000E009A4204D9AF21E0
:104240001F484900FEF791FE631CDA7F0220012A15
:1042500026D00122DA7722189446D27F0021D2B2EA
:10426000012A28D16346D8772368A1631968206C96
:10427000914382401960E16B4A6062685F60216827
:10428000102A0ED19D60DE60E26A1868002A0BD009
:104290000E2202431A60012300200A6813430B60B8
:1042A000F8BD9E60DD60EFE70A22024304201A6039
:1042B0001A688243EEE7D977F2E7C046FEFF0000B6
:1042C000D66D000870B5841CE37F022B04D0042354
:1042D0008363033B180070BD0E210368056C1A68E8
:1042E0008A431A6001221968914319601100A9409C
:1042F000C36B5960E27700248318426BDC771300AC
:10430000A242E7D090472300E4E7F8B504273E0037
:10431000016CC26B8E40156803681C682E420DD07C
:104320003C420BD01968890602D41968B943196058
:10433000C36A5660002B19D0984717E002273E0049
:104340008E402E4213D03C4211D01968890606D403
:104350000A241968A14319600121C319D97756604D
:104360000022431CDA77836A9342E5D1F8BD082620
:1043700037008F403D42F9D03442F7D00E251C68FB
:10438000AC431C6001231C008C405460821C83637E
:10439000D3770022C318DA77036BE5E710210C4BC3
:1043A00030B5D8680022084205D00A480232C469F4
:1043B0002243C2610A000420D968014205D00121CC
:1043C000044C0243E5692943E161DA6030BDC0462F
:1043D00000200240D806002070477047F8B5434DD2
:1043E000434CEB68DB0602D4EB685B070AD501237C
:1043F000A6685B42A360FFF7D1FF3000FFF7EDFF37
:10440000002323702023EA681A421AD0EB60237835
:10441000002B16D02378012B28D16368013B636001
:104420006368002B1BD0A068FFF7D6FF8023022211
:10443000A068DB00C018A0602B6993432B6100F0DB
:104440000BF92378DBB2002B08D107212A698A43B4
:104450002A612A6927490A402A612376F8BD01208A
:104460004042A0602370FFF7B7FFEAE72378022BF2
:1044700009D104222B69002093432B61FFF7ACFF85
:1044800000232370DDE76368013B63606368002BF2
:1044900019D0A3680233A360A668206961690B0C78
:1044A0000F040121020C3A43226163612B698B43A3
:1044B0002B61226963690023E3612B6992B219437E
:1044C00029613280BDE72378032B06D1A068FFF76E
:1044D00083FF01235B42A360D2E72378A068042B0B
:1044E00001D10238F3E70638F1E7C0460020024068
:1044F000D8060020FFEBFFFF054B01201A691206CA
:1045000004D50020034A5A60034A5A607047C046E7
:104510000020024023016745AB89EFCD8023034A89
:10452000002011690B4313617047C0460020024010
:1045300070B50400FFF79AF901250600104B1A0028
:10454000D96829420FD12021D868084200D0D9600B
:104550001023D068184002D1D3685B0708D5FFF755
:104560001DFF012004E0611CEAD0002C01D10320D2
:1045700070BDFFF77BF9801B8442DFD2F7E7C046AE
:1045800000200240F0B585B002920393244B0191C4
:104590001A7E04000220012A40D001221A76631EEE
:1045A000834203D9C1211F48FEF7DFFCF821019B9C
:1045B00009061D4A5B18934203D9C2211948FEF728
:1045C000D4FC1A48FFF7B4FF002824D12600012CA0
:1045D00002D0022C00D00426002402980399220164
:1045E000FBF728FE002201270D4B114DDA612B69E4
:1045F000019A3B432B6163009B1880B218800B48E3
:10460000FFF796FF2B69BB432B61002803D1E41908
:10461000E3B29E42E1D80022014B1A7605B0F0BD0C
:10462000D80600200E6E0008FF7F000050C3000077
:10463000002002400022064BDA61064B0432196961
:104640000A431A61402219690A431A617047C04639
:10465000D8060020002002400022064BDA61064BFB
:10466000023219690A431A614022586119690A43E2
:104670001A617047D806002000200240F8B5304E7D
:104680000400337E0F000220012B13D00123337668
:104690002368012B03D9B8212A48FEF766FC23685A
:1046A000012B13D12848FFF743FF002803D0012036
:1046B00000233376F8BDFFF7BDFF2348FFF738FF2F
:1046C0000421224A13698B431361F1E7F8226368DE
:1046D00012069B181E4A934203D9CE211948FEF7B1
:1046E00044FCA36862689B02013A9B18194A9342F2
:1046F00003D9CF211348FEF738FC1348FFF718FF02
:104700000028D4D101235B423B6065680130A36877
:1047100062689B029B189D42CAD22800FFF79CFF4B
:104720000948FFF705FF0221084A13698B4313610B
:10473000002801D03D60BBE78023DB00ED18E6E7F1
:10474000D8060020486E000850C300000020024038
:10475000FF7F0000FF7F00089023F0B5DB0587B0E6
:1047600004000D0098420FD07B4B98420CD07B4B3D
:10477000984209D07A4B984206D07A4B984203D09F
:10478000C1217948FEF7F1FB2B689AB2002A01D0CB
:104790001B0C03D0C2217448FEF7E7FB6B68032BA8
:1047A00012D91A00113A012A0ED9704A70491A40DA
:1047B000521870490A4207D06F4A9B180B4203D027
:1047C000C3216948FEF7D1FBAB68022B03D9C42192
:1047D0006548FEF7CAFB002301932B6801991A0074
:1047E000CA4001D107B0F0BD012201998A4003926D
:1047F0001A40029200D1ABE010226B689343022B67
:1048000022D19023DB059C4206D0534B9C4203D01F
:10481000D3215548FEF7A9FB2B69062B03D9D421D8
:104820005148FEF7A2FB07220198019B02400F208E
:1048300092009040DB089B00E318196A81432869C5
:10484000904002000A431A62019B6A685F000323DA
:104850001E00BE401340F643BB40216831400B436D
:10486000236010239A43013A012A19D8EB68012BDF
:1048700005D9032B03D0E8213B48FEF776FBEB6814
:104880000121BB40A26832401343A3606268039BCE
:104890009A436B681B090B4001998B40134363607B
:1048A000E36869683340AE68BE401E43E660CB00F3
:1048B0004ED5012003260F27304B9A6902439A6197
:1048C0009B69034001980593304080008740059B19
:1048D000019B9A082A4B9200D2189368BB439027F9
:1048E0009C46FF050023BC420CD01B4F0133BC4249
:1048F00008D01A4F0133BC4204D0194F9B19BC4257
:1049000000D1330083406046034393601D4A029BFD
:104910001668D8433343CF0301D4330003401360F8
:104920005668029B33438F0301D433000340536026
:104930009668029B3343CF0201D433000340936057
:10494000D668029B3343890201D433000340D3600D
:10495000019B013340E7C0460004004800080048BE
:10496000000C004800140048856E0008FFFFDFFFC0
:104970000000EFEFFFFFFEFF0000DFEF001002403E
:10498000000001400004014070B505000C1E04D178
:104990008E210548FF31FEF7E8FA28692040431EC2
:1049A0009841C0B270BDC046856E000870B5050064
:1049B0000C001600002904D1D62108484900FEF752
:1049C000D4FA012E06D9AE210448FF31FEF7CDFA04
:1049D000AC6170BD002EFBD1AC62FAE7856E0008B9
:1049E00070B505000C1E04D1E12104484900FEF712
:1049F000BCFA6B695C406C6170BDC046856E000896
:104A00000200114B13B51A4004009A4208D0DF236C
:104A10001B04184209D102000C4B1A409A4204D0E0
:104A200094210B484900FEF7A0FA0120094A916938
:104A300001439161936903400193019B064B1A68FE
:104A400014431C6013BDC0460000AAAA0002AAAA13
:104A5000BE6E0008001002400000014070B5040066
:104A60000120002C32D01F4B22689A4203D0B5217E
:104A70001D48FEF77AFA6368062B03D9B6211A4857
:104A8000FEF773FA194DA368AB4203D9B721164854
:104A9000FEF76BFAE368AB4203D9B8211248FEF780
:104AA00064FA2368124A1A60124A1A6062685A60ED
:104AB000A2689A60FEF7DAFE05002368D86800282D
:104AC00005D11969E268914208D01A6170BDFEF7FC
:104AD000CDFE401B2728F0D90320F7E7064A1A60CD
:104AE000F4E7C04600300040F96E0008FF0F0000F8
:104AF000CCCC000055550000AAAA0000F0B5040077
:104B000085B0002804D18921B8484900FEF72DFA64
:104B10002368002B06D0DB0604D11421B348FF31F3
:104B2000FEF723FA2368DB0748D423689B0700D5E8
:104B3000A5E023681B0700D5F0E023685B0700D5DC
:104B40001BE12368DB062BD56369012B06D90533EE
:104B500004D08021A5488900FEF707FAA3691F2B1E
:104B600003D9A349A148FEF700FA6269A14D0423C5
:104B7000012A00D08DE1696B02260B436B636B6BDE
:104B80001A436A63FEF772FE07006B6B334200D173
:104B900078E1F8216A6BA3698A43DB0013436B63F6
:104BA000236A022B04D99D2190488900FEF7DDF984
:104BB000226A002A00D087E100201DE06368012BF3
:104BC00006D9052B04D01A218848FF31FEF7CDF90C
:104BD0000C21884D6A680A40042A06D06B680B4095
:104BE000082B0BD16B68DB0308D52B689B039CD586
:104BF0006368002B99D1012005B0F0BD6368012BDB
:104C000014D180232A685B0213432B60FEF72EFE2B
:104C100080260700B6022B68334200D085E7FEF7F6
:104C200025FEC01B6428F6D90320E5E7002B16D12A
:104C30002B68714A802613402B602B686F4AB6029E
:104C400013402B60FEF712FE07002B68334200D1A1
:104C50006BE7FEF70BFEC01B6428F6D9E4E7052BD3
:104C600005D180232A68DB0213432B60C9E72B6838
:104C7000614A13402B602B68604A1340C5E7E36824
:104C8000012B04D94E215948FF31FEF76EF92369F3
:104C90001F2B04D9A72155484900FEF766F90C22BD
:104CA000544D6B68134206D06B681340082B10D12B
:104CB0006B68DB030DD42B689B0702D5E368012BDF
:104CC00099D1F8212A6823698A43DB0013432B60BA
:104CD0002FE7E2680123002A0FD02A680226134337
:104CE0002B60FEF7C3FD07002B683342E9D1FEF7C6
:104CF000BDFDC01B0228F7D996E72A6802269A4311
:104D00002A60FEF7B3FD07002B68334200D110E79D
:104D1000FEF7ACFDC01B0228F6D985E7E369012B3D
:104D200004D9C72131484900FEF71FF9E269012380
:104D3000304D002A10D06A6A022613436B62FEF7D8
:104D400095FD07006B6A334200D0F6E6FEF78EFD54
:104D5000C01B0228F6D967E76A6A02269A436A628C
:104D6000FEF784FD07006B6A334200D1E5E6FEF7EB
:104D70007DFDC01B0228F6D956E7A368012B06D992
:104D8000052B04D0DD2119484900FEF7EEF88022FA
:104D90000021184D5205EB690091134208D1EB69CF
:104DA0001343EB61EB6913400393039B01230093CF
:104DB0008027134E7F0033683B4206D0A368012B47
:104DC00020D12A6A13432B623DE033683B433360B2
:104DD000FEF74CFD019033683B42EFD1FEF746FDF4
:104DE000019BC01A6428F6D91EE7C046326F00083E
:104DF0000102000000100240FFFFFEFFFFFFFBFF6B
:104E0000007000400122002B14D12B6A022793432B
:104E10002B622B6A033293432B62FEF727FD0600B9
:104E20002B6A3B4225D0FEF721FD644B801B984244
:104E3000F6D9F9E6052B0BD1296A013B0B432B620E
:104E40002B6A1A432A62FEF711FD022706000DE0C5
:104E50002B6A934304222B622B6A9343B3E7FEF73A
:104E600005FD564B801B984200D9DDE62B6A3B427C
:104E7000F5D0009B012B00D063E6EB69504A13404C
:104E8000EB615EE6FEF7F2FCC01B022800D87CE670
:104E9000CAE6053203D16A6B9A436A6379E66A6BA4
:104EA0000226134301226B636B6B93436B63FEF724
:104EB000DDFC07006B6B334200D171E6FEF7D6FCD8
:104EC000C01B0228F6D9AFE60C213E4D01206B68CD
:104ED0000B40082B00D18FE63B4E022A5BD13B4BA7
:104EE000626A1A4203D03A493A48FEF73EF8A26A8B
:104EF00039493A4B1140134013D08020400383427C
:104F00000FD08020800383420BD0C0239B039942A3
:104F100007D0E0239B039A4203D031492D48FEF786
:104F200024F8E36A0F2B03D92E492A48FEF71DF80F
:104F30002B681E402E60FEF799FC80260700B60401
:104F40002B68334221D10F22EB6A9343E26A134369
:104F5000EB62616AA36A6A680B43234980240A40B2
:104F600013436B6080232A685B0413432B60FEF7B6
:104F70007DFC0600A4042B68234200D01CE6FEF74B
:104F800075FC801B0228F6D94EE6FEF76FFCC01BAD
:104F90000228D5D948E62B6880241E402E60FEF7F3
:104FA00065FC0600A4042B68234200D104E6FEF74A
:104FB0005DFC801B0228F6D936E6C0468813000047
:104FC000FFFFFFEF00100240FFFFFFFEFFFFFEFFAD
:104FD0007D020000326F0008FFFFFBFFFFFFF3FFC1
:104FE0007E0200007F020000FFFFC2FF70B5144C7C
:104FF00088B010222100684601F0C0FD210004ADF8
:1050000010221031280001F0B9FD0C220D4E7368FA
:105010001A40082A11D10F206A46990C0140545CAD
:10502000F26A0240A95CDB0305D50748FBF776F876
:10503000604308B070BD0548FAE70348F9E7C04689
:10504000C86B00080010024000127A0000093D0001
:10505000F7B504000F00002803D168496848FDF740
:1050600084FF23685B0703D166496548FDF77DFF30
:10507000012F04D9B72162488900FDF776FF01228C
:10508000614D2B6813409F421FD823689B0726D48D
:105090002368DB0745D401232A681A40974200D2CF
:1050A0008AE02368594D5B0700D58DE0FFF79EFF2E
:1050B0006B68574A1B061B0FD35CD840554B1860D2
:1050C0000020FEF7A9FB002008E02B6893433B4338
:1050D0002B602B6813409F42D7D00120FEBDA368F0
:1050E00080221900914314D0202219009143902965
:1050F0000FD0402219009143A0290AD01022190094
:105100009143C02905D0F02B03D043493C48FDF71B
:105110002CFFF0213D4A53688B43A1680B43536039
:10512000B6E76368022B03D93C493548FDF71DFFFC
:10513000364E62683368012A1AD19B03CDD503210C
:1051400073688B4313437360FEF790FB63680190B1
:10515000012B15D10C2273681340042B9BD0FEF752
:1051600085FB019BC01A2E4B9842F3D90320B5E76B
:10517000022A02D19B01E2D4AFE79B07DFD4ACE760
:10518000022B13D00C227368134200D183E7FEF781
:105190006DFB019BC01A224B9842F3D9E6E7FEF75C
:1051A00065FB019BC01A1E4B9842DFD80C22736826
:1051B0001340082BF3D16EE72A689A432A602A68C5
:1051C0001A4200D089E76CE7E368164A13420DD013
:1051D000A021154AC9001A408A4207D0C022D20035
:1051E000934203D011490648FDF7BFFE6B68104A91
:1051F0001340E26813436B6058E7C046DA020000D0
:10520000326F0008DB020000002002400010024064
:10521000136D000848020020F3020000FA020000AB
:1052200088130000FFFBFFFFFFFDFFFF630300008B
:10523000FFF8FFFF014B18687047C0464802002086
:10524000044B054A5B685B055B0FD35C034A10683F
:10525000D840704700100240236D0008480200202B
:10526000F0B54C4B026885B005009A4203D97E2107
:105270004948FDF77AFE2B68DB0330D56B68474A57
:10528000134203D084214448FDF76FFE80220021A1
:10529000434C5205E3690091134208D1E36913437B
:1052A000E361E36913400393039B01230093802789
:1052B0003C4E7F0033683B4238D0C022236A9200C4
:1052C000134045D1236A354A13406A681343236269
:1052D000009B012B03D1E369334A1340E3612B6840
:1052E000DB070DD5AB68032B03D9CB212A48FDF78B
:1052F0003CFE03212A4A136B8B43A9680B431363BB
:105300002B6800209B0621D51023EA689A4382422D
:1053100003D0EF212048FDF728FE1021204A00206D
:10532000136B8B43E9680B4313630FE033683B4314
:105330003360FEF79BFA019033683B42BDD1FEF724
:1053400095FA019BC01A6428F6D9032005B0F0BD78
:1053500069680A409342B5D08023226A206A5B02C2
:1053600003432362236A0D4910481140034023621E
:105370002162D307A6D5FEF779FA02270600236A31
:105380003B429FD1FEF772FA094B801B9842F6D937
:10539000DBE7C046210001006A6F0008FFFCFFFF49
:1053A0000010024000700040FFFFFFEFFFFFFEFF14
:1053B00088130000F7B50122036A040093430362D7
:1053C000056A47688369723293430A680E001A437C
:1053D00002239D438B6801921D431E4B984205D0CA
:1053E0001D4B984202D01D4B98422CD10823F268E5
:1053F0009A4303D01A491B48FDF7B7FD08239D4384
:10540000F3681D4304239D43124B9C4205D0124B6D
:105410009C4202D0114B9C4215D1134BB2691A42E7
:1054200003D012490F48FDF7A0FD114B72691A42D3
:1054300003D010490B48FDF798FD0F4BB2691F4090
:10544000736913431F43019B6760A36173686363C0
:105450002562F7BD002C0140004401400048014096
:1054600090120000A56F0008FFFDFFFF9D120000D5
:10547000FFFEFFFF9E120000FFFCFFFFF0B50F00D4
:105480007321036A254A85B013400362046A4668A3
:10549000C36905008B433968029219430191BB68C7
:1054A0001F491B020C401C431E4B0391984226D1FE
:1054B0000823FA689A4303D01B491C48FDF755FDA1
:1054C0001B4BFA68234014021C431A4B1C40BB6957
:1054D000039A134203D018491448FDF746FD7B692F
:1054E000029A134203D015491048FDF73EFD144BB4
:1054F0007A693340BE69164336011E4305E0114BFD
:105500009842E4D0104B9D42E1D0019B6E60EB616C
:105510007B68EB632C6205B0F0BDC046FFFEFFFF69
:10552000FFFDFFFF002C014025130000A56F0008C0
:10553000FFF7FFFFFFFBFFFF3213000033130000F4
:10554000FFCFFFFF0044014000480140F7B5036A68
:10555000174A040013400362036A164A4568C76984
:105560000E0017400A6812021743134A13408A6854
:1055700012031A43114B0192984205D0104B9842E6
:1055800002D0104B98420CD10F4B72691A4203D0D3
:105590000E490F48FDF7E9FC0E4B1D4073699B0156
:1055A0001D4373686560E7612364019B2362F7BD57
:1055B000FFEFFFFFFF8CFFFFFFDFFFFF002C01402D
:1055C0000044014000480140FFFEFFFF701300004F
:1055D000A56F0008FFBFFFFF0368114A10B5040064
:1055E000934210D00F4A93420DD00F4A93420AD0F3
:1055F0000E4A934207D00E4A934204D098210D4898
:105600004900FDF7B2FC22000223012120683D324F
:10561000137003680B4303600020117010BDC04677
:10562000002C0140000400400020004000440140E4
:1056300000480140A56F00080368104A10B5040037
:10564000934210D00E4A93420DD00E4A93420AD094
:105650000D4A934207D00D4A934204D0AF210C4823
:105660004900FDF782FC012223680020D96811431C
:10567000D96019680A431A6010BDC046002C014069
:105680000004004000200040004401400048014068
:10569000A56F000870477047194A10B5036890421B
:1056A00002D0184CA04208D17024A3434C68234375
:1056B00090420BD0134CA04208D0134CA04205D00E
:1056C000124CA04202D0124CA04203D1114C2340F4
:1056D000CC6823438024A3434C69234303608B6835
:1056E000C3620B688362904205D0084B984202D097
:1056F000074B984201D10B6903630123436110BD3D
:10570000002C014000040040002000400044014003
:1057100000480140FFFCFFFF70B504000120002C91
:105720004CD02368264A93420FD0264A93420CD08D
:10573000254A934209D0254A934206D0244A9342EF
:1057400003D0D4212348FDF710FCA36810221900D0
:1057500091430AD0402219009143202905D0402BC3
:1057600003D0D5211B48FDF700FC23691A4A1342D8
:1057700007D080229200934203D0D6211548FDF72E
:10578000F4FB8023A2699A4303D0D7211148FDF787
:10579000ECFB25003D352B78DBB2002B05D1220038
:1057A0003C3213702000FDF70DFE022320682B70A1
:1057B000211DFFF771FF012300202B7070BDC04633
:1057C000002C014000040040002000400044014043
:1057D00000480140A56F0008FFFEFFFF70B5040000
:1057E0000120002C50D02368284A934210D0284A28
:1057F00093420DD0274A93420AD0274A934207D0BA
:10580000264A934204D0F52125484900FDF7ADFB17
:10581000A3681022190091430BD040221900914334
:10582000202906D0402B04D0EC211D48FF31FDF784
:105830009CFB23691B4A134208D0802292009342AA
:1058400004D0F62116484900FDF78FFB8023A2699A
:105850009A4304D0EE211248FF31FDF786FB250064
:105860003D352B78DBB2002B05D122003C32137082
:105870002000FFF70FFF022320682B70211DFFF788
:105880000BFF012300202B7070BDC046002C01408F
:105890000004004000200040004401400048014056
:1058A000A56F0008FFFEFFFF70B504000120002C6B
:1058B0004DD02368264A93420FD0264A93420CD0FB
:1058C000254A934209D0254A934206D0244A93425E
:1058D00003D024492448FDF748FBA368102219008F
:1058E00091430AD0402219009143202905D0402B32
:1058F00003D01E491C48FDF738FB23691C4A13429C
:1059000007D080229200934203D01A491648FDF72F
:105910002CFB8023A2699A4304D0FA211248890003
:10592000FDF723FB25003D352B78DBB2002B05D19D
:1059300022003C3213702000FFF7ADFE02232068E6
:105940002B70211DFFF7A8FE012300202B7070BDD6
:10595000002C0140000400400020004000440140B1
:1059600000480140E5030000A56F0008E6030000C1
:10597000FFFEFFFFE7030000F7B51022036A0400F3
:1059800093430362066A234A456883690F00134004
:105990000A6812021A4320239E438B6801921B015E
:1059A0001E431D4B984227D10823CA689A4303D04F
:1059B0001A491B48FDF7D9FA80239E433300FA6841
:1059C00016011E4340239E43164BBA691A4203D068
:1059D00015491348FDF7C9FA144B7A691A4203D0E6
:1059E00013490F48FDF7C1FA124B7A692B40BD6984
:1059F0001543AD001D4305E00F4B9842E4D00F4B1B
:105A00009C42E1D0019B6560A3617B68A363266231
:105A1000F7BDC046FF8CFFFF002C0140DA120000EA
:105A2000A56F0008FFFDFFFFE8120000FFFEFFFF6B
:105A3000E9120000FFF3FFFF00440140004801406D
:105A4000F7B504000D001600182A03D8424BD340C6
:105A5000DB0703D441494248FDF787FA2B6810223F
:105A6000190091430A0030218B4305D0402A03D00E
:105A70003C493B48FDF779FA0223AA689A4303D0D0
:105A800039493748FDF771FA270002233C373A7845
:105A90001800012A2ED001223A7022003D320192D4
:105AA00013700C2E21D83000FAF72EFB071F1F1F92
:105AB000251F1F1F351F1F1F450023682B4A9342B8
:105AC0000FD02B4A93420CD02A4A934209D02A4A3B
:105AD000934206D0294A934203D029492048FDF732
