:020000040800F2
:100000000010002041570008211C0008231C000894
:1000100000000000000000000000000000000000E0
:10002000000000000000000000000000251C000887
:100030000000000000000000271C0008291C000828
:10004000915700080000000091570008311C00087B
:10005000391C000891570008915700089157000873
:1000600000000000915700083D1C0008551C0008C6
:10007000651C0008751C000891570008000000006E
:10008000C51C00080000000000000000811D0008E1
:1000900000000000651E00089157000891570008F5
:1000A0000000000091570008000000001D2000081B
:1000B0000000000000000000000000000000000040
:1000C00010B5064C2378002B07D1054B002B02D02E
:1000D000044800E000BF0123237010BD90020020FF
:1000E000000000007C600008044B10B5002B03D01A
:1000F0000349044800E000BF10BDC04600000000F6
:10010000940200207C60000802B47146490849004E
:10011000095C49008E4402BC7047C0460022430877
:100120008B4274D303098B425FD3030A8B4244D3BF
:10013000030B8B4228D3030C8B420DD3FF22090201
:1001400012BA030C8B4202D31212090265D0030BC0
:100150008B4219D300E0090AC30B8B4201D3CB03B6
:10016000C01A5241830B8B4201D38B03C01A5241F8
:10017000430B8B4201D34B03C01A5241030B8B42FA
:1001800001D30B03C01A5241C30A8B4201D3CB02E5
:10019000C01A5241830A8B4201D38B02C01A5241CA
:1001A000430A8B4201D34B02C01A5241030A8B42CD
:1001B00001D30B02C01A5241CDD2C3098B4201D3E5
:1001C000CB01C01A524183098B4201D38B01C01A63
:1001D000524143098B4201D34B01C01A52410309DA
:1001E0008B4201D30B01C01A5241C3088B4201D389
:1001F000CB00C01A524183088B4201D38B00C01A36
:10020000524143088B4201D34B00C01A5241411A5C
:1002100000D20146524110467047FFE701B5002069
:1002200000F006F802BDC0460029F7D076E7704717
:100230007047C0468446101C62468C46191C6346B3
:1002400000E0C0461FB500F03DFD002801D40021AC
:10025000C8421FBD10B500F097FC4042013010BDF0
:1002600010B500F02FFD002801DB002010BD01209B
:1002700010BDC04610B500F025FD002801DD0020AE
:1002800010BD012010BDC04610B500F0B7FC00281D
:1002900001DC002010BD012010BDC04610B500F0EB
:1002A000ADFC002801DA002010BD012010BDC046C1
:1002B0008446081C6146FFE71FB500F0B1F800282E
:1002C00001D40021C8421FBD10B500F043F84042E0
:1002D000013010BD10B500F0A3F8002801DB0020AC
:1002E00010BD012010BDC04610B500F099F80028DF
:1002F00001DD002010BD012010BDC04610B500F08A
:100300004FF8002801DC002010BD012010BDC046C0
:1003100010B500F045F8002801DA002010BD0120DA
:1003200010BDC0469E2110B5C905041CFFF7F0FFA3
:10033000002803D1201C00F071FB10BD9E21201C61
:10034000C90500F0CFF900F069FB80231B069C462D
:100350006044F2E770B5420045024E024C00C30F04
:100360006D0A120E760A240EC90F0120FF2A06D04C
:10037000FF2C03D0A24201D1B54206D070BD002DA2
:10038000FCD1FF2CFAD1002EF8D18B4206D00120EF
:10039000002AF3D12800451EA841EFE70020EDE731
:1003A000F0B5420045024C02C30F48006D0A120E20
:1003B000640A000EC90FFF2A1ED0FF2821D0002A90
:1003C0000AD16E426E41F6B200280FD1002C0DD139
:1003D0000020002D09D005E0002801D1002C01D01B
:1003E0008B4211D0012158420843F0BD002EF7D0B6
:1003F000012001390843F8E7002DDED002204042F9
:10040000F3E7002CDBD0F9E78242EBDC04DBA5420A
:10041000E8D80020A542E8D20121581E0843E4E7AD
:10042000F0B542004D024C004602760A120EC30F90
:100430006D0A240EC90FFF2A16D0FF2C18D0002AEF
:100440000AD170427041C0B2002C15D0002805D0EE
:10045000012001390843F0BD002C13D0994214D07B
:1004600001205B421843F6E70220002EF3D1E4E7B7
:100470000220002DEFD1E2E7002DE7D10020002E71
:10048000E9D0EDE7002DE9D1EAE7A24206DCDFDBA7
:10049000AE4203D80020AE42DAD3DCE70120494265
:1004A0000843D8E7F8B557464E464546DE46E0B520
:1004B0004702460088467F0A360EC40F002E47D0FA
:1004C000FF2E24D0FB008027FF041F430023994602
:1004D0009A467F3E43465D025800DB0F6D0A000ED0
:1004E000984643D0FF283BD0EB0080250022ED0446
:1004F0001D437F383618731C41469B464B4661406E
:1005000013430F2B64D875489B00C3589F46002F98
:1005100042D108239946063BFF269A46DAE7414630
:10052000022A28D0032A00D1CEE0012A00D0ACE074
:10053000114000200022CCB24002D205400AE4075C
:10054000104320433CBC90469946A246AB46F8BDBA
:10055000002F15D104239946033B00269A46B9E79C
:10056000FF200222002DC5D00322C3E7002D19D1A0
:1005700000200122BEE70124FF220C400020DBE71F
:10058000380000F053FC7626431F9F40002376423C
:10059000361A99469A469DE70C239946093BFF2651
:1005A0009A4697E7280000F041FC431F9D407623C0
:1005B0005B42181A00229DE780200024C003FF221E
:1005C000BAE73D005246ABE73D0021005246A7E79F
:1005D0003B0C9C462A04120C2B0C1400604665460A
:1005E0003F043F0C7C4342435D437B43270C9B18F5
:1005F000FF18BA4203D980235B029C466544240459
:100600003A04240C121993015C1EA3413F0C920E74
:100610007D191A43AD0115432B0104D501235E4614
:100620006A081D40154332007F32002A25DD6B0722
:1006300004D00F232B40042B00D004352B0103D50D
:100640003200274B80321D40FE2A94DC0124A80191
:10065000400AD2B20C406FE78020C003074207D0A7
:10066000054205D128434002400A4446FF2263E781
:1006700038434002400AFF225EE70124A31A1B2BE5
:1006800005DD0C400022002056E75E46CBE72A003D
:100690002020DA40C31A9D402B005D1EAB4113435E
:1006A0005A0704D00F221A40042A00D004335A01FA
:1006B00004D5012401220C4000203DE701249B01C8
:1006C000580A0C40002237E780200124C003284349
:1006D0004002400A0C40FF222EE7C046B4600008EA
:1006E000FFFFFFF7F0B54F46D64646464400C0B57B
:1006F000C20F47024802400A844666467B0A480009
:10070000C90F9A46240E1500DB00000E8946F6003C
:10071000FF2800D18FE001214F464F403900914220
:1007200066D0221A002A00DC9DE000283DD1002E70
:1007300000D18BE0511E002900D0B5E001249B1BA5
:100740005A0144D59B019F09380000F06FFB053822
:100750008740844200DD96E0041B3A0020200134EB
:10076000E240041BA7403B005F1EBB410024134333
:100770005A0704D00F221A40042A00D004335A0129
:1007800027D50134FF2C00D179E001229B015B0ABF
:10079000E4B22A405B02E405580AD2072043104322
:1007A0001CBC90469946A246F0BDFF2CE0D08021AB
:1007B000C9040E431B2A7BDC31002020D140821A61
:1007C0009640721E96410E439B1B5A01BAD45A079B
:1007D000D0D10122DF082A40FF2C33D1002F00D1D5
:1007E000A8E08023DB033B435B025B0AFF24D1E7E5
:1007F000211A00294CDD00282AD0FF2CB8D08020F7
:10080000C00406431B2900DDAFE030002027C840AC
:10081000791A8E40711E8E4106439B195901D6D517
:100820000134FF2C00D185E001227A491A405B088F
:100830000B4013439CE7002E00D070E76BE73B1E94
:10084000C5D100227B025B0AE4B2A3E714008FE764
:10085000002E4DD0481E002857D19B1901245A0163
:10086000B5D50224E0E7002A25D1621CD2B2012AC4
:1008700072DD9F1B7A0135D5F71A0D0064E701225E
:1008800000232A4086E73B00634A241A13406FE79F
:1008900000296CD1611CC8B201284EDDFF2949D066
:1008A0009B195B080C0063E7FF2A41D00A0081E72F
:1008B00001269B1B89E7002C1CD0FF2821D0802417
:1008C000E404524223431B2A00DD96E01C0020254D
:1008D000D440AA1A93405A1E93412343F31A0400AA
:1008E0000D002DE7002F00D02EE700220024A9E7FD
:1008F0000C003DE7002B58D0D243002AEED0FF2851
:10090000E1D13300FF240D0032E7FF2910D00100B0
:1009100078E7002B6ED0FF24002E00D128E780223C
:100920005146D203114203D06146114200D1330037
:10093000FF241DE7FF2400232CE7002CE9D1002B26
:1009400063D0002E00D113E79B195A0100D43EE773
:10095000314A0C0013400BE7002C1ED1002B2FD185
:10096000002E4FD033000D0002E7012655E7002C82
:100970001FD1002B43D0C94300290BD0FF2839D009
:100980001B2944DC1C002027CC40791A8B40591EBF
:100990008B4123439B19040040E7002B1AD1002E02
:1009A00024D180270022FF031BE7330004000D0041
:1009B000DEE6FF281ED08024E40449422343DFE71B
:1009C000002E00D1D4E69F1B7A0100D437E7F31A3A
:1009D0000D00CDE6FF24002E00D1C9E6802250464E
:1009E000D2031042A4D060461042A1D133000D00C2
:1009F000FF24BDE63300FF24BAE601236EE733008F
:100A00000400B5E6002700221CE73300B0E601230E
:100A1000C0E7C046FFFFFF7DFFFFFFFB4102430031
:100A2000C20F490A1B0E00207E2B0DDD9D2B0CDC16
:100A3000802000040143952B0ADC9620C31AD9407C
:100A40004842002A00D108007047034BD018FBE74A
:100A5000963B9940F4E7C046FFFFFF7F70B5002842
:100A600030D0C317C4185C40C50F200000F0DEF979
:100A70009E231B1A962B0DDC9622D21A94402A0034
:100A80006402640ADBB26402DB05600AD207184321
:100A9000104370BD992B19DC9922D21A002A29DD46
:100AA00094402200144C1440510704D00F210A40F6
:100AB000042A00D00434620113D4A401640ADBB216
:100AC0002A00E0E7002200230024DCE705222100C1
:100AD000121AD140B922D21A9440621E94410C439A
:100AE000DAE7054B2A001C409F23A4011B1A640A65
:100AF000DBB2C8E72200D5E7FFFFFFFB10B5041EFD
:100B000027D000F093F99E231B1A962B0ADC96221D
:100B1000D21A94406402640ADBB26402DB05600A04
:100B2000184310BD992B17DC9922D21A002A27DD11
:100B300094402200134C1440510704D00F210A4066
:100B4000042A00D00434620112D4A401640ADBB286
:100B5000E3E700230024E0E7B9222100D21A914004
:100B60000A00511E8A410521091ACC401443DBE7D3
:100B7000044B1C409F23A4011B1A640ADBB2CCE780
:100B80002200D7E7FFFFFFFBF0B54F464646D646AB
:100B90005C00C0B51F03DB0F9A46174B0E034D00D8
:100BA00084468046360B6D0DC90F91463F0B640D90
:100BB00001209D4208D09C4201D0A5420BD01CBC14
:100BC00090469946A246F0BD63463343F7D1AC4206
:100BD000F5D13A43F3D10120BE42F0D1C845EED160
:100BE000514507D0002DEAD163461E433000461E12
:100BF000B041E4E70020E2E7FF070000F0B545461A
:100C0000DE4657464E46E0B51F033D0B2C4F0E0304
:100C10004C00AB465D008446360B640DC90F904610
:100C20006D0DDB0FBC422AD0254FBD422DD0002CCC
:100C30000FD130430700814678427841C0B2002D81
:100C400017D15F463A4314D14B460020002B0AD0FF
:100C500006E0002D02D15846024301D0994218D037
:100C60004842012108433CBC90469946A246AB4607
:100C7000F0BD0028F2D00120013B1843F3E7370014
:100C80000743D1D002204042EDE75F461743CED064
:100C9000F8E7AC42E4DC03DA481E01210843E2E74E
:100CA0005E45DDD806D000205E45DCD20123481E1B
:100CB0001843D8E7C445D3D80020C445F6D3D2E7BB
:100CC000FF070000F0B54E464546DE4657465C003D
:100CD000E0B51F03DB0F99462A4B0E034D00C90FE9
:100CE0008446360B6D0D8B4690463F0B640D9D423E
:100CF00020D0244B9C4222D0002D12D130434342BD
:100D00004341DBB2002C1FD0002B0CD04B460120FE
:100D1000013B034318003CBC90469946A246AB46B3
:100D2000F0BD002C16D0CB4517D05B4659420123AD
:100D30000B43EFE7310002230143EBD1D9E7390040
:100D400002231143E6D1D7E73A43DDD1002300283F
:100D5000E0D0EAE73A43E6D1E7E7A542E5DC05DB88
:100D6000BE42E2D807D00023BE42D3D25946012367
:100D700001390B43CEE7C445D7D80023C445F5D38A
:100D8000C8E7C046FF0700004100090E4B1C70B5C4
:100D9000DBB24602750AC40F012B14DDE0239B0071
:100DA0006D07360BCB1800210A0D280012051C4DCB
:100DB00032435B052A405B0813435B00E4075B0892
:100DC0002343190070BD002914D1002D1ED0280026
:100DD00000F02CF80A281CDC0B232A001B1ADA402E
:100DE000030015339D400F4B12031B1A5B05160BB6
:100DF0005B0DD8E7002D06D0320B802636036D0739
:100E00001643094BCFE7084B0026CCE7002300260A
:100E1000C9E703002A000B3B9A400025E3E7C046E0
:100E2000FFFF0F8089030000FF0700001C21012342
:100E30001B04984201D3000C10391B0A984201D3BD
:100E4000000A08391B09984201D30009043902A29B
:100E5000105C40187047C046040302020101010102
:100E6000000000000000000030B585B00C22002119
:100E700001A804F0BCFC04221F4C204B6261C2227A
:100E8000012523600023FF3220006360A360E3603C
:100E90002561A361E36125626362A262E362256367
:100EA000636301F0DFFB002801D000F09FFE802388
:100EB0005B010293072301A920000195039301F030
:100EC0003DFE002801D000F091FE022301A9200080
:100ED000019301F033FE002801D000F087FE0523C6
:100EE00001A92000019301F029FE002801D000F0A3
:100EF0007DFE05B030BDC046100300200024014037
:100F000070B5050088B01422002103A804F06FFC1E
:100F1000204B2A689A423BD180201F4980008A6971
:100F2000802602438A618B6976000340802001930A
:100F3000019B4A69800202434A614B6903A903404D
:100F40000293029B90202623C0050393233B049326
:100F500002F07EF9114C124B2000236000236360E5
:100F6000A3608033E3608023DB0063612023A361FF
:100F700080235B012661E36101F050FF002801D06E
:100F800000F034FE074A136833431360EC63656274
:100F900008B070BD0024014000100240CC020020C7
:100FA0001C0002400000014010B50C4B0C4C2360AB
:100FB00000232000237163716361A3610133236205
:100FC00001F0D0FE002801D000F010FE200001F05A
:100FD00023FF002801D000F009FE10BD00300240C0
:100FE0005C030020074B026882B09A4208D140207F
:100FF000054A516901435161536903400193019BC3
:1010000002B07047003002400010024010B50322C9
:101010000249034801F05AFC10BDC0468C03002071
:10102000100300208023084A1B011360074A136045
:10103000074A1360074A13600122074B1A605A607F
:101040009A60DA607047C04600000020040000206B
:10105000080000200C00002010000020D0B5041C67
:10106000FFF792FE0A4A0B4B06000F00FFF716F936
:10107000002809D1064A084B30003900FFF7FAF87A
:10108000002802D0054C00E0054C201CD0BDC04615
:101090009A9999999999F93F9999D93FCDCCCC3E94
:1010A000CDCCCC3FF8B5354F354C38682168FFF7CB
:1010B00035F8344E386030686168FFF72FF8324DEC
:1010C00030602868A168FFF729F8304B286018685D
:1010D000E168FFF723F82D4B186038682C4BC018D7
:1010E000FFF70CFD2B49FFF7DDF9011CFE20800501
:1010F000FFF7F8FA284C20602068FFF7AFFF206068
:101100003068234BC018FFF7F9FC2249FFF7CAF9F2
:10111000011CFE208005FFF7E5FA204C20602068C6
:10112000FFF79CFF20602868194BC018FFF7E6FC0A
:101130001849FFF7B7F9011CFE208005FFF7D2FA26
:10114000174C20602068FFF789FF104B206018685B
:101150000F4BC018FFF7D2FC0E49FFF7A3F9011C93
:10116000FE208005FFF7BEFA0E4C20602068FFF7D6
:1011700075FF2060FFF756FFF8BDC0460000002055
:101180001000002004000020080000200C000020B7
:1011900000F8FFFF9A9999393400002038000020A8
:1011A0003C0000204000002019481A4930B504884E
:1011B0008D68194A194BAC4208DD19491288086834
:1011C00012180A60DA680132DA6030BD04884D68AE
:1011D000AC4208DD13491288086812180A609A6840
:1011E00001329A60F1E7008809681288884207DDB9
:1011F0000D49086812180A605A6801325A60E4E71B
:101200000A49086812180A601A6801321A60DCE795
:10121000BE020020240000208C03002010000020CB
:101220000C00002008000020040000200000002026
:1012300070B50D4B002A01D001229A608A08140073
:101240000500013C08D29200801803221140411889
:10125000884204D1186870BD40CD1E60F1E7027865
:1012600001301A70F4E7C0460030024070B50B4CF4
:1012700014220021200004F0BAFA094D01222800AE
:101280006421FFF7D5FF07490200200004F0B8FAF7
:101290002800210004F0D6FA70BDC04614040020D6
:1012A00094030020F460000810B564220021024875
:1012B00004F09DFA10BDC0469403002007B5FFF767
:1012C000F3FF074B07491A68074B08481B68096872
:1012D0000091074904F094FAFFF7C8FF07BDC04624
:1012E000ACF7FF1FB4F7FF1FB0F7FF1F94030020F8
:1012F0000161000810B5FFF7D7FF054B05491A88B3
:10130000054892B204F07CFAFFF7B0FF10BDC0466A
:10131000CCF7FF1F146100089403002010B5FFF7FD
:10132000C3FF064C0649200004F08CFA0549200052
:1013300004F088FAFFF79AFF10BDC046940300201E
:10134000256100082F610008024A1368002BFCD0B9
:101350007047C04620000020002210B50400074B53
:101360001A6063220649074803F028FE0228F8D0D5
:10137000002C01D0FFF7E8FF10BDC0462000002080
:1013800094030020F8050020054B026810B59A422E
:1013900004D10122034B1A60FFF786FF10BDC0463F
:1013A000003801402000002010B5024802F022F968
:1013B00010BDC04660040020104B11491A680A4055
:1013C000FF211A605A6C8A435A644022596C0A43BE
:1013D0005A641022596C0A435A640822596C0A4311
:1013E0005A640422596C0A435A640222596C0A4313
:1013F0005A640122596C0A435A647047002C014018
:10140000FFFCFFFF8022054B1201196A0A431A6292
:101410008022196A92000A431A627047002C014028
:101420008022054B520159680A435A60802259684C
:1014300092010A435A607047002C01401021114B61
:10144000114A10B59A622932DA62F53AFF3ADA6344
:101450001A6870208A431A606022196891431960E3
:10146000D9698143D961D9690A43DA61A022196A2D
:10147000D2000A431A62FFF7C5FFFFF7D1FFFFF75B
:101480009BFF10BD002C0140BF030000FA2310B5E4
:101490000C4C5B00E363A023226ADB00134323624E
:1014A000FFF7B0FFFFF7BCFFFFF786FF0123E268FD
:1014B0001A43E260226813432360FFF7B3FDFFF78E
:1014C000F1FD10BD002C01400121104B1A698A4327
:1014D0001A61DA688A43DA601A680D490A401A60AC
:1014E0008022596892010A435A605A6809490A40A1
:1014F0005A608022196A92000A431A621A6A0649DF
:101500000A401A620022DA637047C046002C01408C
:10151000FEFF0000FFEFFFFFFFF7FFFFC023034ABE
:101520001B02516C0B4353647047C046002C0140B2
:10153000044B05495A6C0A405A645A6C03490A40E4
:101540005A647047002C0140FF7FFFFFFFBFFFFF81
:1015500010B5FFF7E3FFFFF799FF10BD10B5FFF7D8
:10156000E7FFFFF7B1FF10BD0022084B10B51A804E
:10157000074B5A639A63D96801321143D9601968DD
:101580000A431A6000F078F810BDC046BE02002081
:10159000000400400121074B1A698A431A61DA6886
:1015A0008A43DA601A6804490A401A6000225A63C2
:1015B0009A63704700040040FEFF0000C023034A06
:1015C0001B02516C0B4353647047C046000400403B
:1015D000044B05495A6C0A405A645A6C03490A4044
:1015E0005A64704700040040FF7FFFFFFFBFFFFF0A
:1015F00010B5FFF7E3FFFFF7B7FF10BD10B5FFF71A
:10160000E7FFFFF7C7FF10BDFA210122174B890042
:101610009A62D962002159639963196A0A431A626E
:101620000222196A0A4310211A621A6A0A431A62CC
:101630002022186A02431A6280225868520002432C
:101640005A6080225868D20002435A609A6908485A
:1016500002409A619869074A02439A611A688A436C
:101660001A601A6850318A431A60704700040040BB
:101670008F8FFFFF60600000FE23054A9B0513600B
:10168000044A1360044A1360044A13607047C0465A
:10169000400000203C0000203800002034000020E2
:1016A0000B4A0C4B11889868814202DD0A4B18687E
:1016B000704711885868814201DD084BF7E71288AE
:1016C0001B689A4201DD064BF1E7064BEFE7C04687
:1016D000BE02002024000020400000203C0000202A
:1016E0003800002034000020114B70B51A88EF2A12
:1016F00001D900221A801B880E4A5B009C5AFFF712
:10170000CFFFFE218905A4B2051CFEF7DDFD0028F0
:1017100008D12000FFF7A2F9291CFEF7C3FEFEF74F
:1017200001FE84B2201C1E2C00D21E2080B270BD8F
:10173000BE020020440000200260009A0372C260D2
:10174000019A0023026101224160037543758361A0
:10175000C27583754372704710B5040001884068F4
:1017600001F08EFE237A181A431E9841C0B210BDB4
:1017700070B50400FFF7F0FFE67D050086421AD041
:10178000002807D100F00CFF0123A061A375E575C7
:1017900000200FE000F004FFA369E16802005B187D
:1017A00001209A4203D30423E075180063720023DA
:1017B0006375237570BD002EEAD100F0F1FEA369B8
:1017C00022699B18984208D3637D012B02D166726F
:1017D000607AEFE703236372FAE700F0E1FEA369A2
:1017E000E2689B189842D3D3237D012BEFD00223CC
:1017F000F1E7000007B50120084A51690143516132
:10180000536900220340019311000A30019B01F04B
:1018100043FA0B2001F07AFA07BDC04600100240DF
:10182000F0B589B01422002103A803F0E0FF802066
:101830008025294BC0035969AD02014359618021BC
:101840005A69C90202400092009A5A69234E2A43FB
:101850005A615A6930002A400192019A5A6900245B
:101860000A435A615B6901220B400293E921029B02
:1018700001F018FE90200327194B03A9C00503931C
:101880000497059401F0E4FC8C2390205B00039303
:10189000183BFF3B03A9C0050593049401F0D8FC55
:1018A000E92303A903933000E83B049305940697CA
:1018B00001F0CEFC102303A9300003930497059494
:1018C00001F0C6FC8020400201F016FE280001F065
:1018D00013FE09B0F0BDC0460010024000040048ED
:1018E000011800000748084B10B503600623436049
:1018F000064BC360836001F02DFE002801D000F08C
:1019000075F910BD6004002000300040FF0F00009A
:1019100030B5102595B03022002108A803F067FFEC
:101920002A000021684603F062FF2A00002104A873
:1019300003F05DFF1923089380235B02119380233A
:1019400001240E955B030E3D08A81095129309948F
:101950000D940F9401F056FE0723019500252100F8
:10196000684600930295039502F0F6F804A80494E3
:10197000069502F0F9F915B030BD0000F7B500F09A
:10198000F7FDFFF7C5FFFFF74BFFFFF733FFFFF74B
:101990000BFBFFF769FAFFF7A5FF00F06BFC00F007
:1019A00075FB00F041FD00F0DDFC00F089FB00223A
:1019B0000A20110001F070F90A2001F0A7F90022B5
:1019C0000420110001F068F9042001F09FF90022C1
:1019D0000320110001F060F9032001F097F9FFF7EF
:1019E00015FB0322714B00251A70FFF727FDFFF747
:1019F000AFFDFFF7B3FDFFF707FEFFF7F9FDFFF7B8
:101A0000FDFDFFF7D1FC01220821694801F04AFDE4
:101A100001226748110001F045FD01224021644880
:101A200001F040FD01228021614801F03BFD614C45
:101A3000614E200002F054FB200002F081FB5F4B5E
:101A40001D706423F362FFF7AFFCFA23DB00019300
:101A500080221E2390215A4F009352002B00C9056B
:101A60003800FFF769FEFA239B00019390211E23A3
:101A700010220093C9052B005248FFF75DFEFA23A0
:101A80009B00019390211E234F4C0822C90500930F
:101A900020002B00FFF750FE3800FFF769FE494891
:101AA000FFF766FE2000FFF763FEFA20400000F01B
:101AB0007DFDFFF733FC0120FFF74EFCFFF7FEFB37
:101AC0000120FFF749FCFFF715FC0120FFF744FC5C
:101AD000FFF7EAFB2000FFF74BFE3800FFF748FE58
:101AE0003A4D02281BD13A49280003F0B8FE0120E4
:101AF000FFF732FCFFF758FCFA20400000F056FDDB
:101B00003800FFF735FE022809D13249280003F0DA
:101B1000A6FE0120FFF720FC01222F4B1A600127AF
:101B20002E49280003F09BFE0120FFF715FC234BF4
:101B300000221F70FA239B00F36208211C4801F069
:101B4000B1FC002239001A4801F0ACFC002240210F
:101B5000174801F0A7FC00228021154801F0A2FCE3
:101B60002000FFF705FE1748FFF702FEFA204000AD
:101B700000F01CFD1348FFF7FBFD032806D11849B0
:101B8000280003F06CFE3800FFF7E6FB2000FFF7AB
:101B9000EFFD0122134C144B20009A6202F0A0FAD0
:101BA000200002F0CDFAC046FDE7C046BC0200208E
:101BB000000400483005002000440140AC02002031
:101BC000F80300204404002028040020940300208F
:101BD0003B6100084D610008B0020020646100080C
:101BE00071610008F0040020002000407047704739
:101BF00001200A4B82B099690143996180219A6959
:101C0000490502400092009ADA690A43DA61DB6909
:101C10000B400193019B02B07047C0460010024088
:101C20007047FEE77047704710B500F0B1FC10BD7B
:101C300010B501F06DFA10BD7047000010B50348F3
:101C400001F0FDF9024801F0FAF910BDCC020020C4
:101C5000B405002010B5024801F0F1F910BDC046EE
:101C60007005002010B5024800F0D8FE10BDC04637
:101C70001003002010B50D4C200002F096FA02224D
:101C8000236852421A610023094A1380094A1370DB
:101C9000094A93635363094B1A78012A05D101322B
:101CA0001A70F332064BFF32DA6310BDB004002025
:101CB000BE020020BD02002000040040BC02002043
:101CC000002C014070B5284C200002F06EFA022270
:101CD000236852421A61254B1A78002A05D01A78D7
:101CE000012A02D01A78032A05D1002220498A63EA
:101CF0004A6320490A801A78032A34D01A78012AC4
:101D000001D101321A701C4C636A002B04D0FA23F3
:101D1000626A5B009A4207D10023154A93635363BA
:101D2000144A1380FFF7BEF9F423626AFF33134DA0
:101D30009A4201D901222A70626A9A4201D800238C
:101D40002B702C78E4B2002C04D1FFF7CDFC084BAB
:101D500058639C632B78012B05D10023044C6363EB
:101D6000FFF7C2FCA06370BD70040020BC0200201D
:101D700000040040BE020020002C0140BD020020F3
:101D8000F8B52F4C200002F010FA022223682D4DE6
:101D900052421A612800FFF7EBFC2B4C022809D1B4
:101DA00003222A4B1A700022294B1A602378022B37
:101DB00021D1F8BD2800FFF7DBFC0328F0D0237801
:101DC000244D032B1AD1214B1F78FFB2012F15D1BF
:101DD000002621482E80FFF7CBFC03280ED11F4B95
:101DE00027709E635E631E4BDE632E80FFF7B0FBA1
:101DF000FFF7FEFBDDE702232370E0E72378022BE9
:101E000016D1124B1B78032B0DD103232370002313
:101E1000124A93635363124AD3632B80FFF79EFBEE
:101E2000FFF7ECFBC5E70C48FFF7A2FC0428ECD059
:101E3000FFF7BAF92B8801339BB22B80B9E7C04674
:101E4000F004002028040020BC020020AC02002086
:101E5000B4020020BE020020440400200004004020
:101E6000002C0140F0B55A4C87B0200002F09DF9DB
:101E70000222236852421A61FFF796FA554C2078E5
:101E8000C0B2032816D8FEF73FF90217025B0821FB
:101E9000514801F021FB01214F4801F01DFB402179
:101EA0004D4801F019FB4C48802101F015FB4B48CF
:101EB000FFF75EFC07B0F0BD494B1B68012BF9D161
:101EC000FFF7F2F9474B1B889BB20493464B186807
:101ED000464B1968464B1C68464B1D68464B1E68AE
:101EE000464B1F68FEF71AF9454983B2381C059323
:101EF000FEF7D8FAFEF716FA80B203904049301C7C
:101F0000FEF7D0FAFEF70EFA80B202903C49281C88
:101F1000FEF7C8FAFEF706FA80B201903849201C95
:101F2000FEF7C0FAFEF7FEF980B20090059B049A16
:101F30003449354803F064FC0020FFF70DFAB9E797
:101F4000264F3800FFF714FC304D314E02281AD1CD
:101F50002B68304F01332B600A2B2AD1002301223A
:101F600020211D482B6001F09DFAFA235B00FB62E3
:101F70008021194801F0B0FA0323274A2370137017
:101F80000023336096E73800FFF7F2FB0328DFD029
:101F900003210022204B2A6019703368013333601B
:101FA000092B0EDD7D310C4801F07CFA01232370F2
:101FB00080E700222021084801F074FAFA239B00F0
:101FC000D5E721700448802101F086FA72E7C04607
:101FD00030050020AC020020000400482804002046
:101FE000B00200208C030020000000201000002020
:101FF00034000020380000203C0000204000002079
:102000000000C8428361000894030020B802002049
:10201000B402002000440140BC02002010B5024878
:1020200003F002FB10BDC046F80500200121114B52
:1020300011481A680A431A605A6802405A601A68BE
:102040000E4802401A601A680D4802401A605A6829
:102050000C4802400F205A60DA6A8243DA621A6B37
:10206000094802401A635A6B8A435A6300229A60F5
:102070007047C046001002400CB8FF08FFFFF6FE94
:10208000FFFFFBFFFFFFC0FFECFEFFFF0A480B4B0B
:1020900010B503600123FA2243600023920083609D
:1020A00003618033C260836102F064F9002801D0CB
:1020B000FFF79CFD10BDC046F0040020002000404A
:1020C0000A480B4B10B503600A4BFA224360002309
:1020D00092008360036143618033C260836102F0D8
:1020E00049F9002801D0FFF781FD10BD300500201F
:1020F000004401407FBB00001FB50368284A93429B
:1021000013D18020274A00019169014391619369AD
:102110000022034000930D201100009B00F0BCFD45
:102120000D2000F0F3FD05B000BD1F4A93420FD112
:1021300002201C4AD1690143D161D36900220340C6
:1021400001930E301100019B00F0A6FD1020E8E77E
:10215000164A934210D18020124A4000D1690143AF
:10216000D161D369002203400293ED381100029B34
:1021700000F092FD1320D4E70D4A9342D3D1802082
:10218000084A8002916901439161936900220340EA
:10219000039315201100039B00F07EFD1520C0E77E
:1021A000002C0140001002400004004000200040CC
:1021B0000044014030B5040089B01422002103A876
:1021C00003F015FB2368274A93422FD18020264B2A
:1021D000C0025969022401435961802103255A69CB
:1021E000890202400092009A5A6920480A435A61C3
:1021F0005B6903940B40019303A9019B049406952A
:10220000079401F025F880239020DB00039300233E
:10221000C00503A9049405930695079401F018F8E6
:102220008020000401F068F909B030BD104A9342E3
:10223000FAD180200C4A80025169014351615369EF
:1022400003A903400293029BC02390200393BE3B4B
:10225000049301330693C005023B079300F0F8FF97
:10226000E2E7C046002C0140001002400004004894
:102270000004004030B595B01022002102A803F000
:10228000B6FA08220021684603F0B1FA1C220021A8
:1022900006A803F0ACFA1C2200210DA803F0A7FA4F
:1022A0002E4C2F4BFA222360F0239B006360002307
:1022B0009200A3602361636120008033E260A36128
:1022C00002F058F8002801D0FFF790FC802302A903
:1022D0005B012000029302F077FB002801D0FFF79A
:1022E00085FC200002F0A8F8002801D0FFF77EFC52
:1022F0000025694620000095019502F069FDA8427D
:1023000001D0FFF773FCFA235B0007930822F43B2C
:1023100006A920000695089509950A950B930C933C
:1023200002F0BCF9002801D0FFF760FC5F22109298
:102330008022002392010DA920000D930E930F938C
:1023400011931292139302F08FFD002801D0FFF732
:102350004DFC2000FFF72EFF15B030BDB00400206B
:10236000002C014010B58EB01022002103A803F00C
:102370003EFA0822002101A803F039FA1C220021AC
:1023800007A803F034FA264C264BFA2223600123D7
:10239000636000239200A360236120008033E26029
:1023A000A36101F0E7FF002801D0FFF71FFC8023A5
:1023B00003A95B012000039302F006FB002801D073
:1023C000FFF714FC200002F09DF8002801D0FFF771
:1023D0000DFC002301A920000193029302F0F8FCF8
:1023E000002801D0FFF702FC0022602307A920008B
:1023F0000793089209920B9202F0F8F9002801D095
:10240000FFF7F4FB042207A9200002F0EFF90028EF
:1024100001D0FFF7EBFB2000FFF7CCFE0EB010BDA4
:1024200070040020000400400B480C4B10B5036002
:10243000E1235B0243600C22002342618360C3609E
:1024400003618361C3610362436203F01DF80028E6
:1024500001D0FFF7CBFB10BDF8050020003801408C
:1024600030B5050089B01422002103A803F0BFF99C
:102470002F4B2A689A4259D180202E4BC00199696E
:102480000143996180219A69890202400192019A6F
:102490005A6990200A435A615B69C0050B40029358
:1024A000029B82231B0203930223049301330693AE
:1024B00003A9023B079300F0CBFE1F4C1F4B802269
:1024C0002360002320006360A360E26023616361F6
:1024D000A361E36100F0A2FC002801D0FFF786FBB6
:1024E000174B6C666562174C802223601023636073
:1024F00000232000A360E26023616361A361E361C4
:1025000000F08CFC002801D0FFF770FB80230E4AFE
:102510009B0011681B200B43136000222C661100E6
:10252000656200F0B9FB1B2000F0F0FB09B030BD84
:102530000038014000100240B40500203000024085
:1025400044000240700500200000014010B5040066
:1025500001F0F4FBFA218900FDF7E0FD00F0E8FB53
:10256000012000222100404200F096FB002010BD17
:102570001023064A10B5116800200B431360FFF7C3
:10258000E5FFFFF735FB002010BDC04600200240EC
:10259000024A1368013313607047C0466806002082
:1025A000014B18687047C0466806002037B5019097
:1025B000FFF7F6FF019C0500631C5A1E9341E418C7
:1025C000FFF7EEFF401BA042FAD337BD002373B5DF
:1025D00003210193036804009A680A40012A07D185
:1025E0001968114201D0002076BDDA681204FAD4CD
:1025F0009968194A114208D010230120626C1343D4
:102600006364A36C0343A364EEE7012299680A4361
:102610009A60124B12491868FDF780FD0190019BEA
:10262000002B15D1FFF7BCFF0125060023681B68AE
:102630002B42D8D1FFF7B4FF801B0228F6D9102314
:10264000626C012013436364A36C2B43A364CBE748
:10265000019B013B0193E2E7170000802402002068
:1026600040420F00F8B504000120002C00D1F6E034
:102670008F4B22689A4204D074218E48FF31FFF7B5
:10268000B6FA63688C4A134208D08022120693423D
:1026900004D0BA2187484900FFF7A9FA1823A26895
:1026A0009A4304D076218348FF31FFF7A0FA202314
:1026B000E2689A4304D0BB217E484900FFF797FAAD
:1026C0002369013B012B04D978217A48FF31FFF7B8
:1026D0008EFA236A012B04D9BC2176484900FFF702
:1026E00086FA636A012B04D97A217248FF31FFF719
:1026F0007EFA724BE26A1A4204D0BD216D4849004D
:10270000FFF775FAA36A4022190091430AD0C02B43
:1027100008D0C222FF32934204D07C216548FF31A9
:10272000FFF765FA236B012B04D9BE2161484900EC
:10273000FFF75DFA04226369043B934304D07E21D2
:102740005C48FF31FFF753FA636B012B04D9BF21BB
:1027500058484900FFF74BFAA369012B04D980219F
:102760005448FF31FFF743FAE369012B04D9C02134
:1027700050484900FFF73BFA636C002B06D122005A
:102780004032A36420001370FEF7BAFB636CDB06D3
:1027900000D579E0042223689868104000D073E0E7
:1027A000626C4749114002220A43032162649A681D
:1027B0000A40012A00D06DE01968114202D1DA689E
:1027C000120467D5DA683F49256A0A40DA60A269CF
:1027D0006F039103E269D2031143626B013A561E03
:1027E000B2411603E268114322690F43022A00D165
:1027F0000420226B616A52003A43324302430129AA
:1028000004D1002D2CD1802149020A43C220A16AA3
:10281000FF30814202D0E06A01430A438020D96838
:1028200040051143D960A16B814202D0481E0628A1
:1028300007D8072558692940A843586158690143BA
:102840005961DB6820490B409A4211D100200322D4
:10285000A064636C93431A00012313436364F8BDBF
:102860002020656C28436064A06C0143A164CDE71F
:102870001222636C012093431A00102313436364F4
:10288000A36C0343A364EAE71023626C01201343A3
:102890006364E4E71821DA688A43A1680A43DA60CE
:1028A0001969626889008908114319618AE7C0467D
:1028B00000240140DF610008FFFFFFBFFFF3FFFFBF
:1028C000FDFEFFFF1902FEFFE7FF3F83F7B5244B34
:1028D0000192026804000F009A4203D02149224865
:1028E000FFF785F9236802209B685B0730D4260038
:1028F00040363378012B2BD001233370E369012B51
:1029000027D1636C194A00251A4080235B001343CA
:102910006364E06B164BA56435708362154B2168C8
:10292000C362154B03631C230B604A680C3B1343C3
:102930004B600123CA681343CB603A004031019BCE
:1029400000F00EFB04232800226891680B4393607B
:10295000FEBD2000FFF73AFE0028F9D1D1E7C046BE
:1029600000240140BC040000DF610008FEF0FFFF0E
:1029700081290008F3290008012A00087047000097
:102980005022436A10B5596C11422AD1596CB132A8
:10299000FF320A43C0215A641A680901D06808420C
:1029A00012D1196A00290FD1116809070CD5916855
:1029B00049070DD40C205168814351605A6C0B4972
:1029C000114001220A435A641800FFF7D7FF10BDD7
:1029D0002022596C0A435A640122996C0A439A6472
:1029E000F2E7DB6B1B6B9847F1E7C046FEFEFFFF8B
:1029F000704710B5406AFFF7FBFF10BD7047704786
:102A00004023406A10B5426C134343640423826C34
:102A100013438364FFF7F3FF10BD0000424B0268CD
:102A200070B504009A4203D040494148FFF7DFF8EF
:102A3000236A012B03D93F493D48FFF7D8F8042208
:102A40006369043B934304D0AF213948C900FFF7C1
:102A5000CEF8042223681968114202D05968114245
:102A600006D108221968114228D05968114225D090
:102A7000626CD20604D48022616C92000A436264C4
:102A8000C022D9681201114212D1226A002A0FD144
:102A90001A6812070CD59A6852073CD40C215A6860
:102AA0008A435A60636C244A1A40012313436364C7
:102AB0002000FFF763FF0C2223681A60802523683B
:102AC0001A682A420CD05B682B4209D08023626CC2
:102AD0005B02134363642000FFF790FF23681D60CF
:102AE000102223681968114214D05968114211D07C
:102AF000626B012A02D0DA68D20708D50222A16CE3
:102B000020000A43A26410221A60FFF778FF102207
:102B100023681A6070BD2023626C13436364012331
:102B2000A26C1343A364C3E70024014076050000B0
:102B3000DF61000877050000FEFEFFFF0023F7B508
:102B400002680193474B04000D009A4203D04649A6
:102B50004648FFF74CF82B68112B03D944494348EA
:102B6000FFF745F86B68434A9B18012B03D942498C
:102B70003E48FFF73CF88022A36B520593420CD0ED
:102B8000013B062B09D9AB68934206D0013B062BCB
:102B900003D93A493548FFF72AF8260040363378FA
:102BA0000220012B2AD0236801389A68307052071E
:102BB00052D433496F682A688F423BD09040996A5B
:102BC000084398628020A16B400581420FD00139F3
:102BD00006290CD907205C69A9680440A14206D0E7
:102BE0005C69014084435C615C6921435961130065
:102BF000103B012B03D9002000233370FEBD214B75
:102C000080211868102A13D0C90301431960102AC3
:102C1000F1D11D4B1D491868FDF780FA0A2358436E
:102C20000190019B002BE6D0019B013B0193F8E74B
:102C30000904EAE79040996A814399621300103BC6
:102C4000012BD8D80F4B1968102A03D0104A0A401C
:102C50001A60D0E70F4AFAE72023626C13436364DB
:102C6000CAE7C0460024014051060000DF610008A9
:102C70005206000000F0FFFF530600005706000058
:102C800001100000082701402402002040420F00EC
:102C9000FFFFBFFFFFFF7FFF70B504000D0003299A
:102CA00003D99B211648FEF7A2FFA901002C14DAD4
:102CB0000F23E4B22340083B124A9B089B009B1859
:102CC000032214409440FC3215000A40A540A24063
:102CD000D869A8430243DA6170BD0325A3082C40DC
:102CE000AC40FC352E00084A9B009B18C022A64031
:102CF0002940A14092009858B04301439950EBE716
:102D00001762000800ED00E000E100E010B5041ECD
:102D100003DAAB210448FEF76AFF1F231C401E3B69
:102D2000A340024A136010BD1762000800E100E0F2
:102D3000094A431E012093420DD8C021074A084882
:102D40005360036A09061B021B0A0B43036200203F
:102D50000723906013607047FFFFFF0010E000E062
:102D600000ED00E070B5041E02D10125280070BD01
:102D7000274B02689A4203D080212648FEF737FF8E
:102D8000637FDBB2002B03D123772000FEF72AF903
:102D900002232000637700F03FF8051EE5D1637938
:102DA000012B03D999211B48FEF721FF6279236883
:102DB000002A2AD1013A1A61602362699A4303D03A
:102DC000A5211448FEF713FF6021226893688B4306
:102DD00061690B4393608023A2699A4303D0A921C0
:102DE0000C48FEF704FF8021226893688B43A16999
:102DF0000B439360236A013B022B03D9AE210548A4
:102E0000FEF7F5FE01236377B0E72269D3E7C046FA
:102E100000300240526200080020704770B5040084
:102E20000120002C00D181E02368414A93420FD059
:102E3000404A93420CD0404A934209D03F4A9342C1
:102E400006D03F4A934203D0A5213E48FEF7CFFE6D
:102E5000636810221900914307D08022D201934267
:102E600003D0A6213748FEF7C2FE4023A2689A434A
:102E700003D0A7213348FEF7BAFE8023E2689A43C5
:102E800003D0A8212F48FEF7B2FE23692E4A134231
:102E900007D080229200934203D0A9212948FEF74F
:102EA000A6FE6369294A134207D080221201934289
:102EB00003D0AA212348FEF79AFE2023A2699A4351
:102EC00003D0AB211F48FEF792FE214BE2691A4264
:102ED00003D0AC211B48FEF78AFE02232068A51C04
:102EE000EB7702681B4BA1681A4063680B43E168EB
:102EF0000B4321690B4361690B43A1690B43E169F2
:102F00000B4313430360144B1421C018FDF706F95B
:102F1000124B80002064E36300200123A062E06282
:102F200020636063A063E418EB77E07770BDC04670
:102F3000080002401C0002403000024044000240F1
:102F4000580002408A620008FFFEFFFFFFFBFFFF00
:102F5000FFCFFFFF0FC0FFFFF8FFFDBF00000240E3
:102F6000F8B515001F005A1E214B04000E009A42AE
:102F700004D9AF211F484900FEF739FE631CDA7FF0
:102F80000220012A26D00122DA7722189446D27F25
:102F90000021D2B2012A28D16346D8772368A163E1
:102FA0001968206C914382401960E16B4A60626845
:102FB0005F602168102A0ED19D60DE60E26A1868A9
:102FC000002A0BD00E2202431A60012300200A6857
:102FD00013430B60F8BD9E60DD60EFE70A220243F9
:102FE00004201A601A688243EEE7D977F2E7C046F8
:102FF000FEFF00008A62000870B5841CE37F022B8C
:1030000004D004238363033B180070BD0E210368C2
:10301000056C1A688A431A60012219689143196085
:103020001100A940C36B5960E27700248318426BFA
:10303000DC771300A242E7D090472300E4E7F8B51D
:1030400004273E00016CC26B8E40156803681C6843
:103050002E420DD03C420BD01968890602D4196863
:10306000B9431960C36A5660002B19D0984717E01E
:1030700002273E008E402E4213D03C4211D01968E8
:10308000890606D40A241968A14319600121C319CD
:10309000D97756600022431CDA77836A9342E5D1E0
:1030A000F8BD082637008F403D42F9D03442F7D0B2
:1030B0000E251C68AC431C6001231C008C4054602E
:1030C000821C8363D3770022C318DA77036BE5E7AA
:1030D00010210C4B30B5D8680022084205D00A48B0
:1030E0000232C4692243C2610A000420D968014245
:1030F00005D00121044C0243E5692943E161DA600E
:1031000030BDC04600200240700600207047704766
:10311000F8B5434D434CEB68DB0602D4EB685B0724
:103120000AD50123A6685B42A360FFF7D1FF3000F8
:10313000FFF7EDFF002323702023EA681A421AD01C
:10314000EB602378002B16D02378012B28D16368FD
:10315000013B63606368002B1BD0A068FFF7D6FFBC
:1031600080230222A068DB00C018A0602B69934373
:103170002B6100F05BF82378DBB2002B08D107212C
:103180002A698A432A612A6927490A402A612376E3
:10319000F8BD01204042A0602370FFF7B7FFEAE7C7
:1031A0002378022B09D104222B69002093432B6141
:1031B000FFF7ACFF00232370DDE76368013B63602A
:1031C0006368002B19D0A3680233A360A668206946
:1031D00061690B0C0F040121020C3A432261636107
:1031E0002B698B432B61226963690023E3612B699F
:1031F00092B2194329613280BDE72378032B06D1AF
:10320000A068FFF783FF01235B42A360D2E7237826
:10321000A068042B01D10238F3E70638F1E7C04675
:103220000020024070060020FFEBFFFF0022064B4B
:10323000DA61064B023219690A431A614022586169
:1032400019690A431A617047700600200020024085
:103250009023F0B5DB0587B004000D0098420FD035
:103260007B4B98420CD07B4B984209D07A4B9842CA
:1032700006D07A4B984203D0C1217948FEF7B7FCBB
:103280002B689AB2002A01D01B0C03D0C2217448CB
:10329000FEF7ADFC6B68032B12D91A00113A012A14
:1032A0000ED9704A70491A40521870490A4207D024
:1032B0006F4A9B180B4203D0C3216948FEF797FC65
:1032C000AB68022B03D9C4216548FEF790FC0023AC
:1032D00001932B6801991A00CA4001D107B0F0BDD3
:1032E000012201998A4003921A40029200D1ABE078
:1032F00010226B689343022B22D19023DB059C4262
:1033000006D0534B9C4203D0D3215548FEF76FFCA7
:103310002B69062B03D9D4215148FEF768FC0722FC
:103320000198019B02400F2092009040DB089B0017
:10333000E318196A81432869904002000A431A621F
:10334000019B6A685F0003231E00BE401340F643E2
:10335000BB40216831400B43236010239A43013A5C
:10336000012A19D8EB68012B05D9032B03D0E821DA
:103370003B48FEF73CFCEB680121BB40A2683240B1
:103380001343A3606268039B9A436B681B090B405D
:1033900001998B4013436360E36869683340AE680A
:1033A000BE401E43E660CB004ED5012003260F270A
:1033B000304B9A6902439A619B69034001980593D7
:1033C000304080008740059B019B9A082A4B920061
:1033D000D2189368BB4390279C46FF050023BC424C
:1033E0000CD01B4F0133BC4208D01A4F0133BC42F2
:1033F00004D0194F9B19BC4200D133008340604672
:10340000034393601D4A029B1668D8433343CF039E
:1034100001D43300034013605668029B33438F038B
:1034200001D43300034053609668029B3343CF02BC
:1034300001D4330003409360D668029B3343890272
:1034400001D433000340D360019B013340E7C04601
:103450000004004800080048000C00480014004820
:10346000C2620008FFFFDFFF0000EFEFFFFFFEFF7B
:103470000000DFEF001002400000014000040140A6
:1034800070B505000C1E04D18E210548FF31FEF7F2
:10349000AEFB28692040431E9841C0B270BDC046B3
:1034A000C262000870B505000C001600002904D1A6
:1034B000D62108484900FEF79AFB012E06D9AE2115
:1034C0000448FF31FEF793FBAC6170BD002EFBD1C9
:1034D000AC62FAE7C262000870B505000C1E04D1A8
:1034E000E12104484900FEF782FB6B695C406C6196
:1034F00070BDC046C26200080200114B13B51A40ED
:1035000004009A4208D0DF231B04184209D10200AC
:103510000C4B1A409A4204D094210B484900FEF704
:1035200066FB0120094A9169014391619369034057
:103530000193019B064B1A6814431C6013BDC046DF
:103540000000AAAA0002AAAAFB620008001002401A
:103550000000014070B504000120002C32D01F4B48
:1035600022689A4203D0B5211D48FEF740FB6368EC
:10357000062B03D9B6211A48FEF739FB194DA3686B
:10358000AB4203D9B7211648FEF731FBE368AB42E3
:1035900003D9B8211248FEF72AFB2368124A1A60A1
:1035A000124A1A6062685A60A2689A60FEF7F8FFD1
:1035B00005002368D868002805D11969E26891429E
:1035C00008D01A6170BDFEF7EBFF401B2728F0D929
:1035D0000320F7E7064A1A60F4E7C04600300040CF
:1035E00036630008FF0F0000CCCC000055550000EA
:1035F000AAAA00000368024A00201A607047C04669
:10360000AAAA0000F0B5040085B0002804D18921E1
:10361000B8484900FEF7EBFA2368002B06D0DB061A
:1036200004D11421B348FF31FEF7E1FA2368DB0728
:1036300048D423689B0700D5A5E023681B0700D565
:10364000F0E023685B0700D51BE12368DB062BD580
:103650006369012B06D9053304D08021A548890070
:10366000FEF7C5FAA3691F2B03D9A349A148FEF7AA
:10367000BEFA6269A14D0423012A00D08DE1696B75
:1036800002260B436B636B6B1A436A63FEF788FF7A
:1036900007006B6B334200D178E1F8216A6BA369B4
:1036A0008A43DB0013436B63236A022B04D99D21F9
:1036B00090488900FEF79BFA226A002A00D087E131
:1036C00000201DE06368012B06D9052B04D01A21C8
:1036D0008848FF31FEF78BFA0C21884D6A680A4052
:1036E000042A06D06B680B40082B0BD16B68DB03F8
:1036F00008D52B689B039CD56368002B99D10120CA
:1037000005B0F0BD6368012B14D180232A685B02E9
:1037100013432B60FEF744FF80260700B6022B6898
:10372000334200D085E7FEF73BFFC01B6428F6D983
:103730000320E5E7002B16D12B68714A8026134041
:103740002B602B686F4AB60213402B60FEF728FFF0
:1037500007002B68334200D16BE7FEF721FFC01B47
:103760006428F6D9E4E7052B05D180232A68DB021B
:1037700013432B60C9E72B68614A13402B602B6809
:10378000604A1340C5E7E368012B04D94E2159482C
:10379000FF31FEF72CFA23691F2B04D9A7215548C6
:1037A0004900FEF724FA0C22544D6B68134206D0F0
:1037B0006B681340082B10D16B68DB030DD42B68AA
:1037C0009B0702D5E368012B99D1F8212A68236968
:1037D0008A43DB0013432B602FE7E2680123002AB2
:1037E0000FD02A68022613432B60FEF7D9FE07008C
:1037F0002B683342E9D1FEF7D3FEC01B0228F7D96C
:1038000096E72A6802269A432A60FEF7C9FE070057
:103810002B68334200D110E7FEF7C2FEC01B02281E
:10382000F6D985E7E369012B04D9C721314849005E
:10383000FEF7DDF9E2690123304D002A10D06A6AF3
:10384000022613436B62FEF7ABFE07006B6A33423E
:1038500000D0F6E6FEF7A4FEC01B0228F6D967E703
:103860006A6A02269A436A62FEF79AFE07006B6A4A
:10387000334200D1E5E6FEF793FEC01B0228F6D9DD
:1038800056E7A368012B06D9052B04D0DD21194882
:103890004900FEF7ACF980220021184D5205EB6972
:1038A0000091134208D1EB691343EB61EB691340BC
:1038B0000393039B012300938027134E7F003368FB
:1038C0003B4206D0A368012B20D12A6A13432B6206
:1038D0003DE033683B433360FEF762FE019033689E
:1038E0003B42EFD1FEF75CFE019BC01A6428F6D97B
:1038F0001EE7C0466F63000801020000001002408E
:10390000FFFFFEFFFFFFFBFF007000400122002BC6
:1039100014D12B6A022793432B622B6A0332934301
:103920002B62FEF73DFE06002B6A3B4225D0FEF7D8
:1039300037FE644B801B9842F6D9F9E6052B0BD174
:10394000296A013B0B432B622B6A1A432A62FEF75A
:1039500027FE022706000DE02B6A934304222B6208
:103960002B6A9343B3E7FEF71BFE564B801B98422E
:1039700000D9DDE62B6A3B42F5D0009B012B00D03D
:1039800063E6EB69504A1340EB615EE6FEF708FE22
:10399000C01B022800D87CE6CAE6053203D16A6B58
:1039A0009A436A6379E66A6B0226134301226B63CA
:1039B0006B6B93436B63FEF7F3FD07006B6B334256
:1039C00000D171E6FEF7ECFDC01B0228F6D9AFE688
:1039D0000C213E4D01206B680B40082B00D18FE677
:1039E0003B4E022A5BD13B4B626A1A4203D03A49F2
:1039F0003A48FEF7FCF8A26A39493A4B11401340A5
:103A000013D08020400383420FD080208003834264
:103A10000BD0C0239B03994207D0E0239B039A421B
:103A200003D031492D48FEF7E2F8E36A0F2B03D9A2
:103A30002E492A48FEF7DBF82B681E402E60FEF761
:103A4000AFFD80260700B6042B68334221D10F2238
:103A5000EB6A9343E26A1343EB62616AA36A6A68A2
:103A60000B43234980240A4013436B6080232A6858
:103A70005B0413432B60FEF793FD0600A4042B6840
:103A8000234200D01CE6FEF78BFD801B0228F6D9EE
:103A90004EE6FEF785FDC01B0228D5D948E62B6807
:103AA00080241E402E60FEF77BFD0600A4042B68D8
:103AB000234200D104E6FEF773FD801B0228F6D9ED
:103AC00036E6C04688130000FFFFFFEF00100240FB
:103AD000FFFFFFFEFFFFFEFF7D0200006F63000897
:103AE000FFFFFBFFFFFFF3FF7E0200007F020000ED
:103AF000FFFFC2FF70B5144C88B010222100684649
:103B000001F06CFE210004AD10221031280001F0FC
:103B100065FE0C220D4E73681A40082A11D10F2041
:103B20006A46990C0140545CF26A0240A95CDB03CE
:103B300005D50748FCF7F2FA604308B070BD0548A8
:103B4000FAE70348F9E7C046946000080010024015
:103B500000127A0000093D00F7B504000F000028AC
:103B600003D168496848FEF742F823685B0703D130
:103B700066496548FEF73BF8012F04D9B721624832
:103B80008900FEF734F80122614D2B6813409F42F3
:103B90001FD823689B0726D42368DB0745D401235D
:103BA0002A681A40974200D28AE02368594D5B0781
:103BB00000D58DE0FFF79EFF6B68574A1B061B0F71
:103BC000D35CD840554B18600020FEF7BFFC0020A6
:103BD00008E02B6893433B432B602B6813409F42C4
:103BE000D7D00120FEBDA36880221900914314D0D4
:103BF00020221900914390290FD0402219009143AF
:103C0000A0290AD0102219009143C02905D0F02B19
:103C100003D043493C48FDF7EAFFF0213D4A536891
:103C20008B43A1680B435360B6E76368022B03D94B
:103C30003C493548FDF7DBFF364E62683368012AA0
:103C40001AD19B03CDD5032173688B431343736053
:103C5000FEF7A6FC63680190012B15D10C22736856
:103C60001340042B9BD0FEF79BFC019BC01A2E4BEC
:103C70009842F3D90320B5E7022A02D19B01E2D48E
:103C8000AFE79B07DFD4ACE7022B13D00C2273689D
:103C9000134200D183E7FEF783FC019BC01A224B3D
:103CA0009842F3D9E6E7FEF77BFC019BC01A1E4B56
:103CB0009842DFD80C2273681340082BF3D16EE7CB
:103CC0002A689A432A602A681A4200D089E76CE77A
:103CD000E368164A13420DD0A021154AC9001A40C4
:103CE0008A4207D0C022D200934203D0114906482D
:103CF000FDF77DFF6B68104A1340E26813436B6069
:103D000058E7C046DA0200006F630008DB020000DB
:103D10000020024000100240C76100082402002079
:103D2000F3020000FA02000088130000FFFBFFFF0F
:103D3000FFFDFFFF63030000FFF8FFFF014B186862
:103D40007047C04624020020044B054A5B685B05AF
:103D50005B0FD35C034A1068D840704700100240E4
:103D6000D761000824020020F0B54C4B026885B0F2
:103D700005009A4203D97E214948FDF738FF2B6898
:103D8000DB0330D56B68474A134203D08421444893
:103D9000FDF72DFF80220021434C5205E36900917D
:103DA000134208D1E3691343E361E36913400393CA
:103DB000039B0123009380273C4E7F0033683B42E6
:103DC00038D0C022236A9200134045D1236A354A75
:103DD00013406A6813432362009B012B03D1E369FC
:103DE000334A1340E3612B68DB070DD5AB68032B27
:103DF00003D9CB212A48FDF7FAFE03212A4A136B87
:103E00008B43A9680B4313632B6800209B0621D5C5
:103E10001023EA689A43824203D0EF212048FDF73D
:103E2000E6FE1021204A0020136B8B43E9680B4308
:103E300013630FE033683B433360FEF7B1FB01903F
:103E400033683B42BDD1FEF7ABFB019BC01A64282F
:103E5000F6D9032005B0F0BD69680A409342B5D099
:103E60008023226A206A5B0203432362236A0D498E
:103E700010481140034023622162D307A6D5FEF704
:103E80008FFB02270600236A3B429FD1FEF788FB87
:103E9000094B801B9842F6D9DBE7C04621000100A0
:103EA000A7630008FFFCFFFF001002400070004005
:103EB000FFFFFFEFFFFFFEFF88130000F7B50122B1
:103EC000036A040093430362056A47688369723298
:103ED00093430A680E001A4302239D438B680192A4
:103EE0001D431E4B984205D01D4B984202D01D4BDE
:103EF00098422CD10823F2689A4303D01A491B48F0
:103F0000FDF775FE08239D43F3681D4304239D437D
:103F1000124B9C4205D0124B9C4202D0114B9C424A
:103F200015D1134BB2691A4203D012490F48FDF75D
:103F30005EFE114B72691A4203D010490B48FDF71F
:103F400056FE0F4BB2691F40736913431F43019B19
:103F50006760A361736863632562F7BD002C01404D
:103F6000004401400048014090120000E263000854
:103F7000FFFDFFFF9D120000FFFEFFFF9E120000ED
:103F8000FFFCFFFFF0B50F007321036A254A85B0DF
:103F900013400362046A4668C36905008B433968AD
:103FA000029219430191BB681F491B020C401C433C
:103FB0001E4B0391984226D10823FA689A4303D0F6
:103FC0001B491C48FDF713FE1B4BFA6823401402E3
:103FD0001C431A4B1C40BB69039A134203D0184977
:103FE0001448FDF704FE7B69029A134203D0154979
:103FF0001048FDF7FCFD144B7A693340BE69164347
:1040000036011E4305E0114B9842E4D0104B9D420F
:10401000E1D0019B6E60EB617B68EB632C6205B0C5
:10402000F0BDC046FFFEFFFFFFFDFFFF002C01407B
:1040300025130000E2630008FFF7FFFFFFFBFFFF0F
:104040003213000033130000FFCFFFFF0044014094
:1040500000480140F7B5036A174A040013400362A1
:10406000036A164A4568C7690E0017400A681202BB
:104070001743134A13408A6812031A43114B0192E3
:10408000984205D0104B984202D0104B98420CD168
:104090000F4B72691A4203D00E490F48FDF7A7FD76
:1040A0000E4B1D4073699B011D4373686560E7619A
:1040B0002364019B2362F7BDFFEFFFFFFF8CFFFF2F
:1040C000FFDFFFFF002C0140004401400048014099
:1040D000FFFEFFFF70130000E2630008FFBFFFFF59
:1040E0000368114A10B50400934210D00F4A93425E
:1040F0000DD00F4A93420AD00E4A934207D00E4A7F
:10410000934204D098210D484900FDF770FD22002C
:104110000223012120683D32137003680B430360C2
:104120000020117010BDC046002C0140000400406A
:10413000002000400044014000480140E2630008C4
:104140000368104A10B50400934210D00E4A9342FF
:104150000DD00E4A93420AD00D4A934207D00D4A21
:10416000934204D0AF210C484900FDF740FD0122E5
:1041700023680020D9681143D96019680A431A607E
:1041800010BDC046002C014000040040002000404B
:104190000044014000480140E26300087047704756
:1041A000704770477047704770470222036810B528
:1041B0001969040011420ED0D96811420BD0053A9A
:1041C0001A619B69043202779B0700D179E0FFF7FF
:1041D000E9FF00232377042223681969114210D0D4
:1041E000D96811420DD0093A1A61073222779A69CB
:1041F000C0239B0020001A4269D0FFF7D3FF0023A1
:10420000237708222368196911420ED0D968114218
:104210000BD0113A1A61DB690D32227720009B071F
:104220005BD0FFF7BFFF00232377102223681969B3
:10423000114210D0D96811420DD0213A1A611932B9
:104240002277DA69C0239B0020001A424BD0FFF787
:10425000A9FF00232377012223681969114207D09F
:10426000D968114204D0033A1A612000FFF798FF81
:10427000802223681969114208D0D968114205D0FB
:10428000023AFF3A1A61200000F087FE40222368BC
:104290001969114207D0D968114204D0813A1A61D4
:1042A0002000FFF781FF202223681969114207D0FF
:1042B000D968114204D0413A1A61200000F06CFE26
:1042C00010BDFFF76EFF2000FFF76DFF81E7FFF7DE
:1042D00068FF2000FFF767FF91E7FFF762FF20000C
:1042E000FFF761FF9FE7FFF75CFF2000FFF75BFF31
:1042F000AFE70000194A10B50368904202D0184C8D
:10430000A04208D17024A3434C68234390420BD0B1
:10431000134CA04208D0134CA04205D0124CA0422E
:1043200002D0124CA04203D1114C2340CC6823434D
:104330008024A3434C69234303608B68C3620B68EA
:104340008362904205D0084B984202D0074B9842B6
:1043500001D10B6903630123436110BD002C0140AF
:10436000000400400020004000440140004801409B
:10437000FFFCFFFF70B504000120002C4CD0236827
:10438000264A93420FD0264A93420CD0254A9342A4
:1043900009D0254A934206D0244A934203D0D4211F
:1043A0002348FDF724FCA3681022190091430AD08A
:1043B000402219009143202905D0402B03D0D5215C
:1043C0001B48FDF714FC23691A4A134207D08022C8
:1043D0009200934203D0D6211548FDF708FC8023B4
:1043E000A2699A4303D0D7211148FDF700FC2500AC
:1043F0003D352B78DBB2002B05D122003C32137007
:104400002000FDF779FE022320682B70211DFFF7A5
:1044100071FF012300202B7070BDC046002C0140AD
:1044200000040040002000400044014000480140DA
:10443000E2630008FFFEFFFF70B504000120002CBE
:1044400050D02368284A934210D0284A93420DD076
:10445000274A93420AD0274A934207D0264A9342DA
:1044600004D0F52125484900FDF7C1FBA3681022BF
:10447000190091430BD0402219009143202906D006
:10448000402B04D0EC211D48FF31FDF7B0FB236920
:104490001B4A134208D080229200934204D0F62196
:1044A00016484900FDF7A3FB8023A2699A4304D074
:1044B000EE211248FF31FDF79AFB25003D352B78A0
:1044C000DBB2002B05D122003C3213702000FFF735
:1044D00065FE022320682B70211DFFF70BFF0123CF
:1044E00000202B7070BDC046002C0140000400402D
:1044F000002000400044014000480140E263000801
:10450000FFFEFFFF70B504000120002C4DD0236892
:10451000264A93420FD0264A93420CD0254A934212
:1045200009D0254A934206D0244A934203D0244915
:104530002448FDF75CFBA3681022190091430AD0C0
:10454000402219009143202905D0402B03D01E4959
:104550001C48FDF74CFB23691C4A134207D08022FC
:104560009200934203D01A491648FDF740FB80237E
:10457000A2699A4304D0FA2112488900FDF737FB5B
:1045800025003D352B78DBB2002B05D122003C32D3
:1045900013702000FFF703FE022320682B70211DFB
:1045A000FFF7A8FE012300202B7070BD002C0140F6
:1045B0000004004000200040004401400048014049
:1045C000E5030000E2630008E6030000FFFEFFFFD2
:1045D000E7030000F7B51022036A04009343036267
:1045E000066A234A456883690F0013400A6812026D
:1045F0001A4320239E438B6801921B011E431D4BCF
:10460000984227D10823CA689A4303D01A491B4805
:10461000FDF7EDFA80239E433300FA6816011E432E
:1046200040239E43164BBA691A4203D015491348DA
:10463000FDF7DDFA144B7A691A4203D013490F488B
:10464000FDF7D5FA124B7A692B40BD691543AD00D1
:104650001D4305E00F4B9842E4D00F4B9C42E1D044
:10466000019B6560A3617B68A3632662F7BDC046BA
:10467000FF8CFFFF002C0140DA120000E26300080B
:10468000FFFDFFFFE8120000FFFEFFFFE912000040
:10469000FFF3FFFF0044014000480140F7B504006C
:1046A0000D001600182A03D8424BD340DB0703D471
:1046B00041494248FDF79BFA2B68102219009143AB
:1046C0000A0030218B4305D0402A03D03C493B48A7
:1046D000FDF78DFA0223AA689A4303D03949374877
:1046E000FDF785FA270002233C373A781800012AA3
:1046F0002ED001223A7022003D32019213700C2E0E
:1047000021D83000FBF700FD071F1F1F251F1F1FAB
:10471000351F1F1F450023682B4A93420FD02B4A99
:1047200093420CD02A4A934209D02A4A934206D097
:10473000294A934203D029492048FDF758FA290015
:104740002068FFF7BBFB01230020019A137038702B
:10475000FEBD23681C4A934206D01C4A934203D0F4
:104760001F491648FDF743FA29002068FFF732FF7A
:10477000E9E72368144A934206D0144A934203D0CF
:1047800018490E48FDF733FA29002068FFF7FAFBB5
:10479000D9E723680C4A934206D00C4A934203D0CF
:1047A00011490648FDF723FA29002068FFF752FC5B
:1047B000C9E7C04611110001770B0000E263000851
:1047C000780B0000790B0000002C01400004004031
:1047D000002000400044014000480140840B0000DC
:1047E0008C0B0000940B00009C0B0000F7B5070039
:1047F0003C373B7804000D0016000220012B61D0ED
:1048000001233B70182A03D85A4AF240934303D03D
:1048100059495A48FDF7EBF910232A689A43602A50
:1048200003D057495548FDF7E2F90223AA689A4395
:1048300004D0C22151480901FDF7D9F904232A699E
:104840009A4303D04F494D48FDF7D1F923003D333A
:1048500001930223019A13700C2E2ED83000FBF71F
:1048600053FC072C2C2C322C2C2C4F2C2C2C6C0079
:104870002368454A93420FD0444A93420CD0444A9D
:10488000934209D0434A934206D0434A934203D00D
:1048900042493A48FDF7ABF929002068FFF70EFBC3
:1048A0000822236899690A4304219A619A698A4314
:1048B0009A619A6929690A439A6101230020019A41
:1048C00013703870FEBD23682F4A934206D02F4ADA
:1048D000934203D032492948FDF789F9290020681D
:1048E000FFF778FE80222368120199690A439A61D2
:1048F0009A692C490A409A612A6999691202DAE791
:104900002368214A934206D0204A934203D0264985
:104910001A48FDF76CF929002068FFF733FB0822DD
:104920002368D9690A430421DA61DA698A43DA61C2
:10493000DA6929690A43DA61BFE72368124A9342B8
:1049400006D0124A934203D018490C48FDF74FF99C
:1049500029002068FFF77EFB802223681201D969B5
:104960000A43DA61DA690F490A40DA612A69D969CA
:104970001202DFE7111100011E0C0000E2630008C3
:104980001F0C0000210C0000002C0140000400401E
:10499000002000400044014000480140290C000074
:1049A000380C0000FFFBFFFF470C0000560C000016
:1049B00030B58468034D0A431B022C401343234344
:1049C000836030BDFF00FFFFF8B5060002233C36D0
:1049D000327805000C001800012A28D02F0001228F
:1049E0003D373270A04A3B700B6899189F4A1142BC
:1049F00008D03022934305D0402B03D09C499D48DA
:104A0000FDF7F5F82B689C499A680A409A6022687D
:104A1000402A00D15CE121D8102A00D1A3E107D8B7
:104A2000002A00D18CE1012300203B703070F8BDDA
:104A3000202A00D1A8E1302AF5D1904A934206D02D
:104A40008F4A934203D08F498A48FDF7D0F87022ED
:104A500029688B6893431A00372381E1702A00D1BB
:104A600093E03DD8502A00D1C2E0602ADBD1834ACE
:104A7000934206D0824A934203D083497D48FDF792
:104A8000B6F8802263681202934209D0022219000C
:104A9000914305D00A2B03D07C497648FDF7A7F84F
:104AA000E3680F2B03D97A497248FDF7A0F86268D2
:104AB000E16810242B68774D186A0903A043186237
:104AC0009C69186A2C402143A02499617021A0435D
:104AD000120102431A629A688A4311006722BFE0FA
:104AE000802149018A4237D0802189018A429AD1A6
:104AF000624A934206D0624A934203D066495D48B7
:104B0000FDF775F8654BA2681A4203D0644959480D
:104B1000FDF76DF880226368120293420AD00222E8
:104B20001900914306D00A2B04D0FF2151480901F6
:104B3000FDF75DF8E3680F2B03D95A494D48FDF79F
:104B400056F8E3686268A1682868FFF731FF8023A0
:104B50002A68DB01916849E0484A93420FD0484AED
:104B600093420CD0504A934209D0504A934206D007
:104B70004F4A934203D04F493E48FDF738F807218A
:104B80002A6893688B4393604DE73C4A934206D072
:104B90003B4A934203D048493648FDF728F83F4B3B
:104BA000A2681A4203D045493248FDF720F8802216
:104BB00063681202934209D002221900914305D082
:104BC0000A2B03D03E492B48FDF711F8E3680F2B61
:104BD00003D93C492748FDF70AF8E3686268A168F1
:104BE0002868FFF7E5FE77212A6893680B43CAE738
:104BF000224A934207D0224A934204D080211D4882
:104C00004901FCF7F4FF802263681202934209D045
:104C100002221900914305D00A2B03D02A491548D6
:104C2000FCF7E5FFE3680F2B03D928491148FCF78F
:104C3000DEFF2B680125186A6168E2681C6A1201B0
:104C4000AC431C629C69EF35AC4322430A24A04369
:104C500001439A61196270219A688A4311005722B0
:104C60000A439A60DFE6C04600F0FFFFFFEFFFFF58
:104C7000BD0F0000E26300088800FFFF002C014028
:104C800000040040451000000F100000121000004A
:104C900013100000FF0FFFFFEC0F0000FFCFFFFF1E
:104CA000EF0F0000F10F0000002000400044014021
:104CB00000480140C90F0000D20F0000D50F0000CE
:104CC000D60F0000D70F00000310000004100000F2
:104CD000364A934206D0364A934203D03549364885
:104CE000FCF785FF802263681202934209D00222FA
:104CF0001900914305D00A2B03D030492E48FCF708
:104D000076FFE3680F2B03D92D492B48FCF76FFF83
:104D10002B680125186A6168E2681C6A1201AC43BD
:104D20001C629C69EF35AC4322430A24A043014333
:104D30009A61196270219A688A43110047228FE7AD
:104D40001A4A934206D01A4A934203D01D491A4880
:104D5000FCF74DFF702229688B6893431A000723E4
:104D600013438B605FE6114A934206D0104A934288
:104D700003D015491048FCF73AFF702229688B6868
:104D800093431A001723EBE7084A934206D0084AD8
:104D9000934203D00D490848FCF729FF7022296887
:104DA0008B6893431A002723DAE7C046002C0140A2
:104DB000000400401E100000E26300082110000003
:104DC000221000002D100000351000003D100000E2
:104DD00003681F4A70B505000C00934206D01D4AB7
:104DE000934203D01C491D48FCF701FF3023226881
:104DF0009A4305D0402A03D019491848FCF7F7FE1A
:104E0000802362689A4303D016491448FCF7EFFEEA
:104E100029003C310B780220012B17D02E002B6883
:104E20003D3630705A686E3082435A605A68206846
:104E3000024380205A609A6882439A609A68606848
:104E400002439A60002001233370087070BDC04691
:104E5000002C014000040040490600001A640008CC
:104E60004A0600004B060000F8B5394A0368050001
:104E70000C0093420AD0374A934207D0364A9342F5
:104E800004D0CE213548C900FCF7B1FE2368344A6E
:104E9000134203D033493148FCF7A9FE6368324A14
:104EA000134203D031492D48FCF7A1FE304FA368CF
:104EB0003B4203D02F492948FCF799FEE368FF2BBA
:104EC00003D92D492548FCF792FE23692B4A13424A
:104ED00003D02B492148FCF78AFE6369294A134213
:104EE00003D029491D48FCF782FE284EA3693342AE
:104EF00003D027491948FCF77AFE2B003C331A7877
:104F00000220012A22D02A00E1683D321070A068F8
:104F10003940014314480140606801431048014092
:104F200020680143154801402069014315480140AC
:104F3000606901430E40A16916480E4306400E43C6
:104F4000296800204E64012111701870F8BDC04618
:104F5000002C014000440140004801401A64000850
:104F6000FFF7FFFF71060000FFFBFFFF7206000066
:104F7000FFFCFFFF7306000074060000FFEFFFFF59
:104F800075060000FFDFFFFF76060000FFBFFFFF92
:104F900077060000FF7FFFFF7047704703680649F0
:104FA0001A686A300A401A609A682331FF318A43CE
:104FB0009A60202303707047DFFEFFFF130002009A
:104FC00070B56932147805000220202C34D10138E4
:104FD000002931D0002B2FD08024AE686401A64276
:104FE00004D12C69002C01D1014225D12E00683654
:104FF00034780220012C1FD0013830702800503046
:10500000E9640024038043802120EC661070286E40
:105010000A4A446382620A4AC2620A4A02632A68EE
:105020002832FDF79DFF402220002B681A62996804
:1050300092180A4334709A6070BDC0464950000807
:105040007B500008895000082021036810B51B68B8
:10505000426A0B400CD1110052310B808021136841
:105060009A688A439A60402219680A431A6010BD00
:105070001000FCF789F9FAE7704710B5406AFFF7AE
:10508000FBFF10BD7047704710B5446A21006931BD
:105090000B78212B0DD123689A68120609D52200BE
:1050A0000020523210801A68C03082431A602023D8
:1050B0000B7023006A331B78222B0AD123689B686C
:1050C0005B0606D5230000225A331A802000FFF722
:1050D00065FF1023E26E20001343E366FFF7D3FF62
:1050E00010BD406A0023020010B55A321380083AFE
:1050F0001380FFF7C8FF10BD5E4B426870B5040017
:105100009A4203D95C495D48FCF771FD5C4BA2688B
:105110001A4203D05B495948FCF769FD5A4BE268D3
:105120001A4203D059495548FCF761FD2369584A92
:10513000134207D0C022D200934203D055494F48B2
:10514000FCF755FD63690C221900914301D1002B36
:1051500003D151494948FCF74AFD504BA2691A4214
:1051600003D04F494548FCF742FD4E4B226A1A4294
:1051700003D04D494148FCF73AFD4C4BE2691A42D5
:1051800003D04B493D48FCF732FD2069A3682568F0
:10519000034360692968E2690343464813430140B9
:1051A0000B432B606B684449206A0B40E1680B435A
:1051B0006B60A369A9680343404801400B43032186
:1051C000AB603F4B1B6B0B403E49C85C80231B020E
:1051D0009A422CD1082827D8FAF796FF05260B26E5
:1051E0001E2626262100FEF7AFFD636840005B08FF
:1051F00002E063685808344BC0186168FAF78EFF04
:1052000083B200200F22190091430A001B07216876
:105210005B0F1343CB6070BDFEF76CFCE5E7636882
:10522000580880235B02E7E701200023EAE708280B
:105230001DD8FAF769FF051C0A1C141C1C1C17005A
:10524000FEF782FD61684B0802E061681F4B480869
:10525000C018FAF763FF80B2E8600020DBE7FEF7D2
:1052600049FCEFE7802361681B024808F0E7012052
:10527000D1E7C046808D5B004608000059640008F5
:10528000FFEFFFFF47080000FFDFFFFF48080000B7
:10529000FFFBFFFF490800004A080000FFFCFFFF7A
:1052A0004B080000FFF7FFFF4C080000FF7FFFFFE7
:1052B0004D080000F369FFFFFFCFFFFFFFF4FFFF82
:1052C00000100240556400080024F40000127A0027
:1052D000436A70B50400FF2B03D954495448FCF7C6
:1052E00086FC636ADB070DD5524DA36A2B4203D0BF
:1052F00051494F48FCF77BFC2268A16A53682B4058
:105300000B435360636A9B070DD54C4DE36A2B42F8
:1053100003D04B494648FCF76AFC2268E16A5368AF
:105320002B400B435360636A5B070DD5454D236BE0
:105330002B4203D044493E48FCF759FC2268216BBC
:1053400053682B400B435360636A1B070DD53F4DD9
:10535000636B2B4203D03E493548FCF748FC22687A
:10536000616B53682B400B435360636ADB060DD5BA
:10537000384DA36B2B4203D037492D48FCF737FC3F
:105380002268A16B93682B400B439360636A9B0672
:105390000DD5324DE36B2B4203D031492448FCF745
:1053A00026FC2268E16B93682B400B439360636A91
:1053B0005B0628D52B4B22689A4203D02A491C4809
:1053C000FCF715FC294D236C2B4203D028491848C3
:1053D000FCF70DFC2168226C4B682B4013434B609B
:1053E00080235B039A420ED1224B626C1A4203D097
:1053F00021490F48FCF7FBFB2268204953680B400A
:10540000616C0B435360636A1B060DD51C4DA36C86
:105410002B4203D01B490648FCF7E9FB2268A16C2C
:1054200053682B400B43536070BDC046A908000071
:1054300059640008FFFFFDFFAE080000FFFFFEFFFC
:10544000B5080000FFFFFBFFBC080000FF7FFFFF67
:10545000C3080000FFEFFFFFCA080000FFDFFFFFE7
:10546000D108000000380140D8080000FFFFEFFF1E
:10547000D9080000FFFFDFFFDE080000FFFF9FFFED
:10548000FFFFF7FFE608000070B5041E01D1012000
:1054900070BD8169224B026800293BD09A4204D03A
:1054A000972149001F48FCF7A2FB250069352B789E
:1054B000DBB2002B05D12200683213702000FCF70C
:1054C000CFFF2423012122682B70136820008B4317
:1054D0001360FFF711FE0128D9D0636A002B02D0B8
:1054E0002000FFF7F5FE23680F495A6800200A40A4
:1054F00008215A609A688A439A60012219680A430F
:105500001A6022002023E0666A3268342B70137020
:105510002070BDE79A42C8D03421FF31C2E7C046AF
:105520000038014059640008FFF7FFFF030030B561
:1055300069331B7802000220212B0FD11400523452
:10554000238811689BB2002B09D10A687E30824300
:105550000A604022086802430A60002030BD8020B3
:1055600095684001D36C85420DD1106900280AD19D
:1055700018880233C005C00D0885D3642388013B19
:105580009BB22380E9E7581CD0641B780B85F5E7B4
:105590004021026810B513688B431360030020227A
:1055A00069331A70FBF7F0FE002010BD020070B5E1
:1055B0006A321178036822292DD1010080245C31E0
:1055C0000D88998C640129408568436DA5421ED1E0
:1055D0000469002C1BD119800233436501000024AB
:1055E0005A310B88013B9BB20B80A3420DD103685B
:1055F0000C4D19682940196099682335FF35A94376
:10560000996020231370FFF73DFD200070BD5C1CE6
:1056100044651970E2E70822996902240A439A61F5
:10562000F3E7C046DFFEFFFF0F2270B504000068FD
:10563000C36901681A4008D120252B4205D02942B0
:1056400003D02000FFF7B2FF70BD8568002A60D04C
:105650000122154003D190267600314259D01342E1
:1056600005D0CE0503D50262E66E3243E266022221
:10567000134206D0002D04D00262E66E9218324327
:10568000E2660422134206D0002D04D00262E66EC8
:10569000023A3243E2661A0708D58A0601D4002D81
:1056A00004D008220262E06E0243E266E26E002A43
:1056B000CAD02022134204D0114202D02000FFF7AA
:1056C00075FFE36E20001B0704D423689D68402308
:1056D0001D401AD0FFF762FC402123689A680A42F5
:1056E0000FD09A68606E8A439A60002809D0134BE5
:1056F0004363FDF781FC0028A6D0606E436B98479A
:10570000A2E72000FFF7BFFC9EE7FFF7BCFCE566C1
:105710009AE78022134205D0114203D02000FFF700
:1057200005FF91E74022134200D18DE7114200D1DD
:105730008AE72000FFF72CFF86E7C046E350000809
:105740000D4885460D480E490E4A002302E0D45804
:10575000C4500433C4188C42F9D30B4A0B4C0023B9
:1057600001E013600432A242FBD3FCF75FFC00F0BF
:1057700011F8FCF703F9FEE70010002000000020FC
:105780008C020020D06400089002002094060020C3
:10579000FEE7000070B500260C4D0D4C641BA410F4
:1057A000A64209D1002600F069FC0A4D0A4C641B90
:1057B000A410A64205D170BDB300EB58984701363E
:1057C000EEE7B300EB5898470136F2E7C8640008EB
:1057D000C8640008C8640008CC640008002310B541
:1057E0009A4200D110BDCC5CC4540133F8E70300E9
:1057F0008218934200D1704719700133F9E7000015
:105800000EB410B59DB002A9029008610B48822425
:1058100088604861012040421FABC881084804CB22
:10582000A400006801938C8100F084F80023029AA0
:1058300013701DB010BC08BC03B01847FFFFFF7FFA
:1058400028020020020010B51378002B05D1CC5C93
:10585000D4540133002CFAD110BD0132F4E7031CFB
:105860000A7801311A700133002AF9D1704700001B
:10587000F0B58E6885B007000C00039201939E423C
:1058800039D890238A89DB001A4234D0032509696C
:1058900023685B1A0293636902985D43EB0F5D19FD
:1058A000019B6D1001331B18AB4200D91D0053053D
:1058B00032D52900380000F031FB061E09D10C2337
:1058C0003B6040230120A28940421343A38105B0DD
:1058D000F0BD029A2169FFF781FFA389144A1A409B
:1058E00080231343A381029B2661F618266065611D
:1058F000019EED1AA560019BB34200D21E0032004A
:105900000399206800F0ADFAA36800209B1BA360F8
:1059100023689E192660DAE72A00380000F05CFB55
:10592000061EE0D12169380000F0AEFAC7E7C04694
:105930007FFBFFFFF0B59FB0029005938B890F00AE
:1059400016001B0611D50B69002B0ED1402100F06B
:10595000E5FA38603861002805D10C23029A013835
:1059600013601FB0F0BD40237B61002306AD6B6167
:1059700020336B761033AB7634002378002B47D17D
:10598000A31B04930DD0A31B320039000298FFF72C
:105990006FFF431C00D1B5E06A69049B94466344E1
:1059A0006B612378002B00D1ACE00122002352422E
:1059B0006A6002A95432521801342B60EB60AB606C
:1059C0001370AB65584E05222178300000F03EFA86
:1059D000621C002820D12968CB0604D5532302AECF
:1059E00020309B1918700B0704D553232B2002AECF
:1059F0009B19187023782A2B16D000200A21099BA6
:105A00002278303A092A55D9002815D0099313E095
:105A1000252BB5D00134B0E70123801B83402968D2
:105A200014000B432B60CDE7059B181D1B680590E8
:105A3000002B39DB0993140023782E2B0BD16378CC
:105A4000621C2A2B3ED1059B02341A1D1B6805924D
:105A5000002B34DB0793354E21780322300000F011
:105A6000F5F9002806D04023801B83402A680134C2
:105A700013432B60217806222D48661C297600F0FE
:105A8000E5F9002846D02B4B002B2FD12968059B28
:105A90000722C90528D59B189343083305936B69E2
:105AA000039A9B186B6167E75B42EB6002230B4331
:105AB0002B60C0E74B4301349B180120A0E7012372
:105AC0005B42C7E7002314000A201A006B602178AC
:105AD0003039092903D9002BBDD00792BBE74243D7
