:020000040800F2
:10000000001000206D660008C52A0008C72A0008F5
:1000100000000000000000000000000000000000E0
:10002000000000000000000000000000C92A0008D5
:100030000000000000000000CB2A0008CD2A0008C4
:10004000BD66000800000000BD660008D52A000853
:10005000DD2A0008BD660008BD660008BD66000810
:1000600000000000BD660008E12A0008F92A000827
:10007000092B0008192B0008BD66000800000000CD
:10008000692B000800000000000000002D2C000873
:1000900000000000692D0008BD660008BD6600086C
:1000A00000000000BD66000800000000492F0008A5
:1000B0000000000000000000000000000000000040
:1000C00010B5064C2378002B07D1054B002B02D02E
:1000D000044800E000BF0123237010BDB0020020DF
:1000E00000000000A86F0008044B10B5002B03D0DF
:1000F0000349044800E000BF10BDC04600000000F6
:10010000B4020020A86F000802B4714649084900F3
:10011000095C49008E4402BC7047C0460022430877
:100120008B4274D303098B425FD3030A8B4244D3BF
:10013000030B8B4228D3030C8B420DD3FF22090201
:1001400012BA030C8B4202D31212090265D0030BC0
:100150008B4219D300E0090AC30B8B4201D3CB03B6
:10016000C01A5241830B8B4201D38B03C01A5241F8
:10017000430B8B4201D34B03C01A5241030B8B42FA
:1001800001D30B03C01A5241C30A8B4201D3CB02E5
:10019000C01A5241830A8B4201D38B02C01A5241CA
:1001A000430A8B4201D34B02C01A5241030A8B42CD
:1001B00001D30B02C01A5241CDD2C3098B4201D3E5
:1001C000CB01C01A524183098B4201D38B01C01A63
:1001D000524143098B4201D34B01C01A52410309DA
:1001E0008B4201D30B01C01A5241C3088B4201D389
:1001F000CB00C01A524183088B4201D38B00C01A36
:10020000524143088B4201D34B00C01A5241411A5C
:1002100000D20146524110467047FFE701B5002069
:1002200000F006F802BDC0460029F7D076E7704717
:100230007047C0468446081C6146FFE71FB500F0C2
:1002400023FB002801D40021C8421FBD10B500F0D7
:10025000B5FA4042013010BD10B500F015FB002882
:1002600001DB002010BD012010BDC04610B500F01C
:100270000BFB002801DD002010BD012010BDC04691
:1002800010B500F0C1FA002801DC002010BD0120EB
:1002900010BDC04610B500F0B7FA002801DA002002
:1002A00010BD012010BDC046002B11D1002A0FD176
:1002B000002900D1002802D00021C943081C07B43E
:1002C000024802A14018029003BDC04665FFFFFF2F
:1002D00003B4684601B5029800F01EF8019B9E46E3
:1002E00002B00CBC7047C0469E2110B5C905041C65
:1002F000FFF7D0FF002803D1201C00F0C3FD10BD84
:100300009E21201CC90500F021FC00F0BBFD8023CC
:100310001B069C466044F2E7F0B557464E464546FC
:10032000DE46E0B5040083B00D00924699468B424C
:100330002FD82CD04946504601F0D4F929000600A8
:10034000200001F0CFF9331A9846203B9B4600D598
:1003500074E053465A4693401F005346424693402A
:100360001E00AF4229D826D05B46A41BBD41002BFE
:1003700000DA79E0002200230092019301235A461B
:1003800093400193012342469340009319E0824237
:10039000D0D900220023009201930C9B002B01D0A6
:1003A0001C605D600098019903B03CBC9046994682
:1003B000A246AB46F0BDA342D6D90022002300924C
:1003C00001934346002BE8D0FB0772081A434646C8
:1003D0007B080EE0AB4201D1A2420CD8A41A9D4189
:1003E000012024196D410021013E24184D41002EA9
:1003F00006D0AB42EED9013E24196D41002EF8D152
:100400005B460098019900196941002B22DB2B0003
:100410005A46D3402A004446E2401C005B46150081
:10042000002B2CDB26009E40330026004746BE40B2
:100430003200801A994100900191AEE74246202394
:100440009B1A5246DA40414613004A468A4017003A
:100450001F4382E7424620239B1A2A0046469A40C1
:100460002300F3401343D5E74246202300219B1A83
:100470000022009101920122DA40019282E7424675
:10048000202326009B1ADE402F00B4469740664684
:100490003B003343C9E7C046F0B5C6464E024702AB
:1004A000760A7B0A4400C50FF7004800984600B55D
:1004B000240E2A00DB00000EC90FBC468D4267D017
:1004C000221A002A00DCA5E000283AD1002F00D132
:1004D00093E0511E002900D0BCE00124DB1B5A012F
:1004E00046D59B019E09300001F0DEF805388640B4
:1004F000844200DD9DE0041B320020200134E240F4
:10050000041BA64033005E1EB341002413435A0768
:1005100004D00F221A40042A00D004335A0129D5EE
:100520000134FF2C00D181E02A009B015B0AE4B278
:100530005B02E405580AD2072043104304BC9046EE
:10054000F0BDFF2CE3D080213800C9040843844665
:100550001B2A00DD82E020206146D140821A6046DD
:1005600090400200501E82410A439B1A5A01B8D49F
:100570005A07CED1DE082A00FF2C3AD1002E00D136
:10058000AEE08023DB0333435B025B0AFF24CFE74B
:10059000211A002952DD002831D0FF2CB7D080204D
:1005A0003E00C0040643B4461B2900DDAAE0202615
:1005B0006046C840711A66468E4031004E1EB141F9
:1005C00001435B185901D3D50134FF2C00D187E0DA
:1005D000012278491A405B080B40134397E7002C2F
:1005E00000D0A7E0002B00D0B6E03B1E62D1002671
:1005F000002273025B0AE4B29AE7140087E7002F37
:100600004DD0481E002857D1634401245A01AFD56C
:100610000224DDE7002A24D1621CD2B2012ADEDDE9
:10062000DE1B720135D5FE1A0D005CE72A0000239F
:100630007EE73300604A241A134068E7002963D13B
:10064000611CC8B201284EDDFF2949D063445B0814
:100650000C005CE7FF2A41D00A0079E701229B1ACF
:1006600084E7002C1DD0FF2822D08024E4045242CD
:1006700023431B2A00DD8AE01C002025D440AA1A4F
:1006800093405A1E9341234362460400D31A0D003F
:1006900025E7002E00D026E700220024A9E70C0061
:1006A00035E7002B4DD0D243002AEDD0FF28E0D112
:1006B0006346FF240D002AE7FF290FD0010073E7EE
:1006C000002B61D0FF24002F00D120E7802241467B
:1006D000D203114202D0164200D13B00FF2416E79C
:1006E000FF24002324E7002CEAD1002B58D0002F50
:1006F00000D10CE763445A0100D439E72E4A0C00BC
:10070000134004E701215CE7002C1ED1002B40D0F0
:10071000C94300290BD0FF2836D01B2947DC1C0019
:100720002026CC40711A8B40591E8B4123436344D1
:10073000040047E7002B18D13B1E2DD00D00FF24ED
:10074000E5E63B0004000D00E1E6FF281CD0802414
:10075000E40449422343E0E7002F00D1D7E6DE1B43
:1007600072011FD5FB1A0D00D1E6FF24002F00D126
:10077000CDE680224046D2031042AFD01642ADD122
:100780003B000D00FF24C2E66346FF24BFE60123C1
:100790007AE73B000400BAE680260022F603F0E682
:1007A0003B00B4E6331E00D0E2E6002221E701233D
:1007B000BDE7C046FFFFFF7DFFFFFFFB70B54200B6
:1007C00045024E024C00C30F6D0A120E760A240E2B
:1007D000C90F0120FF2A06D0FF2C03D0A24201D16D
:1007E000B54206D070BD002DFCD1FF2CFAD1002EF1
:1007F000F8D18B4206D00120002AF3D12800451EF3
:10080000A841EFE70020EDE7F0B5420045024C02B9
:10081000C30F48006D0A120E640A000EC90FFF2AAA
:100820001ED0FF2821D0002A0AD16E426E41F6B2B6
:1008300000280FD1002C0DD10020002D09D005E09B
:10084000002801D1002C01D08B4211D00121584247
:100850000843F0BD002EF7D0012001390843F8E726
:10086000002DDED002204042F3E7002CDBD0F9E778
:100870008242EBDC04DBA542E8D80020A542E8D2A6
:100880000121581E0843E4E7F0B542004D024C0038
:100890004602760A120EC30F6D0A240EC90FFF2AF4
:1008A00016D0FF2C18D0002A0AD170427041C0B275
:1008B000002C15D0002805D0012001390843F0BDD7
:1008C000002C13D0994214D001205B421843F6E764
:1008D0000220002EF3D1E4E70220002DEFD1E2E761
:1008E000002DE7D10020002EE9D0EDE7002DE9D161
:1008F000EAE7A24206DCDFDBAE4203D80020AE42CC
:10090000DAD3DCE7012049420843D8E7F8B5574677
:100910004E464546DE46E0B54702460088467F0A19
:10092000360EC40F002E47D0FF2E24D0FB008027A8
:10093000FF041F43002399469A467F3E43465D02CB
:100940005800DB0F6D0A000E984643D0FF283BD0BD
:10095000EB0080250022ED041D437F383618731C00
:1009600041469B464B46614013430F2B64D8754864
:100970009B00C3589F46002F42D108239946063B4F
:10098000FF269A46DAE74146022A28D0032A00D1F8
:10099000CEE0012A00D0ACE0114000200022CCB211
:1009A0004002D205400AE407104320433CBC904675
:1009B0009946A246AB46F8BD002F15D104239946AF
:1009C000033B00269A46B9E7FF200222002DC5D03E
:1009D0000322C3E7002D19D100200122BEE7012424
:1009E000FF220C400020DBE7380000F05DFE762699
:1009F000431F9F4000237642361A99469A469DE748
:100A00000C239946093BFF269A4697E7280000F0F9
:100A10004BFE431F9D4076235B42181A00229DE740
:100A200080200024C003FF22BAE73D005246ABE716
:100A30003D0021005246A7E73B0C9C462A04120CBD
:100A40002B0C1400604665463F043F0C7C43424338
:100A50005D437B43270C9B18FF18BA4203D98023C0
:100A60005B029C46654424043A04240C1219930149
:100A70005C1EA3413F0C920E7D191A43AD01154334
:100A80002B0104D501235E466A081D401543320040
:100A90007F32002A25DD6B0704D00F232B40042B67
:100AA00000D004352B0103D53200274B80321D4086
:100AB000FE2A94DC0124A801400AD2B20C406FE760
:100AC0008020C003074207D0054205D128434002D9
:100AD000400A4446FF2263E738434002400AFF22AF
:100AE0005EE70124A31A1B2B05DD0C400022002029
:100AF00056E75E46CBE72A002020DA40C31A9D4025
:100B00002B005D1EAB4113435A0704D00F221A403D
:100B1000042A00D004335A0104D5012401220C40D8
:100B200000203DE701249B01580A0C40002237E7D2
:100B300080200124C00328434002400A0C40FF22C9
:100B40002EE7C046E06F0008FFFFFFF7F0B54F4605
:100B5000D64646464400C0B5C20F47024802400A86
:100B6000844666467B0A4800C90F9A46240E150043
:100B7000DB00000E8946F600FF2800D18FE001213E
:100B80004F464F403900914266D0221A002A00DCBD
:100B90009DE000283DD1002E00D18BE0511E0029A0
:100BA00000D0B5E001249B1B5A0144D59B019F094D
:100BB000380000F079FD05388740844200DD96E07A
:100BC000041B3A0020200134E240041BA7403B00F4
:100BD0005F1EBB41002413435A0704D00F221A4062
:100BE000042A00D004335A0127D50134FF2C00D148
:100BF00079E001229B015B0AE4B22A405B02E40532
:100C0000580AD207204310431CBC90469946A2467E
:100C1000F0BDFF2CE0D08021C9040E431B2A7BDCF1
:100C200031002020D140821A9640721E96410E4318
:100C30009B1B5A01BAD45A07D0D10122DF082A409F
:100C4000FF2C33D1002F00D1A8E08023DB033B43EE
:100C50005B025B0AFF24D1E7211A00294CDD002842
:100C60002AD0FF2CB8D08020C00406431B2900DD09
:100C7000AFE030002027C840791A8E40711E8E41A7
:100C800006439B195901D6D50134FF2C00D185E0CC
:100C900001227A491A405B080B4013439CE7002E5F
:100CA00000D070E76BE73B1EC5D100227B025B0AD8
:100CB000E4B2A3E714008FE7002E4DD0481E0028B1
:100CC00057D19B1901245A01B5D50224E0E7002A27
:100CD00025D1621CD2B2012A72DD9F1B7A0135D563
:100CE000F71A0D0064E7012200232A4086E73B0043
:100CF000634A241A13406FE700296CD1611CC8B203
:100D000001284EDDFF2949D09B195B080C0063E7E1
:100D1000FF2A41D00A0081E701269B1B89E7002CAE
:100D20001CD0FF2821D08024E404524223431B2AF4
:100D300000DD96E01C002025D440AA1A93405A1EDC
:100D400093412343F31A04000D002DE7002F00D038
:100D50002EE700220024A9E70C003DE7002B58D025
:100D6000D243002AEED0FF28E1D13300FF240D004A
:100D700032E7FF2910D0010078E7002B6ED0FF2466
:100D8000002E00D128E780225146D203114203D021
:100D90006146114200D13300FF241DE7FF240023E8
:100DA0002CE7002CE9D1002B63D0002E00D113E7F3
:100DB0009B195A0100D43EE7314A0C0013400BE75F
:100DC000002C1ED1002B2FD1002E4FD033000D0050
:100DD00002E7012655E7002C1FD1002B43D0C94361
:100DE00000290BD0FF2839D01B2944DC1C00202708
:100DF000CC40791A8B40591E8B4123439B19040028
:100E000040E7002B1AD1002E24D180270022FF03B7
:100E10001BE7330004000D00DEE6FF281ED080240F
:100E2000E40449422343DFE7002E00D1D4E69F1BB0
:100E30007A0100D437E7F31A0D00CDE6FF24002E27
:100E400000D1C9E680225046D2031042A4D06046A9
:100E50001042A1D133000D00FF24BDE63300FF2472
:100E6000BAE601236EE733000400B5E6002700224E
:100E70001CE73300B0E60123C0E7C046FFFFFF7D5B
:100E8000FFFFFFFB41024300C20F490A1B0E002077
:100E90007E2B0DDD9D2B0CDC802000040143952B67
:100EA0000ADC9620C31AD9404842002A00D1080023
:100EB0007047034BD018FBE7963B9940F4E7C046D8
:100EC000FFFFFF7F70B5002830D0C317C4185C4007
:100ED000C50F200000F0E8FB9E231B1A962B0DDCAB
:100EE0009622D21A94402A006402640ADBB2640299
:100EF000DB05600AD2071843104370BD992B19DC3B
:100F00009922D21A002A29DD94402200144C144060
:100F1000510704D00F210A40042A00D00434620192
:100F200013D4A401640ADBB22A00E0E70022002304
:100F30000024DCE705222100121AD140B922D21A7E
:100F40009440621E94410C43DAE7054B2A001C4092
:100F50009F23A4011B1A640ADBB2C8E72200D5E76D
:100F6000FFFFFFFB10B5041E27D000F09DFB9E2362
:100F70001B1A962B0ADC9622D21A94406402640A49
:100F8000DBB26402DB05600A184310BD992B17DC45
:100F90009922D21A002A27DD94402200134C1440D3
:100FA000510704D00F210A40042A00D00434620102
:100FB00012D4A401640ADBB2E3E700230024E0E7D3
:100FC000B9222100D21A91400A00511E8A410521FE
:100FD000091ACC401443DBE7044B1C409F23A401B7
:100FE0001B1A640ADBB2CCE72200D7E7FFFFFFFB46
:100FF000F0B557464546DE464E46E0B50C039846EA
:101000004E00230B87B0070092469B46760DCD0F0E
:10101000002E6BD06D4B9E4235D080245B46420F34
:101020002404DB0014431C43C3009946684BA346C9
:101030009C46002300276644029343461C035A0043
:10104000DB0F5046240B520D984600D176E05F4BE3
:101050009A426DD08023410F1B040B435C49E4008E
:101060008C461C43C300002062444146B6186940C8
:10107000721C0191944607430F2F00D9B0E0554AE6
:10108000BF00D25997465B460343994600D087E09C
:1010900000239B46023308270293CEE74246019283
:1010A000022867D0032800D10EE2012800D062E1B7
:1010B000002300240022994601990140CDB200216D
:1010C00012030B0D120B1B051343434A2405134057
:1010D0001C436400ED0764082C434846210007B018
:1010E0003CBC90469946A246AB46F0BD03439946A8
:1010F0004FD05B46002B00D189E1584600F0D4FA6E
:1011000003000B3B1C2B00DD7AE11D22D31A3A00B1
:1011100001005C46DA4008398C4013008F402343BD
:101120009B46B94600232D4E0027361A029384E7CA
:10113000534623432AD10024022096E753462343F3
:1011400020D0002C00D157E1200000F0ADFA0300C0
:101150000B3B1C2B00DD49E11D21CB1A514602003F
:10116000D9405346083A944093400C431B4A121A04
:1011700000207AE70125019B144C1D40002300222A
:1011800099469CE70024002201206EE75346032085
:101190006BE700239B4601330427002602934CE7AC
:1011A000032381460C27029347E780220023002572
:1011B00012039946054C82E75C464B4602986FE75E
:1011C0005C464B46019502986AE7C046FF0700005F
:1011D00001FCFFFF20700008FFFF0F800DFCFFFFE8
:1011E0004A464946170C1A0C1B041B0C080419002C
:1011F000000C41431500884619007D43794303954F
:1012000089462900150045434D44029545462D0C5D
:10121000AA46029D5544A94506D98A46802149021D
:101220008946CA4451460391290C04914146090458
:101230002D04090C88462900250C24044144240C63
:101240000591210041438846210079438A4668433D
:10125000414650448146080C48446F43824503D9B7
:101260008021490289464F44010C8946390049448E
:10127000029141460F0404993F0C88460004C019AE
:1012800080444146049159460F0C0904090C8846D4
:1012900059438A4639005143894641464A4351469B
:1012A000090C8B467B43D2185A44934203D98023BE
:1012B0005B029B46D94451460904090C8A464146C3
:1012C00061437C43130C12044B445244A1468A46AA
:1012D0003C0041466C434D4351464D440F0C7D1933
:1012E000A94503D98021490288464444049F0399B3
:1012F000B84641448B468345804141428846514629
:1013000008042F04000C3F1858460299101889460B
:10131000904292414F44BA46524299469346C24443
:10132000D144CB448F42BF41C245894199459B413D
:10133000934592417F4249422D0C52420F435B42FA
:1013400013437F19FF185B463C19DB0D059A6402B5
:101350001C43430213435D1EAB415A46C00D034379
:1013600052021343E20156D501205A0803401343A9
:10137000E207134364085A48604400284DDD5A07C9
:1013800009D00F221A40042A05D01A1D9A429B4107
:101390005B42E4181300E20104D58020514AC000EA
:1013A00014406044504A904200DDE3E60125DB082A
:1013B00062071A436402019B9146220B4405640DA7
:1013C0001D407CE6802259461203114208D0144287
:1013D00006D122431203120B45469946434C6EE652
:1013E0005B461A431203120B404C68E60300544656
:1013F000283B9C400023B9E600F056F92030A6E6D1
:101400000300283B9F400023BB4699468AE600F034
:101410004BF9203074E6B446ADE701252A1A382A84
:1014200006DD019B00241D4000230022994646E66C
:101430001F2A21DC20252000AD1A1E00AB40A84049
:10144000D6405D1EAB4130431843D440430709D01A
:101450000F230340042B05D00300181D98429B4125
:101460005B42E418230221D50125019B01241D4084
:1014700000230022994622E61F2521006D42281AEA
:10148000C1400800202A1DD05F35AA1A944023438A
:101490005C1EA341072503431D400022002D09D0F7
:1014A0000F2200241A401800042AD6D10300650731
:1014B0006402220BDB082B4301259946019B002483
:1014C0001D40FCE50024E2E78022012512032243AF
:1014D00001991203120B0D409946044CEFE5C046EA
:1014E000FF030000FFFFFFFEFE070000FF070000F4
:1014F0004100090E4B1C70B5DBB24602750AC40FE1
:10150000012B14DDE0239B006D07360BCB18002167
:101510000A0D280012051C4D32435B052A405B086A
:1015200013435B00E4075B082343190070BD0029E7
:1015300014D1002D1ED0280000F0B6F80A281CDCBB
:101540000B232A001B1ADA40030015339D400F4B72
:1015500012031B1A5B05160B5B0DD8E7002D06D096
:10156000320B802636036D071643094BCFE7084B35
:101570000026CCE700230026C9E703002A000B3B26
:101580009A400025E3E7C046FFFF0F808903000073
:10159000FF070000F0B54C00640D0B03621C450F03
:1015A0005B0A52052B43C90FC500520D012A28DDE5
:1015B0003A4AA618FE2E1BDC002E3EDD80010200FA
:1015C000501E82416D0F2A43DB0013435A0704D09B
:1015D0000F221A40042A00D004338022D2041A4079
:1015E0005AD00136FF2E03D09B015B0AF4B201E012
:1015F000FF2400235802E405400AC907204308439A
:10160000F0BD002C07D01D43F2D08020DB00800409
:101610000343FF26DAE72B4303D00523DB08FF2C27
:1016200003D05B025B0AE4B2E4E7002B32D08020F7
:10163000C00303435B025B0ADCE73200173214DBB2
:1016400080221E2712041343BF1B1F2F0FDC144AD6
:10165000944664442A00A5402E00A340751EAE4166
:10166000FA40334313430026B0E70024D5E70222B3
:101670005242961B1A00F240202F09D00948844696
:101680006444A3402B435D1EAB41002613439DE7FA
:101690000023F7E70023ADE73400BFE780FCFFFF3E
:1016A00082FCFFFFA2FCFFFF1C2101231B049842C8
:1016B00001D3000C10391B0A984201D3000A0839E3
:1016C0001B09984201D30009043902A2105C40189A
:1016D0007047C0460403020201010101000000003E
:1016E0000000000010B5002903D1FFF7DDFF203016
:1016F00002E0081CFFF7D8FF10BDC04630B585B02A
:101700000C22002101A805F008F804221F4C204BF0
:101710006261C222012523600023FF322000636042
:10172000A360E3602561A361E36125626362A26255
:10173000E3622563636301F02BFF002801D001F011
:10174000A7F980235B010293072301A920000195DB
:10175000039302F089F9002801D001F099F90223DE
:1017600001A92000019302F07FF9002801D001F0C7
:101770008FF9052301A92000019302F075F90028D3
:1017800001D001F085F905B030BDC04698030020B6
:101790000024014070B5050088B01422002103A880
:1017A00004F0BBFF204B2A689A423BD180201F499E
:1017B00080008A69802602438A618B697600034033
:1017C00080200193019B4A69800202434A614B6970
:1017D00003A903400293029B90202623C005039394
:1017E000233B049302F0CAFC114C124B20002360EF
:1017F00000236360A3608033E3608023DB006361C8
:101800002023A36180235B012661E36102F09CFA3F
:10181000002801D001F03CF9074A136833431360F4
:10182000EC63656208B070BD002401400010024006
:10183000540300201C0002400000014010B50C4B76
:101840000C4C236000232000237163716361A3614A
:101850000133236202F01CFA002801D001F018F9CC
:10186000200002F06FFA002801D001F011F910BD3C
:1018700000300240E4030020074B026882B09A4225
:1018800008D14020054A5169014351615369034021
:101890000193019B02B070470030024000100240EB
:1018A00010B503220249034801F0A6FF10BDC0464F
:1018B00014040020980300200023104A10B5136080
:1018C0000F4A10491360104A002013600F4A104C51
:1018D000136001220A604A608A60CA600D490A608A
:1018E0000021206061600C4C22600C4A1060516045
:1018F0000B4A13600B4A136010BDC046280000203D
:101900002C0000203800002030000020340000208F
:1019100018030020480000200000002000030020E1
:10192000DC020020E402002010B5884224D9401ACD
:10193000FFF718FB1449FEF7E9FFFE218905FEF7C2
:10194000ABFD1249041CFEF79BFC002819D110497D
:10195000201CFEF781FC002800D00D4C201C10BD7F
:10196000081AFFF7FFFA0849FEF7D0FF011CFE2016
:101970008005FFF7EBF8E4E78842F1D3FE24A405E5
:10198000ECE7024CEAE7C0469A999939CDCCCC3FB6
:10199000CDCCCC3E70B5051C0C1CFEF75DFC0028C0
:1019A0000DD00F49281CFEF777FD051C011C201CDB
:1019B000FEF75CFC002800D12C1C201C70BD211CF3
:1019C000281CFEF75DFC0028F6D00549281CFFF70F
:1019D000BDF8051C011C201CFEF75CFCEAE7C046B4
:1019E000A69BC43B802310B5DB05834205DC0022A7
:1019F0000324002B03D190B210BD9B10F5E7D11842
:101A0000884201DB401A5A18D10F8A18D917214091
:101A1000CB1852109B10ECE70D4B70B51868596845
:101A20000C4B1A680023FEF73FFC0B4C206020682B
:101A3000FFF7D8FF094B206020681D68FFF792FA76
:101A4000291CFEF763FFFEF74FFC206070BDC04607
:101A50000003002000000020FC0200200400002001
:101A60000D4B70B5186859680C4B1A680023FEF7C7
:101A70001BFC0B4C20602068FFF7B4FF094B206073
:101A800020681D68FFF76EFA291CFEF73FFFFEF77E
:101A90002BFC206070BDC0461803002048000020C9
:101AA000140300204C000020044B10B51868044BB0
:101AB0001968FEF733FB034B186010BDDC020020F1
:101AC000E4020020E0020020F8B5FFF7C9FFFFF7AD
:101AD000A3FFFFF7E9FF654C654F38682168FEF703
:101AE0001DFB644E386030686168FEF717FB624D7D
:101AF00030602868A168FEF711FB604B2860186809
:101B0000E168FEF70BFB80215C4B09011860386827
:101B1000FFF70AFF5A4B5B4C1860011C2068FFF767
:101B200039FF8021206030680901FFF7FDFE564B28
:101B3000564E1860011C3068FFF72CFF8021306082
:101B400028680901FFF7F0FE514D524B011C186047
:101B50002868FFF71FFF8021484B2860186809019B
:101B6000FFF7E2FE4C4B4D4F011C18603868FFF741
:101B700011FF38603868296836682568484C236842
:101B8000002B1CD1FEF788FC311CFEF785FC291CBC
:101B9000FEF782FC4349FEF7B9FEFEF7A5FBC7231B
:101BA000C93880B25B00984209D93F4A13680133B3
:101BB0001360FA22D200934201DD012323603B4AE5
:101BC0001368002B0ED13A4B19683A4B994209D948
:101BD00039490B6801330B60FA2189008B4201DD22
:101BE00001231360354A1368002B1ED12C2334497E
:101BF000FF330868984202D80B68642B0AD8314832
:101C0000036801330360FA204000834202DD0123B0
:101C100013600AE07C230968FF33994205D92949FA
:101C20000B6801330B60022BF1DC274A1368002B91
:101C300019D12649264B086898420AD925480368D5
:101C400001330360FA204000834202DD0123136068
:101C500009E00968204B994205D91E490B680133F8
:101C60000B60022BF2DCFFF727FEF8BD38000020E6
:101C7000280000202C00002030000020340000202C
:101C80005000002018000020540000201C000020FC
:101C900020000020580000205C00002024000020CC
:101CA000CC0200200000C842D0020020D802002050
:101CB000E0020020AB0D0000E80200200803002035
:101CC000140300200C030020F0020020FC0200207E
:101CD00087130000F4020020272300002E4A70B56D
:101CE00013682E4E013313602D4B59885A8834687F
:101CF00075684A431000D11700196941306071605E
:101D00002849294E0A6801320A6019881A883468FD
:101D100075684A431000D11700196941306071603D
:101D200022499A88086812180A60214921480A68DD
:101D300001320A60204904888D68204AAC4208DDDF
:101D40001F491B8808681B180B60D3680133D360D8
:101D500070BD04884D68AC4208DD1A491B880868CC
:101D60001B180B60936801339360F1E700880968E2
:101D70001B88884207DD144908681B180B605368EC
:101D800001335360E4E7114908681B180B601368BE
:101D900001331360DCE7C046000000200003002090
:101DA000140400204800002018030020DC0200205A
:101DB000E402002022030020080000203800002058
:101DC00034000020300000202C00002028000020DB
:101DD00070B50D4B002A01D001229A608A081400C8
:101DE0000500013C08D292008018032211404118DE
:101DF000884204D1186870BD40CD1E60F1E70278BA
:101E000001301A70F4E7C04600300240054B002A4A
:101E100001D001229A60013901D21868704704C8C4
:101E20001A60F8E70030024070B50B4C1422002114
:101E3000200004F072FC094D012228006421FFF704
:101E4000C7FF07490200200004F070FC28002100B1
:101E500004F08EFC70BDC0469C0400201C040020D1
:101E60006070000810B564220021024804F055FC9F
:101E700010BDC0461C04002007B5FFF7F3FF074B59
:101E800007491A68074B08481B6809680091074909
:101E900004F04CFCFFF7C8FF07BDC046ACF7FF1FBE
:101EA000B4F7FF1FB0F7FF1F1C0400206D7000087F
:101EB00010B5FFF7D7FF054B05491A88054892B2C0
:101EC00004F034FCFFF7B0FF10BDC046CCF7FF1F95
:101ED000807000081C04002010B5FFF7C3FF064CFB
:101EE0000649200004F044FC0549200004F040FCB1
:101EF000FFF79AFF10BDC0461C0400209170000837
:101F00009B700008024A1368002BFCD07047C04643
:101F100040020020002210B50400074B1A60632223
:101F20000649074803F0E0FF0228F8D0002C01D052
:101F3000FFF7E8FF10BDC046400200201C0400204F
:101F400080060020054B026810B59A4204D1012298
:101F5000034B1A60FFF786FF10BDC04600380140F2
:101F60004002002010B5024802F0DAFA10BDC04667
:101F7000E8040020F0B5374B8DB01B68012B67D10A
:101F8000FFF770FF344B1B68012B0BD0334B1B68E2
:101F9000012B07D0324B1B68012B03D0314B1B6840
:101FA000012B07D1FFF75CFDFFF736FDFFF77CFD46
:101FB000FFF782FC2C4B1A682C4B92B219682C4B01
:101FC00089B29C882B4B0B921D682B4B254A1E68AF
:101FD0002A4B12681F682A4B0A911868294B2A4914
:101FE0001B7809921D4A033B1268A4B208921A4A50
:101FF000126807925A4253410693194B1B68059386
:10200000FEF784FCFEF770F980B21F490490381C7B
:10201000FEF77CFCFEF768F980B21B490390301C88
:10202000FEF774FCFEF760F980B217490290281C95
:10203000FEF76CFCFEF758F980B2019000940A9B01
:102040000B9A1249124804F071FB0020FFF762FF5F
:102050000DB0F0BD28030020D802002008030020A6
:10206000CC020020F002002014030020FC0200201B
:1020700014040020180000201C0000202000002074
:1020800024000020240300200000C842A77000089C
:102090001C0400200023034A13605360024A1360AB
:1020A0007047C046300300202C03002010B50C4CB4
:1020B0006068FFF71DFA0B4A0B4BFEF799FFFFF71D
:1020C00069FA0A4B18602068FFF712FA054A064BB6
:1020D000FEF78EFFFFF75EFA054B186010BDC04695
:1020E000300300206666666666664A3F040000208C
:1020F0004C00002010B5034B0349044A06C3FFF708
:10210000D5FF10BD300300200000044300406345AC
:10211000054B10B51B68002B02D1FFF7EBFF10BD7C
:10212000FFF7C4FFFBE7C0462C030020F8B50124ED
:10213000104F3C60FFF7AEFF0F4E0020310000F063
:1021400005FA0E4D2000290000F000FA291D02209A
:1021500000F0FCF9280022000821FFF757FE0025B7
:1021600033683D60984202D0FFF794FF2C002000B6
:10217000F8BDC046380300202C03002030030020A7
:10218000104B11491A680A40FF211A605A6C8A43A1
:102190005A644022596C0A435A641022596C0A430B
:1021A0005A640822596C0A435A640422596C0A433F
:1021B0005A640222596C0A435A640122596C0A4338
:1021C0005A647047002C0140FFFCFFFF8022054B42
:1021D0001201196A0A431A628022196A92000A439C
:1021E0001A627047002C01408022054B5201596849
:1021F0000A435A608022596892010A435A60704724
:10220000002C01401021114B114A10B59A6229325D
:10221000DA62F53AFF3ADA631A6870208A431A6084
:102220006022196891431960D9698143D961D969DC
:102230000A43DA61A022196AD2000A431A62FFF740
:10224000C5FFFFF7D1FFFFF79BFF10BD002C01403A
:10225000BF030000FA2310B50C4C5B00E363A0231E
:10226000226ADB0013432362FFF7B0FFFFF7BCFFD6
:10227000FFF786FF0123E2681A43E26022681343F6
:102280002360FFF719FBFFF71FFC10BD002C014076
:102290000121104B1A698A431A61DA688A43DA60AD
:1022A0001A680D490A401A608022596892010A434F
:1022B0005A605A6809490A405A608022196A920095
:1022C0000A431A621A6A06490A401A620022DA634D
:1022D0007047C046002C0140FEFF0000FFEFFFFFEB
:1022E000FFF7FFFFC023034A1B02516C0B435364EB
:1022F0007047C046002C0140044B05495A6C0A4007
:102300005A645A6C03490A405A647047002C0140D1
:10231000FF7FFFFFFFBFFFFF10B5FFF7E3FFFFF7F2
:1023200099FF10BD10B5FFF7E7FFFFF7B1FF10BD34
:102330000022084B10B51A80074B5A639A63D9687C
:1023400001321143D96019680A431A6000F08CF811
:1023500010BDC04622030020000400400121074BAD
:102360001A698A431A61DA688A43DA601A6804498A
:102370000A401A6000225A639A63704700040040C2
:10238000FEFF0000C023034A1B02516C0B43536441
:102390007047C04600040040044B05495A6C0A408F
:1023A0005A645A6C03490A405A647047000400405A
:1023B000FF7FFFFFFFBFFFFF10B5FFF7E3FFFFF752
:1023C000B7FF10BD10B5FFF7E7FFFFF7C7FF10BD60
:1023D000FA210122174B89009A62D96200215963C0
:1023E0009963196A0A431A620222196A0A43102180
:1023F0001A621A6A0A431A622022186A02431A628F
:1024000080225868520002435A6080225868D200E5
:1024100002435A609A69084802409A619869074ADB
:1024200002439A611A688A431A601A6850318A43D3
:102430001A607047000400408F8FFFFF606000004B
:10244000FC23054A9B051360044A1360044A136089
:10245000044A13607047C04624000020200000207A
:102460001C0000201800002010B5FFF7E9FF002332
:10247000064A1360064A1360064A1360064A136050
:10248000064A1360064A136010BDC046CC02002005
:10249000D4020020D00200200C03002010030020F2
:1024A000080300200B4A0C4B11889868814202DD1A
:1024B0000A4B1868704711885868814201DD084B43
:1024C000F7E712881B689A4201DD064BF1E7064BDD
:1024D000EFE7C0462203002008000020240000206F
:1024E000200000201C00002018000020144B70B5B4
:1024F0001A88EF2A01D900221A801B88114A5B0032
:102500009C5AFFF7CFFFFE218905A4B2051CFDF7F9
:102510009DFE002808D12000FEF7D4FC291CFEF700
:10252000F5F9FDF7E1FE84B2074B201C9C4202D96D
:10253000181C80B270BDA3B21E2BFAD21E20F8E781
:102540002203002060000020CA03000000230928A5
:1025500005D8044B8000C01803680B6001231800E5
:102560007047C046007C00080260009A0372C26097
:10257000019A002302610122416003754375836162
:10258000C27583754372704710B5040001884068B6
:1025900001F00CFF237A181A431E9841C0B210BDF7
:1025A00070B50400FFF7F0FFE67D050086421AD003
:1025B000002807D100F08AFF0123A061A375E5750B
:1025C00000200FE000F082FFA369E16802005B18C1
:1025D00001209A4203D30423E0751800637200239C
:1025E0006375237570BD002EEAD100F06FFFA369FB
:1025F00022699B18984208D3637D012B02D1667231
:10260000607AEFE703236372FAE700F05FFFA369E4
:10261000E2689B189842D3D3237D012BEFD002238D
:10262000F1E7000007B50120084A516901435161F3
:10263000536900220340019311000A30019B01F00D
:10264000C1FA0B2001F0F8FA07BDC04600100240A5
:10265000F0B589B01422002103A804F05EF88020B0
:102660008025294BC0035969AD020143596180217E
:102670005A69C90202400092009A5A69234E2A43BD
:102680005A615A6930002A400192019A5A6900241D
:102690000A435A615B6901220B400293E921029BC4
:1026A00001F096FE90200327194B03A9C005039360
:1026B0000497059401F062FD8C2390205B00039346
:1026C000183BFF3B03A9C0050593049401F056FD98
:1026D000E92303A903933000E83B0493059406978C
:1026E00001F04CFD102303A93000039304970594D7
:1026F00001F044FD8020400201F094FE280001F02A
:1027000091FE09B0F0BDC046001002400004004830
:10271000011800000748084B10B50360062343600A
:10272000064BC360836001F0ABFE002801D000F0CF
:10273000AFF910BDE804002000300040FF0F00009A
:1027400030B5102595B03022002108A803F0E5FF30
:102750002A000021684603F0E0FF2A00002104A8B7
:1027600003F0DBFF1923089380235B02119380237E
:1027700001240E955B030E3D08A810951293099451
:102780000D940F9401F0D4FE07230195002521003C
:10279000684600930295039502F074F904A8049426
:1027A000069502F077FA15B030BD00008020A44AEB
:1027B000C0039169F0B5014391619369802285B0AE
:1027C00003400393039B9F4B120199689E4E0A435B
:1027D0009A6001225242DA609A60596803320A43D1
:1027E0005A608022996852010A439A6000F056FEAE
:1027F000FFF7A6FFFFF72CFFFFF714FFFFF71EF808
:10280000FEF77CFFFFF786FF00F0CAFC00F0D4FB68
:1028100000F0A0FD00F03CFD00F0E8FB00220A20E3
:10282000110001F0CFF90A2001F006FA002204207D
:10283000110001F0C7F9042001F0FEF90022032085
:10284000110001F0BFF9032001F0F6F9FFF728F8B5
:1028500003227E4B1A70FFF7D5FCFFF75DFDFFF7F3
:1028600061FDFFF7B5FDFFF7A7FDFFF7ABFDFFF734
:1028700079FB01220821764801F0AAFD0122744863
:10288000110001F0A5FD01224021714801F0A0FDD9
:10289000012280216E4801F09BFD6E4C200002F069
:1028A000B5FB2000002402F0E1FB6B4B1C7064239D
:1028B000F362FFF757FBFA23DB00019380221E230C
:1028C0009021664F009352002300C9053800FFF79E
:1028D0004BFEFA239B00019390211E2310220093AC
:1028E000C90523005E48FFF73FFEFA239B000193D2
:1028F00090211E235B4D0822C90500932800230068
:10290000FFF732FE3800FFF74BFE5548FFF748FE51
:102910002800FFF745FEFFF709FC534C002800D0C4
:1029200087E05249200003F030FFFFF7E3FB01206E
:10293000FFF7F0FAFA20400000F0CEFDFFF7CCFAE6
:102940000120FFF7E7FAFFF797FA0120FFF7E2FA15
:10295000FFF7AEFA0120FFF7DDFAFFF783FA280050
:10296000FFF71EFE3800FFF71BFE02281BD140496F
:10297000200003F00AFF0120FFF7CCFAFFF7F2FA7C
:10298000FA20400000F0A8FD3800FFF709FE0228F9
:1029900009D13849200003F0F8FE0120FFF7BAFA08
:1029A0000122354B1A6001273449200003F0EDFE67
:1029B0000120FFF7AFFA284B00221F70FA239B007B
:1029C000F3620821224801F003FD0022390020486B
:1029D00001F0FEFC002240211D4801F0F9FC00221C
:1029E00080211B4801F0F4FC2800FFF7D9FD1C48AA
:1029F000FFF7D6FDFA20400000F06EFD1848FFF703
:102A0000CFFD032806D11E49200003F0BEFE38008A
:102A1000FFF780FA2800FFF7C3FD0122194C1A4B7B
:102A200020009A6202F0F2FA200002F01FFBC0467A
:102A3000FDE7FFF76DFB1549200003F0A6FE76E7E2
:102A400000100240005801400044014044030020AF
:102A500000040048B8050020240300208004002062
:102A6000CC040020B00400201C0400201B710008CE
:102A70003371000845710008280300205C710008CC
:102A800069710008780500200020004027710008C7
:102A90007047704701200A4B82B0996901439961E0
:102AA00080219A69490502400092009ADA690A4336
:102AB000DA61DB690B400193019B02B07047C046AD
:102AC000001002407047FEE77047704710B500F0F5
:102AD000F5FC10BD10B501F0B1FA10BD7047000053
:102AE00010B5034801F041FA024801F03EFA10BD6A
:102AF000540300203C06002010B5024801F035FACE
:102B000010BDC046F805002010B5024800F01CFFBB
:102B100010BDC0469803002010B50D4C200002F0F7
:102B2000DAFA0222236852421A610023094A13800A
:102B3000094A1370094A93635363094B1A78012AAF
:102B400005D101321A70F332064BFF32DA6310BD41
:102B5000380500202203002020030020000400404C
:102B600044030020002C0140F8B5294C200002F05D
:102B7000B2FA0222236852421A61264B1A78002ABE
:102B800005D01A78012A02D01A78032A05D100222A
:102B900021498A634A6321490A801A78032A34D07A
:102BA0001A78012A01D101321A70F9231C4D5B00F9
:102BB0006A6A9A4203D06A6A1A4B9A420AD100247E
:102BC000154E164F3C807463B463FEF77DFF3C8066
:102BD0007463B463F4236A6AFF33134D9A4215D9C0
:102BE000F33BFF3B2B702B78DBB2002B04D10A4C5C
:102BF000A363FFF77BFC60632B78012B05D10023D7
:102C0000054C6363FFF772FCA063F8BD0023E9E79E
:102C1000F8040020440300200004004022030020A8
:102C2000002C0140E603000020030020F8B5404CD2
:102C3000200002F050FA022223683E4D52421A61EF
:102C40002800FFF7ADFC3C4C022809D103223B4B86
:102C50001A7000223A4B1A602378022B34D1F8BD47
:102C60002800FFF79DFC0328F0D02378354E032B76
:102C70002DD1324B1F78FFB2012F28D1324B1B6868
:102C8000002B24D1314B1B68002B20D1304B1B680B
:102C9000002B1CD12F4B1B68002B18D12E4B1D680D
:102CA000002D14D12D483580FFF77AFC03280ED172
:102CB0002B4B27709D635D632A4BDD633580FFF7E7
:102CC0002BFBFFF779FBCAE702232370CDE72378BC
:102CD000022B26D1194B1B78032B0DD10323237014
:102CE00000231F4A936353631E4AD3633380FFF765
:102CF00019FBFFF767FBB2E71848FFF751FC042800
:102D0000ECD0114B1B68012BE8D0104B1B68012B3A
:102D1000E4D00F4B1B68012BE0D00E4B1B68012B3E
:102D2000DCD0FEF7DBFF338801339BB2338096E7BC
:102D300078050020B0040020440300202403002074
:102D40003C03002022030020CC020020D8020020F7
:102D500008030020F002002038030020CC040020EB
:102D600000040040002C0140F8B5614C200002F046
:102D7000B2F90222236852421A61FFF7F3F85D4C60
:102D80002078C0B2032816D8FDF7BEF902160268F3
:102D90000821594801F036FB0121574801F032FB68
:102DA0004021554801F02EFB5348802101F02AFBB9
:102DB0005248FFF7F5FBF8BDFFF7DCF850490B6808
:102DC000012B05D14F4A136801331D2B24DC1360FE
:102DD0004D490B68012B05D14C4A136801331D2B5B
:102DE00022DC13604A490B68012B05D1494A13685C
:102DF00001331D2B20DC136047490B68012BDAD10E
:102E0000464B474A1868474B904225D81A6801320A
:102E1000092A19DC1A60CEE700231360424A0B60CE
:102E20001360FFF70DFBD3E7002313603F4A0B60ED
:102E30001360FFF705FBD5E7002313603C4A0B60E6
:102E40001360FFF7FDFAD7E700221A60394B0A60DA
:102E50001A60FFF7F5FAAEE70022DBE7FFF78AF822
:102E6000264F3800FFF79CFB334D344E02281AD111
:102E70002B68334F01332B600A2B2AD10023012208
:102E800020211D482B6001F0A3FAFA235B00FB62AE
:102E90008021194801F0B6FA03232A4A23701370DF
:102EA0000023336087E73800FFF77AFB0328DFD081
:102EB00003210022234B2A601970336801333360E9
:102EC000092B0EDD7D310C4801F082FA01232370BD
:102ED00071E700222021084801F07AFAFA239B00CA
:102EE000D5E721700448802101F08CFA63E7C046E1
:102EF000B80500202403002000040048B00400208E
:102F0000CC020020D402002008030020100300207F
:102F1000F0020020F8020020D8020020E002002089
:102F2000B70B0000EC020020D00200200C030020B0
:102F3000F4020020E8020020400300203C030020AF
:102F4000004401404403002010B5024803F002FB96
:102F500010BDC046800600200121114B11481A689F
:102F60000A431A605A6802405A601A680E480240C2
:102F70001A601A680D4802401A605A680C480240EC
:102F80000F205A60DA6A8243DA621A6B09480240FB
:102F90001A635A6B8A435A6300229A607047C0468C
:102FA000001002400CB8FF08FFFFF6FEFFFFFBFF1A
:102FB000FFFFC0FFECFEFFFF0A480B4B10B503609C
:102FC0000123FA224360002392008360036180336F
:102FD000C260836102F064F9002801D0FFF758FD58
:102FE00010BDC04678050020002000400A480B4B69
:102FF00010B503600A4BFA224360002392008360FD
:10300000036143618033C260836102F049F90028A3
:1030100001D0FFF73DFD10BDB80500200044014080
:103020007FBB00001FB50368284A934213D180205C
:10303000274A00019169014391619369002203408D
:1030400000930D201100009B00F0BCFD0D2000F04E
:10305000F3FD05B000BD1F4A93420FD102201C4A68
:10306000D1690143D161D3690022034001930E303D
:103070001100019B00F0A6FD1020E8E7164A9342DC
:1030800010D18020124A4000D1690143D161D36937
:10309000002203400293ED381100029B00F092FDE4
:1030A0001320D4E70D4A9342D3D18020084A8002EE
:1030B00091690143916193690022034003931520B4
:1030C0001100039B00F07EFD1520C0E7002C01409D
:1030D0000010024000040040002000400044014075
:1030E00030B5040089B01422002103A803F015FBB9
:1030F0002368274A93422FD18020264BC00259696A
:10310000022401435961802103255A698902024042
:103110000092009A5A6920480A435A615B690394F5
:103120000B40019303A9019B04940695079401F0B9
:1031300025F880239020DB0003930023C00503A91A
:10314000049405930695079401F018F88020000474
:1031500001F068F909B030BD104A9342FAD18020DD
:103160000C4A8002516901435161536903A903402C
:103170000293029BC02390200393BE3B0493013330
:103180000693C005023B079300F0F8FFE2E7C04654
:10319000002C0140001002400004004800040040E0
:1031A00030B595B01022002102A803F0B6FA08222B
:1031B0000021684603F0B1FA1C22002106A803F0A2
:1031C000ACFA1C2200210DA803F0A7FA2E4C2F4BBD
:1031D000FA222360F0239B00636000239200A36027
:1031E0002361636120008033E260A36102F058F83C
:1031F000002801D0FFF74CFC802302A95B012000CE
:10320000029302F077FB002801D0FFF741FC200079
:1032100002F0A8F8002801D0FFF73AFC0025694623
:1032200020000095019502F069FDA84201D0FFF74A
:103230002FFCFA235B0007930822F43B06A9200029
:103240000695089509950A950B930C9302F0BCF925
:10325000002801D0FFF71CFC5F221092802200237F
:1032600092010DA920000D930E930F9311931292CA
:10327000139302F08FFD002801D0FFF709FC200016
:10328000FFF72EFF15B030BD38050020002C01409F
:1032900010B58EB01022002103A803F03EFA0822D8
:1032A000002101A803F039FA1C22002107A803F02D
:1032B00034FA264C264BFA22236001236360002354
:1032C0009200A360236120008033E260A36101F0DB
:1032D000E7FF002801D0FFF7DBFB802303A95B0198
:1032E0002000039302F006FB002801D0FFF7D0FB7B
:1032F000200002F09DF8002801D0FFF7C9FB002351
:1033000001A920000193029302F0F8FC002801D0EB
:10331000FFF7BEFB0022602307A920000793089255
:1033200009920B9202F0F8F9002801D0FFF7B0FBE8
:10333000042207A9200002F0EFF9002801D0FFF7CE
:10334000A7FB2000FFF7CCFE0EB010BDF804002054
:10335000000400400B480C4B10B50360E1235B02F6
:1033600043600C22002342618360C3600361836178
:10337000C3610362436203F01DF8002801D0FFF728
:1033800087FB10BD800600200038014030B50500E5
:1033900089B01422002103A803F0BFF92F4B2A683B
:1033A0009A4259D180202E4BC001996901439961FD
:1033B00080219A69890202400192019A5A699020FB
:1033C0000A435A615B69C0050B400293029B82234A
:1033D0001B020393022304930133069303A9023BC8
:1033E000079300F0CBFE1F4C1F4B8022236000236D
:1033F00020006360A360E26023616361A361E36115
:1034000000F0A2FC002801D0FFF742FB174B6C66CE
:103410006562174C80222360102363600023200024
:10342000A360E26023616361A361E36100F08CFC4F
:10343000002801D0FFF72CFB80230E4A9B00116867
:103440001B200B43136000222C661100656200F004
:10345000B9FB1B2000F0F0FB09B030BD0038014083
:10346000001002403C0600203000024044000240B0
:10347000F80500200000014010B5040001F0F4FB45
:10348000FA218900FCF74AFE00F0E8FB0120002247
:103490002100404200F096FB002010BD1023064A98
:1034A00010B5116800200B431360FFF7E5FFFFF72D
:1034B000F1FA002010BDC04600200240024A136805
:1034C000013313607047C046F0060020014B1868B6
:1034D0007047C046F006002037B50190FFF7F6FFB1
:1034E000019C0500631C5A1E9341E418FFF7EEFF90
:1034F000401BA042FAD337BD002373B503210193CB
:10350000036804009A680A40012A07D11968114229
:1035100001D0002076BDDA681204FAD49968194AFD
:10352000114208D010230120626C13436364A36C22
:103530000343A364EEE7012299680A439A60124BA1
:1035400012491868FCF7EAFD0190019B002B15D188
:10355000FFF7BCFF0125060023681B682B42D8D16A
:10356000FFF7B4FF801B0228F6D91023626C0120FC
:1035700013436364A36C2B43A364CBE7019B013B20
:103580000193E2E7170000804402002040420F0050
:10359000F8B504000120002C00D1F6E08F4B226822
:1035A0009A4204D074218E48FF31FFF772FA6368A3
:1035B0008C4A134208D080221206934204D0BA21CA
:1035C00087484900FFF765FA1823A2689A4304D098
:1035D00076218348FF31FFF75CFA2023E2689A43A3
:1035E00004D0BB217E484900FFF753FA2369013B11
:1035F000012B04D978217A48FF31FFF74AFA236A70
:10360000012B04D9BC2176484900FFF742FA636ACE
:10361000012B04D97A217248FF31FFF73AFA724B35
:10362000E26A1A4204D0BD216D484900FFF731FA21
:10363000A36A4022190091430AD0C02B08D0C222AD
:10364000FF32934204D07C216548FF31FFF721FA15
:10365000236B012B04D9BE2161484900FFF719FAF9
:1036600004226369043B934304D07E215C48FF310C
:10367000FFF70FFA636B012B04D9BF2158484900AB
:10368000FFF707FAA369012B04D980215448FF31C1
:10369000FFF7FFF9E369012B04D9C0215048490025
:1036A000FFF7F7F9636C002B06D122004032A364C8
:1036B00020001370FEF76EF8636CDB0600D579E02E
:1036C000042223689868104000D073E0626C474978
:1036D000114002220A43032162649A680A40012AC7
:1036E00000D06DE01968114202D1DA68120467D582
:1036F000DA683F49256A0A40DA60A2696F039103DC
:10370000E269D2031143626B013A561EB2411603BD
:10371000E268114322690F43022A00D10420226B80
:10372000616A52003A4332430243012904D1002D19
:103730002CD1802149020A43C220A16AFF30814274
:1037400002D0E06A01430A438020D9684005114352
:10375000D960A16B814202D0481E062807D80725F0
:1037600058692940A8435861586901435961DB6889
:1037700020490B409A4211D100200322A064636CBF
:1037800093431A00012313436364F8BD2020656C42
:1037900028436064A06C0143A164CDE71222636CEE
:1037A000012093431A00102313436364A36C034363
:1037B000A364EAE71023626C012013436364E4E727
:1037C0001821DA688A43A1680A43DA6019696268D5
:1037D00089008908114319618AE7C0460024014025
:1037E00093710008FFFFFFBFFFF3FFFFFDFEFFFF28
:1037F0001902FEFFE7FF3F83F7B5244B01920268F1
:1038000004000F009A4203D021492248FFF741F9F2
:10381000236802209B685B0730D42600403633784B
:10382000012B2BD001233370E369012B27D1636C6B
:10383000194A00251A4080235B0013436364E06B40
:10384000164BA56435708362154B2168C362154B16
:1038500003631C230B604A680C3B13434B6001233A
:10386000CA681343CB603A004031019B00F00EFB65
:1038700004232800226891680B439360FEBD20005A
:10388000FFF73AFE0028F9D1D1E7C04600240140F5
:10389000BC04000093710008FEF0FFFFAD38000883
:1038A0001F3900082D390008704700005022436A74
:1038B00010B5596C11422AD1596CB132FF320A430A
:1038C000C0215A641A680901D068084212D1196AE5
:1038D00000290FD1116809070CD5916849070DD44B
:1038E0000C205168814351605A6C0B4911400122F0
:1038F0000A435A641800FFF7D7FF10BD2022596C05
:103900000A435A640122996C0A439A64F2E7DB6B1A
:103910001B6B9847F1E7C046FEFEFFFF704710B5EE
:10392000406AFFF7FBFF10BD704770474023406AB5
:1039300010B5426C134343640423826C13438364C5
:10394000FFF7F3FF10BD0000424B026870B50400A2
:103950009A4203D040494148FFF79BF8236A012B64
:1039600003D93F493D48FFF794F804226369043BBB
:10397000934304D0AF213948C900FFF78AF80422E5
:1039800023681968114202D05968114206D10822F1
:103990001968114228D05968114225D0626CD206AC
:1039A00004D48022616C92000A436264C022D96808
:1039B0001201114212D1226A002A0FD11A6812078D
:1039C0000CD59A6852073CD40C215A688A435A6035
:1039D000636C244A1A400123134363642000FFF7F9
:1039E00063FF0C2223681A60802523681A682A4224
:1039F0000CD05B682B4209D08023626C5B021343BE
:103A000063642000FFF790FF23681D601022236885
:103A10001968114214D05968114211D0626B012A01
:103A200002D0DA68D20708D50222A16C20000A432E
:103A3000A26410221A60FFF778FF102223681A6030
:103A400070BD2023626C134363640123A26C134393
:103A5000A364C3E7002401407605000093710008C9
:103A600077050000FEFEFFFF0023F7B50268019313
:103A7000474B04000D009A4203D046494648FFF7E1
:103A800008F82B68112B03D944494348FFF701F884
:103A90006B68434A9B18012B03D942493E48FEF705
:103AA000F8FF8022A36B520593420CD0013B062BFA
:103AB00009D9AB68934206D0013B062B03D93A499A
:103AC0003548FEF7E6FF2600403633780220012B0A
:103AD0002AD0236801389A683070520752D433498B
:103AE0006F682A688F423BD09040996A0843986279
:103AF0008020A16B400581420FD0013906290CD9E5
:103B000007205C69A9680440A14206D05C690140B5
:103B100084435C615C69214359611300103B012BB4
:103B200003D9002000233370FEBD214B802118688B
:103B3000102A13D0C90301431960102AF1D11D4B7B
:103B40001D491868FCF7EAFA0A2358430190019BC3
:103B5000002BE6D0019B013B0193F8E70904EAE75B
:103B60009040996A814399621300103B012BD8D889
:103B70000F4B1968102A03D0104A0A401A60D0E788
:103B80000F4AFAE72023626C13436364CAE7C04616
:103B90000024014051060000937100085206000005
:103BA00000F0FFFF53060000570600000110000060
:103BB000082701404402002040420F00FFFFBFFFE2
:103BC000FFFF7FFF70B504000D00032903D99B217F
:103BD0001648FEF75EFFA901002C14DA0F23E4B2A9
:103BE0002340083B124A9B089B009B180322144069
:103BF0009440FC3215000A40A540A240D869A84371
:103C00000243DA6170BD0325A3082C40AC40FC35AB
:103C10002E00084A9B009B18C022A6402940A140C4
:103C200092009858B04301439950EBE7CB710008DC
:103C300000ED00E000E100E010B5041E03DAAB2166
:103C40000448FEF726FF1F231C401E3BA340024AE8
:103C5000136010BDCB71000800E100E0094A431E6B
:103C6000012093420DD8C021074A08485360036AD7
:103C700009061B021B0A0B43036200200723906006
:103C800013607047FFFFFF0010E000E000ED00E070
:103C900070B5041E02D10125280070BD274B0268B3
:103CA0009A4203D080212648FEF7F3FE637FDBB201
:103CB000002B03D123772000FDF7DEFD0223200037
:103CC000637700F03FF8051EE5D16379012B03D936
:103CD00099211B48FEF7DDFE62792368002A2AD16C
:103CE000013A1A61602362699A4303D0A5211448FE
:103CF000FEF7CFFE6021226893688B4361690B4316
:103D000093608023A2699A4303D0A9210C48FEF74F
:103D1000C0FE8021226893688B43A1690B439360A6
:103D2000236A013B022B03D9AE210548FEF7B1FE01
:103D300001236377B0E72269D3E7C0460030024031
:103D4000067200080020704770B504000120002CA6
:103D500000D181E02368414A93420FD0404A934208
:103D60000CD0404A934209D03F4A934206D03F4A82
:103D7000934203D0A5213E48FEF78BFE63681022D4
:103D80001900914307D08022D201934203D0A6218B
:103D90003748FEF77EFE4023A2689A4303D0A7214E
:103DA0003348FEF776FE8023E2689A4303D0A821C9
:103DB0002F48FEF76EFE23692E4A134207D0802259
:103DC0009200934203D0A9212948FEF762FE63695D
:103DD000294A134207D080221201934203D0AA211C
:103DE0002348FEF756FE2023A2699A4303D0AB2155
:103DF0001F48FEF74EFE214BE2691A4203D0AC2168
:103E00001B48FEF746FE02232068A51CEB770268DC
:103E10001B4BA1681A4063680B43E1680B4321699F
:103E20000B4361690B43A1690B43E1690B431343E6
:103E30000360144B1421C018FCF770F9124B80007A
:103E40002064E36300200123A062E06220636063DA
:103E5000A063E418EB77E07770BDC046080002402D
:103E60001C00024030000240440002405800024062
:103E70003E720008FFFEFFFFFFFBFFFFFFCFFFFFCB
:103E80000FC0FFFFF8FFFDBF00000240F8B51500AE
:103E90001F005A1E214B04000E009A4204D9AF2184
:103EA0001F484900FEF7F5FD631CDA7F0220012A56
:103EB00026D00122DA7722189446D27F0021D2B28E
:103EC000012A28D16346D8772368A1631968206C3A
:103ED000914382401960E16B4A6062685F602168CB
:103EE000102A0ED19D60DE60E26A1868002A0BD0AD
:103EF0000E2202431A60012300200A6813430B605C
:103F0000F8BD9E60DD60EFE70A22024304201A60DC
:103F10001A688243EEE7D977F2E7C046FEFF000059
:103F20003E72000870B5841CE37F022B04D004238A
:103F30008363033B180070BD0E210368056C1A688B
:103F40008A431A6001221968914319601100A9403F
:103F5000C36B5960E27700248318426BDC7713004F
:103F6000A242E7D090472300E4E7F8B504273E00DB
:103F7000016CC26B8E40156803681C682E420DD020
:103F80003C420BD01968890602D41968B9431960FC
:103F9000C36A5660002B19D0984717E002273E00ED
:103FA0008E402E4213D03C4211D01968890606D4A7
:103FB0000A241968A14319600121C319D9775660F1
:103FC0000022431CDA77836A9342E5D1F8BD0826C4
:103FD00037008F403D42F9D03442F7D00E251C689F
:103FE000AC431C6001231C008C405460821C836322
:103FF000D3770022C318DA77036BE5E710210C4B67
:1040000030B5D8680022084205D00A480232C46997
:104010002243C2610A000420D968014205D001216F
:10402000044C0243E5692943E161DA6030BDC046D2
:1040300000200240F806002070477047F8B5434D55
:10404000434CEB68DB0602D4EB685B070AD501231F
:10405000A6685B42A360FFF7D1FF3000FFF7EDFFDA
:10406000002323702023EA681A421AD0EB602378D9
:10407000002B16D02378012B28D16368013B6360A5
:104080006368002B1BD0A068FFF7D6FF80230222B5
:10409000A068DB00C018A0602B6993432B6100F07F
:1040A0005BF82378DBB2002B08D107212A698A4309
:1040B0002A612A6927490A402A612376F8BD01202E
:1040C0004042A0602370FFF7B7FFEAE72378022B96
:1040D00009D104222B69002093432B61FFF7ACFF29
:1040E00000232370DDE76368013B63606368002B96
:1040F00019D0A3680233A360A668206961690B0C1C
:104100000F040121020C3A43226163612B698B4346
:104110002B61226963690023E3612B6992B2194321
:1041200029613280BDE72378032B06D1A068FFF711
:1041300083FF01235B42A360D2E72378A068042BAE
:1041400001D10238F3E70638F1E7C046002002400B
:10415000F8060020FFEBFFFF0022064BDA61064B5A
:10416000023219690A431A614022586119690A43E7
:104170001A617047F8060020002002409023F0B535
:10418000DB0587B004000D0098420FD07B4B9842AE
:104190000CD07B4B984209D07A4B984206D07A4B90
:1041A000984203D0C1217948FEF773FC2B689AB27C
:1041B000002A01D01B0C03D0C2217448FEF769FC11
:1041C0006B68032B12D91A00113A012A0ED9704AD2
:1041D00070491A40521870490A4207D06F4A9B181A
:1041E0000B4203D0C3216948FEF753FCAB68022B96
:1041F00003D9C4216548FEF74CFC002301932B68CA
:1042000001991A00CA4001D107B0F0BD01220199FD
:104210008A4003921A40029200D1ABE010226B68F0
:104220009343022B22D19023DB059C4206D0534BB3
:104230009C4203D0D3215548FEF72BFC2B69062B5B
:1042400003D9D4215148FEF724FC07220198019B91
:1042500002400F2092009040DB089B00E318196A8F
:1042600081432869904002000A431A62019B6A68F0
:104270005F0003231E00BE401340F643BB4021688D
:1042800031400B43236010239A43013A012A19D885
:10429000EB68012B05D9032B03D0E8213B48FEF73F
:1042A000F8FBEB680121BB40A26832401343A360D6
:1042B0006268039B9A436B681B090B4001998B4012
:1042C00013436360E36869683340AE68BE401E43D1
:1042D000E660CB004ED5012003260F27304B9A69AC
:1042E00002439A619B690340019805933040800026
:1042F0008740059B019B9A082A4B9200D21893682D
:10430000BB4390279C46FF050023BC420CD01B4FAB
:104310000133BC4208D01A4F0133BC4204D0194FBC
:104320009B19BC4200D13300834060460343936035
:104330001D4A029B1668D8433343CF0301D4330090
:10434000034013605668029B33438F0301D433004C
:10435000034053609668029B3343CF0201D433007D
:1043600003409360D668029B3343890201D4330033
:104370000340D360019B013340E7C046000400487E
:1043800000080048000C004800140048767200083D
:10439000FFFFDFFF0000EFEFFFFFFEFF0000DFEF9A
:1043A00000100240000001400004014070B505000B
:1043B0000C1E04D18E210548FF31FEF76AFB2869E7
:1043C0002040431E9841C0B270BDC04676720008BE
:1043D00070B505000C001600002904D1D62108484C
:1043E0004900FEF756FB012E06D9AE210448FF31E5
:1043F000FEF74FFBAC6170BD002EFBD1AC62FAE75B
:104400007672000870B505000C1E04D1E121044845
:104410004900FEF73EFB6B695C406C6170BDC046B5
:10442000767200080200114B13B51A4004009A423C
:1044300008D0DF231B04184209D102000C4B1A409C
:104440009A4204D094210B484900FEF722FB012038
:10445000094A916901439161936903400193019B6A
:10446000064B1A6814431C6013BDC0460000AAAA7C
:104470000002AAAAAF72000800100240000001402A
:1044800070B504000120002C32D01F4B22689A42E4
:1044900003D0B5211D48FEF7FCFA6368062B03D94B
:1044A000B6211A48FEF7F5FA194DA368AB4203D9B5
:1044B000B7211648FEF7EDFAE368AB4203D9B821FD
:1044C0001248FEF7E6FA2368124A1A60124A1A6086
:1044D00062685A60A2689A60FEF7F8FF05002368D8
:1044E000D868002805D11969E268914208D01A619C
:1044F00070BDFEF7EBFF401B2728F0D90320F7E73C
:10450000064A1A60F4E7C04600300040EA7200082C
:10451000FF0F0000CCCC000055550000AAAA0000F7
:104520000368024A00201A607047C046AAAA000029
:10453000F0B5040085B0002804D18921B8484900AD
:10454000FEF7A7FA2368002B06D0DB0604D114215E
:10455000B348FF31FEF79DFA2368DB0748D4236890
:104560009B0700D5A5E023681B0700D5F0E0236872
:104570005B0700D51BE12368DB062BD56369012BA4
:1045800006D9053304D08021A5488900FEF781FAB9
:10459000A3691F2B03D9A349A148FEF77AFA6269E0
:1045A000A14D0423012A00D08DE1696B02260B4343
:1045B0006B636B6B1A436A63FEF788FF07006B6BD4
:1045C000334200D178E1F8216A6BA3698A43DB00AA
:1045D00013436B63236A022B04D99D219048890001
:1045E000FEF757FA226A002A00D087E100201DE07A
:1045F0006368012B06D9052B04D01A218848FF31A6
:10460000FEF747FA0C21884D6A680A40042A06D052
:104610006B680B40082B0BD16B68DB0308D52B684C
:104620009B039CD56368002B99D1012005B0F0BD98
:104630006368012B14D180232A685B0213432B602B
:10464000FEF744FF80260700B6022B68334200D0F5
:1046500085E7FEF73BFFC01B6428F6D90320E5E79A
:10466000002B16D12B68714A802613402B602B68D3
:104670006F4AB60213402B60FEF728FF07002B6835
:10468000334200D16BE7FEF721FFC01B6428F6D947
:10469000E4E7052B05D180232A68DB0213432B6056
:1046A000C9E72B68614A13402B602B68604A1340AE
:1046B000C5E7E368012B04D94E215948FF31FEF7C5
:1046C000E8F923691F2B04D9A72155484900FEF7B3
:1046D000E0F90C22544D6B68134206D06B6813400E
:1046E000082B10D16B68DB030DD42B689B0702D518
:1046F000E368012B99D1F8212A6823698A43DB00FA
:1047000013432B602FE7E2680123002A0FD02A68A9
:10471000022613432B60FEF7D9FE07002B683342B5
:10472000E9D1FEF7D3FEC01B0228F7D996E72A6825
:1047300002269A432A60FEF7C9FE07002B6833421F
:1047400000D110E7FEF7C2FEC01B0228F6D985E7AC
:10475000E369012B04D9C72131484900FEF799F9D3
:10476000E2690123304D002A10D06A6A0226134301
:104770006B62FEF7ABFE07006B6A334200D0F6E6D1
:10478000FEF7A4FEC01B0228F6D967E76A6A022674
:104790009A436A62FEF79AFE07006B6A334200D1C1
:1047A000E5E6FEF793FEC01B0228F6D956E7A3689C
:1047B000012B06D9052B04D0DD2119484900FEF74D
:1047C00068F980220021184D5205EB6900911342CF
:1047D00008D1EB691343EB61EB6913400393039B2F
:1047E000012300938027134E7F0033683B4206D09D
:1047F000A368012B20D12A6A13432B623DE0336862
:104800003B433360FEF762FE019033683B42EFD1D9
:10481000FEF75CFE019BC01A6428F6D91EE7C0466D
:10482000237300080102000000100240FFFFFEFF9A
:10483000FFFFFBFF007000400122002B14D12B6A08
:10484000022793432B622B6A033293432B62FEF7BA
:104850003DFE06002B6A3B4225D0FEF737FE644B37
:10486000801B9842F6D9F9E6052B0BD1296A013B4A
:104870000B432B622B6A1A432A62FEF727FE02279C
:1048800006000DE02B6A934304222B622B6A9343AC
:10489000B3E7FEF71BFE564B801B984200D9DDE6BE
:1048A0002B6A3B42F5D0009B012B00D063E6EB69FD
:1048B000504A1340EB615EE6FEF708FEC01B02287B
:1048C00000D87CE6CAE6053203D16A6B9A436A6374
:1048D00079E66A6B0226134301226B636B6B934389
:1048E0006B63FEF7F3FD07006B6B334200D171E69B
:1048F000FEF7ECFDC01B0228F6D9AFE60C213E4DB9
:1049000001206B680B40082B00D18FE63B4E022A3A
:104910005BD13B4B626A1A4203D03A493A48FEF7F0
:10492000B8F8A26A39493A4B1140134013D080209D
:10493000400383420FD08020800383420BD0C023EA
:104940009B03994207D0E0239B039A4203D031494D
:104950002D48FEF79EF8E36A0F2B03D92E492A480B
:10496000FEF797F82B681E402E60FEF7AFFD8026FD
:104970000700B6042B68334221D10F22EB6A934320
:10498000E26A1343EB62616AA36A6A680B432349D4
:1049900080240A4013436B6080232A685B0413431E
:1049A0002B60FEF793FD0600A4042B68234200D081
:1049B0001CE6FEF78BFD801B0228F6D94EE6FEF7BB
:1049C00085FDC01B0228D5D948E62B6880241E40EF
:1049D0002E60FEF77BFD0600A4042B68234200D165
:1049E00004E6FEF773FD801B0228F6D936E6C046C2
:1049F00088130000FFFFFFEF00100240FFFFFFFEE3
:104A0000FFFFFEFF7D02000023730008FFFFFBFF96
:104A1000FFFFF3FF7E0200007F020000FFFFC2FFE6
:104A200070B5144C88B010222100684601F06CFE6D
:104A3000210004AD10221031280001F065FE0C2287
:104A40000D4E73681A40082A11D10F206A46990C3E
:104A50000140545CF26A0240A95CDB0305D50748BB
:104A6000FBF75CFB604308B070BD0548FAE70348FC
:104A7000F9E7C046C06F00080010024000127A003B
:104A800000093D00F7B504000F00002803D1684974
:104A90006848FDF7FEFF23685B0703D16649654858
:104AA000FDF7F7FF012F04D9B72162488900FDF710
:104AB000F0FF0122614D2B6813409F421FD82368ED
:104AC0009B0726D42368DB0745D401232A681A40B4
:104AD000974200D28AE02368594D5B0700D58DE0EC
:104AE000FFF79EFF6B68574A1B061B0FD35CD8402D
:104AF000554B18600020FEF7BFFC002008E02B6833
:104B000093433B432B602B6813409F42D7D0012037
:104B1000FEBDA36880221900914314D02022190001
:104B2000914390290FD0402219009143A0290AD027
:104B3000102219009143C02905D0F02B03D043491E
:104B40003C48FDF7A6FFF0213D4A53688B43A1681E
:104B50000B435360B6E76368022B03D93C493548E1
:104B6000FDF797FF364E62683368012A1AD19B031E
:104B7000CDD5032173688B4313437360FEF7A6FC06
:104B800063680190012B15D10C2273681340042B2C
:104B90009BD0FEF79BFC019BC01A2E4B9842F3D989
:104BA0000320B5E7022A02D19B01E2D4AFE79B07BD
:104BB000DFD4ACE7022B13D00C227368134200D170
:104BC00083E7FEF783FC019BC01A224B9842F3D97E
:104BD000E6E7FEF77BFC019BC01A1E4B9842DFD82C
:104BE0000C2273681340082BF3D16EE72A689A43AE
:104BF0002A602A681A4200D089E76CE7E368164AFF
:104C000013420DD0A021154AC9001A408A4207D08C
:104C1000C022D200934203D011490648FDF739FF64
:104C20006B68104A1340E26813436B6058E7C04654
:104C3000DA02000023730008DB02000000200240BB
:104C4000001002407B71000844020020F3020000C3
:104C5000FA02000088130000FFFBFFFFFFFDFFFFCB
:104C600063030000FFF8FFFF014B18687047C04660
:104C700044020020044B054A5B685B055B0FD35C74
:104C8000034A1068D8407047001002408B7100083A
:104C900044020020F0B54C4B026885B005009A42F2
:104CA00003D97E214948FDF7F4FE2B68DB0330D59C
:104CB0006B68474A134203D084214448FDF7E9FE5C
:104CC00080220021434C5205E3690091134208D130
:104CD000E3691343E361E36913400393039B0123F7
:104CE000009380273C4E7F0033683B4238D0C0227F
:104CF000236A9200134045D1236A354A13406A68FB
:104D000013432362009B012B03D1E369334A134011
:104D1000E3612B68DB070DD5AB68032B03D9CB21EF
:104D20002A48FDF7B6FE03212A4A136B8B43A96874
:104D30000B4313632B6800209B0621D51023EA68E0
:104D40009A43824203D0EF212048FDF7A2FE1021B2
:104D5000204A0020136B8B43E9680B4313630FE079
:104D600033683B433360FEF7B1FB019033683B424D
:104D7000BDD1FEF7ABFB019BC01A6428F6D9032016
:104D800005B0F0BD69680A409342B5D08023226A1D
:104D9000206A5B0203432362236A0D4910481140D5
:104DA000034023622162D307A6D5FEF78FFB0227BB
:104DB0000600236A3B429FD1FEF788FB094B801B0C
:104DC0009842F6D9DBE7C046210001005B7300087A
:104DD000FFFCFFFF0010024000700040FFFFFFEFEC
:104DE000FFFFFEFF88130000F7B50122036A0400ED
:104DF00093430362056A47688369723293430A6882
:104E00000E001A4302239D438B6801921D431E4BE3
:104E1000984205D01D4B984202D01D4B98422CD190
:104E20000823F2689A4303D01A491B48FDF731FE64
:104E300008239D43F3681D4304239D43124B9C426A
:104E400005D0124B9C4202D0114B9C4215D1134B02
:104E5000B2691A4203D012490F48FDF71AFE114BEE
:104E600072691A4203D010490B48FDF712FE0F4B2E
:104E7000B2691F40736913431F43019B6760A361BD
:104E8000736863632562F7BD002C01400044014054
:104E9000004801409012000096730008FFFDFFFFDC
:104EA0009D120000FFFEFFFF9E120000FFFCFFFFAF
:104EB000F0B50F007321036A254A85B013400362E1
:104EC000046A4668C36905008B4339680292194336
:104ED0000191BB681F491B020C401C431E4B0391F0
:104EE000984226D10823FA689A4303D01B491C48EC
:104EF000FDF7CFFD1B4BFA68234014021C431A4BED
:104F00001C40BB69039A134203D018491448FDF7AB
:104F1000C0FD7B69029A134203D015491048FDF782
:104F2000B8FD144B7A693340BE69164336011E43FF
:104F300005E0114B9842E4D0104B9D42E1D0019B1B
:104F40006E60EB617B68EB632C6205B0F0BDC04620
:104F5000FFFEFFFFFFFDFFFF002C014025130000B7
:104F600096730008FFF7FFFFFFFBFFFF32130000FF
:104F700033130000FFCFFFFF004401400048014011
:104F8000F7B5036A174A040013400362036A164A1E
:104F90004568C7690E0017400A6812021743134A92
:104FA00013408A6812031A43114B0192984205D0AC
:104FB000104B984202D0104B98420CD10F4B7269A3
:104FC0001A4203D00E490F48FDF763FD0E4B1D40FA
:104FD00073699B011D4373686560E7612364019BEE
:104FE0002362F7BDFFEFFFFFFF8CFFFFFFDFFFFF37
:104FF000002C01400044014000480140FFFEFFFF3B
:105000007013000096730008FFBFFFFF0368114A8A
:1050100010B50400934210D00F4A93420DD00F4AAE
:1050200093420AD00E4A934207D00E4A934204D0CC
:1050300098210D484900FDF72CFD22000223012193
:1050400020683D32137003680B4303600020117029
:1050500010BDC046002C014000040040002000406C
:105060000044014000480140967300080368104A5C
:1050700010B50400934210D00E4A93420DD00E4A50
:1050800093420AD00D4A934207D00D4A934204D06E
:10509000AF210C484900FDF7FCFC012223680020E9
:1050A000D9681143D96019680A431A6010BDC04617
:1050B000002C01400004004000200040004401405A
:1050C000004801409673000870477047704770476A
:1050D0007047704770470222036810B519690400D1
:1050E00011420ED0D96811420BD0053A1A619B6962
:1050F000043202779B0700D179E0FFF7E9FF002334
:105100002377042223681969114210D0D96811420B
:105110000DD0093A1A61073222779A69C0239B00A1
:1051200020001A4269D0FFF7D3FF0023237708221B
:105130002368196911420ED0D96811420BD0113A77
:105140001A61DB690D32227720009B075BD0FFF7E5
:10515000BFFF00232377102223681969114210D062
:10516000D96811420DD0213A1A6119322277DA69D1
:10517000C0239B0020001A424BD0FFF7A9FF002359
:105180002377012223681969114207D0D968114297
:1051900004D0033A1A612000FFF798FF80222368A9
:1051A0001969114208D0D968114205D0023AFF3A74
:1051B0001A61200000F087FE40222368196911421D
:1051C00007D0D968114204D0813A1A612000FFF754
:1051D00081FF202223681969114207D0D968114242
:1051E00004D0413A1A61200000F06CFE10BDFFF7B8
:1051F0006EFF2000FFF76DFF81E7FFF768FF2000DB
:10520000FFF767FF91E7FFF762FF2000FFF761FFFD
:105210009FE7FFF75CFF2000FFF75BFFAFE70000B1
:10522000194A10B50368904202D0184CA04208D128
:105230007024A3434C68234390420BD0134CA042EC
:1052400008D0134CA04205D0124CA04202D0124C00
:10525000A04203D1114C2340CC6823438024A343B4
:105260004C69234303608B68C3620B68836290427E
:1052700005D0084B984202D0074B984201D10B69E8
:1052800003630123436110BD002C01400004004072
:10529000002000400044014000480140FFFCFFFFA7
:1052A00070B504000120002C4CD02368264A93429C
:1052B0000FD0264A93420CD0254A934209D0254A62
:1052C000934206D0244A934203D0D4212348FDF7C9
:1052D000E0FBA3681022190091430AD04022190074
:1052E0009143202905D0402B03D0D5211B48FDF741
:1052F000D0FB23691A4A134207D0802292009342BE
:1053000003D0D6211548FDF7C4FB8023A2699A4338
:1053100003D0D7211148FDF7BCFB25003D352B7884
:10532000DBB2002B05D122003C3213702000FDF7C8
:1053300079FE022320682B70211DFFF771FF0123E6
:1053400000202B7070BDC046002C014000040040BE
:1053500000200040004401400048014096730008CE
:10536000FFFEFFFF70B504000120002C50D0236821
:10537000284A934210D0284A93420DD0274A93429C
:105380000AD0274A934207D0264A934204D0F521F7
:1053900025484900FDF77DFBA368102219009143C1
:1053A0000BD0402219009143202906D0402B04D075
:1053B000EC211D48FF31FDF76CFB23691B4A1342AA
:1053C00008D080229200934204D0F621164849006A
:1053D000FDF75FFB8023A2699A4304D0EE211248B7
:1053E000FF31FDF756FB25003D352B78DBB2002B56
:1053F00005D122003C3213702000FFF765FE022326
:1054000020682B70211DFFF70BFF012300202B705C
:1054100070BDC046002C0140000400400020004048
:10542000004401400048014096730008FFFEFFFF62
:1054300070B504000120002C4DD02368264A934209
:105440000FD0264A93420CD0254A934209D0254AD0
:10545000934206D0244A934203D024492448FDF7BE
:1054600018FBA3681022190091430AD040221900AA
:105470009143202905D0402B03D01E491C48FDF73D
:1054800008FB23691C4A134207D0802292009342F2
:1054900003D01A491648FDF7FCFA8023A2699A4303
:1054A00004D0FA2112488900FDF7F3FA25003D35B2
:1054B0002B78DBB2002B05D122003C321370200088
:1054C000FFF703FE022320682B70211DFFF7A8FEC3
:1054D000012300202B7070BD002C0140000400400F
:1054E000002000400044014000480140E503000066
:1054F00096730008E6030000FFFEFFFFE7030000CD
:10550000F7B51022036A040093430362066A234A34
:10551000456883690F0013400A6812021A4320236A
:105520009E438B6801921B011E431D4B984227D15D
:105530000823CA689A4303D01A491B48FDF7A9FA01
:1055400080239E433300FA6816011E4340239E4386
:10555000164BBA691A4203D015491348FDF799FA58
:10556000144B7A691A4203D013490F48FDF791FA98
:10557000124B7A692B40BD691543AD001D4305E010
:105580000F4B9842E4D00F4B9C42E1D0019B6560E9
:10559000A3617B68A3632662F7BDC046FF8CFFFF53
:1055A000002C0140DA12000096730008FFFDFFFF97
:1055B000E8120000FFFEFFFFE9120000FFF3FFFF0B
:1055C0000044014000480140F7B504000D001600FA
:1055D000182A03D8424BD340DB0703D44149424841
:1055E000FDF757FA2B681022190091430A00302169
:1055F0008B4305D0402A03D03C493B48FDF749FA8C
:105600000223AA689A4303D039493748FDF741FA83
:10561000270002233C373A781800012A2ED00122B5
:105620003A7022003D32019213700C2E21D83000C6
:10563000FAF76AFD071F1F1F251F1F1F351F1F1F9A
:10564000450023682B4A93420FD02B4A93420CD03B
:105650002A4A934209D02A4A934206D0294A9342C1
:1056600003D029492048FDF714FA29002068FFF7E4
:10567000BBFB01230020019A13703870FEBD236824
:105680001C4A934206D01C4A934203D01F49164835
:10569000FDF7FFF929002068FFF732FFE9E72368EB
:1056A000144A934206D0144A934203D018490E4834
:1056B000FDF7EFF929002068FFF7FAFBD9E7236827
:1056C0000C4A934206D00C4A934203D01149064833
:1056D000FDF7DFF929002068FFF752FCC9E7C04653
:1056E00011110001770B000096730008780B000081
:1056F000790B0000002C0140000400400020004015
:105700000044014000480140840B00008C0B000065
:10571000940B00009C0B0000F7B507003C373B786A
:1057200004000D0016000220012B61D001233B7004
:10573000182A03D85A4AF240934303D059495A4889
:10574000FDF7A7F910232A689A43602A03D0574926
:105750005548FDF79EF90223AA689A4304D0C22156
:1057600051480901FDF795F904232A699A4303D0AA
:105770004F494D48FDF78DF923003D330193022336
:10578000019A13700C2E2ED83000FAF7BDFC072CAE
:105790002C2C322C2C2C4F2C2C2C6C002368454AA2
:1057A00093420FD0444A93420CD0444A934209D0CA
:1057B000434A934206D0434A934203D042493A486F
:1057C000FDF767F929002068FFF70EFB0822236820
:1057D00099690A4304219A619A698A439A619A698C
:1057E00029690A439A6101230020019A13703870D5
:1057F000FEBD23682F4A934206D02F4A934203D01E
:1058000032492948FDF745F929002068FFF778FE5D
:1058100080222368120199690A439A619A692C4986
:105820000A409A612A6999691202DAE72368214AD3
:10583000934206D0204A934203D026491A48FDF7E6
:1058400028F929002068FFF733FB08222368D9696B
:105850000A430421DA61DA698A43DA61DA6929697B
:105860000A43DA61BFE72368124A934206D0124A1C
:10587000934203D018490C48FDF70BF92900206822
:10588000FFF77EFB802223681201D9690A43DA619F
:10589000DA690F490A40DA612A69D9691202DFE739
:1058A000111100011E0C0000967300081F0C00006F
:1058B000210C0000002C01400004004000200040AA
:1058C0000044014000480140290C0000380C000051
:1058D000FFFBFFFF470C0000560C000030B584684A
:1058E000034D0A431B022C4013432343836030BD06
:1058F000FF00FFFFF8B5060002233C3632780500B2
:105900000C001800012A28D02F0001223D373270E8
:10591000A04A3B700B6899189F4A114208D0302268
:10592000934305D0402B03D09C499D48FDF7B1F827
:105930002B689C499A680A409A602268402A00D1E4
:105940005CE121D8102A00D1A3E107D8002A00D1B8
:105950008CE1012300203B703070F8BD202A00D17B
:10596000A8E1302AF5D1904A934206D08F4A93425B
:1059700003D08F498A48FDF78CF8702229688B681C
:1059800093431A00372381E1702A00D193E03DD878
:10599000502A00D1C2E0602ADBD1834A934206D06C
:1059A000824A934203D083497D48FDF772F88022F2
:1059B00063681202934209D002221900914305D074
:1059C0000A2B03D07C497648FDF763F8E3680F2B78
:1059D00003D97A497248FDF75CF86268E1681024DF
:1059E0002B68774D186A0903A04318629C69186AEE
:1059F0002C402143A02499617021A043120102434D
:105A00001A629A688A4311006722BFE08021490127
:105A10008A4237D0802189018A429AD1624A9342D0
:105A200006D0624A934203D066495D48FDF731F8DB
:105A3000654BA2681A4203D064495948FDF729F81A
:105A400080226368120293420AD002221900914315
:105A500006D00A2B04D0FF2151480901FDF719F89F
:105A6000E3680F2B03D95A494D48FDF712F8E36854
:105A70006268A1682868FFF731FF80232A68DB018C
:105A8000916849E0484A93420FD0484A93420CD06B
:105A9000504A934209D0504A934206D04F4A93420B
:105AA00003D04F493E48FCF7F4FF07212A6893686A
:105AB0008B4393604DE73C4A934206D03B4A934266
:105AC00003D048493648FCF7E4FF3F4BA2681A422E
:105AD00003D045493248FCF7DCFF8022636812029C
